{
  "_format": "hh-sol-artifact-1",
  "contractName": "MockSemaphoreVerifier",
  "sourceName": "contracts/MockSemaphoreVerifier.sol",
  "abi": [
    {
      "inputs": [
        {
          "internalType": "uint256",
          "name": "_expectedGroupId",
          "type": "uint256"
        },
        {
          "internalType": "uint256",
          "name": "_validMessage",
          "type": "uint256"
        }
      ],
      "stateMutability": "nonpayable",
      "type": "constructor"
    },
    {
      "inputs": [],
      "name": "expectedGroupId",
      "outputs": [
        {
          "internalType": "uint256",
          "name": "",
          "type": "uint256"
        }
      ],
      "stateMutability": "view",
      "type": "function"
    },
    {
      "inputs": [],
      "name": "validMessage",
      "outputs": [
        {
          "internalType": "uint256",
          "name": "",
          "type": "uint256"
        }
      ],
      "stateMutability": "view",
      "type": "function"
    },
    {
      "inputs": [
        {
          "internalType": "uint256",
          "name": "groupId",
          "type": "uint256"
        },
        {
          "components": [
            {
              "internalType": "uint256",
              "name": "merkleTreeDepth",
              "type": "uint256"
            },
            {
              "internalType": "uint256",
              "name": "merkleTreeRoot",
              "type": "uint256"
            },
            {
              "internalType": "uint256",
              "name": "nullifier",
              "type": "uint256"
            },
            {
              "internalType": "uint256",
              "name": "message",
              "type": "uint256"
            },
            {
              "internalType": "uint256",
              "name": "scope",
              "type": "uint256"
            },
            {
              "internalType": "uint256[8]",
              "name": "points",
              "type": "uint256[8]"
            }
          ],
          "internalType": "struct MockSemaphoreVerifier.SemaphoreProof",
          "name": "proof",
          "type": "tuple"
        }
      ],
      "name": "verifyProof",
      "outputs": [
        {
          "internalType": "bool",
          "name": "",
          "type": "bool"
        }
      ],
      "stateMutability": "view",
      "type": "function"
    }
  ],
  "bytecode": "0x60c060405234801561001057600080fd5b5060405161039d38038061039d83398181016040528101906100329190610084565b81608081815250508060a0818152505050506100c4565b600080fd5b6000819050919050565b6100618161004e565b811461006c57600080fd5b50565b60008151905061007e81610058565b92915050565b6000806040838503121561009b5761009a610049565b5b60006100a98582860161006f565b92505060206100ba8582860161006f565b9150509250929050565b60805160a0516102a86100f56000396000818160fb015261012b01526000818160b6015261014f01526102a86000f3fe608060405234801561001057600080fd5b50600436106100415760003560e01c8063456f4188146100465780635c2dbf3814610076578063f827ceeb14610094575b600080fd5b610060600480360381019061005b91906101d1565b6100b2565b60405161006d919061022d565b60405180910390f35b61007e610129565b60405161008b9190610257565b60405180910390f35b61009c61014d565b6040516100a99190610257565b60405180910390f35b60007f000000000000000000000000000000000000000000000000000000000000000083146100e45760009050610123565b60008260400135036100f95760009050610123565b7f000000000000000000000000000000000000000000000000000000000000000082606001351490505b92915050565b7f000000000000000000000000000000000000000000000000000000000000000081565b7f000000000000000000000000000000000000000000000000000000000000000081565b600080fd5b6000819050919050565b61018981610176565b811461019457600080fd5b50565b6000813590506101a681610180565b92915050565b600080fd5b60006101a082840312156101c8576101c76101ac565b5b81905092915050565b6000806101c083850312156101e9576101e8610171565b5b60006101f785828601610197565b9250506020610208858286016101b1565b9150509250929050565b60008115159050919050565b61022781610212565b82525050565b6000602082019050610242600083018461021e565b92915050565b61025181610176565b82525050565b600060208201905061026c6000830184610248565b9291505056fea26469706673582212207607c60f314ec40b04b447112838d793eab566a62d0f267ee93d230af232764964736f6c63430008140033",
  "linkReferences": {},
  "deployedLinkReferences": {}
}