{
  "_format": "hh-sol-artifact-1",
  "contractName": "SupporterNFT",
  "sourceName": "contracts/SupporterNFT.sol",
  "abi": [
    {
      "inputs": [
        {
          "internalType": "string",
          "name": "name_",
          "type": "string"
        },
        {
          "internalType": "string",
          "name": "symbol_",
          "type": "string"
        }
      ],
      "stateMutability": "nonpayable",
      "type": "constructor"
    },
    {
      "inputs": [
        {
          "internalType": "address",
          "name": "sender",
          "type": "address"
        },
        {
          "internalType": "uint256",
          "name": "tokenId",
          "type": "uint256"
        },
        {
          "internalType": "address",
          "name": "owner",
          "type": "address"
        }
      ],
      "name": "ERC721IncorrectOwner",
      "type": "error"
    },
    {
      "inputs": [
        {
          "internalType": "address",
          "name": "operator",
          "type": "address"
        },
        {
          "internalType": "uint256",
          "name": "tokenId",
          "type": "uint256"
        }
      ],
      "name": "ERC721InsufficientApproval",
      "type": "error"
    },
    {
      "inputs": [
        {
          "internalType": "address",
          "name": "approver",
          "type": "address"
        }
      ],
      "name": "ERC721InvalidApprover",
      "type": "error"
    },
    {
      "inputs": [
        {
          "internalType": "address",
          "name": "operator",
          "type": "address"
        }
      ],
      "name": "ERC721InvalidOperator",
      "type": "error"
    },
    {
      "inputs": [
        {
          "internalType": "address",
          "name": "owner",
          "type": "address"
        }
      ],
      "name": "ERC721InvalidOwner",
      "type": "error"
    },
    {
      "inputs": [
        {
          "internalType": "address",
          "name": "receiver",
          "type": "address"
        }
      ],
      "name": "ERC721InvalidReceiver",
      "type": "error"
    },
    {
      "inputs": [
        {
          "internalType": "address",
          "name": "sender",
          "type": "address"
        }
      ],
      "name": "ERC721InvalidSender",
      "type": "error"
    },
    {
      "inputs": [
        {
          "internalType": "uint256",
          "name": "tokenId",
          "type": "uint256"
        }
      ],
      "name": "ERC721NonexistentToken",
      "type": "error"
    },
    {
      "inputs": [
        {
          "internalType": "address",
          "name": "owner",
          "type": "address"
        }
      ],
      "name": "OwnableInvalidOwner",
      "type": "error"
    },
    {
      "inputs": [
        {
          "internalType": "address",
          "name": "account",
          "type": "address"
        }
      ],
      "name": "OwnableUnauthorizedAccount",
      "type": "error"
    },
    {
      "anonymous": false,
      "inputs": [
        {
          "indexed": true,
          "internalType": "address",
          "name": "owner",
          "type": "address"
        },
        {
          "indexed": true,
          "internalType": "address",
          "name": "approved",
          "type": "address"
        },
        {
          "indexed": true,
          "internalType": "uint256",
          "name": "tokenId",
          "type": "uint256"
        }
      ],
      "name": "Approval",
      "type": "event"
    },
    {
      "anonymous": false,
      "inputs": [
        {
          "indexed": true,
          "internalType": "address",
          "name": "owner",
          "type": "address"
        },
        {
          "indexed": true,
          "internalType": "address",
          "name": "operator",
          "type": "address"
        },
        {
          "indexed": false,
          "internalType": "bool",
          "name": "approved",
          "type": "bool"
        }
      ],
      "name": "ApprovalForAll",
      "type": "event"
    },
    {
      "anonymous": false,
      "inputs": [
        {
          "indexed": false,
          "internalType": "uint256",
          "name": "_fromTokenId",
          "type": "uint256"
        },
        {
          "indexed": false,
          "internalType": "uint256",
          "name": "_toTokenId",
          "type": "uint256"
        }
      ],
      "name": "BatchMetadataUpdate",
      "type": "event"
    },
    {
      "anonymous": false,
      "inputs": [
        {
          "indexed": false,
          "internalType": "uint256",
          "name": "_tokenId",
          "type": "uint256"
        }
      ],
      "name": "MetadataUpdate",
      "type": "event"
    },
    {
      "anonymous": false,
      "inputs": [
        {
          "indexed": true,
          "internalType": "address",
          "name": "contributor",
          "type": "address"
        },
        {
          "indexed": true,
          "internalType": "uint256",
          "name": "tokenId",
          "type": "uint256"
        },
        {
          "indexed": false,
          "internalType": "enum SupporterNFT.Level",
          "name": "level",
          "type": "uint8"
        }
      ],
      "name": "NFTMinted",
      "type": "event"
    },
    {
      "anonymous": false,
      "inputs": [
        {
          "indexed": true,
          "internalType": "address",
          "name": "previousOwner",
          "type": "address"
        },
        {
          "indexed": true,
          "internalType": "address",
          "name": "newOwner",
          "type": "address"
        }
      ],
      "name": "OwnershipTransferred",
      "type": "event"
    },
    {
      "anonymous": false,
      "inputs": [
        {
          "indexed": true,
          "internalType": "address",
          "name": "from",
          "type": "address"
        },
        {
          "indexed": true,
          "internalType": "address",
          "name": "to",
          "type": "address"
        },
        {
          "indexed": true,
          "internalType": "uint256",
          "name": "tokenId",
          "type": "uint256"
        }
      ],
      "name": "Transfer",
      "type": "event"
    },
    {
      "inputs": [],
      "name": "BRONZE_THRESHOLD",
      "outputs": [
        {
          "internalType": "uint256",
          "name": "",
          "type": "uint256"
        }
      ],
      "stateMutability": "view",
      "type": "function"
    },
    {
      "inputs": [],
      "name": "GOLD_THRESHOLD",
      "outputs": [
        {
          "internalType": "uint256",
          "name": "",
          "type": "uint256"
        }
      ],
      "stateMutability": "view",
      "type": "function"
    },
    {
      "inputs": [],
      "name": "SILVER_THRESHOLD",
      "outputs": [
        {
          "internalType": "uint256",
          "name": "",
          "type": "uint256"
        }
      ],
      "stateMutability": "view",
      "type": "function"
    },
    {
      "inputs": [
        {
          "internalType": "address",
          "name": "to",
          "type": "address"
        },
        {
          "internalType": "uint256",
          "name": "tokenId",
          "type": "uint256"
        }
      ],
      "name": "approve",
      "outputs": [],
      "stateMutability": "nonpayable",
      "type": "function"
    },
    {
      "inputs": [
        {
          "internalType": "address",
          "name": "owner",
          "type": "address"
        }
      ],
      "name": "balanceOf",
      "outputs": [
        {
          "internalType": "uint256",
          "name": "",
          "type": "uint256"
        }
      ],
      "stateMutability": "view",
      "type": "function"
    },
    {
      "inputs": [
        {
          "internalType": "uint256",
          "name": "tokenId",
          "type": "uint256"
        }
      ],
      "name": "getApproved",
      "outputs": [
        {
          "internalType": "address",
          "name": "",
          "type": "address"
        }
      ],
      "stateMutability": "view",
      "type": "function"
    },
    {
      "inputs": [
        {
          "internalType": "address",
          "name": "owner",
          "type": "address"
        },
        {
          "internalType": "address",
          "name": "operator",
          "type": "address"
        }
      ],
      "name": "isApprovedForAll",
      "outputs": [
        {
          "internalType": "bool",
          "name": "",
          "type": "bool"
        }
      ],
      "stateMutability": "view",
      "type": "function"
    },
    {
      "inputs": [
        {
          "internalType": "address",
          "name": "contributor",
          "type": "address"
        },
        {
          "internalType": "uint256",
          "name": "totalContributionWei",
          "type": "uint256"
        },
        {
          "internalType": "string",
          "name": "tokenUri",
          "type": "string"
        }
      ],
      "name": "mintSupporterNFT",
      "outputs": [
        {
          "internalType": "uint256",
          "name": "",
          "type": "uint256"
        }
      ],
      "stateMutability": "nonpayable",
      "type": "function"
    },
    {
      "inputs": [],
      "name": "name",
      "outputs": [
        {
          "internalType": "string",
          "name": "",
          "type": "string"
        }
      ],
      "stateMutability": "view",
      "type": "function"
    },
    {
      "inputs": [],
      "name": "nextTokenId",
      "outputs": [
        {
          "internalType": "uint256",
          "name": "",
          "type": "uint256"
        }
      ],
      "stateMutability": "view",
      "type": "function"
    },
    {
      "inputs": [],
      "name": "owner",
      "outputs": [
        {
          "internalType": "address",
          "name": "",
          "type": "address"
        }
      ],
      "stateMutability": "view",
      "type": "function"
    },
    {
      "inputs": [
        {
          "internalType": "uint256",
          "name": "tokenId",
          "type": "uint256"
        }
      ],
      "name": "ownerOf",
      "outputs": [
        {
          "internalType": "address",
          "name": "",
          "type": "address"
        }
      ],
      "stateMutability": "view",
      "type": "function"
    },
    {
      "inputs": [],
      "name": "renounceOwnership",
      "outputs": [],
      "stateMutability": "nonpayable",
      "type": "function"
    },
    {
      "inputs": [
        {
          "internalType": "address",
          "name": "from",
          "type": "address"
        },
        {
          "internalType": "address",
          "name": "to",
          "type": "address"
        },
        {
          "internalType": "uint256",
          "name": "tokenId",
          "type": "uint256"
        }
      ],
      "name": "safeTransferFrom",
      "outputs": [],
      "stateMutability": "nonpayable",
      "type": "function"
    },
    {
      "inputs": [
        {
          "internalType": "address",
          "name": "from",
          "type": "address"
        },
        {
          "internalType": "address",
          "name": "to",
          "type": "address"
        },
        {
          "internalType": "uint256",
          "name": "tokenId",
          "type": "uint256"
        },
        {
          "internalType": "bytes",
          "name": "data",
          "type": "bytes"
        }
      ],
      "name": "safeTransferFrom",
      "outputs": [],
      "stateMutability": "nonpayable",
      "type": "function"
    },
    {
      "inputs": [
        {
          "internalType": "address",
          "name": "operator",
          "type": "address"
        },
        {
          "internalType": "bool",
          "name": "approved",
          "type": "bool"
        }
      ],
      "name": "setApprovalForAll",
      "outputs": [],
      "stateMutability": "nonpayable",
      "type": "function"
    },
    {
      "inputs": [
        {
          "internalType": "address",
          "name": "",
          "type": "address"
        }
      ],
      "name": "supporterLevel",
      "outputs": [
        {
          "internalType": "enum SupporterNFT.Level",
          "name": "",
          "type": "uint8"
        }
      ],
      "stateMutability": "view",
      "type": "function"
    },
    {
      "inputs": [
        {
          "internalType": "bytes4",
          "name": "interfaceId",
          "type": "bytes4"
        }
      ],
      "name": "supportsInterface",
      "outputs": [
        {
          "internalType": "bool",
          "name": "",
          "type": "bool"
        }
      ],
      "stateMutability": "view",
      "type": "function"
    },
    {
      "inputs": [],
      "name": "symbol",
      "outputs": [
        {
          "internalType": "string",
          "name": "",
          "type": "string"
        }
      ],
      "stateMutability": "view",
      "type": "function"
    },
    {
      "inputs": [
        {
          "internalType": "uint256",
          "name": "tokenId",
          "type": "uint256"
        }
      ],
      "name": "tokenURI",
      "outputs": [
        {
          "internalType": "string",
          "name": "",
          "type": "string"
        }
      ],
      "stateMutability": "view",
      "type": "function"
    },
    {
      "inputs": [
        {
          "internalType": "address",
          "name": "from",
          "type": "address"
        },
        {
          "internalType": "address",
          "name": "to",
          "type": "address"
        },
        {
          "internalType": "uint256",
          "name": "tokenId",
          "type": "uint256"
        }
      ],
      "name": "transferFrom",
      "outputs": [],
      "stateMutability": "nonpayable",
      "type": "function"
    },
    {
      "inputs": [
        {
          "internalType": "address",
          "name": "newOwner",
          "type": "address"
        }
      ],
      "name": "transferOwnership",
      "outputs": [],
      "stateMutability": "nonpayable",
      "type": "function"
    }
  ],
  "bytecode": "0x60806040523480156200001157600080fd5b50604051620033b6380380620033b6833981810160405281019062000037919062000348565b33828281600090816200004b919062000618565b5080600190816200005d919062000618565b505050600073ffffffffffffffffffffffffffffffffffffffff168173ffffffffffffffffffffffffffffffffffffffff1603620000d55760006040517f1e4fbdf7000000000000000000000000000000000000000000000000000000008152600401620000cc919062000744565b60405180910390fd5b620000e681620000ef60201b60201c565b50505062000761565b6000600760009054906101000a900473ffffffffffffffffffffffffffffffffffffffff16905081600760006101000a81548173ffffffffffffffffffffffffffffffffffffffff021916908373ffffffffffffffffffffffffffffffffffffffff1602179055508173ffffffffffffffffffffffffffffffffffffffff168173ffffffffffffffffffffffffffffffffffffffff167f8be0079c531659141344cd1fd0a4f28419497f9722a3daafe3b4186f6b6457e060405160405180910390a35050565b6000604051905090565b600080fd5b600080fd5b600080fd5b600080fd5b6000601f19601f8301169050919050565b7f4e487b7100000000000000000000000000000000000000000000000000000000600052604160045260246000fd5b6200021e82620001d3565b810181811067ffffffffffffffff8211171562000240576200023f620001e4565b5b80604052505050565b600062000255620001b5565b905062000263828262000213565b919050565b600067ffffffffffffffff821115620002865762000285620001e4565b5b6200029182620001d3565b9050602081019050919050565b60005b83811015620002be578082015181840152602081019050620002a1565b60008484015250505050565b6000620002e1620002db8462000268565b62000249565b9050828152602081018484840111156200030057620002ff620001ce565b5b6200030d8482856200029e565b509392505050565b600082601f8301126200032d576200032c620001c9565b5b81516200033f848260208601620002ca565b91505092915050565b60008060408385031215620003625762000361620001bf565b5b600083015167ffffffffffffffff811115620003835762000382620001c4565b5b620003918582860162000315565b925050602083015167ffffffffffffffff811115620003b557620003b4620001c4565b5b620003c38582860162000315565b9150509250929050565b600081519050919050565b7f4e487b7100000000000000000000000000000000000000000000000000000000600052602260045260246000fd5b600060028204905060018216806200042057607f821691505b602082108103620004365762000435620003d8565b5b50919050565b60008190508160005260206000209050919050565b60006020601f8301049050919050565b600082821b905092915050565b600060088302620004a07fffffffffffffffffffffffffffffffffffffffffffffffffffffffffffffffff8262000461565b620004ac868362000461565b95508019841693508086168417925050509392505050565b6000819050919050565b6000819050919050565b6000620004f9620004f3620004ed84620004c4565b620004ce565b620004c4565b9050919050565b6000819050919050565b6200051583620004d8565b6200052d620005248262000500565b8484546200046e565b825550505050565b600090565b6200054462000535565b620005518184846200050a565b505050565b5b8181101562000579576200056d6000826200053a565b60018101905062000557565b5050565b601f821115620005c85762000592816200043c565b6200059d8462000451565b81016020851015620005ad578190505b620005c5620005bc8562000451565b83018262000556565b50505b505050565b600082821c905092915050565b6000620005ed60001984600802620005cd565b1980831691505092915050565b6000620006088383620005da565b9150826002028217905092915050565b6200062382620003cd565b67ffffffffffffffff8111156200063f576200063e620001e4565b5b6200064b825462000407565b620006588282856200057d565b600060209050601f8311600181146200069057600084156200067b578287015190505b620006878582620005fa565b865550620006f7565b601f198416620006a0866200043c565b60005b82811015620006ca57848901518255600182019150602085019450602081019050620006a3565b86831015620006ea5784890151620006e6601f891682620005da565b8355505b6001600288020188555050505b505050505050565b600073ffffffffffffffffffffffffffffffffffffffff82169050919050565b60006200072c82620006ff565b9050919050565b6200073e816200071f565b82525050565b60006020820190506200075b600083018462000733565b92915050565b612c4580620007716000396000f3fe608060405234801561001057600080fd5b50600436106101425760003560e01c8063715018a6116100b8578063b88d4fde1161007c578063b88d4fde14610365578063c1a0db3014610381578063c6b4154f1461039f578063c87b56dd146103cf578063e985e9c5146103ff578063f2fde38b1461042f57610142565b8063715018a6146102e557806375794a3c146102ef5780638da5cb5b1461030d57806395d89b411461032b578063a22cb4651461034957610142565b80632dba8e141161010a5780632dba8e14146101fd57806342842e0e1461022d57806356973974146102495780636352211e1461026757806369a2f0261461029757806370a08231146102b557610142565b806301ffc9a71461014757806306fdde0314610177578063081812fc14610195578063095ea7b3146101c557806323b872dd146101e1575b600080fd5b610161600480360381019061015c9190611ef0565b61044b565b60405161016e9190611f38565b60405180910390f35b61017f6104ac565b60405161018c9190611fe3565b60405180910390f35b6101af60048036038101906101aa919061203b565b61053e565b6040516101bc91906120a9565b60405180910390f35b6101df60048036038101906101da91906120f0565b61055a565b005b6101fb60048036038101906101f69190612130565b610570565b005b61021760048036038101906102129190612183565b610672565b6040516102249190612227565b60405180910390f35b61024760048036038101906102429190612130565b610692565b005b6102516106b2565b60405161025e9190612251565b60405180910390f35b610281600480360381019061027c919061203b565b6106be565b60405161028e91906120a9565b60405180910390f35b61029f6106d0565b6040516102ac9190612251565b60405180910390f35b6102cf60048036038101906102ca9190612183565b6106dc565b6040516102dc9190612251565b60405180910390f35b6102ed610796565b005b6102f76107aa565b6040516103049190612251565b60405180910390f35b6103156107b0565b60405161032291906120a9565b60405180910390f35b6103336107da565b6040516103409190611fe3565b60405180910390f35b610363600480360381019061035e9190612298565b61086c565b005b61037f600480360381019061037a919061240d565b610882565b005b6103896108a7565b6040516103969190612251565b60405180910390f35b6103b960048036038101906103b491906124f0565b6108b3565b6040516103c69190612251565b60405180910390f35b6103e960048036038101906103e4919061203b565b610b92565b6040516103f69190611fe3565b60405180910390f35b61041960048036038101906104149190612564565b610ca5565b6040516104269190611f38565b60405180910390f35b61044960048036038101906104449190612183565b610d39565b005b6000634906490660e01b7bffffffffffffffffffffffffffffffffffffffffffffffffffffffff1916827bffffffffffffffffffffffffffffffffffffffffffffffffffffffff191614806104a557506104a482610dbf565b5b9050919050565b6060600080546104bb906125d3565b80601f01602080910402602001604051908101604052809291908181526020018280546104e7906125d3565b80156105345780601f1061050957610100808354040283529160200191610534565b820191906000526020600020905b81548152906001019060200180831161051757829003601f168201915b5050505050905090565b600061054982610ea1565b5061055382610f29565b9050919050565b61056c8282610567610f66565b610f6e565b5050565b600073ffffffffffffffffffffffffffffffffffffffff168273ffffffffffffffffffffffffffffffffffffffff16036105e25760006040517f64a0ae920000000000000000000000000000000000000000000000000000000081526004016105d991906120a9565b60405180910390fd5b60006105f683836105f1610f66565b610f80565b90508373ffffffffffffffffffffffffffffffffffffffff168173ffffffffffffffffffffffffffffffffffffffff161461066c578382826040517f64283d7b00000000000000000000000000000000000000000000000000000000815260040161066393929190612604565b60405180910390fd5b50505050565b60096020528060005260406000206000915054906101000a900460ff1681565b6106ad83838360405180602001604052806000815250610882565b505050565b670de0b6b3a764000081565b60006106c982610ea1565b9050919050565b67016345785d8a000081565b60008073ffffffffffffffffffffffffffffffffffffffff168273ffffffffffffffffffffffffffffffffffffffff160361074f5760006040517f89c62b6400000000000000000000000000000000000000000000000000000000815260040161074691906120a9565b60405180910390fd5b600360008373ffffffffffffffffffffffffffffffffffffffff1673ffffffffffffffffffffffffffffffffffffffff168152602001908152602001600020549050919050565b61079e61119a565b6107a86000611221565b565b60085481565b6000600760009054906101000a900473ffffffffffffffffffffffffffffffffffffffff16905090565b6060600180546107e9906125d3565b80601f0160208091040260200160405190810160405280929190818152602001828054610815906125d3565b80156108625780601f1061083757610100808354040283529160200191610862565b820191906000526020600020905b81548152906001019060200180831161084557829003601f168201915b5050505050905090565b61087e610877610f66565b83836112e7565b5050565b61088d848484610570565b6108a1610898610f66565b85858585611456565b50505050565b6706f05b59d3b2000081565b60006108bd61119a565b600073ffffffffffffffffffffffffffffffffffffffff168573ffffffffffffffffffffffffffffffffffffffff160361092c576040517f08c379a000000000000000000000000000000000000000000000000000000000815260040161092390612687565b60405180910390fd5b600061093785611607565b90506000600381111561094d5761094c6121b0565b5b8160038111156109605761095f6121b0565b5b036109a0576040517f08c379a0000000000000000000000000000000000000000000000000000000008152600401610997906126f3565b60405180910390fd5b6000600960008873ffffffffffffffffffffffffffffffffffffffff1673ffffffffffffffffffffffffffffffffffffffff16815260200190815260200160002060009054906101000a900460ff169050806003811115610a0457610a036121b0565b5b60ff16826003811115610a1a57610a196121b0565b5b60ff1611610a5d576040517f08c379a0000000000000000000000000000000000000000000000000000000008152600401610a549061275f565b60405180910390fd5b6000600860008154610a6e906127ae565b9190508190559050610a80888261165b565b610ace8187878080601f016020809104026020016040519081016040528093929190818152602001838380828437600081840152601f19601f82011690508083019250505050505050611679565b82600960008a73ffffffffffffffffffffffffffffffffffffffff1673ffffffffffffffffffffffffffffffffffffffff16815260200190815260200160002060006101000a81548160ff02191690836003811115610b3057610b2f6121b0565b5b0217905550808873ffffffffffffffffffffffffffffffffffffffff167f5716925f2a990bb51e5354134a606547c86dc787be1a2729eef575fd0c2bea1e85604051610b7c9190612227565b60405180910390a3809350505050949350505050565b6060610b9d82610ea1565b506000600660008481526020019081526020016000208054610bbe906125d3565b80601f0160208091040260200160405190810160405280929190818152602001828054610bea906125d3565b8015610c375780601f10610c0c57610100808354040283529160200191610c37565b820191906000526020600020905b815481529060010190602001808311610c1a57829003601f168201915b505050505090506000610c486116d5565b90506000815103610c5d578192505050610ca0565b600082511115610c92578082604051602001610c7a929190612832565b60405160208183030381529060405292505050610ca0565b610c9b846116ec565b925050505b919050565b6000600560008473ffffffffffffffffffffffffffffffffffffffff1673ffffffffffffffffffffffffffffffffffffffff16815260200190815260200160002060008373ffffffffffffffffffffffffffffffffffffffff1673ffffffffffffffffffffffffffffffffffffffff16815260200190815260200160002060009054906101000a900460ff16905092915050565b610d4161119a565b600073ffffffffffffffffffffffffffffffffffffffff168173ffffffffffffffffffffffffffffffffffffffff1603610db35760006040517f1e4fbdf7000000000000000000000000000000000000000000000000000000008152600401610daa91906120a9565b60405180910390fd5b610dbc81611221565b50565b60007f80ac58cd000000000000000000000000000000000000000000000000000000007bffffffffffffffffffffffffffffffffffffffffffffffffffffffff1916827bffffffffffffffffffffffffffffffffffffffffffffffffffffffff19161480610e8a57507f5b5e139f000000000000000000000000000000000000000000000000000000007bffffffffffffffffffffffffffffffffffffffffffffffffffffffff1916827bffffffffffffffffffffffffffffffffffffffffffffffffffffffff1916145b80610e9a5750610e9982611755565b5b9050919050565b600080610ead836117bf565b9050600073ffffffffffffffffffffffffffffffffffffffff168173ffffffffffffffffffffffffffffffffffffffff1603610f2057826040517f7e273289000000000000000000000000000000000000000000000000000000008152600401610f179190612251565b60405180910390fd5b80915050919050565b60006004600083815260200190815260200160002060009054906101000a900473ffffffffffffffffffffffffffffffffffffffff169050919050565b600033905090565b610f7b83838360016117fc565b505050565b600080610f8c846117bf565b9050600073ffffffffffffffffffffffffffffffffffffffff168373ffffffffffffffffffffffffffffffffffffffff1614610fce57610fcd8184866119c1565b5b600073ffffffffffffffffffffffffffffffffffffffff168173ffffffffffffffffffffffffffffffffffffffff161461105f576110106000856000806117fc565b6001600360008373ffffffffffffffffffffffffffffffffffffffff1673ffffffffffffffffffffffffffffffffffffffff168152602001908152602001600020600082825403925050819055505b600073ffffffffffffffffffffffffffffffffffffffff168573ffffffffffffffffffffffffffffffffffffffff16146110e2576001600360008773ffffffffffffffffffffffffffffffffffffffff1673ffffffffffffffffffffffffffffffffffffffff168152602001908152602001600020600082825401925050819055505b846002600086815260200190815260200160002060006101000a81548173ffffffffffffffffffffffffffffffffffffffff021916908373ffffffffffffffffffffffffffffffffffffffff160217905550838573ffffffffffffffffffffffffffffffffffffffff168273ffffffffffffffffffffffffffffffffffffffff167fddf252ad1be2c89b69c2b068fc378daa952ba7f163c4a11628f55a4df523b3ef60405160405180910390a4809150509392505050565b6111a2610f66565b73ffffffffffffffffffffffffffffffffffffffff166111c06107b0565b73ffffffffffffffffffffffffffffffffffffffff161461121f576111e3610f66565b6040517f118cdaa700000000000000000000000000000000000000000000000000000000815260040161121691906120a9565b60405180910390fd5b565b6000600760009054906101000a900473ffffffffffffffffffffffffffffffffffffffff16905081600760006101000a81548173ffffffffffffffffffffffffffffffffffffffff021916908373ffffffffffffffffffffffffffffffffffffffff1602179055508173ffffffffffffffffffffffffffffffffffffffff168173ffffffffffffffffffffffffffffffffffffffff167f8be0079c531659141344cd1fd0a4f28419497f9722a3daafe3b4186f6b6457e060405160405180910390a35050565b600073ffffffffffffffffffffffffffffffffffffffff168273ffffffffffffffffffffffffffffffffffffffff160361135857816040517f5b08ba1800000000000000000000000000000000000000000000000000000000815260040161134f91906120a9565b60405180910390fd5b80600560008573ffffffffffffffffffffffffffffffffffffffff1673ffffffffffffffffffffffffffffffffffffffff16815260200190815260200160002060008473ffffffffffffffffffffffffffffffffffffffff1673ffffffffffffffffffffffffffffffffffffffff16815260200190815260200160002060006101000a81548160ff0219169083151502179055508173ffffffffffffffffffffffffffffffffffffffff168373ffffffffffffffffffffffffffffffffffffffff167f17307eab39ab6107e8899845ad3d59bd9653f200f220920489ca2b5937696c31836040516114499190611f38565b60405180910390a3505050565b60008373ffffffffffffffffffffffffffffffffffffffff163b1115611600578273ffffffffffffffffffffffffffffffffffffffff1663150b7a02868685856040518563ffffffff1660e01b81526004016114b594939291906128ab565b6020604051808303816000875af19250505080156114f157506040513d601f19601f820116820180604052508101906114ee919061290c565b60015b611575573d8060008114611521576040519150601f19603f3d011682016040523d82523d6000602084013e611526565b606091505b50600081510361156d57836040517f64a0ae9200000000000000000000000000000000000000000000000000000000815260040161156491906120a9565b60405180910390fd5b805160208201fd5b63150b7a0260e01b7bffffffffffffffffffffffffffffffffffffffffffffffffffffffff1916817bffffffffffffffffffffffffffffffffffffffffffffffffffffffff1916146115fe57836040517f64a0ae920000000000000000000000000000000000000000000000000000000081526004016115f591906120a9565b60405180910390fd5b505b5050505050565b6000670de0b6b3a764000082106116215760039050611656565b6706f05b59d3b2000082106116395760029050611656565b67016345785d8a000082106116515760019050611656565b600090505b919050565b611675828260405180602001604052806000815250611a85565b5050565b806006600084815260200190815260200160002090816116999190612ae5565b507ff8e1a15aba9398e019f0b49df1a4fde98ee17ae345cb5f6b5e2c27f5033e8ce7826040516116c99190612251565b60405180910390a15050565b606060405180602001604052806000815250905090565b60606116f782610ea1565b5060006117026116d5565b90506000815111611722576040518060200160405280600081525061174d565b8061172c84611aa9565b60405160200161173d929190612832565b6040516020818303038152906040525b915050919050565b60007f01ffc9a7000000000000000000000000000000000000000000000000000000007bffffffffffffffffffffffffffffffffffffffffffffffffffffffff1916827bffffffffffffffffffffffffffffffffffffffffffffffffffffffff1916149050919050565b60006002600083815260200190815260200160002060009054906101000a900473ffffffffffffffffffffffffffffffffffffffff169050919050565b80806118355750600073ffffffffffffffffffffffffffffffffffffffff168273ffffffffffffffffffffffffffffffffffffffff1614155b1561196957600061184584610ea1565b9050600073ffffffffffffffffffffffffffffffffffffffff168373ffffffffffffffffffffffffffffffffffffffff16141580156118b057508273ffffffffffffffffffffffffffffffffffffffff168173ffffffffffffffffffffffffffffffffffffffff1614155b80156118c357506118c18184610ca5565b155b1561190557826040517fa9fbf51f0000000000000000000000000000000000000000000000000000000081526004016118fc91906120a9565b60405180910390fd5b811561196757838573ffffffffffffffffffffffffffffffffffffffff168273ffffffffffffffffffffffffffffffffffffffff167f8c5be1e5ebec7d5bd14f71427d1e84f3dd0314c0f7b2291e5b200ac8c7c3b92560405160405180910390a45b505b836004600085815260200190815260200160002060006101000a81548173ffffffffffffffffffffffffffffffffffffffff021916908373ffffffffffffffffffffffffffffffffffffffff16021790555050505050565b6119cc838383611b77565b611a8057600073ffffffffffffffffffffffffffffffffffffffff168373ffffffffffffffffffffffffffffffffffffffff1603611a4157806040517f7e273289000000000000000000000000000000000000000000000000000000008152600401611a389190612251565b60405180910390fd5b81816040517f177e802f000000000000000000000000000000000000000000000000000000008152600401611a77929190612bb7565b60405180910390fd5b505050565b611a8f8383611c38565b611aa4611a9a610f66565b6000858585611456565b505050565b606060006001611ab884611d31565b01905060008167ffffffffffffffff811115611ad757611ad66122e2565b5b6040519080825280601f01601f191660200182016040528015611b095781602001600182028036833780820191505090505b509050600082602083010190505b600115611b6c578080600190039150507f3031323334353637383961626364656600000000000000000000000000000000600a86061a8153600a8581611b6057611b5f612be0565b5b04945060008503611b17575b819350505050919050565b60008073ffffffffffffffffffffffffffffffffffffffff168373ffffffffffffffffffffffffffffffffffffffff1614158015611c2f57508273ffffffffffffffffffffffffffffffffffffffff168473ffffffffffffffffffffffffffffffffffffffff161480611bf05750611bef8484610ca5565b5b80611c2e57508273ffffffffffffffffffffffffffffffffffffffff16611c1683610f29565b73ffffffffffffffffffffffffffffffffffffffff16145b5b90509392505050565b600073ffffffffffffffffffffffffffffffffffffffff168273ffffffffffffffffffffffffffffffffffffffff1603611caa5760006040517f64a0ae92000000000000000000000000000000000000000000000000000000008152600401611ca191906120a9565b60405180910390fd5b6000611cb883836000610f80565b9050600073ffffffffffffffffffffffffffffffffffffffff168173ffffffffffffffffffffffffffffffffffffffff1614611d2c5760006040517f73c6ac6e000000000000000000000000000000000000000000000000000000008152600401611d2391906120a9565b60405180910390fd5b505050565b600080600090507a184f03e93ff9f4daa797ed6e38ed64bf6a1f0100000000000000008310611d8f577a184f03e93ff9f4daa797ed6e38ed64bf6a1f0100000000000000008381611d8557611d84612be0565b5b0492506040810190505b6d04ee2d6d415b85acef81000000008310611dcc576d04ee2d6d415b85acef81000000008381611dc257611dc1612be0565b5b0492506020810190505b662386f26fc100008310611dfb57662386f26fc100008381611df157611df0612be0565b5b0492506010810190505b6305f5e1008310611e24576305f5e1008381611e1a57611e19612be0565b5b0492506008810190505b6127108310611e49576127108381611e3f57611e3e612be0565b5b0492506004810190505b60648310611e6c5760648381611e6257611e61612be0565b5b0492506002810190505b600a8310611e7b576001810190505b80915050919050565b6000604051905090565b600080fd5b600080fd5b60007fffffffff0000000000000000000000000000000000000000000000000000000082169050919050565b611ecd81611e98565b8114611ed857600080fd5b50565b600081359050611eea81611ec4565b92915050565b600060208284031215611f0657611f05611e8e565b5b6000611f1484828501611edb565b91505092915050565b60008115159050919050565b611f3281611f1d565b82525050565b6000602082019050611f4d6000830184611f29565b92915050565b600081519050919050565b600082825260208201905092915050565b60005b83811015611f8d578082015181840152602081019050611f72565b60008484015250505050565b6000601f19601f8301169050919050565b6000611fb582611f53565b611fbf8185611f5e565b9350611fcf818560208601611f6f565b611fd881611f99565b840191505092915050565b60006020820190508181036000830152611ffd8184611faa565b905092915050565b6000819050919050565b61201881612005565b811461202357600080fd5b50565b6000813590506120358161200f565b92915050565b60006020828403121561205157612050611e8e565b5b600061205f84828501612026565b91505092915050565b600073ffffffffffffffffffffffffffffffffffffffff82169050919050565b600061209382612068565b9050919050565b6120a381612088565b82525050565b60006020820190506120be600083018461209a565b92915050565b6120cd81612088565b81146120d857600080fd5b50565b6000813590506120ea816120c4565b92915050565b6000806040838503121561210757612106611e8e565b5b6000612115858286016120db565b925050602061212685828601612026565b9150509250929050565b60008060006060848603121561214957612148611e8e565b5b6000612157868287016120db565b9350506020612168868287016120db565b925050604061217986828701612026565b9150509250925092565b60006020828403121561219957612198611e8e565b5b60006121a7848285016120db565b91505092915050565b7f4e487b7100000000000000000000000000000000000000000000000000000000600052602160045260246000fd5b600481106121f0576121ef6121b0565b5b50565b6000819050612201826121df565b919050565b6000612211826121f3565b9050919050565b61222181612206565b82525050565b600060208201905061223c6000830184612218565b92915050565b61224b81612005565b82525050565b60006020820190506122666000830184612242565b92915050565b61227581611f1d565b811461228057600080fd5b50565b6000813590506122928161226c565b92915050565b600080604083850312156122af576122ae611e8e565b5b60006122bd858286016120db565b92505060206122ce85828601612283565b9150509250929050565b600080fd5b600080fd5b7f4e487b7100000000000000000000000000000000000000000000000000000000600052604160045260246000fd5b61231a82611f99565b810181811067ffffffffffffffff82111715612339576123386122e2565b5b80604052505050565b600061234c611e84565b90506123588282612311565b919050565b600067ffffffffffffffff821115612378576123776122e2565b5b61238182611f99565b9050602081019050919050565b82818337600083830152505050565b60006123b06123ab8461235d565b612342565b9050828152602081018484840111156123cc576123cb6122dd565b5b6123d784828561238e565b509392505050565b600082601f8301126123f4576123f36122d8565b5b813561240484826020860161239d565b91505092915050565b6000806000806080858703121561242757612426611e8e565b5b6000612435878288016120db565b9450506020612446878288016120db565b935050604061245787828801612026565b925050606085013567ffffffffffffffff81111561247857612477611e93565b5b612484878288016123df565b91505092959194509250565b600080fd5b600080fd5b60008083601f8401126124b0576124af6122d8565b5b8235905067ffffffffffffffff8111156124cd576124cc612490565b5b6020830191508360018202830111156124e9576124e8612495565b5b9250929050565b6000806000806060858703121561250a57612509611e8e565b5b6000612518878288016120db565b945050602061252987828801612026565b935050604085013567ffffffffffffffff81111561254a57612549611e93565b5b6125568782880161249a565b925092505092959194509250565b6000806040838503121561257b5761257a611e8e565b5b6000612589858286016120db565b925050602061259a858286016120db565b9150509250929050565b7f4e487b7100000000000000000000000000000000000000000000000000000000600052602260045260246000fd5b600060028204905060018216806125eb57607f821691505b6020821081036125fe576125fd6125a4565b5b50919050565b6000606082019050612619600083018661209a565b6126266020830185612242565b612633604083018461209a565b949350505050565b7f496e76616c696420636f6e7472696275746f7200000000000000000000000000600082015250565b6000612671601383611f5e565b915061267c8261263b565b602082019050919050565b600060208201905081810360008301526126a081612664565b9050919050565b7f436f6e747269627574696f6e2062656c6f77207468726573686f6c6473000000600082015250565b60006126dd601d83611f5e565b91506126e8826126a7565b602082019050919050565b6000602082019050818103600083015261270c816126d0565b9050919050565b7f4c6576656c20616c7265616479206772616e7465640000000000000000000000600082015250565b6000612749601583611f5e565b915061275482612713565b602082019050919050565b600060208201905081810360008301526127788161273c565b9050919050565b7f4e487b7100000000000000000000000000000000000000000000000000000000600052601160045260246000fd5b60006127b982612005565b91507fffffffffffffffffffffffffffffffffffffffffffffffffffffffffffffffff82036127eb576127ea61277f565b5b600182019050919050565b600081905092915050565b600061280c82611f53565b61281681856127f6565b9350612826818560208601611f6f565b80840191505092915050565b600061283e8285612801565b915061284a8284612801565b91508190509392505050565b600081519050919050565b600082825260208201905092915050565b600061287d82612856565b6128878185612861565b9350612897818560208601611f6f565b6128a081611f99565b840191505092915050565b60006080820190506128c0600083018761209a565b6128cd602083018661209a565b6128da6040830185612242565b81810360608301526128ec8184612872565b905095945050505050565b60008151905061290681611ec4565b92915050565b60006020828403121561292257612921611e8e565b5b6000612930848285016128f7565b91505092915050565b60008190508160005260206000209050919050565b60006020601f8301049050919050565b600082821b905092915050565b60006008830261299b7fffffffffffffffffffffffffffffffffffffffffffffffffffffffffffffffff8261295e565b6129a5868361295e565b95508019841693508086168417925050509392505050565b6000819050919050565b60006129e26129dd6129d884612005565b6129bd565b612005565b9050919050565b6000819050919050565b6129fc836129c7565b612a10612a08826129e9565b84845461296b565b825550505050565b600090565b612a25612a18565b612a308184846129f3565b505050565b5b81811015612a5457612a49600082612a1d565b600181019050612a36565b5050565b601f821115612a9957612a6a81612939565b612a738461294e565b81016020851015612a82578190505b612a96612a8e8561294e565b830182612a35565b50505b505050565b600082821c905092915050565b6000612abc60001984600802612a9e565b1980831691505092915050565b6000612ad58383612aab565b9150826002028217905092915050565b612aee82611f53565b67ffffffffffffffff811115612b0757612b066122e2565b5b612b1182546125d3565b612b1c828285612a58565b600060209050601f831160018114612b4f5760008415612b3d578287015190505b612b478582612ac9565b865550612baf565b601f198416612b5d86612939565b60005b82811015612b8557848901518255600182019150602085019450602081019050612b60565b86831015612ba25784890151612b9e601f891682612aab565b8355505b6001600288020188555050505b505050505050565b6000604082019050612bcc600083018561209a565b612bd96020830184612242565b9392505050565b7f4e487b7100000000000000000000000000000000000000000000000000000000600052601260045260246000fdfea2646970667358221220aef25fd395669fccfa8323ebf13f9da68e7dee876161485f95749353722c65d764736f6c63430008140033",
  "linkReferences": {},
  "deployedLinkReferences": {}
}