{
  "_format": "hh-sol-artifact-1",
  "contractName": "SupporterNFT",
  "sourceName": "contracts/SupporterNFT.sol",
  "abi": [
    {
      "inputs": [
        {
          "internalType": "string",
          "name": "name_",
          "type": "string"
        },
        {
          "internalType": "string",
          "name": "symbol_",
          "type": "string"
        }
      ],
      "stateMutability": "nonpayable",
      "type": "constructor"
    },
    {
      "anonymous": false,
      "inputs": [
        {
          "indexed": true,
          "internalType": "address",
          "name": "owner",
          "type": "address"
        },
        {
          "indexed": true,
          "internalType": "address",
          "name": "approved",
          "type": "address"
        },
        {
          "indexed": true,
          "internalType": "uint256",
          "name": "tokenId",
          "type": "uint256"
        }
      ],
      "name": "Approval",
      "type": "event"
    },
    {
      "anonymous": false,
      "inputs": [
        {
          "indexed": true,
          "internalType": "address",
          "name": "owner",
          "type": "address"
        },
        {
          "indexed": true,
          "internalType": "address",
          "name": "operator",
          "type": "address"
        },
        {
          "indexed": false,
          "internalType": "bool",
          "name": "approved",
          "type": "bool"
        }
      ],
      "name": "ApprovalForAll",
      "type": "event"
    },
    {
      "anonymous": false,
      "inputs": [
        {
          "indexed": false,
          "internalType": "uint256",
          "name": "_fromTokenId",
          "type": "uint256"
        },
        {
          "indexed": false,
          "internalType": "uint256",
          "name": "_toTokenId",
          "type": "uint256"
        }
      ],
      "name": "BatchMetadataUpdate",
      "type": "event"
    },
    {
      "anonymous": false,
      "inputs": [
        {
          "indexed": false,
          "internalType": "uint256",
          "name": "_tokenId",
          "type": "uint256"
        }
      ],
      "name": "MetadataUpdate",
      "type": "event"
    },
    {
      "anonymous": false,
      "inputs": [
        {
          "indexed": true,
          "internalType": "address",
          "name": "contributor",
          "type": "address"
        },
        {
          "indexed": true,
          "internalType": "uint256",
          "name": "tokenId",
          "type": "uint256"
        },
        {
          "indexed": false,
          "internalType": "enum SupporterNFT.Level",
          "name": "level",
          "type": "uint8"
        }
      ],
      "name": "NFTMinted",
      "type": "event"
    },
    {
      "anonymous": false,
      "inputs": [
        {
          "indexed": true,
          "internalType": "address",
          "name": "previousOwner",
          "type": "address"
        },
        {
          "indexed": true,
          "internalType": "address",
          "name": "newOwner",
          "type": "address"
        }
      ],
      "name": "OwnershipTransferred",
      "type": "event"
    },
    {
      "anonymous": false,
      "inputs": [
        {
          "indexed": true,
          "internalType": "address",
          "name": "from",
          "type": "address"
        },
        {
          "indexed": true,
          "internalType": "address",
          "name": "to",
          "type": "address"
        },
        {
          "indexed": true,
          "internalType": "uint256",
          "name": "tokenId",
          "type": "uint256"
        }
      ],
      "name": "Transfer",
      "type": "event"
    },
    {
      "inputs": [],
      "name": "BRONZE_THRESHOLD",
      "outputs": [
        {
          "internalType": "uint256",
          "name": "",
          "type": "uint256"
        }
      ],
      "stateMutability": "view",
      "type": "function"
    },
    {
      "inputs": [],
      "name": "GOLD_THRESHOLD",
      "outputs": [
        {
          "internalType": "uint256",
          "name": "",
          "type": "uint256"
        }
      ],
      "stateMutability": "view",
      "type": "function"
    },
    {
      "inputs": [],
      "name": "SILVER_THRESHOLD",
      "outputs": [
        {
          "internalType": "uint256",
          "name": "",
          "type": "uint256"
        }
      ],
      "stateMutability": "view",
      "type": "function"
    },
    {
      "inputs": [
        {
          "internalType": "address",
          "name": "to",
          "type": "address"
        },
        {
          "internalType": "uint256",
          "name": "tokenId",
          "type": "uint256"
        }
      ],
      "name": "approve",
      "outputs": [],
      "stateMutability": "nonpayable",
      "type": "function"
    },
    {
      "inputs": [
        {
          "internalType": "address",
          "name": "owner",
          "type": "address"
        }
      ],
      "name": "balanceOf",
      "outputs": [
        {
          "internalType": "uint256",
          "name": "",
          "type": "uint256"
        }
      ],
      "stateMutability": "view",
      "type": "function"
    },
    {
      "inputs": [
        {
          "internalType": "uint256",
          "name": "tokenId",
          "type": "uint256"
        }
      ],
      "name": "getApproved",
      "outputs": [
        {
          "internalType": "address",
          "name": "",
          "type": "address"
        }
      ],
      "stateMutability": "view",
      "type": "function"
    },
    {
      "inputs": [
        {
          "internalType": "address",
          "name": "owner",
          "type": "address"
        },
        {
          "internalType": "address",
          "name": "operator",
          "type": "address"
        }
      ],
      "name": "isApprovedForAll",
      "outputs": [
        {
          "internalType": "bool",
          "name": "",
          "type": "bool"
        }
      ],
      "stateMutability": "view",
      "type": "function"
    },
    {
      "inputs": [
        {
          "internalType": "address",
          "name": "contributor",
          "type": "address"
        },
        {
          "internalType": "uint256",
          "name": "totalContributionWei",
          "type": "uint256"
        },
        {
          "internalType": "string",
          "name": "tokenUri",
          "type": "string"
        }
      ],
      "name": "mintSupporterNFT",
      "outputs": [
        {
          "internalType": "uint256",
          "name": "",
          "type": "uint256"
        }
      ],
      "stateMutability": "nonpayable",
      "type": "function"
    },
    {
      "inputs": [],
      "name": "name",
      "outputs": [
        {
          "internalType": "string",
          "name": "",
          "type": "string"
        }
      ],
      "stateMutability": "view",
      "type": "function"
    },
    {
      "inputs": [],
      "name": "nextTokenId",
      "outputs": [
        {
          "internalType": "uint256",
          "name": "",
          "type": "uint256"
        }
      ],
      "stateMutability": "view",
      "type": "function"
    },
    {
      "inputs": [],
      "name": "owner",
      "outputs": [
        {
          "internalType": "address",
          "name": "",
          "type": "address"
        }
      ],
      "stateMutability": "view",
      "type": "function"
    },
    {
      "inputs": [
        {
          "internalType": "uint256",
          "name": "tokenId",
          "type": "uint256"
        }
      ],
      "name": "ownerOf",
      "outputs": [
        {
          "internalType": "address",
          "name": "",
          "type": "address"
        }
      ],
      "stateMutability": "view",
      "type": "function"
    },
    {
      "inputs": [],
      "name": "renounceOwnership",
      "outputs": [],
      "stateMutability": "nonpayable",
      "type": "function"
    },
    {
      "inputs": [
        {
          "internalType": "address",
          "name": "from",
          "type": "address"
        },
        {
          "internalType": "address",
          "name": "to",
          "type": "address"
        },
        {
          "internalType": "uint256",
          "name": "tokenId",
          "type": "uint256"
        }
      ],
      "name": "safeTransferFrom",
      "outputs": [],
      "stateMutability": "nonpayable",
      "type": "function"
    },
    {
      "inputs": [
        {
          "internalType": "address",
          "name": "from",
          "type": "address"
        },
        {
          "internalType": "address",
          "name": "to",
          "type": "address"
        },
        {
          "internalType": "uint256",
          "name": "tokenId",
          "type": "uint256"
        },
        {
          "internalType": "bytes",
          "name": "data",
          "type": "bytes"
        }
      ],
      "name": "safeTransferFrom",
      "outputs": [],
      "stateMutability": "nonpayable",
      "type": "function"
    },
    {
      "inputs": [
        {
          "internalType": "address",
          "name": "operator",
          "type": "address"
        },
        {
          "internalType": "bool",
          "name": "approved",
          "type": "bool"
        }
      ],
      "name": "setApprovalForAll",
      "outputs": [],
      "stateMutability": "nonpayable",
      "type": "function"
    },
    {
      "inputs": [
        {
          "internalType": "address",
          "name": "",
          "type": "address"
        }
      ],
      "name": "supporterLevel",
      "outputs": [
        {
          "internalType": "enum SupporterNFT.Level",
          "name": "",
          "type": "uint8"
        }
      ],
      "stateMutability": "view",
      "type": "function"
    },
    {
      "inputs": [
        {
          "internalType": "bytes4",
          "name": "interfaceId",
          "type": "bytes4"
        }
      ],
      "name": "supportsInterface",
      "outputs": [
        {
          "internalType": "bool",
          "name": "",
          "type": "bool"
        }
      ],
      "stateMutability": "view",
      "type": "function"
    },
    {
      "inputs": [],
      "name": "symbol",
      "outputs": [
        {
          "internalType": "string",
          "name": "",
          "type": "string"
        }
      ],
      "stateMutability": "view",
      "type": "function"
    },
    {
      "inputs": [
        {
          "internalType": "uint256",
          "name": "tokenId",
          "type": "uint256"
        }
      ],
      "name": "tokenURI",
      "outputs": [
        {
          "internalType": "string",
          "name": "",
          "type": "string"
        }
      ],
      "stateMutability": "view",
      "type": "function"
    },
    {
      "inputs": [
        {
          "internalType": "address",
          "name": "from",
          "type": "address"
        },
        {
          "internalType": "address",
          "name": "to",
          "type": "address"
        },
        {
          "internalType": "uint256",
          "name": "tokenId",
          "type": "uint256"
        }
      ],
      "name": "transferFrom",
      "outputs": [],
      "stateMutability": "nonpayable",
      "type": "function"
    },
    {
      "inputs": [
        {
          "internalType": "address",
          "name": "newOwner",
          "type": "address"
        }
      ],
      "name": "transferOwnership",
      "outputs": [],
      "stateMutability": "nonpayable",
      "type": "function"
    }
  ],
  "bytecode": "0x60806040523480156200001157600080fd5b5060405162003b9438038062003b948339818101604052810190620000379190620002e8565b818181600090816200004a9190620005b8565b5080600190816200005c9190620005b8565b5050506200007f620000736200008760201b60201c565b6200008f60201b60201c565b50506200069f565b600033905090565b6000600760009054906101000a900473ffffffffffffffffffffffffffffffffffffffff16905081600760006101000a81548173ffffffffffffffffffffffffffffffffffffffff021916908373ffffffffffffffffffffffffffffffffffffffff1602179055508173ffffffffffffffffffffffffffffffffffffffff168173ffffffffffffffffffffffffffffffffffffffff167f8be0079c531659141344cd1fd0a4f28419497f9722a3daafe3b4186f6b6457e060405160405180910390a35050565b6000604051905090565b600080fd5b600080fd5b600080fd5b600080fd5b6000601f19601f8301169050919050565b7f4e487b7100000000000000000000000000000000000000000000000000000000600052604160045260246000fd5b620001be8262000173565b810181811067ffffffffffffffff82111715620001e057620001df62000184565b5b80604052505050565b6000620001f562000155565b9050620002038282620001b3565b919050565b600067ffffffffffffffff82111562000226576200022562000184565b5b620002318262000173565b9050602081019050919050565b60005b838110156200025e57808201518184015260208101905062000241565b60008484015250505050565b6000620002816200027b8462000208565b620001e9565b905082815260208101848484011115620002a0576200029f6200016e565b5b620002ad8482856200023e565b509392505050565b600082601f830112620002cd57620002cc62000169565b5b8151620002df8482602086016200026a565b91505092915050565b600080604083850312156200030257620003016200015f565b5b600083015167ffffffffffffffff81111562000323576200032262000164565b5b6200033185828601620002b5565b925050602083015167ffffffffffffffff81111562000355576200035462000164565b5b6200036385828601620002b5565b9150509250929050565b600081519050919050565b7f4e487b7100000000000000000000000000000000000000000000000000000000600052602260045260246000fd5b60006002820490506001821680620003c057607f821691505b602082108103620003d657620003d562000378565b5b50919050565b60008190508160005260206000209050919050565b60006020601f8301049050919050565b600082821b905092915050565b600060088302620004407fffffffffffffffffffffffffffffffffffffffffffffffffffffffffffffffff8262000401565b6200044c868362000401565b95508019841693508086168417925050509392505050565b6000819050919050565b6000819050919050565b600062000499620004936200048d8462000464565b6200046e565b62000464565b9050919050565b6000819050919050565b620004b58362000478565b620004cd620004c482620004a0565b8484546200040e565b825550505050565b600090565b620004e4620004d5565b620004f1818484620004aa565b505050565b5b8181101562000519576200050d600082620004da565b600181019050620004f7565b5050565b601f82111562000568576200053281620003dc565b6200053d84620003f1565b810160208510156200054d578190505b620005656200055c85620003f1565b830182620004f6565b50505b505050565b600082821c905092915050565b60006200058d600019846008026200056d565b1980831691505092915050565b6000620005a883836200057a565b9150826002028217905092915050565b620005c3826200036d565b67ffffffffffffffff811115620005df57620005de62000184565b5b620005eb8254620003a7565b620005f88282856200051d565b600060209050601f8311600181146200063057600084156200061b578287015190505b6200062785826200059a565b86555062000697565b601f1984166200064086620003dc565b60005b828110156200066a5784890151825560018201915060208501945060208101905062000643565b868310156200068a578489015162000686601f8916826200057a565b8355505b6001600288020188555050505b505050505050565b6134e580620006af6000396000f3fe608060405234801561001057600080fd5b50600436106101425760003560e01c8063715018a6116100b8578063b88d4fde1161007c578063b88d4fde14610365578063c1a0db3014610381578063c6b4154f1461039f578063c87b56dd146103cf578063e985e9c5146103ff578063f2fde38b1461042f57610142565b8063715018a6146102e557806375794a3c146102ef5780638da5cb5b1461030d57806395d89b411461032b578063a22cb4651461034957610142565b80632dba8e141161010a5780632dba8e14146101fd57806342842e0e1461022d57806356973974146102495780636352211e1461026757806369a2f0261461029757806370a08231146102b557610142565b806301ffc9a71461014757806306fdde0314610177578063081812fc14610195578063095ea7b3146101c557806323b872dd146101e1575b600080fd5b610161600480360381019061015c91906120b2565b61044b565b60405161016e91906120fa565b60405180910390f35b61017f6104ac565b60405161018c91906121a5565b60405180910390f35b6101af60048036038101906101aa91906121fd565b61053e565b6040516101bc919061226b565b60405180910390f35b6101df60048036038101906101da91906122b2565b610584565b005b6101fb60048036038101906101f691906122f2565b61069b565b005b61021760048036038101906102129190612345565b6106fb565b60405161022491906123e9565b60405180910390f35b610247600480360381019061024291906122f2565b61071b565b005b61025161073b565b60405161025e9190612413565b60405180910390f35b610281600480360381019061027c91906121fd565b610747565b60405161028e919061226b565b60405180910390f35b61029f6107cd565b6040516102ac9190612413565b60405180910390f35b6102cf60048036038101906102ca9190612345565b6107d9565b6040516102dc9190612413565b60405180910390f35b6102ed610890565b005b6102f76108a4565b6040516103049190612413565b60405180910390f35b6103156108aa565b604051610322919061226b565b60405180910390f35b6103336108d4565b60405161034091906121a5565b60405180910390f35b610363600480360381019061035e919061245a565b610966565b005b61037f600480360381019061037a91906125cf565b61097c565b005b6103896109de565b6040516103969190612413565b60405180910390f35b6103b960048036038101906103b491906126b2565b6109ea565b6040516103c69190612413565b60405180910390f35b6103e960048036038101906103e491906121fd565b610cc9565b6040516103f691906121a5565b60405180910390f35b61041960048036038101906104149190612726565b610ddb565b60405161042691906120fa565b60405180910390f35b61044960048036038101906104449190612345565b610e6f565b005b6000634906490660e01b7bffffffffffffffffffffffffffffffffffffffffffffffffffffffff1916827bffffffffffffffffffffffffffffffffffffffffffffffffffffffff191614806104a557506104a482610ef2565b5b9050919050565b6060600080546104bb90612795565b80601f01602080910402602001604051908101604052809291908181526020018280546104e790612795565b80156105345780601f1061050957610100808354040283529160200191610534565b820191906000526020600020905b81548152906001019060200180831161051757829003601f168201915b5050505050905090565b600061054982610fd4565b6004600083815260200190815260200160002060009054906101000a900473ffffffffffffffffffffffffffffffffffffffff169050919050565b600061058f82610747565b90508073ffffffffffffffffffffffffffffffffffffffff168373ffffffffffffffffffffffffffffffffffffffff16036105ff576040517f08c379a00000000000000000000000000000000000000000000000000000000081526004016105f690612838565b60405180910390fd5b8073ffffffffffffffffffffffffffffffffffffffff1661061e61101f565b73ffffffffffffffffffffffffffffffffffffffff16148061064d575061064c8161064761101f565b610ddb565b5b61068c576040517f08c379a0000000000000000000000000000000000000000000000000000000008152600401610683906128ca565b60405180910390fd5b6106968383611027565b505050565b6106ac6106a661101f565b826110e0565b6106eb576040517f08c379a00000000000000000000000000000000000000000000000000000000081526004016106e29061295c565b60405180910390fd5b6106f6838383611175565b505050565b60096020528060005260406000206000915054906101000a900460ff1681565b6107368383836040518060200160405280600081525061097c565b505050565b670de0b6b3a764000081565b6000806107538361146e565b9050600073ffffffffffffffffffffffffffffffffffffffff168173ffffffffffffffffffffffffffffffffffffffff16036107c4576040517f08c379a00000000000000000000000000000000000000000000000000000000081526004016107bb906129c8565b60405180910390fd5b80915050919050565b67016345785d8a000081565b60008073ffffffffffffffffffffffffffffffffffffffff168273ffffffffffffffffffffffffffffffffffffffff1603610849576040517f08c379a000000000000000000000000000000000000000000000000000000000815260040161084090612a5a565b60405180910390fd5b600360008373ffffffffffffffffffffffffffffffffffffffff1673ffffffffffffffffffffffffffffffffffffffff168152602001908152602001600020549050919050565b6108986114ab565b6108a26000611529565b565b60085481565b6000600760009054906101000a900473ffffffffffffffffffffffffffffffffffffffff16905090565b6060600180546108e390612795565b80601f016020809104026020016040519081016040528092919081815260200182805461090f90612795565b801561095c5780601f106109315761010080835404028352916020019161095c565b820191906000526020600020905b81548152906001019060200180831161093f57829003601f168201915b5050505050905090565b61097861097161101f565b83836115ef565b5050565b61098d61098761101f565b836110e0565b6109cc576040517f08c379a00000000000000000000000000000000000000000000000000000000081526004016109c39061295c565b60405180910390fd5b6109d88484848461175b565b50505050565b6706f05b59d3b2000081565b60006109f46114ab565b600073ffffffffffffffffffffffffffffffffffffffff168573ffffffffffffffffffffffffffffffffffffffff1603610a63576040517f08c379a0000000000000000000000000000000000000000000000000000000008152600401610a5a90612ac6565b60405180910390fd5b6000610a6e856117b7565b905060006003811115610a8457610a83612372565b5b816003811115610a9757610a96612372565b5b03610ad7576040517f08c379a0000000000000000000000000000000000000000000000000000000008152600401610ace90612b32565b60405180910390fd5b6000600960008873ffffffffffffffffffffffffffffffffffffffff1673ffffffffffffffffffffffffffffffffffffffff16815260200190815260200160002060009054906101000a900460ff169050806003811115610b3b57610b3a612372565b5b60ff16826003811115610b5157610b50612372565b5b60ff1611610b94576040517f08c379a0000000000000000000000000000000000000000000000000000000008152600401610b8b90612b9e565b60405180910390fd5b6000600860008154610ba590612bed565b9190508190559050610bb7888261180b565b610c058187878080601f016020809104026020016040519081016040528093929190818152602001838380828437600081840152601f19601f82011690508083019250505050505050611829565b82600960008a73ffffffffffffffffffffffffffffffffffffffff1673ffffffffffffffffffffffffffffffffffffffff16815260200190815260200160002060006101000a81548160ff02191690836003811115610c6757610c66612372565b5b0217905550808873ffffffffffffffffffffffffffffffffffffffff167f5716925f2a990bb51e5354134a606547c86dc787be1a2729eef575fd0c2bea1e85604051610cb391906123e9565b60405180910390a3809350505050949350505050565b6060610cd482610fd4565b6000600660008481526020019081526020016000208054610cf490612795565b80601f0160208091040260200160405190810160405280929190818152602001828054610d2090612795565b8015610d6d5780601f10610d4257610100808354040283529160200191610d6d565b820191906000526020600020905b815481529060010190602001808311610d5057829003601f168201915b505050505090506000610d7e6118cd565b90506000815103610d93578192505050610dd6565b600082511115610dc8578082604051602001610db0929190612c71565b60405160208183030381529060405292505050610dd6565b610dd1846118e4565b925050505b919050565b6000600560008473ffffffffffffffffffffffffffffffffffffffff1673ffffffffffffffffffffffffffffffffffffffff16815260200190815260200160002060008373ffffffffffffffffffffffffffffffffffffffff1673ffffffffffffffffffffffffffffffffffffffff16815260200190815260200160002060009054906101000a900460ff16905092915050565b610e776114ab565b600073ffffffffffffffffffffffffffffffffffffffff168173ffffffffffffffffffffffffffffffffffffffff1603610ee6576040517f08c379a0000000000000000000000000000000000000000000000000000000008152600401610edd90612d07565b60405180910390fd5b610eef81611529565b50565b60007f80ac58cd000000000000000000000000000000000000000000000000000000007bffffffffffffffffffffffffffffffffffffffffffffffffffffffff1916827bffffffffffffffffffffffffffffffffffffffffffffffffffffffff19161480610fbd57507f5b5e139f000000000000000000000000000000000000000000000000000000007bffffffffffffffffffffffffffffffffffffffffffffffffffffffff1916827bffffffffffffffffffffffffffffffffffffffffffffffffffffffff1916145b80610fcd5750610fcc8261194c565b5b9050919050565b610fdd816119b6565b61101c576040517f08c379a0000000000000000000000000000000000000000000000000000000008152600401611013906129c8565b60405180910390fd5b50565b600033905090565b816004600083815260200190815260200160002060006101000a81548173ffffffffffffffffffffffffffffffffffffffff021916908373ffffffffffffffffffffffffffffffffffffffff160217905550808273ffffffffffffffffffffffffffffffffffffffff1661109a83610747565b73ffffffffffffffffffffffffffffffffffffffff167f8c5be1e5ebec7d5bd14f71427d1e84f3dd0314c0f7b2291e5b200ac8c7c3b92560405160405180910390a45050565b6000806110ec83610747565b90508073ffffffffffffffffffffffffffffffffffffffff168473ffffffffffffffffffffffffffffffffffffffff16148061112e575061112d8185610ddb565b5b8061116c57508373ffffffffffffffffffffffffffffffffffffffff166111548461053e565b73ffffffffffffffffffffffffffffffffffffffff16145b91505092915050565b8273ffffffffffffffffffffffffffffffffffffffff1661119582610747565b73ffffffffffffffffffffffffffffffffffffffff16146111eb576040517f08c379a00000000000000000000000000000000000000000000000000000000081526004016111e290612d99565b60405180910390fd5b600073ffffffffffffffffffffffffffffffffffffffff168273ffffffffffffffffffffffffffffffffffffffff160361125a576040517f08c379a000000000000000000000000000000000000000000000000000000000815260040161125190612e2b565b60405180910390fd5b61126783838360016119f7565b8273ffffffffffffffffffffffffffffffffffffffff1661128782610747565b73ffffffffffffffffffffffffffffffffffffffff16146112dd576040517f08c379a00000000000000000000000000000000000000000000000000000000081526004016112d490612d99565b60405180910390fd5b6004600082815260200190815260200160002060006101000a81549073ffffffffffffffffffffffffffffffffffffffff02191690556001600360008573ffffffffffffffffffffffffffffffffffffffff1673ffffffffffffffffffffffffffffffffffffffff168152602001908152602001600020600082825403925050819055506001600360008473ffffffffffffffffffffffffffffffffffffffff1673ffffffffffffffffffffffffffffffffffffffff16815260200190815260200160002060008282540192505081905550816002600083815260200190815260200160002060006101000a81548173ffffffffffffffffffffffffffffffffffffffff021916908373ffffffffffffffffffffffffffffffffffffffff160217905550808273ffffffffffffffffffffffffffffffffffffffff168473ffffffffffffffffffffffffffffffffffffffff167fddf252ad1be2c89b69c2b068fc378daa952ba7f163c4a11628f55a4df523b3ef60405160405180910390a461146983838360016119fd565b505050565b60006002600083815260200190815260200160002060009054906101000a900473ffffffffffffffffffffffffffffffffffffffff169050919050565b6114b361101f565b73ffffffffffffffffffffffffffffffffffffffff166114d16108aa565b73ffffffffffffffffffffffffffffffffffffffff1614611527576040517f08c379a000000000000000000000000000000000000000000000000000000000815260040161151e90612e97565b60405180910390fd5b565b6000600760009054906101000a900473ffffffffffffffffffffffffffffffffffffffff16905081600760006101000a81548173ffffffffffffffffffffffffffffffffffffffff021916908373ffffffffffffffffffffffffffffffffffffffff1602179055508173ffffffffffffffffffffffffffffffffffffffff168173ffffffffffffffffffffffffffffffffffffffff167f8be0079c531659141344cd1fd0a4f28419497f9722a3daafe3b4186f6b6457e060405160405180910390a35050565b8173ffffffffffffffffffffffffffffffffffffffff168373ffffffffffffffffffffffffffffffffffffffff160361165d576040517f08c379a000000000000000000000000000000000000000000000000000000000815260040161165490612f03565b60405180910390fd5b80600560008573ffffffffffffffffffffffffffffffffffffffff1673ffffffffffffffffffffffffffffffffffffffff16815260200190815260200160002060008473ffffffffffffffffffffffffffffffffffffffff1673ffffffffffffffffffffffffffffffffffffffff16815260200190815260200160002060006101000a81548160ff0219169083151502179055508173ffffffffffffffffffffffffffffffffffffffff168373ffffffffffffffffffffffffffffffffffffffff167f17307eab39ab6107e8899845ad3d59bd9653f200f220920489ca2b5937696c318360405161174e91906120fa565b60405180910390a3505050565b611766848484611175565b61177284848484611a03565b6117b1576040517f08c379a00000000000000000000000000000000000000000000000000000000081526004016117a890612f95565b60405180910390fd5b50505050565b6000670de0b6b3a764000082106117d15760039050611806565b6706f05b59d3b2000082106117e95760029050611806565b67016345785d8a000082106118015760019050611806565b600090505b919050565b611825828260405180602001604052806000815250611b8a565b5050565b611832826119b6565b611871576040517f08c379a000000000000000000000000000000000000000000000000000000000815260040161186890613027565b60405180910390fd5b8060066000848152602001908152602001600020908161189191906131f3565b507ff8e1a15aba9398e019f0b49df1a4fde98ee17ae345cb5f6b5e2c27f5033e8ce7826040516118c19190612413565b60405180910390a15050565b606060405180602001604052806000815250905090565b60606118ef82610fd4565b60006118f96118cd565b905060008151116119195760405180602001604052806000815250611944565b8061192384611be5565b604051602001611934929190612c71565b6040516020818303038152906040525b915050919050565b60007f01ffc9a7000000000000000000000000000000000000000000000000000000007bffffffffffffffffffffffffffffffffffffffffffffffffffffffff1916827bffffffffffffffffffffffffffffffffffffffffffffffffffffffff1916149050919050565b60008073ffffffffffffffffffffffffffffffffffffffff166119d88361146e565b73ffffffffffffffffffffffffffffffffffffffff1614159050919050565b50505050565b50505050565b6000611a248473ffffffffffffffffffffffffffffffffffffffff16611cb3565b15611b7d578373ffffffffffffffffffffffffffffffffffffffff1663150b7a02611a4d61101f565b8786866040518563ffffffff1660e01b8152600401611a6f949392919061331a565b6020604051808303816000875af1925050508015611aab57506040513d601f19601f82011682018060405250810190611aa8919061337b565b60015b611b2d573d8060008114611adb576040519150601f19603f3d011682016040523d82523d6000602084013e611ae0565b606091505b506000815103611b25576040517f08c379a0000000000000000000000000000000000000000000000000000000008152600401611b1c90612f95565b60405180910390fd5b805181602001fd5b63150b7a0260e01b7bffffffffffffffffffffffffffffffffffffffffffffffffffffffff1916817bffffffffffffffffffffffffffffffffffffffffffffffffffffffff191614915050611b82565b600190505b949350505050565b611b948383611cd6565b611ba16000848484611a03565b611be0576040517f08c379a0000000000000000000000000000000000000000000000000000000008152600401611bd790612f95565b60405180910390fd5b505050565b606060006001611bf484611ef3565b01905060008167ffffffffffffffff811115611c1357611c126124a4565b5b6040519080825280601f01601f191660200182016040528015611c455781602001600182028036833780820191505090505b509050600082602001820190505b600115611ca8578080600190039150507f3031323334353637383961626364656600000000000000000000000000000000600a86061a8153600a8581611c9c57611c9b6133a8565b5b04945060008503611c53575b819350505050919050565b6000808273ffffffffffffffffffffffffffffffffffffffff163b119050919050565b600073ffffffffffffffffffffffffffffffffffffffff168273ffffffffffffffffffffffffffffffffffffffff1603611d45576040517f08c379a0000000000000000000000000000000000000000000000000000000008152600401611d3c90613423565b60405180910390fd5b611d4e816119b6565b15611d8e576040517f08c379a0000000000000000000000000000000000000000000000000000000008152600401611d859061348f565b60405180910390fd5b611d9c6000838360016119f7565b611da5816119b6565b15611de5576040517f08c379a0000000000000000000000000000000000000000000000000000000008152600401611ddc9061348f565b60405180910390fd5b6001600360008473ffffffffffffffffffffffffffffffffffffffff1673ffffffffffffffffffffffffffffffffffffffff16815260200190815260200160002060008282540192505081905550816002600083815260200190815260200160002060006101000a81548173ffffffffffffffffffffffffffffffffffffffff021916908373ffffffffffffffffffffffffffffffffffffffff160217905550808273ffffffffffffffffffffffffffffffffffffffff16600073ffffffffffffffffffffffffffffffffffffffff167fddf252ad1be2c89b69c2b068fc378daa952ba7f163c4a11628f55a4df523b3ef60405160405180910390a4611eef6000838360016119fd565b5050565b600080600090507a184f03e93ff9f4daa797ed6e38ed64bf6a1f0100000000000000008310611f51577a184f03e93ff9f4daa797ed6e38ed64bf6a1f0100000000000000008381611f4757611f466133a8565b5b0492506040810190505b6d04ee2d6d415b85acef81000000008310611f8e576d04ee2d6d415b85acef81000000008381611f8457611f836133a8565b5b0492506020810190505b662386f26fc100008310611fbd57662386f26fc100008381611fb357611fb26133a8565b5b0492506010810190505b6305f5e1008310611fe6576305f5e1008381611fdc57611fdb6133a8565b5b0492506008810190505b612710831061200b576127108381612001576120006133a8565b5b0492506004810190505b6064831061202e5760648381612024576120236133a8565b5b0492506002810190505b600a831061203d576001810190505b80915050919050565b6000604051905090565b600080fd5b600080fd5b60007fffffffff0000000000000000000000000000000000000000000000000000000082169050919050565b61208f8161205a565b811461209a57600080fd5b50565b6000813590506120ac81612086565b92915050565b6000602082840312156120c8576120c7612050565b5b60006120d68482850161209d565b91505092915050565b60008115159050919050565b6120f4816120df565b82525050565b600060208201905061210f60008301846120eb565b92915050565b600081519050919050565b600082825260208201905092915050565b60005b8381101561214f578082015181840152602081019050612134565b60008484015250505050565b6000601f19601f8301169050919050565b600061217782612115565b6121818185612120565b9350612191818560208601612131565b61219a8161215b565b840191505092915050565b600060208201905081810360008301526121bf818461216c565b905092915050565b6000819050919050565b6121da816121c7565b81146121e557600080fd5b50565b6000813590506121f7816121d1565b92915050565b60006020828403121561221357612212612050565b5b6000612221848285016121e8565b91505092915050565b600073ffffffffffffffffffffffffffffffffffffffff82169050919050565b60006122558261222a565b9050919050565b6122658161224a565b82525050565b6000602082019050612280600083018461225c565b92915050565b61228f8161224a565b811461229a57600080fd5b50565b6000813590506122ac81612286565b92915050565b600080604083850312156122c9576122c8612050565b5b60006122d78582860161229d565b92505060206122e8858286016121e8565b9150509250929050565b60008060006060848603121561230b5761230a612050565b5b60006123198682870161229d565b935050602061232a8682870161229d565b925050604061233b868287016121e8565b9150509250925092565b60006020828403121561235b5761235a612050565b5b60006123698482850161229d565b91505092915050565b7f4e487b7100000000000000000000000000000000000000000000000000000000600052602160045260246000fd5b600481106123b2576123b1612372565b5b50565b60008190506123c3826123a1565b919050565b60006123d3826123b5565b9050919050565b6123e3816123c8565b82525050565b60006020820190506123fe60008301846123da565b92915050565b61240d816121c7565b82525050565b60006020820190506124286000830184612404565b92915050565b612437816120df565b811461244257600080fd5b50565b6000813590506124548161242e565b92915050565b6000806040838503121561247157612470612050565b5b600061247f8582860161229d565b925050602061249085828601612445565b9150509250929050565b600080fd5b600080fd5b7f4e487b7100000000000000000000000000000000000000000000000000000000600052604160045260246000fd5b6124dc8261215b565b810181811067ffffffffffffffff821117156124fb576124fa6124a4565b5b80604052505050565b600061250e612046565b905061251a82826124d3565b919050565b600067ffffffffffffffff82111561253a576125396124a4565b5b6125438261215b565b9050602081019050919050565b82818337600083830152505050565b600061257261256d8461251f565b612504565b90508281526020810184848401111561258e5761258d61249f565b5b612599848285612550565b509392505050565b600082601f8301126125b6576125b561249a565b5b81356125c684826020860161255f565b91505092915050565b600080600080608085870312156125e9576125e8612050565b5b60006125f78782880161229d565b94505060206126088782880161229d565b9350506040612619878288016121e8565b925050606085013567ffffffffffffffff81111561263a57612639612055565b5b612646878288016125a1565b91505092959194509250565b600080fd5b600080fd5b60008083601f8401126126725761267161249a565b5b8235905067ffffffffffffffff81111561268f5761268e612652565b5b6020830191508360018202830111156126ab576126aa612657565b5b9250929050565b600080600080606085870312156126cc576126cb612050565b5b60006126da8782880161229d565b94505060206126eb878288016121e8565b935050604085013567ffffffffffffffff81111561270c5761270b612055565b5b6127188782880161265c565b925092505092959194509250565b6000806040838503121561273d5761273c612050565b5b600061274b8582860161229d565b925050602061275c8582860161229d565b9150509250929050565b7f4e487b7100000000000000000000000000000000000000000000000000000000600052602260045260246000fd5b600060028204905060018216806127ad57607f821691505b6020821081036127c0576127bf612766565b5b50919050565b7f4552433732313a20617070726f76616c20746f2063757272656e74206f776e6560008201527f7200000000000000000000000000000000000000000000000000000000000000602082015250565b6000612822602183612120565b915061282d826127c6565b604082019050919050565b6000602082019050818103600083015261285181612815565b9050919050565b7f4552433732313a20617070726f76652063616c6c6572206973206e6f7420746f60008201527f6b656e206f776e6572206f7220617070726f76656420666f7220616c6c000000602082015250565b60006128b4603d83612120565b91506128bf82612858565b604082019050919050565b600060208201905081810360008301526128e3816128a7565b9050919050565b7f4552433732313a2063616c6c6572206973206e6f7420746f6b656e206f776e6560008201527f72206f7220617070726f76656400000000000000000000000000000000000000602082015250565b6000612946602d83612120565b9150612951826128ea565b604082019050919050565b6000602082019050818103600083015261297581612939565b9050919050565b7f4552433732313a20696e76616c696420746f6b656e2049440000000000000000600082015250565b60006129b2601883612120565b91506129bd8261297c565b602082019050919050565b600060208201905081810360008301526129e1816129a5565b9050919050565b7f4552433732313a2061646472657373207a65726f206973206e6f74206120766160008201527f6c6964206f776e65720000000000000000000000000000000000000000000000602082015250565b6000612a44602983612120565b9150612a4f826129e8565b604082019050919050565b60006020820190508181036000830152612a7381612a37565b9050919050565b7f496e76616c696420636f6e7472696275746f7200000000000000000000000000600082015250565b6000612ab0601383612120565b9150612abb82612a7a565b602082019050919050565b60006020820190508181036000830152612adf81612aa3565b9050919050565b7f436f6e747269627574696f6e2062656c6f77207468726573686f6c6473000000600082015250565b6000612b1c601d83612120565b9150612b2782612ae6565b602082019050919050565b60006020820190508181036000830152612b4b81612b0f565b9050919050565b7f4c6576656c20616c7265616479206772616e7465640000000000000000000000600082015250565b6000612b88601583612120565b9150612b9382612b52565b602082019050919050565b60006020820190508181036000830152612bb781612b7b565b9050919050565b7f4e487b7100000000000000000000000000000000000000000000000000000000600052601160045260246000fd5b6000612bf8826121c7565b91507fffffffffffffffffffffffffffffffffffffffffffffffffffffffffffffffff8203612c2a57612c29612bbe565b5b600182019050919050565b600081905092915050565b6000612c4b82612115565b612c558185612c35565b9350612c65818560208601612131565b80840191505092915050565b6000612c7d8285612c40565b9150612c898284612c40565b91508190509392505050565b7f4f776e61626c653a206e6577206f776e657220697320746865207a65726f206160008201527f6464726573730000000000000000000000000000000000000000000000000000602082015250565b6000612cf1602683612120565b9150612cfc82612c95565b604082019050919050565b60006020820190508181036000830152612d2081612ce4565b9050919050565b7f4552433732313a207472616e736665722066726f6d20696e636f72726563742060008201527f6f776e6572000000000000000000000000000000000000000000000000000000602082015250565b6000612d83602583612120565b9150612d8e82612d27565b604082019050919050565b60006020820190508181036000830152612db281612d76565b9050919050565b7f4552433732313a207472616e7366657220746f20746865207a65726f2061646460008201527f7265737300000000000000000000000000000000000000000000000000000000602082015250565b6000612e15602483612120565b9150612e2082612db9565b604082019050919050565b60006020820190508181036000830152612e4481612e08565b9050919050565b7f4f776e61626c653a2063616c6c6572206973206e6f7420746865206f776e6572600082015250565b6000612e81602083612120565b9150612e8c82612e4b565b602082019050919050565b60006020820190508181036000830152612eb081612e74565b9050919050565b7f4552433732313a20617070726f766520746f2063616c6c657200000000000000600082015250565b6000612eed601983612120565b9150612ef882612eb7565b602082019050919050565b60006020820190508181036000830152612f1c81612ee0565b9050919050565b7f4552433732313a207472616e7366657220746f206e6f6e20455243373231526560008201527f63656976657220696d706c656d656e7465720000000000000000000000000000602082015250565b6000612f7f603283612120565b9150612f8a82612f23565b604082019050919050565b60006020820190508181036000830152612fae81612f72565b9050919050565b7f45524337323155524953746f726167653a2055524920736574206f66206e6f6e60008201527f6578697374656e7420746f6b656e000000000000000000000000000000000000602082015250565b6000613011602e83612120565b915061301c82612fb5565b604082019050919050565b6000602082019050818103600083015261304081613004565b9050919050565b60008190508160005260206000209050919050565b60006020601f8301049050919050565b600082821b905092915050565b6000600883026130a97fffffffffffffffffffffffffffffffffffffffffffffffffffffffffffffffff8261306c565b6130b3868361306c565b95508019841693508086168417925050509392505050565b6000819050919050565b60006130f06130eb6130e6846121c7565b6130cb565b6121c7565b9050919050565b6000819050919050565b61310a836130d5565b61311e613116826130f7565b848454613079565b825550505050565b600090565b613133613126565b61313e818484613101565b505050565b5b818110156131625761315760008261312b565b600181019050613144565b5050565b601f8211156131a75761317881613047565b6131818461305c565b81016020851015613190578190505b6131a461319c8561305c565b830182613143565b50505b505050565b600082821c905092915050565b60006131ca600019846008026131ac565b1980831691505092915050565b60006131e383836131b9565b9150826002028217905092915050565b6131fc82612115565b67ffffffffffffffff811115613215576132146124a4565b5b61321f8254612795565b61322a828285613166565b600060209050601f83116001811461325d576000841561324b578287015190505b61325585826131d7565b8655506132bd565b601f19841661326b86613047565b60005b828110156132935784890151825560018201915060208501945060208101905061326e565b868310156132b057848901516132ac601f8916826131b9565b8355505b6001600288020188555050505b505050505050565b600081519050919050565b600082825260208201905092915050565b60006132ec826132c5565b6132f681856132d0565b9350613306818560208601612131565b61330f8161215b565b840191505092915050565b600060808201905061332f600083018761225c565b61333c602083018661225c565b6133496040830185612404565b818103606083015261335b81846132e1565b905095945050505050565b60008151905061337581612086565b92915050565b60006020828403121561339157613390612050565b5b600061339f84828501613366565b91505092915050565b7f4e487b7100000000000000000000000000000000000000000000000000000000600052601260045260246000fd5b7f4552433732313a206d696e7420746f20746865207a65726f2061646472657373600082015250565b600061340d602083612120565b9150613418826133d7565b602082019050919050565b6000602082019050818103600083015261343c81613400565b9050919050565b7f4552433732313a20746f6b656e20616c7265616479206d696e74656400000000600082015250565b6000613479601c83612120565b915061348482613443565b602082019050919050565b600060208201905081810360008301526134a88161346c565b905091905056fea2646970667358221220923d4b42e70c46d8968fca6403f4f4e6e72099e8c12724dbdfa9fd57c783356f64736f6c63430008140033",
  "linkReferences": {},
  "deployedLinkReferences": {}
}