{
  "_format": "hh-sol-artifact-1",
  "contractName": "Campaign",
  "sourceName": "contracts/Campaign.sol",
  "abi": [
    {
      "inputs": [
        {
          "internalType": "address",
          "name": "_creator",
          "type": "address"
        },
        {
          "internalType": "uint256",
          "name": "_goal",
          "type": "uint256"
        },
        {
          "internalType": "uint256",
          "name": "_deadline",
          "type": "uint256"
        }
      ],
      "stateMutability": "nonpayable",
      "type": "constructor"
    },
    {
      "inputs": [],
      "name": "AlreadyFinalized",
      "type": "error"
    },
    {
      "inputs": [],
      "name": "AlreadyWithdrawn",
      "type": "error"
    },
    {
      "inputs": [],
      "name": "CampaignEnded",
      "type": "error"
    },
    {
      "inputs": [],
      "name": "DeadlineNotReached",
      "type": "error"
    },
    {
      "inputs": [],
      "name": "GoalNotReached",
      "type": "error"
    },
    {
      "inputs": [],
      "name": "GoalReached",
      "type": "error"
    },
    {
      "inputs": [],
      "name": "InvalidMilestoneId",
      "type": "error"
    },
    {
      "inputs": [],
      "name": "InvalidPercentage",
      "type": "error"
    },
    {
      "inputs": [],
      "name": "MilestoneAlreadyReleased",
      "type": "error"
    },
    {
      "inputs": [],
      "name": "MilestoneNotApproved",
      "type": "error"
    },
    {
      "inputs": [],
      "name": "MilestonesAlreadySet",
      "type": "error"
    },
    {
      "inputs": [],
      "name": "NoContribution",
      "type": "error"
    },
    {
      "inputs": [],
      "name": "NoFundsToRelease",
      "type": "error"
    },
    {
      "inputs": [],
      "name": "NoMilestones",
      "type": "error"
    },
    {
      "inputs": [],
      "name": "NotContributor",
      "type": "error"
    },
    {
      "inputs": [],
      "name": "NotCreator",
      "type": "error"
    },
    {
      "inputs": [],
      "name": "ReentrancyGuardReentrantCall",
      "type": "error"
    },
    {
      "inputs": [],
      "name": "RefundNotEnabled",
      "type": "error"
    },
    {
      "inputs": [],
      "name": "TransferFailed",
      "type": "error"
    },
    {
      "inputs": [],
      "name": "ZeroContribution",
      "type": "error"
    },
    {
      "anonymous": false,
      "inputs": [
        {
          "indexed": false,
          "internalType": "bool",
          "name": "goalReached",
          "type": "bool"
        }
      ],
      "name": "CampaignClosed",
      "type": "event"
    },
    {
      "anonymous": false,
      "inputs": [
        {
          "indexed": true,
          "internalType": "address",
          "name": "contributor",
          "type": "address"
        },
        {
          "indexed": false,
          "internalType": "uint256",
          "name": "amount",
          "type": "uint256"
        }
      ],
      "name": "Contributed",
      "type": "event"
    },
    {
      "anonymous": false,
      "inputs": [
        {
          "indexed": true,
          "internalType": "address",
          "name": "contributor",
          "type": "address"
        },
        {
          "indexed": false,
          "internalType": "uint256",
          "name": "amount",
          "type": "uint256"
        }
      ],
      "name": "ContributionReceived",
      "type": "event"
    },
    {
      "anonymous": false,
      "inputs": [
        {
          "indexed": true,
          "internalType": "address",
          "name": "creator",
          "type": "address"
        },
        {
          "indexed": false,
          "internalType": "uint256",
          "name": "amount",
          "type": "uint256"
        }
      ],
      "name": "FundsReleased",
      "type": "event"
    },
    {
      "anonymous": false,
      "inputs": [
        {
          "indexed": true,
          "internalType": "uint256",
          "name": "milestoneId",
          "type": "uint256"
        },
        {
          "indexed": true,
          "internalType": "address",
          "name": "voter",
          "type": "address"
        },
        {
          "indexed": false,
          "internalType": "uint256",
          "name": "weight",
          "type": "uint256"
        }
      ],
      "name": "MilestoneApproved",
      "type": "event"
    },
    {
      "anonymous": false,
      "inputs": [
        {
          "indexed": true,
          "internalType": "uint256",
          "name": "milestoneId",
          "type": "uint256"
        },
        {
          "indexed": false,
          "internalType": "uint256",
          "name": "percentage",
          "type": "uint256"
        }
      ],
      "name": "MilestoneCreated",
      "type": "event"
    },
    {
      "anonymous": false,
      "inputs": [
        {
          "indexed": true,
          "internalType": "uint256",
          "name": "milestoneId",
          "type": "uint256"
        },
        {
          "indexed": false,
          "internalType": "uint256",
          "name": "amount",
          "type": "uint256"
        }
      ],
      "name": "MilestoneFundsReleased",
      "type": "event"
    },
    {
      "anonymous": false,
      "inputs": [
        {
          "indexed": true,
          "internalType": "address",
          "name": "contributor",
          "type": "address"
        },
        {
          "indexed": false,
          "internalType": "uint256",
          "name": "amount",
          "type": "uint256"
        }
      ],
      "name": "Refund",
      "type": "event"
    },
    {
      "anonymous": false,
      "inputs": [
        {
          "indexed": true,
          "internalType": "address",
          "name": "contributor",
          "type": "address"
        },
        {
          "indexed": false,
          "internalType": "uint256",
          "name": "amount",
          "type": "uint256"
        }
      ],
      "name": "RefundClaimed",
      "type": "event"
    },
    {
      "anonymous": false,
      "inputs": [
        {
          "indexed": true,
          "internalType": "address",
          "name": "creator",
          "type": "address"
        },
        {
          "indexed": false,
          "internalType": "uint256",
          "name": "amount",
          "type": "uint256"
        }
      ],
      "name": "Withdrawal",
      "type": "event"
    },
    {
      "inputs": [
        {
          "internalType": "uint256",
          "name": "milestoneId",
          "type": "uint256"
        }
      ],
      "name": "approveMilestone",
      "outputs": [],
      "stateMutability": "nonpayable",
      "type": "function"
    },
    {
      "inputs": [],
      "name": "claimRefund",
      "outputs": [],
      "stateMutability": "nonpayable",
      "type": "function"
    },
    {
      "inputs": [],
      "name": "closed",
      "outputs": [
        {
          "internalType": "bool",
          "name": "",
          "type": "bool"
        }
      ],
      "stateMutability": "view",
      "type": "function"
    },
    {
      "inputs": [],
      "name": "contribute",
      "outputs": [],
      "stateMutability": "payable",
      "type": "function"
    },
    {
      "inputs": [
        {
          "internalType": "address",
          "name": "",
          "type": "address"
        }
      ],
      "name": "contributions",
      "outputs": [
        {
          "internalType": "uint256",
          "name": "",
          "type": "uint256"
        }
      ],
      "stateMutability": "view",
      "type": "function"
    },
    {
      "inputs": [],
      "name": "creator",
      "outputs": [
        {
          "internalType": "address",
          "name": "",
          "type": "address"
        }
      ],
      "stateMutability": "view",
      "type": "function"
    },
    {
      "inputs": [],
      "name": "deadline",
      "outputs": [
        {
          "internalType": "uint256",
          "name": "",
          "type": "uint256"
        }
      ],
      "stateMutability": "view",
      "type": "function"
    },
    {
      "inputs": [],
      "name": "finalizeAfterDeadline",
      "outputs": [],
      "stateMutability": "nonpayable",
      "type": "function"
    },
    {
      "inputs": [],
      "name": "finalized",
      "outputs": [
        {
          "internalType": "bool",
          "name": "",
          "type": "bool"
        }
      ],
      "stateMutability": "view",
      "type": "function"
    },
    {
      "inputs": [],
      "name": "fundsReleased",
      "outputs": [
        {
          "internalType": "bool",
          "name": "",
          "type": "bool"
        }
      ],
      "stateMutability": "view",
      "type": "function"
    },
    {
      "inputs": [],
      "name": "fundsWithdrawn",
      "outputs": [
        {
          "internalType": "bool",
          "name": "",
          "type": "bool"
        }
      ],
      "stateMutability": "view",
      "type": "function"
    },
    {
      "inputs": [],
      "name": "goal",
      "outputs": [
        {
          "internalType": "uint256",
          "name": "",
          "type": "uint256"
        }
      ],
      "stateMutability": "view",
      "type": "function"
    },
    {
      "inputs": [],
      "name": "goalReached",
      "outputs": [
        {
          "internalType": "bool",
          "name": "",
          "type": "bool"
        }
      ],
      "stateMutability": "view",
      "type": "function"
    },
    {
      "inputs": [
        {
          "internalType": "uint256",
          "name": "",
          "type": "uint256"
        }
      ],
      "name": "milestoneApprovalWeight",
      "outputs": [
        {
          "internalType": "uint256",
          "name": "",
          "type": "uint256"
        }
      ],
      "stateMutability": "view",
      "type": "function"
    },
    {
      "inputs": [
        {
          "internalType": "uint256",
          "name": "",
          "type": "uint256"
        },
        {
          "internalType": "address",
          "name": "",
          "type": "address"
        }
      ],
      "name": "milestoneVoted",
      "outputs": [
        {
          "internalType": "bool",
          "name": "",
          "type": "bool"
        }
      ],
      "stateMutability": "view",
      "type": "function"
    },
    {
      "inputs": [
        {
          "internalType": "uint256",
          "name": "",
          "type": "uint256"
        }
      ],
      "name": "milestones",
      "outputs": [
        {
          "internalType": "uint256",
          "name": "percentage",
          "type": "uint256"
        },
        {
          "internalType": "bool",
          "name": "released",
          "type": "bool"
        }
      ],
      "stateMutability": "view",
      "type": "function"
    },
    {
      "inputs": [],
      "name": "refund",
      "outputs": [],
      "stateMutability": "nonpayable",
      "type": "function"
    },
    {
      "inputs": [],
      "name": "refundEnabled",
      "outputs": [
        {
          "internalType": "bool",
          "name": "",
          "type": "bool"
        }
      ],
      "stateMutability": "view",
      "type": "function"
    },
    {
      "inputs": [],
      "name": "releaseFunds",
      "outputs": [],
      "stateMutability": "nonpayable",
      "type": "function"
    },
    {
      "inputs": [
        {
          "internalType": "uint256",
          "name": "milestoneId",
          "type": "uint256"
        }
      ],
      "name": "releaseMilestoneFunds",
      "outputs": [],
      "stateMutability": "nonpayable",
      "type": "function"
    },
    {
      "inputs": [
        {
          "internalType": "uint256[]",
          "name": "percentages",
          "type": "uint256[]"
        }
      ],
      "name": "setMilestones",
      "outputs": [],
      "stateMutability": "nonpayable",
      "type": "function"
    },
    {
      "inputs": [],
      "name": "totalContributed",
      "outputs": [
        {
          "internalType": "uint256",
          "name": "",
          "type": "uint256"
        }
      ],
      "stateMutability": "view",
      "type": "function"
    },
    {
      "inputs": [],
      "name": "totalMilestoneReleased",
      "outputs": [
        {
          "internalType": "uint256",
          "name": "",
          "type": "uint256"
        }
      ],
      "stateMutability": "view",
      "type": "function"
    },
    {
      "inputs": [],
      "name": "totalRaised",
      "outputs": [
        {
          "internalType": "uint256",
          "name": "",
          "type": "uint256"
        }
      ],
      "stateMutability": "view",
      "type": "function"
    },
    {
      "inputs": [],
      "name": "withdrawFunds",
      "outputs": [],
      "stateMutability": "nonpayable",
      "type": "function"
    },
    {
      "stateMutability": "payable",
      "type": "receive"
    }
  ],
  "bytecode": "0x60806040523480156200001157600080fd5b50604051620025ab380380620025ab83398181016040528101906200003791906200013c565b600160008190555082600160006101000a81548173ffffffffffffffffffffffffffffffffffffffff021916908373ffffffffffffffffffffffffffffffffffffffff160217905550816002819055508060038190555050505062000198565b600080fd5b600073ffffffffffffffffffffffffffffffffffffffff82169050919050565b6000620000c9826200009c565b9050919050565b620000db81620000bc565b8114620000e757600080fd5b50565b600081519050620000fb81620000d0565b92915050565b6000819050919050565b620001168162000101565b81146200012257600080fd5b50565b60008151905062000136816200010b565b92915050565b60008060006060848603121562000158576200015762000097565b5b60006200016886828701620000ea565b93505060206200017b8682870162000125565b92505060406200018e8682870162000125565b9150509250925092565b61240380620001a86000396000f3fe60806040526004361061016a5760003560e01c80639b90b0a2116100d1578063b564e9261161008a578063c5c4744c11610064578063c5c4744c14610527578063d7bb99ba14610552578063e652e1f41461055c578063e89e4ed614610585576101cd565b8063b564e926146104bc578063b9b02f25146104e7578063c438b40f146104fe576101cd565b80639b90b0a2146103ac578063a2e54d75146103e9578063ab28da4814610412578063ac307fcf1461044f578063b3f05b971461047a578063b5545a3c146104a5576101cd565b806342e94c901161012357806342e94c90146102c05780634c4a386f146102fd578063590e1ae314610328578063597e1fb51461033f57806369d895751461036a5780637d3d652214610381576101cd565b8063023f4147146101d257806302d05d3f146101fd578063191154331461022857806324600fc31461025357806329dcb0cf1461026a5780634019388314610295576101cd565b366101cd573073ffffffffffffffffffffffffffffffffffffffff1663d7bb99ba346040518263ffffffff1660e01b81526004016000604051808303818588803b1580156101b757600080fd5b505af11580156101cb573d6000803e3d6000fd5b005b600080fd5b3480156101de57600080fd5b506101e76105c3565b6040516101f49190611f53565b60405180910390f35b34801561020957600080fd5b506102126105c9565b60405161021f9190611faf565b60405180910390f35b34801561023457600080fd5b5061023d6105ef565b60405161024a9190611f53565b60405180910390f35b34801561025f57600080fd5b506102686105f5565b005b34801561027657600080fd5b5061027f610950565b60405161028c9190611f53565b60405180910390f35b3480156102a157600080fd5b506102aa610956565b6040516102b79190611f53565b60405180910390f35b3480156102cc57600080fd5b506102e760048036038101906102e29190612000565b61095c565b6040516102f49190611f53565b60405180910390f35b34801561030957600080fd5b50610312610974565b60405161031f9190612048565b60405180910390f35b34801561033457600080fd5b5061033d610987565b005b34801561034b57600080fd5b50610354610bfc565b6040516103619190612048565b60405180910390f35b34801561037657600080fd5b5061037f610c0f565b005b34801561038d57600080fd5b50610396610f6a565b6040516103a39190612048565b60405180910390f35b3480156103b857600080fd5b506103d360048036038101906103ce919061208f565b610f79565b6040516103e09190612048565b60405180910390f35b3480156103f557600080fd5b50610410600480360381019061040b91906120cf565b610fa8565b005b34801561041e57600080fd5b50610439600480360381019061043491906120cf565b6113a2565b6040516104469190611f53565b60405180910390f35b34801561045b57600080fd5b506104646113ba565b6040516104719190612048565b60405180910390f35b34801561048657600080fd5b5061048f6113cd565b60405161049c9190612048565b60405180910390f35b3480156104b157600080fd5b506104ba6113e0565b005b3480156104c857600080fd5b506104d1611655565b6040516104de9190612048565b60405180910390f35b3480156104f357600080fd5b506104fc611668565b005b34801561050a57600080fd5b50610525600480360381019061052091906120cf565b611730565b005b34801561053357600080fd5b5061053c6119eb565b6040516105499190611f53565b60405180910390f35b61055a6119f1565b005b34801561056857600080fd5b50610583600480360381019061057e9190612161565b611c32565b005b34801561059157600080fd5b506105ac60048036038101906105a791906120cf565b611ea9565b6040516105ba9291906121ae565b60405180910390f35b60045481565b600160009054906101000a900473ffffffffffffffffffffffffffffffffffffffff1681565b60065481565b6105fd611eea565b600160009054906101000a900473ffffffffffffffffffffffffffffffffffffffff1673ffffffffffffffffffffffffffffffffffffffff163373ffffffffffffffffffffffffffffffffffffffff1614610684576040517f93687c0b00000000000000000000000000000000000000000000000000000000815260040160405180910390fd5b6003544210156106c0576040517f66ec4ee600000000000000000000000000000000000000000000000000000000815260040160405180910390fd5b600760009054906101000a900460ff16610706576040517f78c754c900000000000000000000000000000000000000000000000000000000815260040160405180910390fd5b600760019054906101000a900460ff168061072d5750600760029054906101000a900460ff165b15610764576040517f6507689f00000000000000000000000000000000000000000000000000000000815260040160405180910390fd5b60004790506001600760016101000a81548160ff0219169083151502179055506001600760026101000a81548160ff0219169083151502179055506000600160009054906101000a900473ffffffffffffffffffffffffffffffffffffffff1673ffffffffffffffffffffffffffffffffffffffff16826040516107e790612208565b60006040518083038185875af1925050503d8060008114610824576040519150601f19603f3d011682016040523d82523d6000602084013e610829565b606091505b5050905080610864576040517f90b8ec1800000000000000000000000000000000000000000000000000000000815260040160405180910390fd5b600160009054906101000a900473ffffffffffffffffffffffffffffffffffffffff1673ffffffffffffffffffffffffffffffffffffffff167f7fcf532c15f0a6db0bd6d0e038bea71d30d808c7d98cb3bf7268a95bf5081b65836040516108cc9190611f53565b60405180910390a2600160009054906101000a900473ffffffffffffffffffffffffffffffffffffffff1673ffffffffffffffffffffffffffffffffffffffff167f221c08a06b07a64803b3787861a3f276212fcccb51c2e6234077a9b8cb13047a8360405161093c9190611f53565b60405180910390a2505061094e611f30565b565b60035481565b60025481565b60086020528060005260406000206000915090505481565b600760039054906101000a900460ff1681565b61098f611eea565b600760039054906101000a900460ff166109d5576040517f44dddc9700000000000000000000000000000000000000000000000000000000815260040160405180910390fd5b6000600860003373ffffffffffffffffffffffffffffffffffffffff1673ffffffffffffffffffffffffffffffffffffffff16815260200190815260200160002054905060008103610a53576040517f65c7efcc00000000000000000000000000000000000000000000000000000000815260040160405180910390fd5b6000600860003373ffffffffffffffffffffffffffffffffffffffff1673ffffffffffffffffffffffffffffffffffffffff168152602001908152602001600020819055508060046000828254610aaa919061224c565b9250508190555060003373ffffffffffffffffffffffffffffffffffffffff1682604051610ad790612208565b60006040518083038185875af1925050503d8060008114610b14576040519150601f19603f3d011682016040523d82523d6000602084013e610b19565b606091505b5050905080610b54576040517f90b8ec1800000000000000000000000000000000000000000000000000000000815260040160405180910390fd5b3373ffffffffffffffffffffffffffffffffffffffff167fbb28353e4598c3b9199101a66e0989549b659a59a54d2c27fbb183f1932c8e6d83604051610b9a9190611f53565b60405180910390a23373ffffffffffffffffffffffffffffffffffffffff167f358fe4192934d3bf28ae181feda1f4bd08ca67f5e2fad55582cce5eb67304ae983604051610be89190611f53565b60405180910390a25050610bfa611f30565b565b600760009054906101000a900460ff1681565b610c17611eea565b600160009054906101000a900473ffffffffffffffffffffffffffffffffffffffff1673ffffffffffffffffffffffffffffffffffffffff163373ffffffffffffffffffffffffffffffffffffffff1614610c9e576040517f93687c0b00000000000000000000000000000000000000000000000000000000815260040160405180910390fd5b600354421015610cda576040517f66ec4ee600000000000000000000000000000000000000000000000000000000815260040160405180910390fd5b600760009054906101000a900460ff16610d20576040517f78c754c900000000000000000000000000000000000000000000000000000000815260040160405180910390fd5b600760019054906101000a900460ff1680610d475750600760029054906101000a900460ff165b15610d7e576040517f6507689f00000000000000000000000000000000000000000000000000000000815260040160405180910390fd5b60004790506001600760016101000a81548160ff0219169083151502179055506001600760026101000a81548160ff0219169083151502179055506000600160009054906101000a900473ffffffffffffffffffffffffffffffffffffffff1673ffffffffffffffffffffffffffffffffffffffff1682604051610e0190612208565b60006040518083038185875af1925050503d8060008114610e3e576040519150601f19603f3d011682016040523d82523d6000602084013e610e43565b606091505b5050905080610e7e576040517f90b8ec1800000000000000000000000000000000000000000000000000000000815260040160405180910390fd5b600160009054906101000a900473ffffffffffffffffffffffffffffffffffffffff1673ffffffffffffffffffffffffffffffffffffffff167f7fcf532c15f0a6db0bd6d0e038bea71d30d808c7d98cb3bf7268a95bf5081b6583604051610ee69190611f53565b60405180910390a2600160009054906101000a900473ffffffffffffffffffffffffffffffffffffffff1673ffffffffffffffffffffffffffffffffffffffff167f221c08a06b07a64803b3787861a3f276212fcccb51c2e6234077a9b8cb13047a83604051610f569190611f53565b60405180910390a25050610f68611f30565b565b60006002546004541015905090565b600b6020528160005260406000206020528060005260406000206000915091509054906101000a900460ff1681565b610fb0611eea565b600160009054906101000a900473ffffffffffffffffffffffffffffffffffffffff1673ffffffffffffffffffffffffffffffffffffffff163373ffffffffffffffffffffffffffffffffffffffff1614611037576040517f93687c0b00000000000000000000000000000000000000000000000000000000815260040160405180910390fd5b6009805490508110611075576040517ff09a118400000000000000000000000000000000000000000000000000000000815260040160405180910390fd5b6003544210156110b1576040517f66ec4ee600000000000000000000000000000000000000000000000000000000815260040160405180910390fd5b600760009054906101000a900460ff166110f7576040517f78c754c900000000000000000000000000000000000000000000000000000000815260040160405180910390fd5b60006009828154811061110d5761110c612280565b5b906000526020600020906002020190508060010160009054906101000a900460ff1615611166576040517f81b57dde00000000000000000000000000000000000000000000000000000000815260040160405180910390fd5b6004546002600a60008581526020019081526020016000205461118991906122af565b10156111c1576040517fb755348d00000000000000000000000000000000000000000000000000000000815260040160405180910390fd5b6000606482600001546005546111d791906122af565b6111e19190612320565b9050600654811161121e576040517fb7cc22bc00000000000000000000000000000000000000000000000000000000815260040160405180910390fd5b60006006548261122e919061224c565b90508160068190555060018360010160006101000a81548160ff0219169083151502179055506000600160009054906101000a900473ffffffffffffffffffffffffffffffffffffffff1673ffffffffffffffffffffffffffffffffffffffff168260405161129c90612208565b60006040518083038185875af1925050503d80600081146112d9576040519150601f19603f3d011682016040523d82523d6000602084013e6112de565b606091505b5050905080611319576040517f90b8ec1800000000000000000000000000000000000000000000000000000000815260040160405180910390fd5b847f695e5da4ac18d67a20f922f9097a3928889a25a0756a2c77cae45d84564cc0c2836040516113499190611f53565b60405180910390a260055460065410611393576001600760026101000a81548160ff0219169083151502179055506001600760016101000a81548160ff0219169083151502179055505b5050505061139f611f30565b50565b600a6020528060005260406000206000915090505481565b600760019054906101000a900460ff1681565b600760049054906101000a900460ff1681565b6113e8611eea565b600760039054906101000a900460ff1661142e576040517f44dddc9700000000000000000000000000000000000000000000000000000000815260040160405180910390fd5b6000600860003373ffffffffffffffffffffffffffffffffffffffff1673ffffffffffffffffffffffffffffffffffffffff168152602001908152602001600020549050600081036114ac576040517f65c7efcc00000000000000000000000000000000000000000000000000000000815260040160405180910390fd5b6000600860003373ffffffffffffffffffffffffffffffffffffffff1673ffffffffffffffffffffffffffffffffffffffff168152602001908152602001600020819055508060046000828254611503919061224c565b9250508190555060003373ffffffffffffffffffffffffffffffffffffffff168260405161153090612208565b60006040518083038185875af1925050503d806000811461156d576040519150601f19603f3d011682016040523d82523d6000602084013e611572565b606091505b50509050806115ad576040517f90b8ec1800000000000000000000000000000000000000000000000000000000815260040160405180910390fd5b3373ffffffffffffffffffffffffffffffffffffffff167fbb28353e4598c3b9199101a66e0989549b659a59a54d2c27fbb183f1932c8e6d836040516115f39190611f53565b60405180910390a23373ffffffffffffffffffffffffffffffffffffffff167f358fe4192934d3bf28ae181feda1f4bd08ca67f5e2fad55582cce5eb67304ae9836040516116419190611f53565b60405180910390a25050611653611f30565b565b600760029054906101000a900460ff1681565b600760049054906101000a900460ff16156116af576040517f475a253500000000000000000000000000000000000000000000000000000000815260040160405180910390fd5b6003544210156116eb576040517f66ec4ee600000000000000000000000000000000000000000000000000000000815260040160405180910390fd5b6001600760046101000a81548160ff021916908315150217905550600254600554101561172e576001600760036101000a81548160ff0219169083151502179055505b565b600980549050811061176e576040517ff09a118400000000000000000000000000000000000000000000000000000000815260040160405180910390fd5b6000600860003373ffffffffffffffffffffffffffffffffffffffff1673ffffffffffffffffffffffffffffffffffffffff16815260200190815260200160002054036117e7576040517fd764187d00000000000000000000000000000000000000000000000000000000815260040160405180910390fd5b6000600982815481106117fd576117fc612280565b5b906000526020600020906002020190508060010160009054906101000a900460ff1615611856576040517f81b57dde00000000000000000000000000000000000000000000000000000000815260040160405180910390fd5b600b600083815260200190815260200160002060003373ffffffffffffffffffffffffffffffffffffffff1673ffffffffffffffffffffffffffffffffffffffff16815260200190815260200160002060009054906101000a900460ff16156118bf57506119e8565b6001600b600084815260200190815260200160002060003373ffffffffffffffffffffffffffffffffffffffff1673ffffffffffffffffffffffffffffffffffffffff16815260200190815260200160002060006101000a81548160ff0219169083151502179055506000600860003373ffffffffffffffffffffffffffffffffffffffff1673ffffffffffffffffffffffffffffffffffffffff16815260200190815260200160002054905080600a6000858152602001908152602001600020600082825461198f9190612351565b925050819055503373ffffffffffffffffffffffffffffffffffffffff16837ffe731b8534f38a55c98725a977efe67da793f35fb32ca4d1d947c01d80259bc2836040516119dd9190611f53565b60405180910390a350505b50565b60055481565b6119f9611eea565b60003403611a33576040517fab82a24800000000000000000000000000000000000000000000000000000000815260040160405180910390fd5b6003544210611a6e576040517f553ae05400000000000000000000000000000000000000000000000000000000815260040160405180910390fd5b600760009054906101000a900460ff1615611ab5576040517ff30bb8af00000000000000000000000000000000000000000000000000000000815260040160405180910390fd5b34600860003373ffffffffffffffffffffffffffffffffffffffff1673ffffffffffffffffffffffffffffffffffffffff1681526020019081526020016000206000828254611b049190612351565b925050819055503460046000828254611b1d9190612351565b9250508190555060045460058190555060025460045410611b8c576001600760006101000a81548160ff0219169083151502179055507f62bb2c2be703269b4efd105a54be058929a0a5b858f6776ad7b341a7bf3e88586001604051611b839190612048565b60405180910390a15b3373ffffffffffffffffffffffffffffffffffffffff167f62722348256371b5147820d6cad90c40fd2da1ccee18c3ed52c0bca5a61dbbab34604051611bd29190611f53565b60405180910390a23373ffffffffffffffffffffffffffffffffffffffff167f1bb460ccaaf70fbacfec17a376f8acbd278c1405590ffcc8ebe4b88daf4f64ad34604051611c209190611f53565b60405180910390a2611c30611f30565b565b600160009054906101000a900473ffffffffffffffffffffffffffffffffffffffff1673ffffffffffffffffffffffffffffffffffffffff163373ffffffffffffffffffffffffffffffffffffffff1614611cb9576040517f93687c0b00000000000000000000000000000000000000000000000000000000815260040160405180910390fd5b600060098054905014611cf8576040517f7575b7f700000000000000000000000000000000000000000000000000000000815260040160405180910390fd5b60008282905003611d35576040517f5c4a81cc00000000000000000000000000000000000000000000000000000000815260040160405180910390fd5b600080600090505b83839050811015611e69576000848483818110611d5d57611d5c612280565b5b90506020020135905060008103611da0576040517f1f3b85d300000000000000000000000000000000000000000000000000000000815260040160405180910390fd5b8083611dac9190612351565b9250600960405180604001604052808381526020016000151581525090806001815401808255809150506001900390600052602060002090600202016000909190919091506000820151816000015560208201518160010160006101000a81548160ff0219169083151502179055505050817f3a2622619a6ba11c3f6805f19879501605e35983595b15a0a32c8982c5c4567782604051611e4d9190611f53565b60405180910390a2508080611e6190612385565b915050611d3d565b5060648114611ea4576040517f1f3b85d300000000000000000000000000000000000000000000000000000000815260040160405180910390fd5b505050565b60098181548110611eb957600080fd5b90600052602060002090600202016000915090508060000154908060010160009054906101000a900460ff16905082565b600260005403611f26576040517f3ee5aeb500000000000000000000000000000000000000000000000000000000815260040160405180910390fd5b6002600081905550565b6001600081905550565b6000819050919050565b611f4d81611f3a565b82525050565b6000602082019050611f686000830184611f44565b92915050565b600073ffffffffffffffffffffffffffffffffffffffff82169050919050565b6000611f9982611f6e565b9050919050565b611fa981611f8e565b82525050565b6000602082019050611fc46000830184611fa0565b92915050565b600080fd5b600080fd5b611fdd81611f8e565b8114611fe857600080fd5b50565b600081359050611ffa81611fd4565b92915050565b60006020828403121561201657612015611fca565b5b600061202484828501611feb565b91505092915050565b60008115159050919050565b6120428161202d565b82525050565b600060208201905061205d6000830184612039565b92915050565b61206c81611f3a565b811461207757600080fd5b50565b60008135905061208981612063565b92915050565b600080604083850312156120a6576120a5611fca565b5b60006120b48582860161207a565b92505060206120c585828601611feb565b9150509250929050565b6000602082840312156120e5576120e4611fca565b5b60006120f38482850161207a565b91505092915050565b600080fd5b600080fd5b600080fd5b60008083601f840112612121576121206120fc565b5b8235905067ffffffffffffffff81111561213e5761213d612101565b5b60208301915083602082028301111561215a57612159612106565b5b9250929050565b6000806020838503121561217857612177611fca565b5b600083013567ffffffffffffffff81111561219657612195611fcf565b5b6121a28582860161210b565b92509250509250929050565b60006040820190506121c36000830185611f44565b6121d06020830184612039565b9392505050565b600081905092915050565b50565b60006121f26000836121d7565b91506121fd826121e2565b600082019050919050565b6000612213826121e5565b9150819050919050565b7f4e487b7100000000000000000000000000000000000000000000000000000000600052601160045260246000fd5b600061225782611f3a565b915061226283611f3a565b925082820390508181111561227a5761227961221d565b5b92915050565b7f4e487b7100000000000000000000000000000000000000000000000000000000600052603260045260246000fd5b60006122ba82611f3a565b91506122c583611f3a565b92508282026122d381611f3a565b915082820484148315176122ea576122e961221d565b5b5092915050565b7f4e487b7100000000000000000000000000000000000000000000000000000000600052601260045260246000fd5b600061232b82611f3a565b915061233683611f3a565b925082612346576123456122f1565b5b828204905092915050565b600061235c82611f3a565b915061236783611f3a565b925082820190508082111561237f5761237e61221d565b5b92915050565b600061239082611f3a565b91507fffffffffffffffffffffffffffffffffffffffffffffffffffffffffffffffff82036123c2576123c161221d565b5b60018201905091905056fea2646970667358221220be9a2dc895bed597d8f30c26485783ac042d04c97545c7aea30cacef8ae090a764736f6c63430008140033",
  "linkReferences": {},
  "deployedLinkReferences": {}
}