{
  "_format": "hh-sol-artifact-1",
  "contractName": "Campaign",
  "sourceName": "contracts/Campaign.sol",
  "abi": [
    {
      "inputs": [
        {
          "internalType": "address",
          "name": "_creator",
          "type": "address"
        },
        {
          "internalType": "uint256",
          "name": "_goal",
          "type": "uint256"
        },
        {
          "internalType": "uint256",
          "name": "_deadline",
          "type": "uint256"
        },
        {
          "internalType": "address",
          "name": "_admin",
          "type": "address"
        }
      ],
      "stateMutability": "nonpayable",
      "type": "constructor"
    },
    {
      "inputs": [],
      "name": "AlreadyFinalized",
      "type": "error"
    },
    {
      "inputs": [],
      "name": "AlreadyReported",
      "type": "error"
    },
    {
      "inputs": [],
      "name": "AlreadyVoted",
      "type": "error"
    },
    {
      "inputs": [],
      "name": "AlreadyWithdrawn",
      "type": "error"
    },
    {
      "inputs": [],
      "name": "CampaignEnded",
      "type": "error"
    },
    {
      "inputs": [],
      "name": "DeadlineNotReached",
      "type": "error"
    },
    {
      "inputs": [],
      "name": "GoalNotReached",
      "type": "error"
    },
    {
      "inputs": [],
      "name": "GoalReached",
      "type": "error"
    },
    {
      "inputs": [],
      "name": "InvalidMilestoneId",
      "type": "error"
    },
    {
      "inputs": [],
      "name": "InvalidPercentage",
      "type": "error"
    },
    {
      "inputs": [],
      "name": "InvalidProposalId",
      "type": "error"
    },
    {
      "inputs": [],
      "name": "MilestoneAlreadyReleased",
      "type": "error"
    },
    {
      "inputs": [],
      "name": "MilestoneNotApproved",
      "type": "error"
    },
    {
      "inputs": [],
      "name": "MilestonesAlreadySet",
      "type": "error"
    },
    {
      "inputs": [],
      "name": "NoContribution",
      "type": "error"
    },
    {
      "inputs": [],
      "name": "NoFundsToRelease",
      "type": "error"
    },
    {
      "inputs": [],
      "name": "NoMilestones",
      "type": "error"
    },
    {
      "inputs": [],
      "name": "NotAdmin",
      "type": "error"
    },
    {
      "inputs": [],
      "name": "NotContributor",
      "type": "error"
    },
    {
      "inputs": [],
      "name": "NotCreator",
      "type": "error"
    },
    {
      "inputs": [],
      "name": "ProposalAlreadyExecuted",
      "type": "error"
    },
    {
      "inputs": [],
      "name": "ReentrancyGuardReentrantCall",
      "type": "error"
    },
    {
      "inputs": [],
      "name": "RefundNotEnabled",
      "type": "error"
    },
    {
      "inputs": [],
      "name": "TransferFailed",
      "type": "error"
    },
    {
      "inputs": [],
      "name": "ZeroContribution",
      "type": "error"
    },
    {
      "anonymous": false,
      "inputs": [
        {
          "indexed": false,
          "internalType": "bool",
          "name": "goalReached",
          "type": "bool"
        }
      ],
      "name": "CampaignClosed",
      "type": "event"
    },
    {
      "anonymous": false,
      "inputs": [
        {
          "indexed": true,
          "internalType": "address",
          "name": "reporter",
          "type": "address"
        }
      ],
      "name": "CampaignReported",
      "type": "event"
    },
    {
      "anonymous": false,
      "inputs": [
        {
          "indexed": true,
          "internalType": "address",
          "name": "verifier",
          "type": "address"
        }
      ],
      "name": "CampaignVerified",
      "type": "event"
    },
    {
      "anonymous": false,
      "inputs": [
        {
          "indexed": true,
          "internalType": "address",
          "name": "contributor",
          "type": "address"
        },
        {
          "indexed": false,
          "internalType": "uint256",
          "name": "amount",
          "type": "uint256"
        }
      ],
      "name": "Contributed",
      "type": "event"
    },
    {
      "anonymous": false,
      "inputs": [
        {
          "indexed": true,
          "internalType": "address",
          "name": "contributor",
          "type": "address"
        },
        {
          "indexed": false,
          "internalType": "uint256",
          "name": "amount",
          "type": "uint256"
        }
      ],
      "name": "ContributionReceived",
      "type": "event"
    },
    {
      "anonymous": false,
      "inputs": [
        {
          "indexed": true,
          "internalType": "address",
          "name": "contributor",
          "type": "address"
        },
        {
          "indexed": false,
          "internalType": "uint256",
          "name": "amount",
          "type": "uint256"
        },
        {
          "indexed": false,
          "internalType": "uint256",
          "name": "chainId",
          "type": "uint256"
        }
      ],
      "name": "CrossChainDeposit",
      "type": "event"
    },
    {
      "anonymous": false,
      "inputs": [
        {
          "indexed": true,
          "internalType": "address",
          "name": "creator",
          "type": "address"
        },
        {
          "indexed": false,
          "internalType": "uint256",
          "name": "amount",
          "type": "uint256"
        }
      ],
      "name": "FundsReleased",
      "type": "event"
    },
    {
      "anonymous": false,
      "inputs": [
        {
          "indexed": true,
          "internalType": "uint256",
          "name": "milestoneId",
          "type": "uint256"
        },
        {
          "indexed": true,
          "internalType": "address",
          "name": "voter",
          "type": "address"
        },
        {
          "indexed": false,
          "internalType": "uint256",
          "name": "weight",
          "type": "uint256"
        }
      ],
      "name": "MilestoneApproved",
      "type": "event"
    },
    {
      "anonymous": false,
      "inputs": [
        {
          "indexed": true,
          "internalType": "uint256",
          "name": "milestoneId",
          "type": "uint256"
        },
        {
          "indexed": false,
          "internalType": "uint256",
          "name": "percentage",
          "type": "uint256"
        }
      ],
      "name": "MilestoneCreated",
      "type": "event"
    },
    {
      "anonymous": false,
      "inputs": [
        {
          "indexed": true,
          "internalType": "uint256",
          "name": "milestoneId",
          "type": "uint256"
        },
        {
          "indexed": false,
          "internalType": "uint256",
          "name": "amount",
          "type": "uint256"
        }
      ],
      "name": "MilestoneFundsReleased",
      "type": "event"
    },
    {
      "anonymous": false,
      "inputs": [
        {
          "indexed": true,
          "internalType": "uint256",
          "name": "proposalId",
          "type": "uint256"
        },
        {
          "indexed": false,
          "internalType": "string",
          "name": "description",
          "type": "string"
        }
      ],
      "name": "ProposalCreated",
      "type": "event"
    },
    {
      "anonymous": false,
      "inputs": [
        {
          "indexed": true,
          "internalType": "uint256",
          "name": "proposalId",
          "type": "uint256"
        }
      ],
      "name": "ProposalExecuted",
      "type": "event"
    },
    {
      "anonymous": false,
      "inputs": [
        {
          "indexed": true,
          "internalType": "uint256",
          "name": "proposalId",
          "type": "uint256"
        },
        {
          "indexed": true,
          "internalType": "address",
          "name": "voter",
          "type": "address"
        }
      ],
      "name": "ProposalVoted",
      "type": "event"
    },
    {
      "anonymous": false,
      "inputs": [
        {
          "indexed": true,
          "internalType": "address",
          "name": "contributor",
          "type": "address"
        },
        {
          "indexed": false,
          "internalType": "uint256",
          "name": "amount",
          "type": "uint256"
        }
      ],
      "name": "Refund",
      "type": "event"
    },
    {
      "anonymous": false,
      "inputs": [
        {
          "indexed": true,
          "internalType": "address",
          "name": "contributor",
          "type": "address"
        },
        {
          "indexed": false,
          "internalType": "uint256",
          "name": "amount",
          "type": "uint256"
        }
      ],
      "name": "RefundClaimed",
      "type": "event"
    },
    {
      "anonymous": false,
      "inputs": [
        {
          "indexed": true,
          "internalType": "address",
          "name": "creator",
          "type": "address"
        },
        {
          "indexed": false,
          "internalType": "uint256",
          "name": "amount",
          "type": "uint256"
        }
      ],
      "name": "Withdrawal",
      "type": "event"
    },
    {
      "inputs": [],
      "name": "admin",
      "outputs": [
        {
          "internalType": "address",
          "name": "",
          "type": "address"
        }
      ],
      "stateMutability": "view",
      "type": "function"
    },
    {
      "inputs": [
        {
          "internalType": "uint256",
          "name": "milestoneId",
          "type": "uint256"
        }
      ],
      "name": "approveMilestone",
      "outputs": [],
      "stateMutability": "nonpayable",
      "type": "function"
    },
    {
      "inputs": [],
      "name": "claimRefund",
      "outputs": [],
      "stateMutability": "nonpayable",
      "type": "function"
    },
    {
      "inputs": [],
      "name": "closed",
      "outputs": [
        {
          "internalType": "bool",
          "name": "",
          "type": "bool"
        }
      ],
      "stateMutability": "view",
      "type": "function"
    },
    {
      "inputs": [],
      "name": "contribute",
      "outputs": [],
      "stateMutability": "payable",
      "type": "function"
    },
    {
      "inputs": [
        {
          "internalType": "address",
          "name": "",
          "type": "address"
        }
      ],
      "name": "contributions",
      "outputs": [
        {
          "internalType": "uint256",
          "name": "",
          "type": "uint256"
        }
      ],
      "stateMutability": "view",
      "type": "function"
    },
    {
      "inputs": [
        {
          "internalType": "string",
          "name": "description",
          "type": "string"
        }
      ],
      "name": "createProposal",
      "outputs": [],
      "stateMutability": "nonpayable",
      "type": "function"
    },
    {
      "inputs": [],
      "name": "creator",
      "outputs": [
        {
          "internalType": "address",
          "name": "",
          "type": "address"
        }
      ],
      "stateMutability": "view",
      "type": "function"
    },
    {
      "inputs": [],
      "name": "deadline",
      "outputs": [
        {
          "internalType": "uint256",
          "name": "",
          "type": "uint256"
        }
      ],
      "stateMutability": "view",
      "type": "function"
    },
    {
      "inputs": [
        {
          "internalType": "uint256",
          "name": "proposalId",
          "type": "uint256"
        }
      ],
      "name": "executeProposal",
      "outputs": [],
      "stateMutability": "nonpayable",
      "type": "function"
    },
    {
      "inputs": [],
      "name": "finalizeAfterDeadline",
      "outputs": [],
      "stateMutability": "nonpayable",
      "type": "function"
    },
    {
      "inputs": [],
      "name": "finalized",
      "outputs": [
        {
          "internalType": "bool",
          "name": "",
          "type": "bool"
        }
      ],
      "stateMutability": "view",
      "type": "function"
    },
    {
      "inputs": [],
      "name": "fundsReleased",
      "outputs": [
        {
          "internalType": "bool",
          "name": "",
          "type": "bool"
        }
      ],
      "stateMutability": "view",
      "type": "function"
    },
    {
      "inputs": [],
      "name": "fundsWithdrawn",
      "outputs": [
        {
          "internalType": "bool",
          "name": "",
          "type": "bool"
        }
      ],
      "stateMutability": "view",
      "type": "function"
    },
    {
      "inputs": [],
      "name": "getChainId",
      "outputs": [
        {
          "internalType": "uint256",
          "name": "",
          "type": "uint256"
        }
      ],
      "stateMutability": "view",
      "type": "function"
    },
    {
      "inputs": [],
      "name": "getProposalCount",
      "outputs": [
        {
          "internalType": "uint256",
          "name": "",
          "type": "uint256"
        }
      ],
      "stateMutability": "view",
      "type": "function"
    },
    {
      "inputs": [],
      "name": "goal",
      "outputs": [
        {
          "internalType": "uint256",
          "name": "",
          "type": "uint256"
        }
      ],
      "stateMutability": "view",
      "type": "function"
    },
    {
      "inputs": [],
      "name": "goalReached",
      "outputs": [
        {
          "internalType": "bool",
          "name": "",
          "type": "bool"
        }
      ],
      "stateMutability": "view",
      "type": "function"
    },
    {
      "inputs": [],
      "name": "isVerified",
      "outputs": [
        {
          "internalType": "bool",
          "name": "",
          "type": "bool"
        }
      ],
      "stateMutability": "view",
      "type": "function"
    },
    {
      "inputs": [
        {
          "internalType": "uint256",
          "name": "",
          "type": "uint256"
        }
      ],
      "name": "milestoneApprovalWeight",
      "outputs": [
        {
          "internalType": "uint256",
          "name": "",
          "type": "uint256"
        }
      ],
      "stateMutability": "view",
      "type": "function"
    },
    {
      "inputs": [
        {
          "internalType": "uint256",
          "name": "",
          "type": "uint256"
        },
        {
          "internalType": "address",
          "name": "",
          "type": "address"
        }
      ],
      "name": "milestoneVoted",
      "outputs": [
        {
          "internalType": "bool",
          "name": "",
          "type": "bool"
        }
      ],
      "stateMutability": "view",
      "type": "function"
    },
    {
      "inputs": [
        {
          "internalType": "uint256",
          "name": "",
          "type": "uint256"
        }
      ],
      "name": "milestones",
      "outputs": [
        {
          "internalType": "uint256",
          "name": "percentage",
          "type": "uint256"
        },
        {
          "internalType": "bool",
          "name": "released",
          "type": "bool"
        }
      ],
      "stateMutability": "view",
      "type": "function"
    },
    {
      "inputs": [
        {
          "internalType": "uint256",
          "name": "",
          "type": "uint256"
        },
        {
          "internalType": "address",
          "name": "",
          "type": "address"
        }
      ],
      "name": "proposalVoted",
      "outputs": [
        {
          "internalType": "bool",
          "name": "",
          "type": "bool"
        }
      ],
      "stateMutability": "view",
      "type": "function"
    },
    {
      "inputs": [
        {
          "internalType": "uint256",
          "name": "",
          "type": "uint256"
        }
      ],
      "name": "proposals",
      "outputs": [
        {
          "internalType": "string",
          "name": "description",
          "type": "string"
        },
        {
          "internalType": "uint256",
          "name": "voteCount",
          "type": "uint256"
        },
        {
          "internalType": "bool",
          "name": "executed",
          "type": "bool"
        }
      ],
      "stateMutability": "view",
      "type": "function"
    },
    {
      "inputs": [],
      "name": "refund",
      "outputs": [],
      "stateMutability": "nonpayable",
      "type": "function"
    },
    {
      "inputs": [],
      "name": "refundEnabled",
      "outputs": [
        {
          "internalType": "bool",
          "name": "",
          "type": "bool"
        }
      ],
      "stateMutability": "view",
      "type": "function"
    },
    {
      "inputs": [],
      "name": "releaseFunds",
      "outputs": [],
      "stateMutability": "nonpayable",
      "type": "function"
    },
    {
      "inputs": [
        {
          "internalType": "uint256",
          "name": "milestoneId",
          "type": "uint256"
        }
      ],
      "name": "releaseMilestoneFunds",
      "outputs": [],
      "stateMutability": "nonpayable",
      "type": "function"
    },
    {
      "inputs": [],
      "name": "reportCampaign",
      "outputs": [],
      "stateMutability": "nonpayable",
      "type": "function"
    },
    {
      "inputs": [],
      "name": "reportCount",
      "outputs": [
        {
          "internalType": "uint256",
          "name": "",
          "type": "uint256"
        }
      ],
      "stateMutability": "view",
      "type": "function"
    },
    {
      "inputs": [
        {
          "internalType": "address",
          "name": "",
          "type": "address"
        }
      ],
      "name": "reporters",
      "outputs": [
        {
          "internalType": "bool",
          "name": "",
          "type": "bool"
        }
      ],
      "stateMutability": "view",
      "type": "function"
    },
    {
      "inputs": [
        {
          "internalType": "uint256[]",
          "name": "percentages",
          "type": "uint256[]"
        }
      ],
      "name": "setMilestones",
      "outputs": [],
      "stateMutability": "nonpayable",
      "type": "function"
    },
    {
      "inputs": [],
      "name": "totalContributed",
      "outputs": [
        {
          "internalType": "uint256",
          "name": "",
          "type": "uint256"
        }
      ],
      "stateMutability": "view",
      "type": "function"
    },
    {
      "inputs": [],
      "name": "totalMilestoneReleased",
      "outputs": [
        {
          "internalType": "uint256",
          "name": "",
          "type": "uint256"
        }
      ],
      "stateMutability": "view",
      "type": "function"
    },
    {
      "inputs": [],
      "name": "totalRaised",
      "outputs": [
        {
          "internalType": "uint256",
          "name": "",
          "type": "uint256"
        }
      ],
      "stateMutability": "view",
      "type": "function"
    },
    {
      "inputs": [],
      "name": "verifyCampaign",
      "outputs": [],
      "stateMutability": "nonpayable",
      "type": "function"
    },
    {
      "inputs": [
        {
          "internalType": "uint256",
          "name": "proposalId",
          "type": "uint256"
        }
      ],
      "name": "voteProposal",
      "outputs": [],
      "stateMutability": "nonpayable",
      "type": "function"
    },
    {
      "inputs": [],
      "name": "withdrawFunds",
      "outputs": [],
      "stateMutability": "nonpayable",
      "type": "function"
    },
    {
      "stateMutability": "payable",
      "type": "receive"
    }
  ],
  "bytecode": "0x60806040523480156200001157600080fd5b50604051620038833803806200388383398181016040528101906200003791906200017e565b600160008190555083600160006101000a81548173ffffffffffffffffffffffffffffffffffffffff021916908373ffffffffffffffffffffffffffffffffffffffff16021790555080600260006101000a81548173ffffffffffffffffffffffffffffffffffffffff021916908373ffffffffffffffffffffffffffffffffffffffff160217905550826003819055508160048190555050505050620001f0565b600080fd5b600073ffffffffffffffffffffffffffffffffffffffff82169050919050565b60006200010b82620000de565b9050919050565b6200011d81620000fe565b81146200012957600080fd5b50565b6000815190506200013d8162000112565b92915050565b6000819050919050565b620001588162000143565b81146200016457600080fd5b50565b60008151905062000178816200014d565b92915050565b600080600080608085870312156200019b576200019a620000d9565b5b6000620001ab878288016200012c565b9450506020620001be8782880162000167565b9350506040620001d18782880162000167565b9250506060620001e4878288016200012c565b91505092959194509250565b61368380620002006000396000f3fe6080604052600436106102295760003560e01c80637d3d652211610123578063b564e926116100ab578063d7bb99ba1161006f578063d7bb99ba146107e2578063d8aa2254146107ec578063e652e1f414610829578063e89e4ed614610852578063f851a440146108905761028c565b8063b564e92614610721578063b9b02f251461074c578063c08cc02d14610763578063c438b40f1461078e578063c5c4744c146107b75761028c565b8063a2e54d75116100f2578063a2e54d751461064e578063ab28da4814610677578063ac307fcf146106b4578063b3f05b97146106df578063b5545a3c1461070a5761028c565b80637d3d65221461059257806380007e83146105bd578063807896d5146105e85780639b90b0a2146106115761028c565b80632cc1cd9e116101b15780634c4a386f116101755780634c4a386f146104f7578063590e1ae314610522578063597e1fb51461053957806369d89575146105645780636c0ddc121461057b5761028c565b80632cc1cd9e146103fe5780633408e4701461043b578063401938831461046657806342e94c901461049157806349c2a1a6146104ce5761028c565b80630d61b519116101f85780630d61b5191461033d578063185c6f8414610366578063191154331461039157806324600fc3146103bc57806329dcb0cf146103d35761028c565b8063013cf08b14610291578063023f4147146102d057806302d05d3f146102fb5780630903abf5146103265761028c565b3661028c573073ffffffffffffffffffffffffffffffffffffffff1663d7bb99ba346040518263ffffffff1660e01b81526004016000604051808303818588803b15801561027657600080fd5b505af115801561028a573d6000803e3d6000fd5b005b600080fd5b34801561029d57600080fd5b506102b860048036038101906102b39190612cf3565b6108bb565b6040516102c793929190612dda565b60405180910390f35b3480156102dc57600080fd5b506102e561098a565b6040516102f29190612e18565b60405180910390f35b34801561030757600080fd5b50610310610990565b60405161031d9190612e74565b60405180910390f35b34801561033257600080fd5b5061033b6109b6565b005b34801561034957600080fd5b50610364600480360381019061035f9190612cf3565b610a9d565b005b34801561037257600080fd5b5061037b610cb9565b6040516103889190612e18565b60405180910390f35b34801561039d57600080fd5b506103a6610cbf565b6040516103b39190612e18565b60405180910390f35b3480156103c857600080fd5b506103d1610cc5565b005b3480156103df57600080fd5b506103e8611020565b6040516103f59190612e18565b60405180910390f35b34801561040a57600080fd5b5061042560048036038101906104209190612ebb565b611026565b6040516104329190612ee8565b60405180910390f35b34801561044757600080fd5b50610450611046565b60405161045d9190612e18565b60405180910390f35b34801561047257600080fd5b5061047b61104e565b6040516104889190612e18565b60405180910390f35b34801561049d57600080fd5b506104b860048036038101906104b39190612ebb565b611054565b6040516104c59190612e18565b60405180910390f35b3480156104da57600080fd5b506104f560048036038101906104f09190612f68565b61106c565b005b34801561050357600080fd5b5061050c611265565b6040516105199190612ee8565b60405180910390f35b34801561052e57600080fd5b50610537611278565b005b34801561054557600080fd5b5061054e6114ed565b60405161055b9190612ee8565b60405180910390f35b34801561057057600080fd5b50610579611500565b005b34801561058757600080fd5b5061059061185b565b005b34801561059e57600080fd5b506105a7611996565b6040516105b49190612ee8565b60405180910390f35b3480156105c957600080fd5b506105d26119a5565b6040516105df9190612ee8565b60405180910390f35b3480156105f457600080fd5b5061060f600480360381019061060a9190612cf3565b6119b8565b005b34801561061d57600080fd5b5061063860048036038101906106339190612fb5565b611c40565b6040516106459190612ee8565b60405180910390f35b34801561065a57600080fd5b5061067560048036038101906106709190612cf3565b611c6f565b005b34801561068357600080fd5b5061069e60048036038101906106999190612cf3565b612069565b6040516106ab9190612e18565b60405180910390f35b3480156106c057600080fd5b506106c9612081565b6040516106d69190612ee8565b60405180910390f35b3480156106eb57600080fd5b506106f4612094565b6040516107019190612ee8565b60405180910390f35b34801561071657600080fd5b5061071f6120a7565b005b34801561072d57600080fd5b5061073661231c565b6040516107439190612ee8565b60405180910390f35b34801561075857600080fd5b5061076161232f565b005b34801561076f57600080fd5b506107786123f7565b6040516107859190612e18565b60405180910390f35b34801561079a57600080fd5b506107b560048036038101906107b09190612cf3565b612404565b005b3480156107c357600080fd5b506107cc6126bf565b6040516107d99190612e18565b60405180910390f35b6107ea6126c5565b005b3480156107f857600080fd5b50610813600480360381019061080e9190612fb5565b612956565b6040516108209190612ee8565b60405180910390f35b34801561083557600080fd5b50610850600480360381019061084b919061304b565b612985565b005b34801561085e57600080fd5b5061087960048036038101906108749190612cf3565b612bfc565b604051610887929190613098565b60405180910390f35b34801561089c57600080fd5b506108a5612c3d565b6040516108b29190612e74565b60405180910390f35b600f81815481106108cb57600080fd5b90600052602060002090600302016000915090508060000180546108ee906130f0565b80601f016020809104026020016040519081016040528092919081815260200182805461091a906130f0565b80156109675780601f1061093c57610100808354040283529160200191610967565b820191906000526020600020905b81548152906001019060200180831161094a57829003601f168201915b5050505050908060010154908060020160009054906101000a900460ff16905083565b60055481565b600160009054906101000a900473ffffffffffffffffffffffffffffffffffffffff1681565b600260009054906101000a900473ffffffffffffffffffffffffffffffffffffffff1673ffffffffffffffffffffffffffffffffffffffff163373ffffffffffffffffffffffffffffffffffffffff1614610a3d576040517f7bfa4b9f00000000000000000000000000000000000000000000000000000000815260040160405180910390fd5b6001600860056101000a81548160ff0219169083151502179055503373ffffffffffffffffffffffffffffffffffffffff167f708b03a8f2cfeb9515ac675766d9f3c0df3a031498f58df05b80eb8d64a6faea60405160405180910390a2565b600160009054906101000a900473ffffffffffffffffffffffffffffffffffffffff1673ffffffffffffffffffffffffffffffffffffffff163373ffffffffffffffffffffffffffffffffffffffff1614158015610b495750600260009054906101000a900473ffffffffffffffffffffffffffffffffffffffff1673ffffffffffffffffffffffffffffffffffffffff163373ffffffffffffffffffffffffffffffffffffffff1614155b15610b80576040517f7bfa4b9f00000000000000000000000000000000000000000000000000000000815260040160405180910390fd5b600f805490508110610bbe576040517f0992f7ad00000000000000000000000000000000000000000000000000000000815260040160405180910390fd5b6000600f8281548110610bd457610bd3613121565b5b906000526020600020906003020190508060020160009054906101000a900460ff1615610c2d576040517f51618d5300000000000000000000000000000000000000000000000000000000815260040160405180910390fd5b6000816001015403610c6b576040517f51618d5300000000000000000000000000000000000000000000000000000000815260040160405180910390fd5b60018160020160006101000a81548160ff021916908315150217905550817f712ae1383f79ac853f8d882153778e0260ef8f03b504e2866e0593e04d2b291f60405160405180910390a25050565b60095481565b60075481565b610ccd612c63565b600160009054906101000a900473ffffffffffffffffffffffffffffffffffffffff1673ffffffffffffffffffffffffffffffffffffffff163373ffffffffffffffffffffffffffffffffffffffff1614610d54576040517f93687c0b00000000000000000000000000000000000000000000000000000000815260040160405180910390fd5b600454421015610d90576040517f66ec4ee600000000000000000000000000000000000000000000000000000000815260040160405180910390fd5b600860009054906101000a900460ff16610dd6576040517f78c754c900000000000000000000000000000000000000000000000000000000815260040160405180910390fd5b600860019054906101000a900460ff1680610dfd5750600860029054906101000a900460ff165b15610e34576040517f6507689f00000000000000000000000000000000000000000000000000000000815260040160405180910390fd5b60004790506001600860016101000a81548160ff0219169083151502179055506001600860026101000a81548160ff0219169083151502179055506000600160009054906101000a900473ffffffffffffffffffffffffffffffffffffffff1673ffffffffffffffffffffffffffffffffffffffff1682604051610eb790613181565b60006040518083038185875af1925050503d8060008114610ef4576040519150601f19603f3d011682016040523d82523d6000602084013e610ef9565b606091505b5050905080610f34576040517f90b8ec1800000000000000000000000000000000000000000000000000000000815260040160405180910390fd5b600160009054906101000a900473ffffffffffffffffffffffffffffffffffffffff1673ffffffffffffffffffffffffffffffffffffffff167f7fcf532c15f0a6db0bd6d0e038bea71d30d808c7d98cb3bf7268a95bf5081b6583604051610f9c9190612e18565b60405180910390a2600160009054906101000a900473ffffffffffffffffffffffffffffffffffffffff1673ffffffffffffffffffffffffffffffffffffffff167f221c08a06b07a64803b3787861a3f276212fcccb51c2e6234077a9b8cb13047a8360405161100c9190612e18565b60405180910390a2505061101e612ca9565b565b60045481565b600a6020528060005260406000206000915054906101000a900460ff1681565b600046905090565b60035481565b600b6020528060005260406000206000915090505481565b600160009054906101000a900473ffffffffffffffffffffffffffffffffffffffff1673ffffffffffffffffffffffffffffffffffffffff163373ffffffffffffffffffffffffffffffffffffffff161415801561110957506000600b60003373ffffffffffffffffffffffffffffffffffffffff1673ffffffffffffffffffffffffffffffffffffffff16815260200190815260200160002054145b15611140576040517fd764187d00000000000000000000000000000000000000000000000000000000815260040160405180910390fd5b600f604051806060016040528084848080601f016020809104026020016040519081016040528093929190818152602001838380828437600081840152601f19601f8201169050808301925050505050505081526020016000815260200160001515815250908060018154018082558091505060019003906000526020600020906003020160009091909190915060008201518160000190816111e39190613371565b506020820151816001015560408201518160020160006101000a81548160ff021916908315150217905550505060006001600f805490506112249190613472565b9050807f9c770c289ab5bf7e57cb1d23c8ceae993aea46eb64847072fd3d78ca60d3e43284846040516112589291906134e2565b60405180910390a2505050565b600860039054906101000a900460ff1681565b611280612c63565b600860039054906101000a900460ff166112c6576040517f44dddc9700000000000000000000000000000000000000000000000000000000815260040160405180910390fd5b6000600b60003373ffffffffffffffffffffffffffffffffffffffff1673ffffffffffffffffffffffffffffffffffffffff16815260200190815260200160002054905060008103611344576040517f65c7efcc00000000000000000000000000000000000000000000000000000000815260040160405180910390fd5b6000600b60003373ffffffffffffffffffffffffffffffffffffffff1673ffffffffffffffffffffffffffffffffffffffff16815260200190815260200160002081905550806005600082825461139b9190613472565b9250508190555060003373ffffffffffffffffffffffffffffffffffffffff16826040516113c890613181565b60006040518083038185875af1925050503d8060008114611405576040519150601f19603f3d011682016040523d82523d6000602084013e61140a565b606091505b5050905080611445576040517f90b8ec1800000000000000000000000000000000000000000000000000000000815260040160405180910390fd5b3373ffffffffffffffffffffffffffffffffffffffff167fbb28353e4598c3b9199101a66e0989549b659a59a54d2c27fbb183f1932c8e6d8360405161148b9190612e18565b60405180910390a23373ffffffffffffffffffffffffffffffffffffffff167f358fe4192934d3bf28ae181feda1f4bd08ca67f5e2fad55582cce5eb67304ae9836040516114d99190612e18565b60405180910390a250506114eb612ca9565b565b600860009054906101000a900460ff1681565b611508612c63565b600160009054906101000a900473ffffffffffffffffffffffffffffffffffffffff1673ffffffffffffffffffffffffffffffffffffffff163373ffffffffffffffffffffffffffffffffffffffff161461158f576040517f93687c0b00000000000000000000000000000000000000000000000000000000815260040160405180910390fd5b6004544210156115cb576040517f66ec4ee600000000000000000000000000000000000000000000000000000000815260040160405180910390fd5b600860009054906101000a900460ff16611611576040517f78c754c900000000000000000000000000000000000000000000000000000000815260040160405180910390fd5b600860019054906101000a900460ff16806116385750600860029054906101000a900460ff165b1561166f576040517f6507689f00000000000000000000000000000000000000000000000000000000815260040160405180910390fd5b60004790506001600860016101000a81548160ff0219169083151502179055506001600860026101000a81548160ff0219169083151502179055506000600160009054906101000a900473ffffffffffffffffffffffffffffffffffffffff1673ffffffffffffffffffffffffffffffffffffffff16826040516116f290613181565b60006040518083038185875af1925050503d806000811461172f576040519150601f19603f3d011682016040523d82523d6000602084013e611734565b606091505b505090508061176f576040517f90b8ec1800000000000000000000000000000000000000000000000000000000815260040160405180910390fd5b600160009054906101000a900473ffffffffffffffffffffffffffffffffffffffff1673ffffffffffffffffffffffffffffffffffffffff167f7fcf532c15f0a6db0bd6d0e038bea71d30d808c7d98cb3bf7268a95bf5081b65836040516117d79190612e18565b60405180910390a2600160009054906101000a900473ffffffffffffffffffffffffffffffffffffffff1673ffffffffffffffffffffffffffffffffffffffff167f221c08a06b07a64803b3787861a3f276212fcccb51c2e6234077a9b8cb13047a836040516118479190612e18565b60405180910390a25050611859612ca9565b565b600a60003373ffffffffffffffffffffffffffffffffffffffff1673ffffffffffffffffffffffffffffffffffffffff16815260200190815260200160002060009054906101000a900460ff16156118df576040517f770c15e300000000000000000000000000000000000000000000000000000000815260040160405180910390fd5b6001600a60003373ffffffffffffffffffffffffffffffffffffffff1673ffffffffffffffffffffffffffffffffffffffff16815260200190815260200160002060006101000a81548160ff02191690831515021790555060016009600082825461194a9190613506565b925050819055503373ffffffffffffffffffffffffffffffffffffffff167f4635db403d54bbe12ebec99d3f24d58d1431b1191c7d49c3218ab50cc63ccb1360405160405180910390a2565b60006003546005541015905090565b600860059054906101000a900460ff1681565b6000600b60003373ffffffffffffffffffffffffffffffffffffffff1673ffffffffffffffffffffffffffffffffffffffff1681526020019081526020016000205403611a31576040517fd764187d00000000000000000000000000000000000000000000000000000000815260040160405180910390fd5b600f805490508110611a6f576040517f0992f7ad00000000000000000000000000000000000000000000000000000000815260040160405180910390fd5b6000600f8281548110611a8557611a84613121565b5b906000526020600020906003020190508060020160009054906101000a900460ff1615611ade576040517f51618d5300000000000000000000000000000000000000000000000000000000815260040160405180910390fd5b6010600083815260200190815260200160002060003373ffffffffffffffffffffffffffffffffffffffff1673ffffffffffffffffffffffffffffffffffffffff16815260200190815260200160002060009054906101000a900460ff1615611b73576040517f7c9a1cf900000000000000000000000000000000000000000000000000000000815260040160405180910390fd5b60016010600084815260200190815260200160002060003373ffffffffffffffffffffffffffffffffffffffff1673ffffffffffffffffffffffffffffffffffffffff16815260200190815260200160002060006101000a81548160ff0219169083151502179055506001816001016000828254611bf19190613506565b925050819055503373ffffffffffffffffffffffffffffffffffffffff16827f34647120636ce03d739347e28e9d1bdd34fd03d066ae60439fb1be2721ad16cd60405160405180910390a35050565b600e6020528160005260406000206020528060005260406000206000915091509054906101000a900460ff1681565b611c77612c63565b600160009054906101000a900473ffffffffffffffffffffffffffffffffffffffff1673ffffffffffffffffffffffffffffffffffffffff163373ffffffffffffffffffffffffffffffffffffffff1614611cfe576040517f93687c0b00000000000000000000000000000000000000000000000000000000815260040160405180910390fd5b600c805490508110611d3c576040517ff09a118400000000000000000000000000000000000000000000000000000000815260040160405180910390fd5b600454421015611d78576040517f66ec4ee600000000000000000000000000000000000000000000000000000000815260040160405180910390fd5b600860009054906101000a900460ff16611dbe576040517f78c754c900000000000000000000000000000000000000000000000000000000815260040160405180910390fd5b6000600c8281548110611dd457611dd3613121565b5b906000526020600020906002020190508060010160009054906101000a900460ff1615611e2d576040517f81b57dde00000000000000000000000000000000000000000000000000000000815260040160405180910390fd5b6005546002600d600085815260200190815260200160002054611e50919061353a565b1015611e88576040517fb755348d00000000000000000000000000000000000000000000000000000000815260040160405180910390fd5b600060648260000154600654611e9e919061353a565b611ea891906135ab565b90506007548111611ee5576040517fb7cc22bc00000000000000000000000000000000000000000000000000000000815260040160405180910390fd5b600060075482611ef59190613472565b90508160078190555060018360010160006101000a81548160ff0219169083151502179055506000600160009054906101000a900473ffffffffffffffffffffffffffffffffffffffff1673ffffffffffffffffffffffffffffffffffffffff1682604051611f6390613181565b60006040518083038185875af1925050503d8060008114611fa0576040519150601f19603f3d011682016040523d82523d6000602084013e611fa5565b606091505b5050905080611fe0576040517f90b8ec1800000000000000000000000000000000000000000000000000000000815260040160405180910390fd5b847f695e5da4ac18d67a20f922f9097a3928889a25a0756a2c77cae45d84564cc0c2836040516120109190612e18565b60405180910390a26006546007541061205a576001600860026101000a81548160ff0219169083151502179055506001600860016101000a81548160ff0219169083151502179055505b50505050612066612ca9565b50565b600d6020528060005260406000206000915090505481565b600860019054906101000a900460ff1681565b600860049054906101000a900460ff1681565b6120af612c63565b600860039054906101000a900460ff166120f5576040517f44dddc9700000000000000000000000000000000000000000000000000000000815260040160405180910390fd5b6000600b60003373ffffffffffffffffffffffffffffffffffffffff1673ffffffffffffffffffffffffffffffffffffffff16815260200190815260200160002054905060008103612173576040517f65c7efcc00000000000000000000000000000000000000000000000000000000815260040160405180910390fd5b6000600b60003373ffffffffffffffffffffffffffffffffffffffff1673ffffffffffffffffffffffffffffffffffffffff1681526020019081526020016000208190555080600560008282546121ca9190613472565b9250508190555060003373ffffffffffffffffffffffffffffffffffffffff16826040516121f790613181565b60006040518083038185875af1925050503d8060008114612234576040519150601f19603f3d011682016040523d82523d6000602084013e612239565b606091505b5050905080612274576040517f90b8ec1800000000000000000000000000000000000000000000000000000000815260040160405180910390fd5b3373ffffffffffffffffffffffffffffffffffffffff167fbb28353e4598c3b9199101a66e0989549b659a59a54d2c27fbb183f1932c8e6d836040516122ba9190612e18565b60405180910390a23373ffffffffffffffffffffffffffffffffffffffff167f358fe4192934d3bf28ae181feda1f4bd08ca67f5e2fad55582cce5eb67304ae9836040516123089190612e18565b60405180910390a2505061231a612ca9565b565b600860029054906101000a900460ff1681565b600860049054906101000a900460ff1615612376576040517f475a253500000000000000000000000000000000000000000000000000000000815260040160405180910390fd5b6004544210156123b2576040517f66ec4ee600000000000000000000000000000000000000000000000000000000815260040160405180910390fd5b6001600860046101000a81548160ff02191690831515021790555060035460065410156123f5576001600860036101000a81548160ff0219169083151502179055505b565b6000600f80549050905090565b600c805490508110612442576040517ff09a118400000000000000000000000000000000000000000000000000000000815260040160405180910390fd5b6000600b60003373ffffffffffffffffffffffffffffffffffffffff1673ffffffffffffffffffffffffffffffffffffffff16815260200190815260200160002054036124bb576040517fd764187d00000000000000000000000000000000000000000000000000000000815260040160405180910390fd5b6000600c82815481106124d1576124d0613121565b5b906000526020600020906002020190508060010160009054906101000a900460ff161561252a576040517f81b57dde00000000000000000000000000000000000000000000000000000000815260040160405180910390fd5b600e600083815260200190815260200160002060003373ffffffffffffffffffffffffffffffffffffffff1673ffffffffffffffffffffffffffffffffffffffff16815260200190815260200160002060009054906101000a900460ff161561259357506126bc565b6001600e600084815260200190815260200160002060003373ffffffffffffffffffffffffffffffffffffffff1673ffffffffffffffffffffffffffffffffffffffff16815260200190815260200160002060006101000a81548160ff0219169083151502179055506000600b60003373ffffffffffffffffffffffffffffffffffffffff1673ffffffffffffffffffffffffffffffffffffffff16815260200190815260200160002054905080600d600085815260200190815260200160002060008282546126639190613506565b925050819055503373ffffffffffffffffffffffffffffffffffffffff16837ffe731b8534f38a55c98725a977efe67da793f35fb32ca4d1d947c01d80259bc2836040516126b19190612e18565b60405180910390a350505b50565b60065481565b6126cd612c63565b60003403612707576040517fab82a24800000000000000000000000000000000000000000000000000000000815260040160405180910390fd5b6004544210612742576040517f553ae05400000000000000000000000000000000000000000000000000000000815260040160405180910390fd5b600860009054906101000a900460ff1615612789576040517ff30bb8af00000000000000000000000000000000000000000000000000000000815260040160405180910390fd5b34600b60003373ffffffffffffffffffffffffffffffffffffffff1673ffffffffffffffffffffffffffffffffffffffff16815260200190815260200160002060008282546127d89190613506565b9250508190555034600560008282546127f19190613506565b9250508190555060055460068190555060035460055410612860576001600860006101000a81548160ff0219169083151502179055507f62bb2c2be703269b4efd105a54be058929a0a5b858f6776ad7b341a7bf3e885860016040516128579190612ee8565b60405180910390a15b3373ffffffffffffffffffffffffffffffffffffffff167f62722348256371b5147820d6cad90c40fd2da1ccee18c3ed52c0bca5a61dbbab346040516128a69190612e18565b60405180910390a23373ffffffffffffffffffffffffffffffffffffffff167f1bb460ccaaf70fbacfec17a376f8acbd278c1405590ffcc8ebe4b88daf4f64ad346040516128f49190612e18565b60405180910390a23373ffffffffffffffffffffffffffffffffffffffff167f22c682fd3e8cfd90e2c5392a7d8e03ec34749e5db838d47fe5c3c38be36d090534466040516129449291906135dc565b60405180910390a2612954612ca9565b565b60106020528160005260406000206020528060005260406000206000915091509054906101000a900460ff1681565b600160009054906101000a900473ffffffffffffffffffffffffffffffffffffffff1673ffffffffffffffffffffffffffffffffffffffff163373ffffffffffffffffffffffffffffffffffffffff1614612a0c576040517f93687c0b00000000000000000000000000000000000000000000000000000000815260040160405180910390fd5b6000600c8054905014612a4b576040517f7575b7f700000000000000000000000000000000000000000000000000000000815260040160405180910390fd5b60008282905003612a88576040517f5c4a81cc00000000000000000000000000000000000000000000000000000000815260040160405180910390fd5b600080600090505b83839050811015612bbc576000848483818110612ab057612aaf613121565b5b90506020020135905060008103612af3576040517f1f3b85d300000000000000000000000000000000000000000000000000000000815260040160405180910390fd5b8083612aff9190613506565b9250600c60405180604001604052808381526020016000151581525090806001815401808255809150506001900390600052602060002090600202016000909190919091506000820151816000015560208201518160010160006101000a81548160ff0219169083151502179055505050817f3a2622619a6ba11c3f6805f19879501605e35983595b15a0a32c8982c5c4567782604051612ba09190612e18565b60405180910390a2508080612bb490613605565b915050612a90565b5060648114612bf7576040517f1f3b85d300000000000000000000000000000000000000000000000000000000815260040160405180910390fd5b505050565b600c8181548110612c0c57600080fd5b90600052602060002090600202016000915090508060000154908060010160009054906101000a900460ff16905082565b600260009054906101000a900473ffffffffffffffffffffffffffffffffffffffff1681565b600260005403612c9f576040517f3ee5aeb500000000000000000000000000000000000000000000000000000000815260040160405180910390fd5b6002600081905550565b6001600081905550565b600080fd5b600080fd5b6000819050919050565b612cd081612cbd565b8114612cdb57600080fd5b50565b600081359050612ced81612cc7565b92915050565b600060208284031215612d0957612d08612cb3565b5b6000612d1784828501612cde565b91505092915050565b600081519050919050565b600082825260208201905092915050565b60005b83811015612d5a578082015181840152602081019050612d3f565b60008484015250505050565b6000601f19601f8301169050919050565b6000612d8282612d20565b612d8c8185612d2b565b9350612d9c818560208601612d3c565b612da581612d66565b840191505092915050565b612db981612cbd565b82525050565b60008115159050919050565b612dd481612dbf565b82525050565b60006060820190508181036000830152612df48186612d77565b9050612e036020830185612db0565b612e106040830184612dcb565b949350505050565b6000602082019050612e2d6000830184612db0565b92915050565b600073ffffffffffffffffffffffffffffffffffffffff82169050919050565b6000612e5e82612e33565b9050919050565b612e6e81612e53565b82525050565b6000602082019050612e896000830184612e65565b92915050565b612e9881612e53565b8114612ea357600080fd5b50565b600081359050612eb581612e8f565b92915050565b600060208284031215612ed157612ed0612cb3565b5b6000612edf84828501612ea6565b91505092915050565b6000602082019050612efd6000830184612dcb565b92915050565b600080fd5b600080fd5b600080fd5b60008083601f840112612f2857612f27612f03565b5b8235905067ffffffffffffffff811115612f4557612f44612f08565b5b602083019150836001820283011115612f6157612f60612f0d565b5b9250929050565b60008060208385031215612f7f57612f7e612cb3565b5b600083013567ffffffffffffffff811115612f9d57612f9c612cb8565b5b612fa985828601612f12565b92509250509250929050565b60008060408385031215612fcc57612fcb612cb3565b5b6000612fda85828601612cde565b9250506020612feb85828601612ea6565b9150509250929050565b60008083601f84011261300b5761300a612f03565b5b8235905067ffffffffffffffff81111561302857613027612f08565b5b60208301915083602082028301111561304457613043612f0d565b5b9250929050565b6000806020838503121561306257613061612cb3565b5b600083013567ffffffffffffffff8111156130805761307f612cb8565b5b61308c85828601612ff5565b92509250509250929050565b60006040820190506130ad6000830185612db0565b6130ba6020830184612dcb565b9392505050565b7f4e487b7100000000000000000000000000000000000000000000000000000000600052602260045260246000fd5b6000600282049050600182168061310857607f821691505b60208210810361311b5761311a6130c1565b5b50919050565b7f4e487b7100000000000000000000000000000000000000000000000000000000600052603260045260246000fd5b600081905092915050565b50565b600061316b600083613150565b91506131768261315b565b600082019050919050565b600061318c8261315e565b9150819050919050565b7f4e487b7100000000000000000000000000000000000000000000000000000000600052604160045260246000fd5b60008190508160005260206000209050919050565b60006020601f8301049050919050565b600082821b905092915050565b6000600883026132277fffffffffffffffffffffffffffffffffffffffffffffffffffffffffffffffff826131ea565b61323186836131ea565b95508019841693508086168417925050509392505050565b6000819050919050565b600061326e61326961326484612cbd565b613249565b612cbd565b9050919050565b6000819050919050565b61328883613253565b61329c61329482613275565b8484546131f7565b825550505050565b600090565b6132b16132a4565b6132bc81848461327f565b505050565b5b818110156132e0576132d56000826132a9565b6001810190506132c2565b5050565b601f821115613325576132f6816131c5565b6132ff846131da565b8101602085101561330e578190505b61332261331a856131da565b8301826132c1565b50505b505050565b600082821c905092915050565b60006133486000198460080261332a565b1980831691505092915050565b60006133618383613337565b9150826002028217905092915050565b61337a82612d20565b67ffffffffffffffff81111561339357613392613196565b5b61339d82546130f0565b6133a88282856132e4565b600060209050601f8311600181146133db57600084156133c9578287015190505b6133d38582613355565b86555061343b565b601f1984166133e9866131c5565b60005b82811015613411578489015182556001820191506020850194506020810190506133ec565b8683101561342e578489015161342a601f891682613337565b8355505b6001600288020188555050505b505050505050565b7f4e487b7100000000000000000000000000000000000000000000000000000000600052601160045260246000fd5b600061347d82612cbd565b915061348883612cbd565b92508282039050818111156134a05761349f613443565b5b92915050565b82818337600083830152505050565b60006134c18385612d2b565b93506134ce8385846134a6565b6134d783612d66565b840190509392505050565b600060208201905081810360008301526134fd8184866134b5565b90509392505050565b600061351182612cbd565b915061351c83612cbd565b925082820190508082111561353457613533613443565b5b92915050565b600061354582612cbd565b915061355083612cbd565b925082820261355e81612cbd565b9150828204841483151761357557613574613443565b5b5092915050565b7f4e487b7100000000000000000000000000000000000000000000000000000000600052601260045260246000fd5b60006135b682612cbd565b91506135c183612cbd565b9250826135d1576135d061357c565b5b828204905092915050565b60006040820190506135f16000830185612db0565b6135fe6020830184612db0565b9392505050565b600061361082612cbd565b91507fffffffffffffffffffffffffffffffffffffffffffffffffffffffffffffffff820361364257613641613443565b5b60018201905091905056fea2646970667358221220e1c62d552e2115bc6538e0fa6acb8838db051390f09b92753bc9623324e1181a64736f6c63430008140033",
  "linkReferences": {},
  "deployedLinkReferences": {}
}