{
  "_format": "hh-sol-artifact-1",
  "contractName": "Campaign",
  "sourceName": "contracts/Campaign.sol",
  "abi": [
    {
      "inputs": [
        {
          "internalType": "address",
          "name": "_creator",
          "type": "address"
        },
        {
          "internalType": "uint256",
          "name": "_goal",
          "type": "uint256"
        },
        {
          "internalType": "uint256",
          "name": "_deadline",
          "type": "uint256"
        },
        {
          "internalType": "address",
          "name": "_admin",
          "type": "address"
        }
      ],
      "stateMutability": "nonpayable",
      "type": "constructor"
    },
    {
      "inputs": [],
      "name": "AlreadyFinalized",
      "type": "error"
    },
    {
      "inputs": [],
      "name": "AlreadyReported",
      "type": "error"
    },
    {
      "inputs": [],
      "name": "AlreadyVoted",
      "type": "error"
    },
    {
      "inputs": [],
      "name": "AlreadyWithdrawn",
      "type": "error"
    },
    {
      "inputs": [],
      "name": "CampaignEnded",
      "type": "error"
    },
    {
      "inputs": [],
      "name": "DeadlineNotReached",
      "type": "error"
    },
    {
      "inputs": [],
      "name": "GoalNotReached",
      "type": "error"
    },
    {
      "inputs": [],
      "name": "GoalReached",
      "type": "error"
    },
    {
      "inputs": [],
      "name": "InvalidMilestoneId",
      "type": "error"
    },
    {
      "inputs": [],
      "name": "InvalidPercentage",
      "type": "error"
    },
    {
      "inputs": [],
      "name": "InvalidProposalId",
      "type": "error"
    },
    {
      "inputs": [],
      "name": "InvalidStreamDuration",
      "type": "error"
    },
    {
      "inputs": [],
      "name": "MilestoneAlreadyReleased",
      "type": "error"
    },
    {
      "inputs": [],
      "name": "MilestoneNotApproved",
      "type": "error"
    },
    {
      "inputs": [],
      "name": "MilestonesAlreadySet",
      "type": "error"
    },
    {
      "inputs": [],
      "name": "NoContribution",
      "type": "error"
    },
    {
      "inputs": [],
      "name": "NoFundsToRelease",
      "type": "error"
    },
    {
      "inputs": [],
      "name": "NoMilestones",
      "type": "error"
    },
    {
      "inputs": [],
      "name": "NoStreamFunds",
      "type": "error"
    },
    {
      "inputs": [],
      "name": "NotAdmin",
      "type": "error"
    },
    {
      "inputs": [],
      "name": "NotContributor",
      "type": "error"
    },
    {
      "inputs": [],
      "name": "NotCreator",
      "type": "error"
    },
    {
      "inputs": [],
      "name": "ProposalAlreadyExecuted",
      "type": "error"
    },
    {
      "inputs": [],
      "name": "RefundNotEnabled",
      "type": "error"
    },
    {
      "inputs": [],
      "name": "StreamAlreadyEnded",
      "type": "error"
    },
    {
      "inputs": [],
      "name": "StreamNotActive",
      "type": "error"
    },
    {
      "inputs": [],
      "name": "TransferFailed",
      "type": "error"
    },
    {
      "inputs": [],
      "name": "ZeroContribution",
      "type": "error"
    },
    {
      "anonymous": false,
      "inputs": [
        {
          "indexed": false,
          "internalType": "bool",
          "name": "goalReached",
          "type": "bool"
        }
      ],
      "name": "CampaignClosed",
      "type": "event"
    },
    {
      "anonymous": false,
      "inputs": [
        {
          "indexed": true,
          "internalType": "address",
          "name": "reporter",
          "type": "address"
        }
      ],
      "name": "CampaignReported",
      "type": "event"
    },
    {
      "anonymous": false,
      "inputs": [
        {
          "indexed": true,
          "internalType": "address",
          "name": "verifier",
          "type": "address"
        }
      ],
      "name": "CampaignVerified",
      "type": "event"
    },
    {
      "anonymous": false,
      "inputs": [
        {
          "indexed": true,
          "internalType": "address",
          "name": "contributor",
          "type": "address"
        },
        {
          "indexed": false,
          "internalType": "uint256",
          "name": "amount",
          "type": "uint256"
        }
      ],
      "name": "Contributed",
      "type": "event"
    },
    {
      "anonymous": false,
      "inputs": [
        {
          "indexed": true,
          "internalType": "address",
          "name": "contributor",
          "type": "address"
        },
        {
          "indexed": false,
          "internalType": "uint256",
          "name": "amount",
          "type": "uint256"
        }
      ],
      "name": "ContributionReceived",
      "type": "event"
    },
    {
      "anonymous": false,
      "inputs": [
        {
          "indexed": true,
          "internalType": "address",
          "name": "contributor",
          "type": "address"
        },
        {
          "indexed": false,
          "internalType": "uint256",
          "name": "amount",
          "type": "uint256"
        },
        {
          "indexed": false,
          "internalType": "uint256",
          "name": "chainId",
          "type": "uint256"
        }
      ],
      "name": "CrossChainDeposit",
      "type": "event"
    },
    {
      "anonymous": false,
      "inputs": [
        {
          "indexed": true,
          "internalType": "address",
          "name": "creator",
          "type": "address"
        },
        {
          "indexed": false,
          "internalType": "uint256",
          "name": "amount",
          "type": "uint256"
        }
      ],
      "name": "FundsReleased",
      "type": "event"
    },
    {
      "anonymous": false,
      "inputs": [
        {
          "indexed": true,
          "internalType": "uint256",
          "name": "milestoneId",
          "type": "uint256"
        },
        {
          "indexed": true,
          "internalType": "address",
          "name": "voter",
          "type": "address"
        },
        {
          "indexed": false,
          "internalType": "uint256",
          "name": "weight",
          "type": "uint256"
        }
      ],
      "name": "MilestoneApproved",
      "type": "event"
    },
    {
      "anonymous": false,
      "inputs": [
        {
          "indexed": true,
          "internalType": "uint256",
          "name": "milestoneId",
          "type": "uint256"
        },
        {
          "indexed": false,
          "internalType": "uint256",
          "name": "percentage",
          "type": "uint256"
        }
      ],
      "name": "MilestoneCreated",
      "type": "event"
    },
    {
      "anonymous": false,
      "inputs": [
        {
          "indexed": true,
          "internalType": "uint256",
          "name": "milestoneId",
          "type": "uint256"
        },
        {
          "indexed": false,
          "internalType": "uint256",
          "name": "amount",
          "type": "uint256"
        }
      ],
      "name": "MilestoneFundsReleased",
      "type": "event"
    },
    {
      "anonymous": false,
      "inputs": [
        {
          "indexed": true,
          "internalType": "uint256",
          "name": "proposalId",
          "type": "uint256"
        },
        {
          "indexed": false,
          "internalType": "string",
          "name": "description",
          "type": "string"
        }
      ],
      "name": "ProposalCreated",
      "type": "event"
    },
    {
      "anonymous": false,
      "inputs": [
        {
          "indexed": true,
          "internalType": "uint256",
          "name": "proposalId",
          "type": "uint256"
        }
      ],
      "name": "ProposalExecuted",
      "type": "event"
    },
    {
      "anonymous": false,
      "inputs": [
        {
          "indexed": true,
          "internalType": "uint256",
          "name": "proposalId",
          "type": "uint256"
        },
        {
          "indexed": true,
          "internalType": "address",
          "name": "voter",
          "type": "address"
        }
      ],
      "name": "ProposalVoted",
      "type": "event"
    },
    {
      "anonymous": false,
      "inputs": [
        {
          "indexed": true,
          "internalType": "address",
          "name": "contributor",
          "type": "address"
        },
        {
          "indexed": false,
          "internalType": "uint256",
          "name": "amount",
          "type": "uint256"
        }
      ],
      "name": "Refund",
      "type": "event"
    },
    {
      "anonymous": false,
      "inputs": [
        {
          "indexed": true,
          "internalType": "address",
          "name": "contributor",
          "type": "address"
        },
        {
          "indexed": false,
          "internalType": "uint256",
          "name": "amount",
          "type": "uint256"
        }
      ],
      "name": "RefundClaimed",
      "type": "event"
    },
    {
      "anonymous": false,
      "inputs": [
        {
          "indexed": true,
          "internalType": "address",
          "name": "creator",
          "type": "address"
        },
        {
          "indexed": false,
          "internalType": "uint256",
          "name": "totalAmount",
          "type": "uint256"
        },
        {
          "indexed": false,
          "internalType": "uint256",
          "name": "durationSeconds",
          "type": "uint256"
        },
        {
          "indexed": false,
          "internalType": "uint256",
          "name": "ratePerSecond",
          "type": "uint256"
        },
        {
          "indexed": false,
          "internalType": "uint256",
          "name": "startTime",
          "type": "uint256"
        },
        {
          "indexed": false,
          "internalType": "uint256",
          "name": "endTime",
          "type": "uint256"
        }
      ],
      "name": "StreamStarted",
      "type": "event"
    },
    {
      "anonymous": false,
      "inputs": [
        {
          "indexed": true,
          "internalType": "address",
          "name": "creator",
          "type": "address"
        },
        {
          "indexed": false,
          "internalType": "uint256",
          "name": "remainingAmount",
          "type": "uint256"
        },
        {
          "indexed": false,
          "internalType": "uint256",
          "name": "totalWithdrawn",
          "type": "uint256"
        }
      ],
      "name": "StreamStopped",
      "type": "event"
    },
    {
      "anonymous": false,
      "inputs": [
        {
          "indexed": true,
          "internalType": "address",
          "name": "creator",
          "type": "address"
        },
        {
          "indexed": false,
          "internalType": "uint256",
          "name": "amount",
          "type": "uint256"
        },
        {
          "indexed": false,
          "internalType": "uint256",
          "name": "totalWithdrawn",
          "type": "uint256"
        }
      ],
      "name": "StreamWithdrawn",
      "type": "event"
    },
    {
      "anonymous": false,
      "inputs": [
        {
          "indexed": true,
          "internalType": "address",
          "name": "creator",
          "type": "address"
        },
        {
          "indexed": false,
          "internalType": "uint256",
          "name": "amount",
          "type": "uint256"
        }
      ],
      "name": "Withdrawal",
      "type": "event"
    },
    {
      "inputs": [],
      "name": "DEFAULT_STREAM_DURATION_SECONDS",
      "outputs": [
        {
          "internalType": "uint256",
          "name": "",
          "type": "uint256"
        }
      ],
      "stateMutability": "view",
      "type": "function"
    },
    {
      "inputs": [],
      "name": "admin",
      "outputs": [
        {
          "internalType": "address",
          "name": "",
          "type": "address"
        }
      ],
      "stateMutability": "view",
      "type": "function"
    },
    {
      "inputs": [
        {
          "internalType": "uint256",
          "name": "milestoneId",
          "type": "uint256"
        }
      ],
      "name": "approveMilestone",
      "outputs": [],
      "stateMutability": "nonpayable",
      "type": "function"
    },
    {
      "inputs": [],
      "name": "claimRefund",
      "outputs": [],
      "stateMutability": "nonpayable",
      "type": "function"
    },
    {
      "inputs": [],
      "name": "closed",
      "outputs": [
        {
          "internalType": "bool",
          "name": "",
          "type": "bool"
        }
      ],
      "stateMutability": "view",
      "type": "function"
    },
    {
      "inputs": [],
      "name": "contribute",
      "outputs": [],
      "stateMutability": "payable",
      "type": "function"
    },
    {
      "inputs": [
        {
          "internalType": "address",
          "name": "",
          "type": "address"
        }
      ],
      "name": "contributions",
      "outputs": [
        {
          "internalType": "uint256",
          "name": "",
          "type": "uint256"
        }
      ],
      "stateMutability": "view",
      "type": "function"
    },
    {
      "inputs": [
        {
          "internalType": "string",
          "name": "description",
          "type": "string"
        }
      ],
      "name": "createProposal",
      "outputs": [],
      "stateMutability": "nonpayable",
      "type": "function"
    },
    {
      "inputs": [],
      "name": "creator",
      "outputs": [
        {
          "internalType": "address",
          "name": "",
          "type": "address"
        }
      ],
      "stateMutability": "view",
      "type": "function"
    },
    {
      "inputs": [],
      "name": "daoReleaseFunds",
      "outputs": [],
      "stateMutability": "nonpayable",
      "type": "function"
    },
    {
      "inputs": [
        {
          "internalType": "uint256",
          "name": "milestoneId",
          "type": "uint256"
        }
      ],
      "name": "daoReleaseMilestoneFunds",
      "outputs": [],
      "stateMutability": "nonpayable",
      "type": "function"
    },
    {
      "inputs": [
        {
          "internalType": "uint256",
          "name": "durationSeconds",
          "type": "uint256"
        }
      ],
      "name": "daoStartStreaming",
      "outputs": [],
      "stateMutability": "nonpayable",
      "type": "function"
    },
    {
      "inputs": [],
      "name": "deadline",
      "outputs": [
        {
          "internalType": "uint256",
          "name": "",
          "type": "uint256"
        }
      ],
      "stateMutability": "view",
      "type": "function"
    },
    {
      "inputs": [
        {
          "internalType": "uint256",
          "name": "proposalId",
          "type": "uint256"
        }
      ],
      "name": "executeProposal",
      "outputs": [],
      "stateMutability": "nonpayable",
      "type": "function"
    },
    {
      "inputs": [],
      "name": "finalizeAfterDeadline",
      "outputs": [],
      "stateMutability": "nonpayable",
      "type": "function"
    },
    {
      "inputs": [],
      "name": "finalized",
      "outputs": [
        {
          "internalType": "bool",
          "name": "",
          "type": "bool"
        }
      ],
      "stateMutability": "view",
      "type": "function"
    },
    {
      "inputs": [],
      "name": "fundsReleased",
      "outputs": [
        {
          "internalType": "bool",
          "name": "",
          "type": "bool"
        }
      ],
      "stateMutability": "view",
      "type": "function"
    },
    {
      "inputs": [],
      "name": "fundsWithdrawn",
      "outputs": [
        {
          "internalType": "bool",
          "name": "",
          "type": "bool"
        }
      ],
      "stateMutability": "view",
      "type": "function"
    },
    {
      "inputs": [],
      "name": "getChainId",
      "outputs": [
        {
          "internalType": "uint256",
          "name": "",
          "type": "uint256"
        }
      ],
      "stateMutability": "view",
      "type": "function"
    },
    {
      "inputs": [],
      "name": "getProposalCount",
      "outputs": [
        {
          "internalType": "uint256",
          "name": "",
          "type": "uint256"
        }
      ],
      "stateMutability": "view",
      "type": "function"
    },
    {
      "inputs": [],
      "name": "goal",
      "outputs": [
        {
          "internalType": "uint256",
          "name": "",
          "type": "uint256"
        }
      ],
      "stateMutability": "view",
      "type": "function"
    },
    {
      "inputs": [],
      "name": "goalReached",
      "outputs": [
        {
          "internalType": "bool",
          "name": "",
          "type": "bool"
        }
      ],
      "stateMutability": "view",
      "type": "function"
    },
    {
      "inputs": [],
      "name": "isVerified",
      "outputs": [
        {
          "internalType": "bool",
          "name": "",
          "type": "bool"
        }
      ],
      "stateMutability": "view",
      "type": "function"
    },
    {
      "inputs": [
        {
          "internalType": "uint256",
          "name": "",
          "type": "uint256"
        }
      ],
      "name": "milestoneApprovalWeight",
      "outputs": [
        {
          "internalType": "uint256",
          "name": "",
          "type": "uint256"
        }
      ],
      "stateMutability": "view",
      "type": "function"
    },
    {
      "inputs": [
        {
          "internalType": "uint256",
          "name": "",
          "type": "uint256"
        },
        {
          "internalType": "address",
          "name": "",
          "type": "address"
        }
      ],
      "name": "milestoneVoted",
      "outputs": [
        {
          "internalType": "bool",
          "name": "",
          "type": "bool"
        }
      ],
      "stateMutability": "view",
      "type": "function"
    },
    {
      "inputs": [
        {
          "internalType": "uint256",
          "name": "",
          "type": "uint256"
        }
      ],
      "name": "milestones",
      "outputs": [
        {
          "internalType": "uint256",
          "name": "percentage",
          "type": "uint256"
        },
        {
          "internalType": "bool",
          "name": "released",
          "type": "bool"
        }
      ],
      "stateMutability": "view",
      "type": "function"
    },
    {
      "inputs": [
        {
          "internalType": "uint256",
          "name": "",
          "type": "uint256"
        },
        {
          "internalType": "address",
          "name": "",
          "type": "address"
        }
      ],
      "name": "proposalVoted",
      "outputs": [
        {
          "internalType": "bool",
          "name": "",
          "type": "bool"
        }
      ],
      "stateMutability": "view",
      "type": "function"
    },
    {
      "inputs": [
        {
          "internalType": "uint256",
          "name": "",
          "type": "uint256"
        }
      ],
      "name": "proposals",
      "outputs": [
        {
          "internalType": "string",
          "name": "description",
          "type": "string"
        },
        {
          "internalType": "uint256",
          "name": "voteCount",
          "type": "uint256"
        },
        {
          "internalType": "bool",
          "name": "executed",
          "type": "bool"
        }
      ],
      "stateMutability": "view",
      "type": "function"
    },
    {
      "inputs": [],
      "name": "refund",
      "outputs": [],
      "stateMutability": "nonpayable",
      "type": "function"
    },
    {
      "inputs": [],
      "name": "refundEnabled",
      "outputs": [
        {
          "internalType": "bool",
          "name": "",
          "type": "bool"
        }
      ],
      "stateMutability": "view",
      "type": "function"
    },
    {
      "inputs": [],
      "name": "releaseFunds",
      "outputs": [],
      "stateMutability": "nonpayable",
      "type": "function"
    },
    {
      "inputs": [
        {
          "internalType": "uint256",
          "name": "milestoneId",
          "type": "uint256"
        }
      ],
      "name": "releaseMilestoneFunds",
      "outputs": [],
      "stateMutability": "nonpayable",
      "type": "function"
    },
    {
      "inputs": [],
      "name": "reportCampaign",
      "outputs": [],
      "stateMutability": "nonpayable",
      "type": "function"
    },
    {
      "inputs": [],
      "name": "reportCount",
      "outputs": [
        {
          "internalType": "uint256",
          "name": "",
          "type": "uint256"
        }
      ],
      "stateMutability": "view",
      "type": "function"
    },
    {
      "inputs": [
        {
          "internalType": "address",
          "name": "",
          "type": "address"
        }
      ],
      "name": "reporters",
      "outputs": [
        {
          "internalType": "bool",
          "name": "",
          "type": "bool"
        }
      ],
      "stateMutability": "view",
      "type": "function"
    },
    {
      "inputs": [
        {
          "internalType": "uint256[]",
          "name": "percentages",
          "type": "uint256[]"
        }
      ],
      "name": "setMilestones",
      "outputs": [],
      "stateMutability": "nonpayable",
      "type": "function"
    },
    {
      "inputs": [
        {
          "internalType": "uint256",
          "name": "durationSeconds",
          "type": "uint256"
        }
      ],
      "name": "startStreaming",
      "outputs": [],
      "stateMutability": "nonpayable",
      "type": "function"
    },
    {
      "inputs": [],
      "name": "stopStream",
      "outputs": [],
      "stateMutability": "nonpayable",
      "type": "function"
    },
    {
      "inputs": [],
      "name": "streamClaimable",
      "outputs": [
        {
          "internalType": "uint256",
          "name": "",
          "type": "uint256"
        }
      ],
      "stateMutability": "view",
      "type": "function"
    },
    {
      "inputs": [],
      "name": "streamDurationSeconds",
      "outputs": [
        {
          "internalType": "uint256",
          "name": "",
          "type": "uint256"
        }
      ],
      "stateMutability": "view",
      "type": "function"
    },
    {
      "inputs": [],
      "name": "streamEndTime",
      "outputs": [
        {
          "internalType": "uint256",
          "name": "",
          "type": "uint256"
        }
      ],
      "stateMutability": "view",
      "type": "function"
    },
    {
      "inputs": [],
      "name": "streamRatePerSecond",
      "outputs": [
        {
          "internalType": "uint256",
          "name": "",
          "type": "uint256"
        }
      ],
      "stateMutability": "view",
      "type": "function"
    },
    {
      "inputs": [],
      "name": "streamStartTime",
      "outputs": [
        {
          "internalType": "uint256",
          "name": "",
          "type": "uint256"
        }
      ],
      "stateMutability": "view",
      "type": "function"
    },
    {
      "inputs": [],
      "name": "streamTotalAmount",
      "outputs": [
        {
          "internalType": "uint256",
          "name": "",
          "type": "uint256"
        }
      ],
      "stateMutability": "view",
      "type": "function"
    },
    {
      "inputs": [],
      "name": "streamWithdrawnAmount",
      "outputs": [
        {
          "internalType": "uint256",
          "name": "",
          "type": "uint256"
        }
      ],
      "stateMutability": "view",
      "type": "function"
    },
    {
      "inputs": [],
      "name": "totalContributed",
      "outputs": [
        {
          "internalType": "uint256",
          "name": "",
          "type": "uint256"
        }
      ],
      "stateMutability": "view",
      "type": "function"
    },
    {
      "inputs": [],
      "name": "totalMilestoneReleased",
      "outputs": [
        {
          "internalType": "uint256",
          "name": "",
          "type": "uint256"
        }
      ],
      "stateMutability": "view",
      "type": "function"
    },
    {
      "inputs": [],
      "name": "totalRaised",
      "outputs": [
        {
          "internalType": "uint256",
          "name": "",
          "type": "uint256"
        }
      ],
      "stateMutability": "view",
      "type": "function"
    },
    {
      "inputs": [],
      "name": "verifyCampaign",
      "outputs": [],
      "stateMutability": "nonpayable",
      "type": "function"
    },
    {
      "inputs": [
        {
          "internalType": "uint256",
          "name": "proposalId",
          "type": "uint256"
        }
      ],
      "name": "voteProposal",
      "outputs": [],
      "stateMutability": "nonpayable",
      "type": "function"
    },
    {
      "inputs": [],
      "name": "withdrawFromStream",
      "outputs": [],
      "stateMutability": "nonpayable",
      "type": "function"
    },
    {
      "inputs": [],
      "name": "withdrawFunds",
      "outputs": [],
      "stateMutability": "nonpayable",
      "type": "function"
    },
    {
      "stateMutability": "payable",
      "type": "receive"
    }
  ],
  "bytecode": "0x60806040523480156200001157600080fd5b506040516200487c3803806200487c83398181016040528101906200003791906200017e565b600160008190555083600160006101000a81548173ffffffffffffffffffffffffffffffffffffffff021916908373ffffffffffffffffffffffffffffffffffffffff16021790555080600260006101000a81548173ffffffffffffffffffffffffffffffffffffffff021916908373ffffffffffffffffffffffffffffffffffffffff160217905550826003819055508160048190555050505050620001f0565b600080fd5b600073ffffffffffffffffffffffffffffffffffffffff82169050919050565b60006200010b82620000de565b9050919050565b6200011d81620000fe565b81146200012957600080fd5b50565b6000815190506200013d8162000112565b92915050565b6000819050919050565b620001588162000143565b81146200016457600080fd5b50565b60008151905062000178816200014d565b92915050565b600080600080608085870312156200019b576200019a620000d9565b5b6000620001ab878288016200012c565b9450506020620001be8782880162000167565b9350506040620001d18782880162000167565b9250506060620001e4878288016200012c565b91505092959194509250565b61467c80620002006000396000f3fe6080604052600436106103035760003560e01c80637513978e11610190578063b9b02f25116100dc578063d5c5b54f11610095578063d8aa22541161006f578063d8aa225414610ade578063e652e1f414610b1b578063e89e4ed614610b44578063f851a44014610b8257610366565b8063d5c5b54f14610a7e578063d7bb99ba14610aa9578063d81227f714610ab357610366565b8063b9b02f25146109ba578063c01d76d5146109d1578063c08cc02d146109e8578063c438b40f14610a13578063c49f9c7514610a3c578063c5c4744c14610a5357610366565b80639b90b0a211610149578063ac307fcf11610123578063ac307fcf14610922578063b3f05b971461094d578063b5545a3c14610978578063b564e9261461098f57610366565b80639b90b0a21461087f578063a2e54d75146108bc578063ab28da48146108e557610366565b80637513978e146107815780637bbf3dee146107ac5780637d3d6522146107d757806380007e8314610802578063807896d51461082d5780638f7d154e1461085657610366565b806336abfd4b1161024f57806358b26c5711610208578063597e1fb5116101e2578063597e1fb5146106ff5780635ee1be911461072a57806369d89575146107535780636c0ddc121461076a57610366565b806358b26c5714610692578063590e1ae3146106bd578063593f091e146106d457610366565b806336abfd4b1461059457806340193883146105ab57806342e94c90146105d657806349c2a1a6146106135780634c4a386f1461063c5780634df8d6711461066757610366565b806319115433116102bc57806324600fc31161029657806324600fc3146104ea57806329dcb0cf146105015780632cc1cd9e1461052c5780633408e4701461056957610366565b8063191154331461046b5780631c05ba2114610496578063223d2d55146104bf57610366565b8063013cf08b1461036b578063023f4147146103aa57806302d05d3f146103d55780630903abf5146104005780630d61b51914610417578063185c6f841461044057610366565b36610366573073ffffffffffffffffffffffffffffffffffffffff1663d7bb99ba346040518263ffffffff1660e01b81526004016000604051808303818588803b15801561035057600080fd5b505af1158015610364573d6000803e3d6000fd5b005b600080fd5b34801561037757600080fd5b50610392600480360381019061038d9190613c2d565b610bad565b6040516103a193929190613d14565b60405180910390f35b3480156103b657600080fd5b506103bf610c7c565b6040516103cc9190613d52565b60405180910390f35b3480156103e157600080fd5b506103ea610c82565b6040516103f79190613dae565b60405180910390f35b34801561040c57600080fd5b50610415610ca8565b005b34801561042357600080fd5b5061043e60048036038101906104399190613c2d565b610d8f565b005b34801561044c57600080fd5b50610455610fab565b6040516104629190613d52565b60405180910390f35b34801561047757600080fd5b50610480610fb1565b60405161048d9190613d52565b60405180910390f35b3480156104a257600080fd5b506104bd60048036038101906104b89190613c2d565b610fb7565b005b3480156104cb57600080fd5b506104d461105a565b6040516104e19190613d52565b60405180910390f35b3480156104f657600080fd5b506104ff611060565b005b34801561050d57600080fd5b50610516611105565b6040516105239190613d52565b60405180910390f35b34801561053857600080fd5b50610553600480360381019061054e9190613df5565b61110b565b6040516105609190613e22565b60405180910390f35b34801561057557600080fd5b5061057e61112b565b60405161058b9190613d52565b60405180910390f35b3480156105a057600080fd5b506105a9611133565b005b3480156105b757600080fd5b506105c0611523565b6040516105cd9190613d52565b60405180910390f35b3480156105e257600080fd5b506105fd60048036038101906105f89190613df5565b611529565b60405161060a9190613d52565b60405180910390f35b34801561061f57600080fd5b5061063a60048036038101906106359190613ea2565b611541565b005b34801561064857600080fd5b5061065161173a565b60405161065e9190613e22565b60405180910390f35b34801561067357600080fd5b5061067c61174d565b6040516106899190613d52565b60405180910390f35b34801561069e57600080fd5b506106a7611753565b6040516106b49190613d52565b60405180910390f35b3480156106c957600080fd5b506106d2611759565b005b3480156106e057600080fd5b506106e96119ce565b6040516106f69190613d52565b60405180910390f35b34801561070b57600080fd5b506107146119f8565b6040516107219190613e22565b60405180910390f35b34801561073657600080fd5b50610751600480360381019061074c9190613c2d565b611a0b565b005b34801561075f57600080fd5b50610768611aae565b005b34801561077657600080fd5b5061077f611b53565b005b34801561078d57600080fd5b50610796611c8e565b6040516107a39190613d52565b60405180910390f35b3480156107b857600080fd5b506107c1611c94565b6040516107ce9190613d52565b60405180910390f35b3480156107e357600080fd5b506107ec611c9a565b6040516107f99190613e22565b60405180910390f35b34801561080e57600080fd5b50610817611ca9565b6040516108249190613e22565b60405180910390f35b34801561083957600080fd5b50610854600480360381019061084f9190613c2d565b611cbc565b005b34801561086257600080fd5b5061087d60048036038101906108789190613c2d565b611f44565b005b34801561088b57600080fd5b506108a660048036038101906108a19190613eef565b61239c565b6040516108b39190613e22565b60405180910390f35b3480156108c857600080fd5b506108e360048036038101906108de9190613c2d565b6123cb565b005b3480156108f157600080fd5b5061090c60048036038101906109079190613c2d565b612801565b6040516109199190613d52565b60405180910390f35b34801561092e57600080fd5b50610937612819565b6040516109449190613e22565b60405180910390f35b34801561095957600080fd5b5061096261282c565b60405161096f9190613e22565b60405180910390f35b34801561098457600080fd5b5061098d61283f565b005b34801561099b57600080fd5b506109a4612ab4565b6040516109b19190613e22565b60405180910390f35b3480156109c657600080fd5b506109cf612ac7565b005b3480156109dd57600080fd5b506109e6612b8f565b005b3480156109f457600080fd5b506109fd612fa6565b604051610a0a9190613d52565b60405180910390f35b348015610a1f57600080fd5b50610a3a6004803603810190610a359190613c2d565b612fb3565b005b348015610a4857600080fd5b50610a5161326e565b005b348015610a5f57600080fd5b50610a68613313565b604051610a759190613d52565b60405180910390f35b348015610a8a57600080fd5b50610a93613319565b604051610aa09190613d52565b60405180910390f35b610ab1613320565b005b348015610abf57600080fd5b50610ac86135b1565b604051610ad59190613d52565b60405180910390f35b348015610aea57600080fd5b50610b056004803603810190610b009190613eef565b61365a565b604051610b129190613e22565b60405180910390f35b348015610b2757600080fd5b50610b426004803603810190610b3d9190613f85565b613689565b005b348015610b5057600080fd5b50610b6b6004803603810190610b669190613c2d565b613900565b604051610b79929190613fd2565b60405180910390f35b348015610b8e57600080fd5b50610b97613941565b604051610ba49190613dae565b60405180910390f35b60148181548110610bbd57600080fd5b9060005260206000209060030201600091509050806000018054610be09061402a565b80601f0160208091040260200160405190810160405280929190818152602001828054610c0c9061402a565b8015610c595780601f10610c2e57610100808354040283529160200191610c59565b820191906000526020600020905b815481529060010190602001808311610c3c57829003601f168201915b5050505050908060010154908060020160009054906101000a900460ff16905083565b60055481565b600160009054906101000a900473ffffffffffffffffffffffffffffffffffffffff1681565b600260009054906101000a900473ffffffffffffffffffffffffffffffffffffffff1673ffffffffffffffffffffffffffffffffffffffff163373ffffffffffffffffffffffffffffffffffffffff1614610d2f576040517f7bfa4b9f00000000000000000000000000000000000000000000000000000000815260040160405180910390fd5b6001600860056101000a81548160ff0219169083151502179055503373ffffffffffffffffffffffffffffffffffffffff167f708b03a8f2cfeb9515ac675766d9f3c0df3a031498f58df05b80eb8d64a6faea60405160405180910390a2565b600160009054906101000a900473ffffffffffffffffffffffffffffffffffffffff1673ffffffffffffffffffffffffffffffffffffffff163373ffffffffffffffffffffffffffffffffffffffff1614158015610e3b5750600260009054906101000a900473ffffffffffffffffffffffffffffffffffffffff1673ffffffffffffffffffffffffffffffffffffffff163373ffffffffffffffffffffffffffffffffffffffff1614155b15610e72576040517f7bfa4b9f00000000000000000000000000000000000000000000000000000000815260040160405180910390fd5b6014805490508110610eb0576040517f0992f7ad00000000000000000000000000000000000000000000000000000000815260040160405180910390fd5b600060148281548110610ec657610ec561405b565b5b906000526020600020906003020190508060020160009054906101000a900460ff1615610f1f576040517f51618d5300000000000000000000000000000000000000000000000000000000815260040160405180910390fd5b6000816001015403610f5d576040517f51618d5300000000000000000000000000000000000000000000000000000000815260040160405180910390fd5b60018160020160006101000a81548160ff021916908315150217905550817f712ae1383f79ac853f8d882153778e0260ef8f03b504e2866e0593e04d2b291f60405160405180910390a25050565b600e5481565b60075481565b610fbf613967565b600260009054906101000a900473ffffffffffffffffffffffffffffffffffffffff1673ffffffffffffffffffffffffffffffffffffffff163373ffffffffffffffffffffffffffffffffffffffff1614611046576040517f7bfa4b9f00000000000000000000000000000000000000000000000000000000815260040160405180910390fd5b61104f816139b6565b611057613be3565b50565b600c5481565b611068613967565b600160009054906101000a900473ffffffffffffffffffffffffffffffffffffffff1673ffffffffffffffffffffffffffffffffffffffff163373ffffffffffffffffffffffffffffffffffffffff16146110ef576040517f93687c0b00000000000000000000000000000000000000000000000000000000815260040160405180910390fd5b6110fb62278d006139b6565b611103613be3565b565b60045481565b600f6020528060005260406000206000915054906101000a900460ff1681565b600046905090565b61113b613967565b600160009054906101000a900473ffffffffffffffffffffffffffffffffffffffff1673ffffffffffffffffffffffffffffffffffffffff163373ffffffffffffffffffffffffffffffffffffffff16146111c2576040517f93687c0b00000000000000000000000000000000000000000000000000000000815260040160405180910390fd5b600860019054906101000a900460ff1615806111ea5750600860029054906101000a900460ff165b15611221576040517f93813ce100000000000000000000000000000000000000000000000000000000815260040160405180910390fd5b6000600954148061123457506000600b54145b1561126b576040517f93813ce100000000000000000000000000000000000000000000000000000000815260040160405180910390fd5b6000600a54421061127e57600a54611280565b425b905060095481116112bd576040517f014cfdec00000000000000000000000000000000000000000000000000000000815260040160405180910390fd5b6000600954826112cd91906140b9565b90506000600b5482600c546112e291906140ed565b6112ec919061415e565b9050600d548111611329576040517f014cfdec00000000000000000000000000000000000000000000000000000000815260040160405180910390fd5b6000600d548261133991906140b9565b905081600d819055506000600160009054906101000a900473ffffffffffffffffffffffffffffffffffffffff1673ffffffffffffffffffffffffffffffffffffffff168260405161138a906141c0565b60006040518083038185875af1925050503d80600081146113c7576040519150601f19603f3d011682016040523d82523d6000602084013e6113cc565b606091505b5050905080611407576040517f90b8ec1800000000000000000000000000000000000000000000000000000000815260040160405180910390fd5b600160009054906101000a900473ffffffffffffffffffffffffffffffffffffffff1673ffffffffffffffffffffffffffffffffffffffff167fcd307a569631ca14dc25449bd3e2cb6bcf3646ee195054d6cae12bfa599dca1083600d546040516114739291906141d5565b60405180910390a2600c54600d5410611514576001600860026101000a81548160ff021916908315150217905550600160009054906101000a900473ffffffffffffffffffffffffffffffffffffffff1673ffffffffffffffffffffffffffffffffffffffff167f221c08a06b07a64803b3787861a3f276212fcccb51c2e6234077a9b8cb13047a600c5460405161150b9190613d52565b60405180910390a25b5050505050611521613be3565b565b60035481565b60106020528060005260406000206000915090505481565b600160009054906101000a900473ffffffffffffffffffffffffffffffffffffffff1673ffffffffffffffffffffffffffffffffffffffff163373ffffffffffffffffffffffffffffffffffffffff16141580156115de57506000601060003373ffffffffffffffffffffffffffffffffffffffff1673ffffffffffffffffffffffffffffffffffffffff16815260200190815260200160002054145b15611615576040517fd764187d00000000000000000000000000000000000000000000000000000000815260040160405180910390fd5b6014604051806060016040528084848080601f016020809104026020016040519081016040528093929190818152602001838380828437600081840152601f19601f8201169050808301925050505050505081526020016000815260200160001515815250908060018154018082558091505060019003906000526020600020906003020160009091909190915060008201518160000190816116b891906143d9565b506020820151816001015560408201518160020160006101000a81548160ff0219169083151502179055505050600060016014805490506116f991906140b9565b9050807f9c770c289ab5bf7e57cb1d23c8ceae993aea46eb64847072fd3d78ca60d3e432848460405161172d9291906144e7565b60405180910390a2505050565b600860039054906101000a900460ff1681565b600d5481565b60095481565b611761613967565b600860039054906101000a900460ff166117a7576040517f44dddc9700000000000000000000000000000000000000000000000000000000815260040160405180910390fd5b6000601060003373ffffffffffffffffffffffffffffffffffffffff1673ffffffffffffffffffffffffffffffffffffffff16815260200190815260200160002054905060008103611825576040517f65c7efcc00000000000000000000000000000000000000000000000000000000815260040160405180910390fd5b6000601060003373ffffffffffffffffffffffffffffffffffffffff1673ffffffffffffffffffffffffffffffffffffffff16815260200190815260200160002081905550806005600082825461187c91906140b9565b9250508190555060003373ffffffffffffffffffffffffffffffffffffffff16826040516118a9906141c0565b60006040518083038185875af1925050503d80600081146118e6576040519150601f19603f3d011682016040523d82523d6000602084013e6118eb565b606091505b5050905080611926576040517f90b8ec1800000000000000000000000000000000000000000000000000000000815260040160405180910390fd5b3373ffffffffffffffffffffffffffffffffffffffff167fbb28353e4598c3b9199101a66e0989549b659a59a54d2c27fbb183f1932c8e6d8360405161196c9190613d52565b60405180910390a23373ffffffffffffffffffffffffffffffffffffffff167f358fe4192934d3bf28ae181feda1f4bd08ca67f5e2fad55582cce5eb67304ae9836040516119ba9190613d52565b60405180910390a250506119cc613be3565b565b600080600b54036119e257600090506119f5565b600b54600c546119f2919061415e565b90505b90565b600860009054906101000a900460ff1681565b611a13613967565b600160009054906101000a900473ffffffffffffffffffffffffffffffffffffffff1673ffffffffffffffffffffffffffffffffffffffff163373ffffffffffffffffffffffffffffffffffffffff1614611a9a576040517f93687c0b00000000000000000000000000000000000000000000000000000000815260040160405180910390fd5b611aa3816139b6565b611aab613be3565b50565b611ab6613967565b600160009054906101000a900473ffffffffffffffffffffffffffffffffffffffff1673ffffffffffffffffffffffffffffffffffffffff163373ffffffffffffffffffffffffffffffffffffffff1614611b3d576040517f93687c0b00000000000000000000000000000000000000000000000000000000815260040160405180910390fd5b611b4962278d006139b6565b611b51613be3565b565b600f60003373ffffffffffffffffffffffffffffffffffffffff1673ffffffffffffffffffffffffffffffffffffffff16815260200190815260200160002060009054906101000a900460ff1615611bd7576040517f770c15e300000000000000000000000000000000000000000000000000000000815260040160405180910390fd5b6001600f60003373ffffffffffffffffffffffffffffffffffffffff1673ffffffffffffffffffffffffffffffffffffffff16815260200190815260200160002060006101000a81548160ff0219169083151502179055506001600e6000828254611c42919061450b565b925050819055503373ffffffffffffffffffffffffffffffffffffffff167f4635db403d54bbe12ebec99d3f24d58d1431b1191c7d49c3218ab50cc63ccb1360405160405180910390a2565b600a5481565b600b5481565b60006003546005541015905090565b600860059054906101000a900460ff1681565b6000601060003373ffffffffffffffffffffffffffffffffffffffff1673ffffffffffffffffffffffffffffffffffffffff1681526020019081526020016000205403611d35576040517fd764187d00000000000000000000000000000000000000000000000000000000815260040160405180910390fd5b6014805490508110611d73576040517f0992f7ad00000000000000000000000000000000000000000000000000000000815260040160405180910390fd5b600060148281548110611d8957611d8861405b565b5b906000526020600020906003020190508060020160009054906101000a900460ff1615611de2576040517f51618d5300000000000000000000000000000000000000000000000000000000815260040160405180910390fd5b6015600083815260200190815260200160002060003373ffffffffffffffffffffffffffffffffffffffff1673ffffffffffffffffffffffffffffffffffffffff16815260200190815260200160002060009054906101000a900460ff1615611e77576040517f7c9a1cf900000000000000000000000000000000000000000000000000000000815260040160405180910390fd5b60016015600084815260200190815260200160002060003373ffffffffffffffffffffffffffffffffffffffff1673ffffffffffffffffffffffffffffffffffffffff16815260200190815260200160002060006101000a81548160ff0219169083151502179055506001816001016000828254611ef5919061450b565b925050819055503373ffffffffffffffffffffffffffffffffffffffff16827f34647120636ce03d739347e28e9d1bdd34fd03d066ae60439fb1be2721ad16cd60405160405180910390a35050565b611f4c613967565b600260009054906101000a900473ffffffffffffffffffffffffffffffffffffffff1673ffffffffffffffffffffffffffffffffffffffff163373ffffffffffffffffffffffffffffffffffffffff1614611fd3576040517f7bfa4b9f00000000000000000000000000000000000000000000000000000000815260040160405180910390fd5b6011805490508110612011576040517ff09a118400000000000000000000000000000000000000000000000000000000815260040160405180910390fd5b60045442101561204d576040517f66ec4ee600000000000000000000000000000000000000000000000000000000815260040160405180910390fd5b600860009054906101000a900460ff16612093576040517f78c754c900000000000000000000000000000000000000000000000000000000815260040160405180910390fd5b600860019054906101000a900460ff16806120ba5750600860029054906101000a900460ff165b156120f1576040517f6507689f00000000000000000000000000000000000000000000000000000000815260040160405180910390fd5b6000601182815481106121075761210661405b565b5b906000526020600020906002020190508060010160009054906101000a900460ff1615612160576040517f81b57dde00000000000000000000000000000000000000000000000000000000815260040160405180910390fd5b6005546002601260008581526020019081526020016000205461218391906140ed565b10156121bb576040517fb755348d00000000000000000000000000000000000000000000000000000000815260040160405180910390fd5b6000606482600001546006546121d191906140ed565b6121db919061415e565b90506007548111612218576040517fb7cc22bc00000000000000000000000000000000000000000000000000000000815260040160405180910390fd5b60006007548261222891906140b9565b90508160078190555060018360010160006101000a81548160ff0219169083151502179055506000600160009054906101000a900473ffffffffffffffffffffffffffffffffffffffff1673ffffffffffffffffffffffffffffffffffffffff1682604051612296906141c0565b60006040518083038185875af1925050503d80600081146122d3576040519150601f19603f3d011682016040523d82523d6000602084013e6122d8565b606091505b5050905080612313576040517f90b8ec1800000000000000000000000000000000000000000000000000000000815260040160405180910390fd5b847f695e5da4ac18d67a20f922f9097a3928889a25a0756a2c77cae45d84564cc0c2836040516123439190613d52565b60405180910390a26006546007541061238d576001600860026101000a81548160ff0219169083151502179055506001600860016101000a81548160ff0219169083151502179055505b50505050612399613be3565b50565b60136020528160005260406000206020528060005260406000206000915091509054906101000a900460ff1681565b6123d3613967565b600160009054906101000a900473ffffffffffffffffffffffffffffffffffffffff1673ffffffffffffffffffffffffffffffffffffffff163373ffffffffffffffffffffffffffffffffffffffff161461245a576040517f93687c0b00000000000000000000000000000000000000000000000000000000815260040160405180910390fd5b6011805490508110612498576040517ff09a118400000000000000000000000000000000000000000000000000000000815260040160405180910390fd5b6004544210156124d4576040517f66ec4ee600000000000000000000000000000000000000000000000000000000815260040160405180910390fd5b600860009054906101000a900460ff1661251a576040517f78c754c900000000000000000000000000000000000000000000000000000000815260040160405180910390fd5b600060095414612556576040517f6507689f00000000000000000000000000000000000000000000000000000000815260040160405180910390fd5b60006011828154811061256c5761256b61405b565b5b906000526020600020906002020190508060010160009054906101000a900460ff16156125c5576040517f81b57dde00000000000000000000000000000000000000000000000000000000815260040160405180910390fd5b600554600260126000858152602001908152602001600020546125e891906140ed565b1015612620576040517fb755348d00000000000000000000000000000000000000000000000000000000815260040160405180910390fd5b60006064826000015460065461263691906140ed565b612640919061415e565b9050600754811161267d576040517fb7cc22bc00000000000000000000000000000000000000000000000000000000815260040160405180910390fd5b60006007548261268d91906140b9565b90508160078190555060018360010160006101000a81548160ff0219169083151502179055506000600160009054906101000a900473ffffffffffffffffffffffffffffffffffffffff1673ffffffffffffffffffffffffffffffffffffffff16826040516126fb906141c0565b60006040518083038185875af1925050503d8060008114612738576040519150601f19603f3d011682016040523d82523d6000602084013e61273d565b606091505b5050905080612778576040517f90b8ec1800000000000000000000000000000000000000000000000000000000815260040160405180910390fd5b847f695e5da4ac18d67a20f922f9097a3928889a25a0756a2c77cae45d84564cc0c2836040516127a89190613d52565b60405180910390a2600654600754106127f2576001600860026101000a81548160ff0219169083151502179055506001600860016101000a81548160ff0219169083151502179055505b505050506127fe613be3565b50565b60126020528060005260406000206000915090505481565b600860019054906101000a900460ff1681565b600860049054906101000a900460ff1681565b612847613967565b600860039054906101000a900460ff1661288d576040517f44dddc9700000000000000000000000000000000000000000000000000000000815260040160405180910390fd5b6000601060003373ffffffffffffffffffffffffffffffffffffffff1673ffffffffffffffffffffffffffffffffffffffff1681526020019081526020016000205490506000810361290b576040517f65c7efcc00000000000000000000000000000000000000000000000000000000815260040160405180910390fd5b6000601060003373ffffffffffffffffffffffffffffffffffffffff1673ffffffffffffffffffffffffffffffffffffffff16815260200190815260200160002081905550806005600082825461296291906140b9565b9250508190555060003373ffffffffffffffffffffffffffffffffffffffff168260405161298f906141c0565b60006040518083038185875af1925050503d80600081146129cc576040519150601f19603f3d011682016040523d82523d6000602084013e6129d1565b606091505b5050905080612a0c576040517f90b8ec1800000000000000000000000000000000000000000000000000000000815260040160405180910390fd5b3373ffffffffffffffffffffffffffffffffffffffff167fbb28353e4598c3b9199101a66e0989549b659a59a54d2c27fbb183f1932c8e6d83604051612a529190613d52565b60405180910390a23373ffffffffffffffffffffffffffffffffffffffff167f358fe4192934d3bf28ae181feda1f4bd08ca67f5e2fad55582cce5eb67304ae983604051612aa09190613d52565b60405180910390a25050612ab2613be3565b565b600860029054906101000a900460ff1681565b600860049054906101000a900460ff1615612b0e576040517f475a253500000000000000000000000000000000000000000000000000000000815260040160405180910390fd5b600454421015612b4a576040517f66ec4ee600000000000000000000000000000000000000000000000000000000815260040160405180910390fd5b6001600860046101000a81548160ff0219169083151502179055506003546006541015612b8d576001600860036101000a81548160ff0219169083151502179055505b565b612b97613967565b600160009054906101000a900473ffffffffffffffffffffffffffffffffffffffff1673ffffffffffffffffffffffffffffffffffffffff163373ffffffffffffffffffffffffffffffffffffffff1614612c1e576040517f93687c0b00000000000000000000000000000000000000000000000000000000815260040160405180910390fd5b600860019054906101000a900460ff161580612c465750600860029054906101000a900460ff165b15612c7d576040517f93813ce100000000000000000000000000000000000000000000000000000000815260040160405180910390fd5b60006009541480612c9057506000600b54145b15612cc7576040517f93813ce100000000000000000000000000000000000000000000000000000000815260040160405180910390fd5b600a544210612d02576040517f8bc214c000000000000000000000000000000000000000000000000000000000815260040160405180910390fd5b6000600d54600c54612d1491906140b9565b905060008103612d50576040517f014cfdec00000000000000000000000000000000000000000000000000000000815260040160405180910390fd5b600c54600d8190555042600a819055506000600160009054906101000a900473ffffffffffffffffffffffffffffffffffffffff1673ffffffffffffffffffffffffffffffffffffffff1682604051612da8906141c0565b60006040518083038185875af1925050503d8060008114612de5576040519150601f19603f3d011682016040523d82523d6000602084013e612dea565b606091505b5050905080612e25576040517f90b8ec1800000000000000000000000000000000000000000000000000000000815260040160405180910390fd5b600160009054906101000a900473ffffffffffffffffffffffffffffffffffffffff1673ffffffffffffffffffffffffffffffffffffffff167fcd307a569631ca14dc25449bd3e2cb6bcf3646ee195054d6cae12bfa599dca1083600d54604051612e919291906141d5565b60405180910390a2600160009054906101000a900473ffffffffffffffffffffffffffffffffffffffff1673ffffffffffffffffffffffffffffffffffffffff167f15510ae9a69f45120e9d75b5d93505eb05474ed1c7df0df7ecf6622a0f19339483600d54604051612f059291906141d5565b60405180910390a26001600860026101000a81548160ff021916908315150217905550600160009054906101000a900473ffffffffffffffffffffffffffffffffffffffff1673ffffffffffffffffffffffffffffffffffffffff167f221c08a06b07a64803b3787861a3f276212fcccb51c2e6234077a9b8cb13047a600c54604051612f929190613d52565b60405180910390a25050612fa4613be3565b565b6000601480549050905090565b6011805490508110612ff1576040517ff09a118400000000000000000000000000000000000000000000000000000000815260040160405180910390fd5b6000601060003373ffffffffffffffffffffffffffffffffffffffff1673ffffffffffffffffffffffffffffffffffffffff168152602001908152602001600020540361306a576040517fd764187d00000000000000000000000000000000000000000000000000000000815260040160405180910390fd5b6000601182815481106130805761307f61405b565b5b906000526020600020906002020190508060010160009054906101000a900460ff16156130d9576040517f81b57dde00000000000000000000000000000000000000000000000000000000815260040160405180910390fd5b6013600083815260200190815260200160002060003373ffffffffffffffffffffffffffffffffffffffff1673ffffffffffffffffffffffffffffffffffffffff16815260200190815260200160002060009054906101000a900460ff1615613142575061326b565b60016013600084815260200190815260200160002060003373ffffffffffffffffffffffffffffffffffffffff1673ffffffffffffffffffffffffffffffffffffffff16815260200190815260200160002060006101000a81548160ff0219169083151502179055506000601060003373ffffffffffffffffffffffffffffffffffffffff1673ffffffffffffffffffffffffffffffffffffffff16815260200190815260200160002054905080601260008581526020019081526020016000206000828254613212919061450b565b925050819055503373ffffffffffffffffffffffffffffffffffffffff16837ffe731b8534f38a55c98725a977efe67da793f35fb32ca4d1d947c01d80259bc2836040516132609190613d52565b60405180910390a350505b50565b613276613967565b600260009054906101000a900473ffffffffffffffffffffffffffffffffffffffff1673ffffffffffffffffffffffffffffffffffffffff163373ffffffffffffffffffffffffffffffffffffffff16146132fd576040517f7bfa4b9f00000000000000000000000000000000000000000000000000000000815260040160405180910390fd5b61330962278d006139b6565b613311613be3565b565b60065481565b62278d0081565b613328613967565b60003403613362576040517fab82a24800000000000000000000000000000000000000000000000000000000815260040160405180910390fd5b600454421061339d576040517f553ae05400000000000000000000000000000000000000000000000000000000815260040160405180910390fd5b600860009054906101000a900460ff16156133e4576040517ff30bb8af00000000000000000000000000000000000000000000000000000000815260040160405180910390fd5b34601060003373ffffffffffffffffffffffffffffffffffffffff1673ffffffffffffffffffffffffffffffffffffffff1681526020019081526020016000206000828254613433919061450b565b92505081905550346005600082825461344c919061450b565b92505081905550600554600681905550600354600554106134bb576001600860006101000a81548160ff0219169083151502179055507f62bb2c2be703269b4efd105a54be058929a0a5b858f6776ad7b341a7bf3e885860016040516134b29190613e22565b60405180910390a15b3373ffffffffffffffffffffffffffffffffffffffff167f62722348256371b5147820d6cad90c40fd2da1ccee18c3ed52c0bca5a61dbbab346040516135019190613d52565b60405180910390a23373ffffffffffffffffffffffffffffffffffffffff167f1bb460ccaaf70fbacfec17a376f8acbd278c1405590ffcc8ebe4b88daf4f64ad3460405161354f9190613d52565b60405180910390a23373ffffffffffffffffffffffffffffffffffffffff167f22c682fd3e8cfd90e2c5392a7d8e03ec34749e5db838d47fe5c3c38be36d0905344660405161359f9291906141d5565b60405180910390a26135af613be3565b565b600080600b5414806135c557506000600954145b156135d35760009050613657565b6000600a5442106135e657600a546135e8565b425b905060095481116135fd576000915050613657565b60006009548261360d91906140b9565b90506000600b5482600c5461362291906140ed565b61362c919061415e565b9050600d5481116136435760009350505050613657565b600d548161365191906140b9565b93505050505b90565b60156020528160005260406000206020528060005260406000206000915091509054906101000a900460ff1681565b600160009054906101000a900473ffffffffffffffffffffffffffffffffffffffff1673ffffffffffffffffffffffffffffffffffffffff163373ffffffffffffffffffffffffffffffffffffffff1614613710576040517f93687c0b00000000000000000000000000000000000000000000000000000000815260040160405180910390fd5b60006011805490501461374f576040517f7575b7f700000000000000000000000000000000000000000000000000000000815260040160405180910390fd5b6000828290500361378c576040517f5c4a81cc00000000000000000000000000000000000000000000000000000000815260040160405180910390fd5b600080600090505b838390508110156138c05760008484838181106137b4576137b361405b565b5b905060200201359050600081036137f7576040517f1f3b85d300000000000000000000000000000000000000000000000000000000815260040160405180910390fd5b8083613803919061450b565b9250601160405180604001604052808381526020016000151581525090806001815401808255809150506001900390600052602060002090600202016000909190919091506000820151816000015560208201518160010160006101000a81548160ff0219169083151502179055505050817f3a2622619a6ba11c3f6805f19879501605e35983595b15a0a32c8982c5c45677826040516138a49190613d52565b60405180910390a25080806138b89061453f565b915050613794565b50606481146138fb576040517f1f3b85d300000000000000000000000000000000000000000000000000000000815260040160405180910390fd5b505050565b6011818154811061391057600080fd5b90600052602060002090600202016000915090508060000154908060010160009054906101000a900460ff16905082565b600260009054906101000a900473ffffffffffffffffffffffffffffffffffffffff1681565b6002600054036139ac576040517f08c379a00000000000000000000000000000000000000000000000000000000081526004016139a3906145d3565b60405180910390fd5b6002600081905550565b6004544210156139f2576040517f66ec4ee600000000000000000000000000000000000000000000000000000000815260040160405180910390fd5b600860009054906101000a900460ff16613a38576040517f78c754c900000000000000000000000000000000000000000000000000000000815260040160405180910390fd5b600060095414613a74576040517f6507689f00000000000000000000000000000000000000000000000000000000815260040160405180910390fd5b60008103613aae576040517f485e7f5800000000000000000000000000000000000000000000000000000000815260040160405180910390fd5b600047905060008103613aed576040517fb7cc22bc00000000000000000000000000000000000000000000000000000000815260040160405180910390fd5b4260098190555081600b819055508142613b07919061450b565b600a8190555080600c819055506000600d819055506001600860016101000a81548160ff0219169083151502179055506000600860026101000a81548160ff02191690831515021790555060008282613b60919061415e565b9050600160009054906101000a900473ffffffffffffffffffffffffffffffffffffffff1673ffffffffffffffffffffffffffffffffffffffff167f432ccf7d9b598a8530dd68311bd41b4a0c1abe0ce044b5105e65a4a295498fee838584600954600a54604051613bd69594939291906145f3565b60405180910390a2505050565b6001600081905550565b600080fd5b600080fd5b6000819050919050565b613c0a81613bf7565b8114613c1557600080fd5b50565b600081359050613c2781613c01565b92915050565b600060208284031215613c4357613c42613bed565b5b6000613c5184828501613c18565b91505092915050565b600081519050919050565b600082825260208201905092915050565b60005b83811015613c94578082015181840152602081019050613c79565b60008484015250505050565b6000601f19601f8301169050919050565b6000613cbc82613c5a565b613cc68185613c65565b9350613cd6818560208601613c76565b613cdf81613ca0565b840191505092915050565b613cf381613bf7565b82525050565b60008115159050919050565b613d0e81613cf9565b82525050565b60006060820190508181036000830152613d2e8186613cb1565b9050613d3d6020830185613cea565b613d4a6040830184613d05565b949350505050565b6000602082019050613d676000830184613cea565b92915050565b600073ffffffffffffffffffffffffffffffffffffffff82169050919050565b6000613d9882613d6d565b9050919050565b613da881613d8d565b82525050565b6000602082019050613dc36000830184613d9f565b92915050565b613dd281613d8d565b8114613ddd57600080fd5b50565b600081359050613def81613dc9565b92915050565b600060208284031215613e0b57613e0a613bed565b5b6000613e1984828501613de0565b91505092915050565b6000602082019050613e376000830184613d05565b92915050565b600080fd5b600080fd5b600080fd5b60008083601f840112613e6257613e61613e3d565b5b8235905067ffffffffffffffff811115613e7f57613e7e613e42565b5b602083019150836001820283011115613e9b57613e9a613e47565b5b9250929050565b60008060208385031215613eb957613eb8613bed565b5b600083013567ffffffffffffffff811115613ed757613ed6613bf2565b5b613ee385828601613e4c565b92509250509250929050565b60008060408385031215613f0657613f05613bed565b5b6000613f1485828601613c18565b9250506020613f2585828601613de0565b9150509250929050565b60008083601f840112613f4557613f44613e3d565b5b8235905067ffffffffffffffff811115613f6257613f61613e42565b5b602083019150836020820283011115613f7e57613f7d613e47565b5b9250929050565b60008060208385031215613f9c57613f9b613bed565b5b600083013567ffffffffffffffff811115613fba57613fb9613bf2565b5b613fc685828601613f2f565b92509250509250929050565b6000604082019050613fe76000830185613cea565b613ff46020830184613d05565b9392505050565b7f4e487b7100000000000000000000000000000000000000000000000000000000600052602260045260246000fd5b6000600282049050600182168061404257607f821691505b60208210810361405557614054613ffb565b5b50919050565b7f4e487b7100000000000000000000000000000000000000000000000000000000600052603260045260246000fd5b7f4e487b7100000000000000000000000000000000000000000000000000000000600052601160045260246000fd5b60006140c482613bf7565b91506140cf83613bf7565b92508282039050818111156140e7576140e661408a565b5b92915050565b60006140f882613bf7565b915061410383613bf7565b925082820261411181613bf7565b915082820484148315176141285761412761408a565b5b5092915050565b7f4e487b7100000000000000000000000000000000000000000000000000000000600052601260045260246000fd5b600061416982613bf7565b915061417483613bf7565b9250826141845761418361412f565b5b828204905092915050565b600081905092915050565b50565b60006141aa60008361418f565b91506141b58261419a565b600082019050919050565b60006141cb8261419d565b9150819050919050565b60006040820190506141ea6000830185613cea565b6141f76020830184613cea565b9392505050565b7f4e487b7100000000000000000000000000000000000000000000000000000000600052604160045260246000fd5b60008190508160005260206000209050919050565b60006020601f8301049050919050565b600082821b905092915050565b60006008830261428f7fffffffffffffffffffffffffffffffffffffffffffffffffffffffffffffffff82614252565b6142998683614252565b95508019841693508086168417925050509392505050565b6000819050919050565b60006142d66142d16142cc84613bf7565b6142b1565b613bf7565b9050919050565b6000819050919050565b6142f0836142bb565b6143046142fc826142dd565b84845461425f565b825550505050565b600090565b61431961430c565b6143248184846142e7565b505050565b5b818110156143485761433d600082614311565b60018101905061432a565b5050565b601f82111561438d5761435e8161422d565b61436784614242565b81016020851015614376578190505b61438a61438285614242565b830182614329565b50505b505050565b600082821c905092915050565b60006143b060001984600802614392565b1980831691505092915050565b60006143c9838361439f565b9150826002028217905092915050565b6143e282613c5a565b67ffffffffffffffff8111156143fb576143fa6141fe565b5b614405825461402a565b61441082828561434c565b600060209050601f8311600181146144435760008415614431578287015190505b61443b85826143bd565b8655506144a3565b601f1984166144518661422d565b60005b8281101561447957848901518255600182019150602085019450602081019050614454565b868310156144965784890151614492601f89168261439f565b8355505b6001600288020188555050505b505050505050565b82818337600083830152505050565b60006144c68385613c65565b93506144d38385846144ab565b6144dc83613ca0565b840190509392505050565b600060208201905081810360008301526145028184866144ba565b90509392505050565b600061451682613bf7565b915061452183613bf7565b92508282019050808211156145395761453861408a565b5b92915050565b600061454a82613bf7565b91507fffffffffffffffffffffffffffffffffffffffffffffffffffffffffffffffff820361457c5761457b61408a565b5b600182019050919050565b7f5265656e7472616e637947756172643a207265656e7472616e742063616c6c00600082015250565b60006145bd601f83613c65565b91506145c882614587565b602082019050919050565b600060208201905081810360008301526145ec816145b0565b9050919050565b600060a0820190506146086000830188613cea565b6146156020830187613cea565b6146226040830186613cea565b61462f6060830185613cea565b61463c6080830184613cea565b969550505050505056fea2646970667358221220b07d385c23a3824373ebed0132590871225f57189ef1c0bf2e8deb183c39584864736f6c63430008140033",
  "linkReferences": {},
  "deployedLinkReferences": {}
}