{
  "_format": "hh-sol-artifact-1",
  "contractName": "Campaign",
  "sourceName": "contracts/Campaign.sol",
  "abi": [
    {
      "inputs": [
        {
          "internalType": "address",
          "name": "_creator",
          "type": "address"
        },
        {
          "internalType": "uint256",
          "name": "_goal",
          "type": "uint256"
        },
        {
          "internalType": "uint256",
          "name": "_deadline",
          "type": "uint256"
        },
        {
          "internalType": "address",
          "name": "_admin",
          "type": "address"
        }
      ],
      "stateMutability": "nonpayable",
      "type": "constructor"
    },
    {
      "inputs": [],
      "name": "AlreadyFinalized",
      "type": "error"
    },
    {
      "inputs": [],
      "name": "AlreadyReported",
      "type": "error"
    },
    {
      "inputs": [],
      "name": "AlreadyVoted",
      "type": "error"
    },
    {
      "inputs": [],
      "name": "AlreadyWithdrawn",
      "type": "error"
    },
    {
      "inputs": [],
      "name": "CampaignEnded",
      "type": "error"
    },
    {
      "inputs": [],
      "name": "DeadlineNotReached",
      "type": "error"
    },
    {
      "inputs": [],
      "name": "GoalNotReached",
      "type": "error"
    },
    {
      "inputs": [],
      "name": "GoalReached",
      "type": "error"
    },
    {
      "inputs": [],
      "name": "InvalidMilestoneId",
      "type": "error"
    },
    {
      "inputs": [],
      "name": "InvalidPercentage",
      "type": "error"
    },
    {
      "inputs": [],
      "name": "InvalidProposalId",
      "type": "error"
    },
    {
      "inputs": [],
      "name": "MilestoneAlreadyReleased",
      "type": "error"
    },
    {
      "inputs": [],
      "name": "MilestoneNotApproved",
      "type": "error"
    },
    {
      "inputs": [],
      "name": "MilestonesAlreadySet",
      "type": "error"
    },
    {
      "inputs": [],
      "name": "NoContribution",
      "type": "error"
    },
    {
      "inputs": [],
      "name": "NoFundsToRelease",
      "type": "error"
    },
    {
      "inputs": [],
      "name": "NoMilestones",
      "type": "error"
    },
    {
      "inputs": [],
      "name": "NotAdmin",
      "type": "error"
    },
    {
      "inputs": [],
      "name": "NotContributor",
      "type": "error"
    },
    {
      "inputs": [],
      "name": "NotCreator",
      "type": "error"
    },
    {
      "inputs": [],
      "name": "ProposalAlreadyExecuted",
      "type": "error"
    },
    {
      "inputs": [],
      "name": "RefundNotEnabled",
      "type": "error"
    },
    {
      "inputs": [],
      "name": "TransferFailed",
      "type": "error"
    },
    {
      "inputs": [],
      "name": "ZeroContribution",
      "type": "error"
    },
    {
      "anonymous": false,
      "inputs": [
        {
          "indexed": false,
          "internalType": "bool",
          "name": "goalReached",
          "type": "bool"
        }
      ],
      "name": "CampaignClosed",
      "type": "event"
    },
    {
      "anonymous": false,
      "inputs": [
        {
          "indexed": true,
          "internalType": "address",
          "name": "reporter",
          "type": "address"
        }
      ],
      "name": "CampaignReported",
      "type": "event"
    },
    {
      "anonymous": false,
      "inputs": [
        {
          "indexed": true,
          "internalType": "address",
          "name": "verifier",
          "type": "address"
        }
      ],
      "name": "CampaignVerified",
      "type": "event"
    },
    {
      "anonymous": false,
      "inputs": [
        {
          "indexed": true,
          "internalType": "address",
          "name": "contributor",
          "type": "address"
        },
        {
          "indexed": false,
          "internalType": "uint256",
          "name": "amount",
          "type": "uint256"
        }
      ],
      "name": "Contributed",
      "type": "event"
    },
    {
      "anonymous": false,
      "inputs": [
        {
          "indexed": true,
          "internalType": "address",
          "name": "contributor",
          "type": "address"
        },
        {
          "indexed": false,
          "internalType": "uint256",
          "name": "amount",
          "type": "uint256"
        }
      ],
      "name": "ContributionReceived",
      "type": "event"
    },
    {
      "anonymous": false,
      "inputs": [
        {
          "indexed": true,
          "internalType": "address",
          "name": "contributor",
          "type": "address"
        },
        {
          "indexed": false,
          "internalType": "uint256",
          "name": "amount",
          "type": "uint256"
        },
        {
          "indexed": false,
          "internalType": "uint256",
          "name": "chainId",
          "type": "uint256"
        }
      ],
      "name": "CrossChainDeposit",
      "type": "event"
    },
    {
      "anonymous": false,
      "inputs": [
        {
          "indexed": true,
          "internalType": "address",
          "name": "creator",
          "type": "address"
        },
        {
          "indexed": false,
          "internalType": "uint256",
          "name": "amount",
          "type": "uint256"
        }
      ],
      "name": "FundsReleased",
      "type": "event"
    },
    {
      "anonymous": false,
      "inputs": [
        {
          "indexed": true,
          "internalType": "uint256",
          "name": "milestoneId",
          "type": "uint256"
        },
        {
          "indexed": true,
          "internalType": "address",
          "name": "voter",
          "type": "address"
        },
        {
          "indexed": false,
          "internalType": "uint256",
          "name": "weight",
          "type": "uint256"
        }
      ],
      "name": "MilestoneApproved",
      "type": "event"
    },
    {
      "anonymous": false,
      "inputs": [
        {
          "indexed": true,
          "internalType": "uint256",
          "name": "milestoneId",
          "type": "uint256"
        },
        {
          "indexed": false,
          "internalType": "uint256",
          "name": "percentage",
          "type": "uint256"
        }
      ],
      "name": "MilestoneCreated",
      "type": "event"
    },
    {
      "anonymous": false,
      "inputs": [
        {
          "indexed": true,
          "internalType": "uint256",
          "name": "milestoneId",
          "type": "uint256"
        },
        {
          "indexed": false,
          "internalType": "uint256",
          "name": "amount",
          "type": "uint256"
        }
      ],
      "name": "MilestoneFundsReleased",
      "type": "event"
    },
    {
      "anonymous": false,
      "inputs": [
        {
          "indexed": true,
          "internalType": "uint256",
          "name": "proposalId",
          "type": "uint256"
        },
        {
          "indexed": false,
          "internalType": "string",
          "name": "description",
          "type": "string"
        }
      ],
      "name": "ProposalCreated",
      "type": "event"
    },
    {
      "anonymous": false,
      "inputs": [
        {
          "indexed": true,
          "internalType": "uint256",
          "name": "proposalId",
          "type": "uint256"
        }
      ],
      "name": "ProposalExecuted",
      "type": "event"
    },
    {
      "anonymous": false,
      "inputs": [
        {
          "indexed": true,
          "internalType": "uint256",
          "name": "proposalId",
          "type": "uint256"
        },
        {
          "indexed": true,
          "internalType": "address",
          "name": "voter",
          "type": "address"
        }
      ],
      "name": "ProposalVoted",
      "type": "event"
    },
    {
      "anonymous": false,
      "inputs": [
        {
          "indexed": true,
          "internalType": "address",
          "name": "contributor",
          "type": "address"
        },
        {
          "indexed": false,
          "internalType": "uint256",
          "name": "amount",
          "type": "uint256"
        }
      ],
      "name": "Refund",
      "type": "event"
    },
    {
      "anonymous": false,
      "inputs": [
        {
          "indexed": true,
          "internalType": "address",
          "name": "contributor",
          "type": "address"
        },
        {
          "indexed": false,
          "internalType": "uint256",
          "name": "amount",
          "type": "uint256"
        }
      ],
      "name": "RefundClaimed",
      "type": "event"
    },
    {
      "anonymous": false,
      "inputs": [
        {
          "indexed": true,
          "internalType": "address",
          "name": "creator",
          "type": "address"
        },
        {
          "indexed": false,
          "internalType": "uint256",
          "name": "amount",
          "type": "uint256"
        }
      ],
      "name": "Withdrawal",
      "type": "event"
    },
    {
      "inputs": [],
      "name": "admin",
      "outputs": [
        {
          "internalType": "address",
          "name": "",
          "type": "address"
        }
      ],
      "stateMutability": "view",
      "type": "function"
    },
    {
      "inputs": [
        {
          "internalType": "uint256",
          "name": "milestoneId",
          "type": "uint256"
        }
      ],
      "name": "approveMilestone",
      "outputs": [],
      "stateMutability": "nonpayable",
      "type": "function"
    },
    {
      "inputs": [],
      "name": "claimRefund",
      "outputs": [],
      "stateMutability": "nonpayable",
      "type": "function"
    },
    {
      "inputs": [],
      "name": "closed",
      "outputs": [
        {
          "internalType": "bool",
          "name": "",
          "type": "bool"
        }
      ],
      "stateMutability": "view",
      "type": "function"
    },
    {
      "inputs": [],
      "name": "contribute",
      "outputs": [],
      "stateMutability": "payable",
      "type": "function"
    },
    {
      "inputs": [
        {
          "internalType": "address",
          "name": "",
          "type": "address"
        }
      ],
      "name": "contributions",
      "outputs": [
        {
          "internalType": "uint256",
          "name": "",
          "type": "uint256"
        }
      ],
      "stateMutability": "view",
      "type": "function"
    },
    {
      "inputs": [
        {
          "internalType": "string",
          "name": "description",
          "type": "string"
        }
      ],
      "name": "createProposal",
      "outputs": [],
      "stateMutability": "nonpayable",
      "type": "function"
    },
    {
      "inputs": [],
      "name": "creator",
      "outputs": [
        {
          "internalType": "address",
          "name": "",
          "type": "address"
        }
      ],
      "stateMutability": "view",
      "type": "function"
    },
    {
      "inputs": [],
      "name": "daoReleaseFunds",
      "outputs": [],
      "stateMutability": "nonpayable",
      "type": "function"
    },
    {
      "inputs": [
        {
          "internalType": "uint256",
          "name": "milestoneId",
          "type": "uint256"
        }
      ],
      "name": "daoReleaseMilestoneFunds",
      "outputs": [],
      "stateMutability": "nonpayable",
      "type": "function"
    },
    {
      "inputs": [],
      "name": "deadline",
      "outputs": [
        {
          "internalType": "uint256",
          "name": "",
          "type": "uint256"
        }
      ],
      "stateMutability": "view",
      "type": "function"
    },
    {
      "inputs": [
        {
          "internalType": "uint256",
          "name": "proposalId",
          "type": "uint256"
        }
      ],
      "name": "executeProposal",
      "outputs": [],
      "stateMutability": "nonpayable",
      "type": "function"
    },
    {
      "inputs": [],
      "name": "finalizeAfterDeadline",
      "outputs": [],
      "stateMutability": "nonpayable",
      "type": "function"
    },
    {
      "inputs": [],
      "name": "finalized",
      "outputs": [
        {
          "internalType": "bool",
          "name": "",
          "type": "bool"
        }
      ],
      "stateMutability": "view",
      "type": "function"
    },
    {
      "inputs": [],
      "name": "fundsReleased",
      "outputs": [
        {
          "internalType": "bool",
          "name": "",
          "type": "bool"
        }
      ],
      "stateMutability": "view",
      "type": "function"
    },
    {
      "inputs": [],
      "name": "fundsWithdrawn",
      "outputs": [
        {
          "internalType": "bool",
          "name": "",
          "type": "bool"
        }
      ],
      "stateMutability": "view",
      "type": "function"
    },
    {
      "inputs": [],
      "name": "getChainId",
      "outputs": [
        {
          "internalType": "uint256",
          "name": "",
          "type": "uint256"
        }
      ],
      "stateMutability": "view",
      "type": "function"
    },
    {
      "inputs": [],
      "name": "getProposalCount",
      "outputs": [
        {
          "internalType": "uint256",
          "name": "",
          "type": "uint256"
        }
      ],
      "stateMutability": "view",
      "type": "function"
    },
    {
      "inputs": [],
      "name": "goal",
      "outputs": [
        {
          "internalType": "uint256",
          "name": "",
          "type": "uint256"
        }
      ],
      "stateMutability": "view",
      "type": "function"
    },
    {
      "inputs": [],
      "name": "goalReached",
      "outputs": [
        {
          "internalType": "bool",
          "name": "",
          "type": "bool"
        }
      ],
      "stateMutability": "view",
      "type": "function"
    },
    {
      "inputs": [],
      "name": "isVerified",
      "outputs": [
        {
          "internalType": "bool",
          "name": "",
          "type": "bool"
        }
      ],
      "stateMutability": "view",
      "type": "function"
    },
    {
      "inputs": [
        {
          "internalType": "uint256",
          "name": "",
          "type": "uint256"
        }
      ],
      "name": "milestoneApprovalWeight",
      "outputs": [
        {
          "internalType": "uint256",
          "name": "",
          "type": "uint256"
        }
      ],
      "stateMutability": "view",
      "type": "function"
    },
    {
      "inputs": [
        {
          "internalType": "uint256",
          "name": "",
          "type": "uint256"
        },
        {
          "internalType": "address",
          "name": "",
          "type": "address"
        }
      ],
      "name": "milestoneVoted",
      "outputs": [
        {
          "internalType": "bool",
          "name": "",
          "type": "bool"
        }
      ],
      "stateMutability": "view",
      "type": "function"
    },
    {
      "inputs": [
        {
          "internalType": "uint256",
          "name": "",
          "type": "uint256"
        }
      ],
      "name": "milestones",
      "outputs": [
        {
          "internalType": "uint256",
          "name": "percentage",
          "type": "uint256"
        },
        {
          "internalType": "bool",
          "name": "released",
          "type": "bool"
        }
      ],
      "stateMutability": "view",
      "type": "function"
    },
    {
      "inputs": [
        {
          "internalType": "uint256",
          "name": "",
          "type": "uint256"
        },
        {
          "internalType": "address",
          "name": "",
          "type": "address"
        }
      ],
      "name": "proposalVoted",
      "outputs": [
        {
          "internalType": "bool",
          "name": "",
          "type": "bool"
        }
      ],
      "stateMutability": "view",
      "type": "function"
    },
    {
      "inputs": [
        {
          "internalType": "uint256",
          "name": "",
          "type": "uint256"
        }
      ],
      "name": "proposals",
      "outputs": [
        {
          "internalType": "string",
          "name": "description",
          "type": "string"
        },
        {
          "internalType": "uint256",
          "name": "voteCount",
          "type": "uint256"
        },
        {
          "internalType": "bool",
          "name": "executed",
          "type": "bool"
        }
      ],
      "stateMutability": "view",
      "type": "function"
    },
    {
      "inputs": [],
      "name": "refund",
      "outputs": [],
      "stateMutability": "nonpayable",
      "type": "function"
    },
    {
      "inputs": [],
      "name": "refundEnabled",
      "outputs": [
        {
          "internalType": "bool",
          "name": "",
          "type": "bool"
        }
      ],
      "stateMutability": "view",
      "type": "function"
    },
    {
      "inputs": [],
      "name": "releaseFunds",
      "outputs": [],
      "stateMutability": "nonpayable",
      "type": "function"
    },
    {
      "inputs": [
        {
          "internalType": "uint256",
          "name": "milestoneId",
          "type": "uint256"
        }
      ],
      "name": "releaseMilestoneFunds",
      "outputs": [],
      "stateMutability": "nonpayable",
      "type": "function"
    },
    {
      "inputs": [],
      "name": "reportCampaign",
      "outputs": [],
      "stateMutability": "nonpayable",
      "type": "function"
    },
    {
      "inputs": [],
      "name": "reportCount",
      "outputs": [
        {
          "internalType": "uint256",
          "name": "",
          "type": "uint256"
        }
      ],
      "stateMutability": "view",
      "type": "function"
    },
    {
      "inputs": [
        {
          "internalType": "address",
          "name": "",
          "type": "address"
        }
      ],
      "name": "reporters",
      "outputs": [
        {
          "internalType": "bool",
          "name": "",
          "type": "bool"
        }
      ],
      "stateMutability": "view",
      "type": "function"
    },
    {
      "inputs": [
        {
          "internalType": "uint256[]",
          "name": "percentages",
          "type": "uint256[]"
        }
      ],
      "name": "setMilestones",
      "outputs": [],
      "stateMutability": "nonpayable",
      "type": "function"
    },
    {
      "inputs": [],
      "name": "totalContributed",
      "outputs": [
        {
          "internalType": "uint256",
          "name": "",
          "type": "uint256"
        }
      ],
      "stateMutability": "view",
      "type": "function"
    },
    {
      "inputs": [],
      "name": "totalMilestoneReleased",
      "outputs": [
        {
          "internalType": "uint256",
          "name": "",
          "type": "uint256"
        }
      ],
      "stateMutability": "view",
      "type": "function"
    },
    {
      "inputs": [],
      "name": "totalRaised",
      "outputs": [
        {
          "internalType": "uint256",
          "name": "",
          "type": "uint256"
        }
      ],
      "stateMutability": "view",
      "type": "function"
    },
    {
      "inputs": [],
      "name": "verifyCampaign",
      "outputs": [],
      "stateMutability": "nonpayable",
      "type": "function"
    },
    {
      "inputs": [
        {
          "internalType": "uint256",
          "name": "proposalId",
          "type": "uint256"
        }
      ],
      "name": "voteProposal",
      "outputs": [],
      "stateMutability": "nonpayable",
      "type": "function"
    },
    {
      "inputs": [],
      "name": "withdrawFunds",
      "outputs": [],
      "stateMutability": "nonpayable",
      "type": "function"
    },
    {
      "stateMutability": "payable",
      "type": "receive"
    }
  ],
  "bytecode": "0x60806040523480156200001157600080fd5b50604051620040a3380380620040a383398181016040528101906200003791906200017e565b600160008190555083600160006101000a81548173ffffffffffffffffffffffffffffffffffffffff021916908373ffffffffffffffffffffffffffffffffffffffff16021790555080600260006101000a81548173ffffffffffffffffffffffffffffffffffffffff021916908373ffffffffffffffffffffffffffffffffffffffff160217905550826003819055508160048190555050505050620001f0565b600080fd5b600073ffffffffffffffffffffffffffffffffffffffff82169050919050565b60006200010b82620000de565b9050919050565b6200011d81620000fe565b81146200012957600080fd5b50565b6000815190506200013d8162000112565b92915050565b6000819050919050565b620001588162000143565b81146200016457600080fd5b50565b60008151905062000178816200014d565b92915050565b600080600080608085870312156200019b576200019a620000d9565b5b6000620001ab878288016200012c565b9450506020620001be8782880162000167565b9350506040620001d18782880162000167565b9250506060620001e4878288016200012c565b91505092959194509250565b613ea380620002006000396000f3fe60806040526004361061023f5760003560e01c806380007e831161012e578063b9b02f25116100ab578063d7bb99ba1161006f578063d7bb99ba14610838578063d8aa225414610842578063e652e1f41461087f578063e89e4ed6146108a8578063f851a440146108e6576102a2565b8063b9b02f251461078b578063c08cc02d146107a2578063c438b40f146107cd578063c49f9c75146107f6578063c5c4744c1461080d576102a2565b8063ab28da48116100f2578063ab28da48146106b6578063ac307fcf146106f3578063b3f05b971461071e578063b5545a3c14610749578063b564e92614610760576102a2565b806380007e83146105d3578063807896d5146105fe5780638f7d154e146106275780639b90b0a214610650578063a2e54d751461068d576102a2565b80633408e470116101bc578063590e1ae311610180578063590e1ae314610538578063597e1fb51461054f57806369d895751461057a5780636c0ddc12146105915780637d3d6522146105a8576102a2565b80633408e47014610451578063401938831461047c57806342e94c90146104a757806349c2a1a6146104e45780634c4a386f1461050d576102a2565b8063185c6f8411610203578063185c6f841461037c57806319115433146103a757806324600fc3146103d257806329dcb0cf146103e95780632cc1cd9e14610414576102a2565b8063013cf08b146102a7578063023f4147146102e657806302d05d3f146103115780630903abf51461033c5780630d61b51914610353576102a2565b366102a2573073ffffffffffffffffffffffffffffffffffffffff1663d7bb99ba346040518263ffffffff1660e01b81526004016000604051808303818588803b15801561028c57600080fd5b505af11580156102a0573d6000803e3d6000fd5b005b600080fd5b3480156102b357600080fd5b506102ce60048036038101906102c991906134a7565b610911565b6040516102dd9392919061358e565b60405180910390f35b3480156102f257600080fd5b506102fb6109e0565b60405161030891906135cc565b60405180910390f35b34801561031d57600080fd5b506103266109e6565b6040516103339190613628565b60405180910390f35b34801561034857600080fd5b50610351610a0c565b005b34801561035f57600080fd5b5061037a600480360381019061037591906134a7565b610af3565b005b34801561038857600080fd5b50610391610d0f565b60405161039e91906135cc565b60405180910390f35b3480156103b357600080fd5b506103bc610d15565b6040516103c991906135cc565b60405180910390f35b3480156103de57600080fd5b506103e7610d1b565b005b3480156103f557600080fd5b506103fe611076565b60405161040b91906135cc565b60405180910390f35b34801561042057600080fd5b5061043b6004803603810190610436919061366f565b61107c565b604051610448919061369c565b60405180910390f35b34801561045d57600080fd5b5061046661109c565b60405161047391906135cc565b60405180910390f35b34801561048857600080fd5b506104916110a4565b60405161049e91906135cc565b60405180910390f35b3480156104b357600080fd5b506104ce60048036038101906104c9919061366f565b6110aa565b6040516104db91906135cc565b60405180910390f35b3480156104f057600080fd5b5061050b6004803603810190610506919061371c565b6110c2565b005b34801561051957600080fd5b506105226112bb565b60405161052f919061369c565b60405180910390f35b34801561054457600080fd5b5061054d6112ce565b005b34801561055b57600080fd5b50610564611543565b604051610571919061369c565b60405180910390f35b34801561058657600080fd5b5061058f611556565b005b34801561059d57600080fd5b506105a66118b1565b005b3480156105b457600080fd5b506105bd6119ec565b6040516105ca919061369c565b60405180910390f35b3480156105df57600080fd5b506105e86119fb565b6040516105f5919061369c565b60405180910390f35b34801561060a57600080fd5b50610625600480360381019061062091906134a7565b611a0e565b005b34801561063357600080fd5b5061064e600480360381019061064991906134a7565b611c96565b005b34801561065c57600080fd5b5061067760048036038101906106729190613769565b612090565b604051610684919061369c565b60405180910390f35b34801561069957600080fd5b506106b460048036038101906106af91906134a7565b6120bf565b005b3480156106c257600080fd5b506106dd60048036038101906106d891906134a7565b6124b9565b6040516106ea91906135cc565b60405180910390f35b3480156106ff57600080fd5b506107086124d1565b604051610715919061369c565b60405180910390f35b34801561072a57600080fd5b506107336124e4565b604051610740919061369c565b60405180910390f35b34801561075557600080fd5b5061075e6124f7565b005b34801561076c57600080fd5b5061077561276c565b604051610782919061369c565b60405180910390f35b34801561079757600080fd5b506107a061277f565b005b3480156107ae57600080fd5b506107b7612847565b6040516107c491906135cc565b60405180910390f35b3480156107d957600080fd5b506107f460048036038101906107ef91906134a7565b612854565b005b34801561080257600080fd5b5061080b612b0f565b005b34801561081957600080fd5b50610822612e6a565b60405161082f91906135cc565b60405180910390f35b610840612e70565b005b34801561084e57600080fd5b5061086960048036038101906108649190613769565b613101565b604051610876919061369c565b60405180910390f35b34801561088b57600080fd5b506108a660048036038101906108a191906137ff565b613130565b005b3480156108b457600080fd5b506108cf60048036038101906108ca91906134a7565b6133a7565b6040516108dd92919061384c565b60405180910390f35b3480156108f257600080fd5b506108fb6133e8565b6040516109089190613628565b60405180910390f35b600f818154811061092157600080fd5b9060005260206000209060030201600091509050806000018054610944906138a4565b80601f0160208091040260200160405190810160405280929190818152602001828054610970906138a4565b80156109bd5780601f10610992576101008083540402835291602001916109bd565b820191906000526020600020905b8154815290600101906020018083116109a057829003601f168201915b5050505050908060010154908060020160009054906101000a900460ff16905083565b60055481565b600160009054906101000a900473ffffffffffffffffffffffffffffffffffffffff1681565b600260009054906101000a900473ffffffffffffffffffffffffffffffffffffffff1673ffffffffffffffffffffffffffffffffffffffff163373ffffffffffffffffffffffffffffffffffffffff1614610a93576040517f7bfa4b9f00000000000000000000000000000000000000000000000000000000815260040160405180910390fd5b6001600860056101000a81548160ff0219169083151502179055503373ffffffffffffffffffffffffffffffffffffffff167f708b03a8f2cfeb9515ac675766d9f3c0df3a031498f58df05b80eb8d64a6faea60405160405180910390a2565b600160009054906101000a900473ffffffffffffffffffffffffffffffffffffffff1673ffffffffffffffffffffffffffffffffffffffff163373ffffffffffffffffffffffffffffffffffffffff1614158015610b9f5750600260009054906101000a900473ffffffffffffffffffffffffffffffffffffffff1673ffffffffffffffffffffffffffffffffffffffff163373ffffffffffffffffffffffffffffffffffffffff1614155b15610bd6576040517f7bfa4b9f00000000000000000000000000000000000000000000000000000000815260040160405180910390fd5b600f805490508110610c14576040517f0992f7ad00000000000000000000000000000000000000000000000000000000815260040160405180910390fd5b6000600f8281548110610c2a57610c296138d5565b5b906000526020600020906003020190508060020160009054906101000a900460ff1615610c83576040517f51618d5300000000000000000000000000000000000000000000000000000000815260040160405180910390fd5b6000816001015403610cc1576040517f51618d5300000000000000000000000000000000000000000000000000000000815260040160405180910390fd5b60018160020160006101000a81548160ff021916908315150217905550817f712ae1383f79ac853f8d882153778e0260ef8f03b504e2866e0593e04d2b291f60405160405180910390a25050565b60095481565b60075481565b610d2361340e565b600160009054906101000a900473ffffffffffffffffffffffffffffffffffffffff1673ffffffffffffffffffffffffffffffffffffffff163373ffffffffffffffffffffffffffffffffffffffff1614610daa576040517f93687c0b00000000000000000000000000000000000000000000000000000000815260040160405180910390fd5b600454421015610de6576040517f66ec4ee600000000000000000000000000000000000000000000000000000000815260040160405180910390fd5b600860009054906101000a900460ff16610e2c576040517f78c754c900000000000000000000000000000000000000000000000000000000815260040160405180910390fd5b600860019054906101000a900460ff1680610e535750600860029054906101000a900460ff165b15610e8a576040517f6507689f00000000000000000000000000000000000000000000000000000000815260040160405180910390fd5b60004790506001600860016101000a81548160ff0219169083151502179055506001600860026101000a81548160ff0219169083151502179055506000600160009054906101000a900473ffffffffffffffffffffffffffffffffffffffff1673ffffffffffffffffffffffffffffffffffffffff1682604051610f0d90613935565b60006040518083038185875af1925050503d8060008114610f4a576040519150601f19603f3d011682016040523d82523d6000602084013e610f4f565b606091505b5050905080610f8a576040517f90b8ec1800000000000000000000000000000000000000000000000000000000815260040160405180910390fd5b600160009054906101000a900473ffffffffffffffffffffffffffffffffffffffff1673ffffffffffffffffffffffffffffffffffffffff167f7fcf532c15f0a6db0bd6d0e038bea71d30d808c7d98cb3bf7268a95bf5081b6583604051610ff291906135cc565b60405180910390a2600160009054906101000a900473ffffffffffffffffffffffffffffffffffffffff1673ffffffffffffffffffffffffffffffffffffffff167f221c08a06b07a64803b3787861a3f276212fcccb51c2e6234077a9b8cb13047a8360405161106291906135cc565b60405180910390a2505061107461345d565b565b60045481565b600a6020528060005260406000206000915054906101000a900460ff1681565b600046905090565b60035481565b600b6020528060005260406000206000915090505481565b600160009054906101000a900473ffffffffffffffffffffffffffffffffffffffff1673ffffffffffffffffffffffffffffffffffffffff163373ffffffffffffffffffffffffffffffffffffffff161415801561115f57506000600b60003373ffffffffffffffffffffffffffffffffffffffff1673ffffffffffffffffffffffffffffffffffffffff16815260200190815260200160002054145b15611196576040517fd764187d00000000000000000000000000000000000000000000000000000000815260040160405180910390fd5b600f604051806060016040528084848080601f016020809104026020016040519081016040528093929190818152602001838380828437600081840152601f19601f8201169050808301925050505050505081526020016000815260200160001515815250908060018154018082558091505060019003906000526020600020906003020160009091909190915060008201518160000190816112399190613b25565b506020820151816001015560408201518160020160006101000a81548160ff021916908315150217905550505060006001600f8054905061127a9190613c26565b9050807f9c770c289ab5bf7e57cb1d23c8ceae993aea46eb64847072fd3d78ca60d3e43284846040516112ae929190613c96565b60405180910390a2505050565b600860039054906101000a900460ff1681565b6112d661340e565b600860039054906101000a900460ff1661131c576040517f44dddc9700000000000000000000000000000000000000000000000000000000815260040160405180910390fd5b6000600b60003373ffffffffffffffffffffffffffffffffffffffff1673ffffffffffffffffffffffffffffffffffffffff1681526020019081526020016000205490506000810361139a576040517f65c7efcc00000000000000000000000000000000000000000000000000000000815260040160405180910390fd5b6000600b60003373ffffffffffffffffffffffffffffffffffffffff1673ffffffffffffffffffffffffffffffffffffffff1681526020019081526020016000208190555080600560008282546113f19190613c26565b9250508190555060003373ffffffffffffffffffffffffffffffffffffffff168260405161141e90613935565b60006040518083038185875af1925050503d806000811461145b576040519150601f19603f3d011682016040523d82523d6000602084013e611460565b606091505b505090508061149b576040517f90b8ec1800000000000000000000000000000000000000000000000000000000815260040160405180910390fd5b3373ffffffffffffffffffffffffffffffffffffffff167fbb28353e4598c3b9199101a66e0989549b659a59a54d2c27fbb183f1932c8e6d836040516114e191906135cc565b60405180910390a23373ffffffffffffffffffffffffffffffffffffffff167f358fe4192934d3bf28ae181feda1f4bd08ca67f5e2fad55582cce5eb67304ae98360405161152f91906135cc565b60405180910390a2505061154161345d565b565b600860009054906101000a900460ff1681565b61155e61340e565b600160009054906101000a900473ffffffffffffffffffffffffffffffffffffffff1673ffffffffffffffffffffffffffffffffffffffff163373ffffffffffffffffffffffffffffffffffffffff16146115e5576040517f93687c0b00000000000000000000000000000000000000000000000000000000815260040160405180910390fd5b600454421015611621576040517f66ec4ee600000000000000000000000000000000000000000000000000000000815260040160405180910390fd5b600860009054906101000a900460ff16611667576040517f78c754c900000000000000000000000000000000000000000000000000000000815260040160405180910390fd5b600860019054906101000a900460ff168061168e5750600860029054906101000a900460ff165b156116c5576040517f6507689f00000000000000000000000000000000000000000000000000000000815260040160405180910390fd5b60004790506001600860016101000a81548160ff0219169083151502179055506001600860026101000a81548160ff0219169083151502179055506000600160009054906101000a900473ffffffffffffffffffffffffffffffffffffffff1673ffffffffffffffffffffffffffffffffffffffff168260405161174890613935565b60006040518083038185875af1925050503d8060008114611785576040519150601f19603f3d011682016040523d82523d6000602084013e61178a565b606091505b50509050806117c5576040517f90b8ec1800000000000000000000000000000000000000000000000000000000815260040160405180910390fd5b600160009054906101000a900473ffffffffffffffffffffffffffffffffffffffff1673ffffffffffffffffffffffffffffffffffffffff167f7fcf532c15f0a6db0bd6d0e038bea71d30d808c7d98cb3bf7268a95bf5081b658360405161182d91906135cc565b60405180910390a2600160009054906101000a900473ffffffffffffffffffffffffffffffffffffffff1673ffffffffffffffffffffffffffffffffffffffff167f221c08a06b07a64803b3787861a3f276212fcccb51c2e6234077a9b8cb13047a8360405161189d91906135cc565b60405180910390a250506118af61345d565b565b600a60003373ffffffffffffffffffffffffffffffffffffffff1673ffffffffffffffffffffffffffffffffffffffff16815260200190815260200160002060009054906101000a900460ff1615611935576040517f770c15e300000000000000000000000000000000000000000000000000000000815260040160405180910390fd5b6001600a60003373ffffffffffffffffffffffffffffffffffffffff1673ffffffffffffffffffffffffffffffffffffffff16815260200190815260200160002060006101000a81548160ff0219169083151502179055506001600960008282546119a09190613cba565b925050819055503373ffffffffffffffffffffffffffffffffffffffff167f4635db403d54bbe12ebec99d3f24d58d1431b1191c7d49c3218ab50cc63ccb1360405160405180910390a2565b60006003546005541015905090565b600860059054906101000a900460ff1681565b6000600b60003373ffffffffffffffffffffffffffffffffffffffff1673ffffffffffffffffffffffffffffffffffffffff1681526020019081526020016000205403611a87576040517fd764187d00000000000000000000000000000000000000000000000000000000815260040160405180910390fd5b600f805490508110611ac5576040517f0992f7ad00000000000000000000000000000000000000000000000000000000815260040160405180910390fd5b6000600f8281548110611adb57611ada6138d5565b5b906000526020600020906003020190508060020160009054906101000a900460ff1615611b34576040517f51618d5300000000000000000000000000000000000000000000000000000000815260040160405180910390fd5b6010600083815260200190815260200160002060003373ffffffffffffffffffffffffffffffffffffffff1673ffffffffffffffffffffffffffffffffffffffff16815260200190815260200160002060009054906101000a900460ff1615611bc9576040517f7c9a1cf900000000000000000000000000000000000000000000000000000000815260040160405180910390fd5b60016010600084815260200190815260200160002060003373ffffffffffffffffffffffffffffffffffffffff1673ffffffffffffffffffffffffffffffffffffffff16815260200190815260200160002060006101000a81548160ff0219169083151502179055506001816001016000828254611c479190613cba565b925050819055503373ffffffffffffffffffffffffffffffffffffffff16827f34647120636ce03d739347e28e9d1bdd34fd03d066ae60439fb1be2721ad16cd60405160405180910390a35050565b611c9e61340e565b600260009054906101000a900473ffffffffffffffffffffffffffffffffffffffff1673ffffffffffffffffffffffffffffffffffffffff163373ffffffffffffffffffffffffffffffffffffffff1614611d25576040517f7bfa4b9f00000000000000000000000000000000000000000000000000000000815260040160405180910390fd5b600c805490508110611d63576040517ff09a118400000000000000000000000000000000000000000000000000000000815260040160405180910390fd5b600454421015611d9f576040517f66ec4ee600000000000000000000000000000000000000000000000000000000815260040160405180910390fd5b600860009054906101000a900460ff16611de5576040517f78c754c900000000000000000000000000000000000000000000000000000000815260040160405180910390fd5b6000600c8281548110611dfb57611dfa6138d5565b5b906000526020600020906002020190508060010160009054906101000a900460ff1615611e54576040517f81b57dde00000000000000000000000000000000000000000000000000000000815260040160405180910390fd5b6005546002600d600085815260200190815260200160002054611e779190613cee565b1015611eaf576040517fb755348d00000000000000000000000000000000000000000000000000000000815260040160405180910390fd5b600060648260000154600654611ec59190613cee565b611ecf9190613d5f565b90506007548111611f0c576040517fb7cc22bc00000000000000000000000000000000000000000000000000000000815260040160405180910390fd5b600060075482611f1c9190613c26565b90508160078190555060018360010160006101000a81548160ff0219169083151502179055506000600160009054906101000a900473ffffffffffffffffffffffffffffffffffffffff1673ffffffffffffffffffffffffffffffffffffffff1682604051611f8a90613935565b60006040518083038185875af1925050503d8060008114611fc7576040519150601f19603f3d011682016040523d82523d6000602084013e611fcc565b606091505b5050905080612007576040517f90b8ec1800000000000000000000000000000000000000000000000000000000815260040160405180910390fd5b847f695e5da4ac18d67a20f922f9097a3928889a25a0756a2c77cae45d84564cc0c28360405161203791906135cc565b60405180910390a260065460075410612081576001600860026101000a81548160ff0219169083151502179055506001600860016101000a81548160ff0219169083151502179055505b5050505061208d61345d565b50565b600e6020528160005260406000206020528060005260406000206000915091509054906101000a900460ff1681565b6120c761340e565b600160009054906101000a900473ffffffffffffffffffffffffffffffffffffffff1673ffffffffffffffffffffffffffffffffffffffff163373ffffffffffffffffffffffffffffffffffffffff161461214e576040517f93687c0b00000000000000000000000000000000000000000000000000000000815260040160405180910390fd5b600c80549050811061218c576040517ff09a118400000000000000000000000000000000000000000000000000000000815260040160405180910390fd5b6004544210156121c8576040517f66ec4ee600000000000000000000000000000000000000000000000000000000815260040160405180910390fd5b600860009054906101000a900460ff1661220e576040517f78c754c900000000000000000000000000000000000000000000000000000000815260040160405180910390fd5b6000600c8281548110612224576122236138d5565b5b906000526020600020906002020190508060010160009054906101000a900460ff161561227d576040517f81b57dde00000000000000000000000000000000000000000000000000000000815260040160405180910390fd5b6005546002600d6000858152602001908152602001600020546122a09190613cee565b10156122d8576040517fb755348d00000000000000000000000000000000000000000000000000000000815260040160405180910390fd5b6000606482600001546006546122ee9190613cee565b6122f89190613d5f565b90506007548111612335576040517fb7cc22bc00000000000000000000000000000000000000000000000000000000815260040160405180910390fd5b6000600754826123459190613c26565b90508160078190555060018360010160006101000a81548160ff0219169083151502179055506000600160009054906101000a900473ffffffffffffffffffffffffffffffffffffffff1673ffffffffffffffffffffffffffffffffffffffff16826040516123b390613935565b60006040518083038185875af1925050503d80600081146123f0576040519150601f19603f3d011682016040523d82523d6000602084013e6123f5565b606091505b5050905080612430576040517f90b8ec1800000000000000000000000000000000000000000000000000000000815260040160405180910390fd5b847f695e5da4ac18d67a20f922f9097a3928889a25a0756a2c77cae45d84564cc0c28360405161246091906135cc565b60405180910390a2600654600754106124aa576001600860026101000a81548160ff0219169083151502179055506001600860016101000a81548160ff0219169083151502179055505b505050506124b661345d565b50565b600d6020528060005260406000206000915090505481565b600860019054906101000a900460ff1681565b600860049054906101000a900460ff1681565b6124ff61340e565b600860039054906101000a900460ff16612545576040517f44dddc9700000000000000000000000000000000000000000000000000000000815260040160405180910390fd5b6000600b60003373ffffffffffffffffffffffffffffffffffffffff1673ffffffffffffffffffffffffffffffffffffffff168152602001908152602001600020549050600081036125c3576040517f65c7efcc00000000000000000000000000000000000000000000000000000000815260040160405180910390fd5b6000600b60003373ffffffffffffffffffffffffffffffffffffffff1673ffffffffffffffffffffffffffffffffffffffff16815260200190815260200160002081905550806005600082825461261a9190613c26565b9250508190555060003373ffffffffffffffffffffffffffffffffffffffff168260405161264790613935565b60006040518083038185875af1925050503d8060008114612684576040519150601f19603f3d011682016040523d82523d6000602084013e612689565b606091505b50509050806126c4576040517f90b8ec1800000000000000000000000000000000000000000000000000000000815260040160405180910390fd5b3373ffffffffffffffffffffffffffffffffffffffff167fbb28353e4598c3b9199101a66e0989549b659a59a54d2c27fbb183f1932c8e6d8360405161270a91906135cc565b60405180910390a23373ffffffffffffffffffffffffffffffffffffffff167f358fe4192934d3bf28ae181feda1f4bd08ca67f5e2fad55582cce5eb67304ae98360405161275891906135cc565b60405180910390a2505061276a61345d565b565b600860029054906101000a900460ff1681565b600860049054906101000a900460ff16156127c6576040517f475a253500000000000000000000000000000000000000000000000000000000815260040160405180910390fd5b600454421015612802576040517f66ec4ee600000000000000000000000000000000000000000000000000000000815260040160405180910390fd5b6001600860046101000a81548160ff0219169083151502179055506003546006541015612845576001600860036101000a81548160ff0219169083151502179055505b565b6000600f80549050905090565b600c805490508110612892576040517ff09a118400000000000000000000000000000000000000000000000000000000815260040160405180910390fd5b6000600b60003373ffffffffffffffffffffffffffffffffffffffff1673ffffffffffffffffffffffffffffffffffffffff168152602001908152602001600020540361290b576040517fd764187d00000000000000000000000000000000000000000000000000000000815260040160405180910390fd5b6000600c8281548110612921576129206138d5565b5b906000526020600020906002020190508060010160009054906101000a900460ff161561297a576040517f81b57dde00000000000000000000000000000000000000000000000000000000815260040160405180910390fd5b600e600083815260200190815260200160002060003373ffffffffffffffffffffffffffffffffffffffff1673ffffffffffffffffffffffffffffffffffffffff16815260200190815260200160002060009054906101000a900460ff16156129e35750612b0c565b6001600e600084815260200190815260200160002060003373ffffffffffffffffffffffffffffffffffffffff1673ffffffffffffffffffffffffffffffffffffffff16815260200190815260200160002060006101000a81548160ff0219169083151502179055506000600b60003373ffffffffffffffffffffffffffffffffffffffff1673ffffffffffffffffffffffffffffffffffffffff16815260200190815260200160002054905080600d60008581526020019081526020016000206000828254612ab39190613cba565b925050819055503373ffffffffffffffffffffffffffffffffffffffff16837ffe731b8534f38a55c98725a977efe67da793f35fb32ca4d1d947c01d80259bc283604051612b0191906135cc565b60405180910390a350505b50565b612b1761340e565b600260009054906101000a900473ffffffffffffffffffffffffffffffffffffffff1673ffffffffffffffffffffffffffffffffffffffff163373ffffffffffffffffffffffffffffffffffffffff1614612b9e576040517f7bfa4b9f00000000000000000000000000000000000000000000000000000000815260040160405180910390fd5b600454421015612bda576040517f66ec4ee600000000000000000000000000000000000000000000000000000000815260040160405180910390fd5b600860009054906101000a900460ff16612c20576040517f78c754c900000000000000000000000000000000000000000000000000000000815260040160405180910390fd5b600860019054906101000a900460ff1680612c475750600860029054906101000a900460ff165b15612c7e576040517f6507689f00000000000000000000000000000000000000000000000000000000815260040160405180910390fd5b60004790506001600860016101000a81548160ff0219169083151502179055506001600860026101000a81548160ff0219169083151502179055506000600160009054906101000a900473ffffffffffffffffffffffffffffffffffffffff1673ffffffffffffffffffffffffffffffffffffffff1682604051612d0190613935565b60006040518083038185875af1925050503d8060008114612d3e576040519150601f19603f3d011682016040523d82523d6000602084013e612d43565b606091505b5050905080612d7e576040517f90b8ec1800000000000000000000000000000000000000000000000000000000815260040160405180910390fd5b600160009054906101000a900473ffffffffffffffffffffffffffffffffffffffff1673ffffffffffffffffffffffffffffffffffffffff167f7fcf532c15f0a6db0bd6d0e038bea71d30d808c7d98cb3bf7268a95bf5081b6583604051612de691906135cc565b60405180910390a2600160009054906101000a900473ffffffffffffffffffffffffffffffffffffffff1673ffffffffffffffffffffffffffffffffffffffff167f221c08a06b07a64803b3787861a3f276212fcccb51c2e6234077a9b8cb13047a83604051612e5691906135cc565b60405180910390a25050612e6861345d565b565b60065481565b612e7861340e565b60003403612eb2576040517fab82a24800000000000000000000000000000000000000000000000000000000815260040160405180910390fd5b6004544210612eed576040517f553ae05400000000000000000000000000000000000000000000000000000000815260040160405180910390fd5b600860009054906101000a900460ff1615612f34576040517ff30bb8af00000000000000000000000000000000000000000000000000000000815260040160405180910390fd5b34600b60003373ffffffffffffffffffffffffffffffffffffffff1673ffffffffffffffffffffffffffffffffffffffff1681526020019081526020016000206000828254612f839190613cba565b925050819055503460056000828254612f9c9190613cba565b925050819055506005546006819055506003546005541061300b576001600860006101000a81548160ff0219169083151502179055507f62bb2c2be703269b4efd105a54be058929a0a5b858f6776ad7b341a7bf3e88586001604051613002919061369c565b60405180910390a15b3373ffffffffffffffffffffffffffffffffffffffff167f62722348256371b5147820d6cad90c40fd2da1ccee18c3ed52c0bca5a61dbbab3460405161305191906135cc565b60405180910390a23373ffffffffffffffffffffffffffffffffffffffff167f1bb460ccaaf70fbacfec17a376f8acbd278c1405590ffcc8ebe4b88daf4f64ad3460405161309f91906135cc565b60405180910390a23373ffffffffffffffffffffffffffffffffffffffff167f22c682fd3e8cfd90e2c5392a7d8e03ec34749e5db838d47fe5c3c38be36d090534466040516130ef929190613d90565b60405180910390a26130ff61345d565b565b60106020528160005260406000206020528060005260406000206000915091509054906101000a900460ff1681565b600160009054906101000a900473ffffffffffffffffffffffffffffffffffffffff1673ffffffffffffffffffffffffffffffffffffffff163373ffffffffffffffffffffffffffffffffffffffff16146131b7576040517f93687c0b00000000000000000000000000000000000000000000000000000000815260040160405180910390fd5b6000600c80549050146131f6576040517f7575b7f700000000000000000000000000000000000000000000000000000000815260040160405180910390fd5b60008282905003613233576040517f5c4a81cc00000000000000000000000000000000000000000000000000000000815260040160405180910390fd5b600080600090505b8383905081101561336757600084848381811061325b5761325a6138d5565b5b9050602002013590506000810361329e576040517f1f3b85d300000000000000000000000000000000000000000000000000000000815260040160405180910390fd5b80836132aa9190613cba565b9250600c60405180604001604052808381526020016000151581525090806001815401808255809150506001900390600052602060002090600202016000909190919091506000820151816000015560208201518160010160006101000a81548160ff0219169083151502179055505050817f3a2622619a6ba11c3f6805f19879501605e35983595b15a0a32c8982c5c456778260405161334b91906135cc565b60405180910390a250808061335f90613db9565b91505061323b565b50606481146133a2576040517f1f3b85d300000000000000000000000000000000000000000000000000000000815260040160405180910390fd5b505050565b600c81815481106133b757600080fd5b90600052602060002090600202016000915090508060000154908060010160009054906101000a900460ff16905082565b600260009054906101000a900473ffffffffffffffffffffffffffffffffffffffff1681565b600260005403613453576040517f08c379a000000000000000000000000000000000000000000000000000000000815260040161344a90613e4d565b60405180910390fd5b6002600081905550565b6001600081905550565b600080fd5b600080fd5b6000819050919050565b61348481613471565b811461348f57600080fd5b50565b6000813590506134a18161347b565b92915050565b6000602082840312156134bd576134bc613467565b5b60006134cb84828501613492565b91505092915050565b600081519050919050565b600082825260208201905092915050565b60005b8381101561350e5780820151818401526020810190506134f3565b60008484015250505050565b6000601f19601f8301169050919050565b6000613536826134d4565b61354081856134df565b93506135508185602086016134f0565b6135598161351a565b840191505092915050565b61356d81613471565b82525050565b60008115159050919050565b61358881613573565b82525050565b600060608201905081810360008301526135a8818661352b565b90506135b76020830185613564565b6135c4604083018461357f565b949350505050565b60006020820190506135e16000830184613564565b92915050565b600073ffffffffffffffffffffffffffffffffffffffff82169050919050565b6000613612826135e7565b9050919050565b61362281613607565b82525050565b600060208201905061363d6000830184613619565b92915050565b61364c81613607565b811461365757600080fd5b50565b60008135905061366981613643565b92915050565b60006020828403121561368557613684613467565b5b60006136938482850161365a565b91505092915050565b60006020820190506136b1600083018461357f565b92915050565b600080fd5b600080fd5b600080fd5b60008083601f8401126136dc576136db6136b7565b5b8235905067ffffffffffffffff8111156136f9576136f86136bc565b5b602083019150836001820283011115613715576137146136c1565b5b9250929050565b6000806020838503121561373357613732613467565b5b600083013567ffffffffffffffff8111156137515761375061346c565b5b61375d858286016136c6565b92509250509250929050565b600080604083850312156137805761377f613467565b5b600061378e85828601613492565b925050602061379f8582860161365a565b9150509250929050565b60008083601f8401126137bf576137be6136b7565b5b8235905067ffffffffffffffff8111156137dc576137db6136bc565b5b6020830191508360208202830111156137f8576137f76136c1565b5b9250929050565b6000806020838503121561381657613815613467565b5b600083013567ffffffffffffffff8111156138345761383361346c565b5b613840858286016137a9565b92509250509250929050565b60006040820190506138616000830185613564565b61386e602083018461357f565b9392505050565b7f4e487b7100000000000000000000000000000000000000000000000000000000600052602260045260246000fd5b600060028204905060018216806138bc57607f821691505b6020821081036138cf576138ce613875565b5b50919050565b7f4e487b7100000000000000000000000000000000000000000000000000000000600052603260045260246000fd5b600081905092915050565b50565b600061391f600083613904565b915061392a8261390f565b600082019050919050565b600061394082613912565b9150819050919050565b7f4e487b7100000000000000000000000000000000000000000000000000000000600052604160045260246000fd5b60008190508160005260206000209050919050565b60006020601f8301049050919050565b600082821b905092915050565b6000600883026139db7fffffffffffffffffffffffffffffffffffffffffffffffffffffffffffffffff8261399e565b6139e5868361399e565b95508019841693508086168417925050509392505050565b6000819050919050565b6000613a22613a1d613a1884613471565b6139fd565b613471565b9050919050565b6000819050919050565b613a3c83613a07565b613a50613a4882613a29565b8484546139ab565b825550505050565b600090565b613a65613a58565b613a70818484613a33565b505050565b5b81811015613a9457613a89600082613a5d565b600181019050613a76565b5050565b601f821115613ad957613aaa81613979565b613ab38461398e565b81016020851015613ac2578190505b613ad6613ace8561398e565b830182613a75565b50505b505050565b600082821c905092915050565b6000613afc60001984600802613ade565b1980831691505092915050565b6000613b158383613aeb565b9150826002028217905092915050565b613b2e826134d4565b67ffffffffffffffff811115613b4757613b4661394a565b5b613b5182546138a4565b613b5c828285613a98565b600060209050601f831160018114613b8f5760008415613b7d578287015190505b613b878582613b09565b865550613bef565b601f198416613b9d86613979565b60005b82811015613bc557848901518255600182019150602085019450602081019050613ba0565b86831015613be25784890151613bde601f891682613aeb565b8355505b6001600288020188555050505b505050505050565b7f4e487b7100000000000000000000000000000000000000000000000000000000600052601160045260246000fd5b6000613c3182613471565b9150613c3c83613471565b9250828203905081811115613c5457613c53613bf7565b5b92915050565b82818337600083830152505050565b6000613c7583856134df565b9350613c82838584613c5a565b613c8b8361351a565b840190509392505050565b60006020820190508181036000830152613cb1818486613c69565b90509392505050565b6000613cc582613471565b9150613cd083613471565b9250828201905080821115613ce857613ce7613bf7565b5b92915050565b6000613cf982613471565b9150613d0483613471565b9250828202613d1281613471565b91508282048414831517613d2957613d28613bf7565b5b5092915050565b7f4e487b7100000000000000000000000000000000000000000000000000000000600052601260045260246000fd5b6000613d6a82613471565b9150613d7583613471565b925082613d8557613d84613d30565b5b828204905092915050565b6000604082019050613da56000830185613564565b613db26020830184613564565b9392505050565b6000613dc482613471565b91507fffffffffffffffffffffffffffffffffffffffffffffffffffffffffffffffff8203613df657613df5613bf7565b5b600182019050919050565b7f5265656e7472616e637947756172643a207265656e7472616e742063616c6c00600082015250565b6000613e37601f836134df565b9150613e4282613e01565b602082019050919050565b60006020820190508181036000830152613e6681613e2a565b905091905056fea2646970667358221220f604fae306a9f3c75cb4052d8114f4586acca98f2cfb6d55f5d5404a1275aebe64736f6c63430008140033",
  "linkReferences": {},
  "deployedLinkReferences": {}
}