{"contracts/MockSemaphoreVerifier.sol":{"MockSemaphoreVerifier":{"abi":[{"inputs":[{"internalType":"uint256","name":"_expectedGroupId","type":"uint256"},{"internalType":"uint256","name":"_validMessage","type":"uint256"}],"stateMutability":"nonpayable","type":"constructor"},{"inputs":[],"name":"expectedGroupId","outputs":[{"internalType":"uint256","name":"","type":"uint256"}],"stateMutability":"view","type":"function"},{"inputs":[],"name":"validMessage","outputs":[{"internalType":"uint256","name":"","type":"uint256"}],"stateMutability":"view","type":"function"},{"inputs":[{"internalType":"uint256","name":"groupId","type":"uint256"},{"components":[{"internalType":"uint256","name":"merkleTreeDepth","type":"uint256"},{"internalType":"uint256","name":"merkleTreeRoot","type":"uint256"},{"internalType":"uint256","name":"nullifier","type":"uint256"},{"internalType":"uint256","name":"message","type":"uint256"},{"internalType":"uint256","name":"scope","type":"uint256"},{"internalType":"uint256[8]","name":"points","type":"uint256[8]"}],"internalType":"struct MockSemaphoreVerifier.SemaphoreProof","name":"proof","type":"tuple"}],"name":"verifyProof","outputs":[{"internalType":"bool","name":"","type":"bool"}],"stateMutability":"view","type":"function"}],"evm":{"bytecode":{"linkReferences":{},"object":"60c060405234801561001057600080fd5b5060405161039d38038061039d83398181016040528101906100329190610084565b81608081815250508060a0818152505050506100c4565b600080fd5b6000819050919050565b6100618161004e565b811461006c57600080fd5b50565b60008151905061007e81610058565b92915050565b6000806040838503121561009b5761009a610049565b5b60006100a98582860161006f565b92505060206100ba8582860161006f565b9150509250929050565b60805160a0516102a86100f56000396000818160fb015261012b01526000818160b6015261014f01526102a86000f3fe608060405234801561001057600080fd5b50600436106100415760003560e01c8063456f4188146100465780635c2dbf3814610076578063f827ceeb14610094575b600080fd5b610060600480360381019061005b91906101d1565b6100b2565b60405161006d919061022d565b60405180910390f35b61007e610129565b60405161008b9190610257565b60405180910390f35b61009c61014d565b6040516100a99190610257565b60405180910390f35b60007f000000000000000000000000000000000000000000000000000000000000000083146100e45760009050610123565b60008260400135036100f95760009050610123565b7f000000000000000000000000000000000000000000000000000000000000000082606001351490505b92915050565b7f000000000000000000000000000000000000000000000000000000000000000081565b7f000000000000000000000000000000000000000000000000000000000000000081565b600080fd5b6000819050919050565b61018981610176565b811461019457600080fd5b50565b6000813590506101a681610180565b92915050565b600080fd5b60006101a082840312156101c8576101c76101ac565b5b81905092915050565b6000806101c083850312156101e9576101e8610171565b5b60006101f785828601610197565b9250506020610208858286016101b1565b9150509250929050565b60008115159050919050565b61022781610212565b82525050565b6000602082019050610242600083018461021e565b92915050565b61025181610176565b82525050565b600060208201905061026c6000830184610248565b9291505056fea26469706673582212207607c60f314ec40b04b447112838d793eab566a62d0f267ee93d230af232764964736f6c63430008140033","opcodes":"PUSH1 0xC0 PUSH1 0x40 MSTORE CALLVALUE DUP1 ISZERO PUSH2 0x10 JUMPI PUSH1 0x0 DUP1 REVERT JUMPDEST POP PUSH1 0x40 MLOAD PUSH2 0x39D CODESIZE SUB DUP1 PUSH2 0x39D DUP4 CODECOPY DUP2 DUP2 ADD PUSH1 0x40 MSTORE DUP2 ADD SWAP1 PUSH2 0x32 SWAP2 SWAP1 PUSH2 0x84 JUMP JUMPDEST DUP2 PUSH1 0x80 DUP2 DUP2 MSTORE POP POP DUP1 PUSH1 0xA0 DUP2 DUP2 MSTORE POP POP POP POP PUSH2 0xC4 JUMP JUMPDEST PUSH1 0x0 DUP1 REVERT JUMPDEST PUSH1 0x0 DUP2 SWAP1 POP SWAP2 SWAP1 POP JUMP JUMPDEST PUSH2 0x61 DUP2 PUSH2 0x4E JUMP JUMPDEST DUP2 EQ PUSH2 0x6C JUMPI PUSH1 0x0 DUP1 REVERT JUMPDEST POP JUMP JUMPDEST PUSH1 0x0 DUP2 MLOAD SWAP1 POP PUSH2 0x7E DUP2 PUSH2 0x58 JUMP JUMPDEST SWAP3 SWAP2 POP POP JUMP JUMPDEST PUSH1 0x0 DUP1 PUSH1 0x40 DUP4 DUP6 SUB SLT ISZERO PUSH2 0x9B JUMPI PUSH2 0x9A PUSH2 0x49 JUMP JUMPDEST JUMPDEST PUSH1 0x0 PUSH2 0xA9 DUP6 DUP3 DUP7 ADD PUSH2 0x6F JUMP JUMPDEST SWAP3 POP POP PUSH1 0x20 PUSH2 0xBA DUP6 DUP3 DUP7 ADD PUSH2 0x6F JUMP JUMPDEST SWAP2 POP POP SWAP3 POP SWAP3 SWAP1 POP JUMP JUMPDEST PUSH1 0x80 MLOAD PUSH1 0xA0 MLOAD PUSH2 0x2A8 PUSH2 0xF5 PUSH1 0x0 CODECOPY PUSH1 0x0 DUP2 DUP2 PUSH1 0xFB ADD MSTORE PUSH2 0x12B ADD MSTORE PUSH1 0x0 DUP2 DUP2 PUSH1 0xB6 ADD MSTORE PUSH2 0x14F ADD MSTORE PUSH2 0x2A8 PUSH1 0x0 RETURN INVALID PUSH1 0x80 PUSH1 0x40 MSTORE CALLVALUE DUP1 ISZERO PUSH2 0x10 JUMPI PUSH1 0x0 DUP1 REVERT JUMPDEST POP PUSH1 0x4 CALLDATASIZE LT PUSH2 0x41 JUMPI PUSH1 0x0 CALLDATALOAD PUSH1 0xE0 SHR DUP1 PUSH4 0x456F4188 EQ PUSH2 0x46 JUMPI DUP1 PUSH4 0x5C2DBF38 EQ PUSH2 0x76 JUMPI DUP1 PUSH4 0xF827CEEB EQ PUSH2 0x94 JUMPI JUMPDEST PUSH1 0x0 DUP1 REVERT JUMPDEST PUSH2 0x60 PUSH1 0x4 DUP1 CALLDATASIZE SUB DUP2 ADD SWAP1 PUSH2 0x5B SWAP2 SWAP1 PUSH2 0x1D1 JUMP JUMPDEST PUSH2 0xB2 JUMP JUMPDEST PUSH1 0x40 MLOAD PUSH2 0x6D SWAP2 SWAP1 PUSH2 0x22D JUMP JUMPDEST PUSH1 0x40 MLOAD DUP1 SWAP2 SUB SWAP1 RETURN JUMPDEST PUSH2 0x7E PUSH2 0x129 JUMP JUMPDEST PUSH1 0x40 MLOAD PUSH2 0x8B SWAP2 SWAP1 PUSH2 0x257 JUMP JUMPDEST PUSH1 0x40 MLOAD DUP1 SWAP2 SUB SWAP1 RETURN JUMPDEST PUSH2 0x9C PUSH2 0x14D JUMP JUMPDEST PUSH1 0x40 MLOAD PUSH2 0xA9 SWAP2 SWAP1 PUSH2 0x257 JUMP JUMPDEST PUSH1 0x40 MLOAD DUP1 SWAP2 SUB SWAP1 RETURN JUMPDEST PUSH1 0x0 PUSH32 0x0 DUP4 EQ PUSH2 0xE4 JUMPI PUSH1 0x0 SWAP1 POP PUSH2 0x123 JUMP JUMPDEST PUSH1 0x0 DUP3 PUSH1 0x40 ADD CALLDATALOAD SUB PUSH2 0xF9 JUMPI PUSH1 0x0 SWAP1 POP PUSH2 0x123 JUMP JUMPDEST PUSH32 0x0 DUP3 PUSH1 0x60 ADD CALLDATALOAD EQ SWAP1 POP JUMPDEST SWAP3 SWAP2 POP POP JUMP JUMPDEST PUSH32 0x0 DUP2 JUMP JUMPDEST PUSH32 0x0 DUP2 JUMP JUMPDEST PUSH1 0x0 DUP1 REVERT JUMPDEST PUSH1 0x0 DUP2 SWAP1 POP SWAP2 SWAP1 POP JUMP JUMPDEST PUSH2 0x189 DUP2 PUSH2 0x176 JUMP JUMPDEST DUP2 EQ PUSH2 0x194 JUMPI PUSH1 0x0 DUP1 REVERT JUMPDEST POP JUMP JUMPDEST PUSH1 0x0 DUP2 CALLDATALOAD SWAP1 POP PUSH2 0x1A6 DUP2 PUSH2 0x180 JUMP JUMPDEST SWAP3 SWAP2 POP POP JUMP JUMPDEST PUSH1 0x0 DUP1 REVERT JUMPDEST PUSH1 0x0 PUSH2 0x1A0 DUP3 DUP5 SUB SLT ISZERO PUSH2 0x1C8 JUMPI PUSH2 0x1C7 PUSH2 0x1AC JUMP JUMPDEST JUMPDEST DUP2 SWAP1 POP SWAP3 SWAP2 POP POP JUMP JUMPDEST PUSH1 0x0 DUP1 PUSH2 0x1C0 DUP4 DUP6 SUB SLT ISZERO PUSH2 0x1E9 JUMPI PUSH2 0x1E8 PUSH2 0x171 JUMP JUMPDEST JUMPDEST PUSH1 0x0 PUSH2 0x1F7 DUP6 DUP3 DUP7 ADD PUSH2 0x197 JUMP JUMPDEST SWAP3 POP POP PUSH1 0x20 PUSH2 0x208 DUP6 DUP3 DUP7 ADD PUSH2 0x1B1 JUMP JUMPDEST SWAP2 POP POP SWAP3 POP SWAP3 SWAP1 POP JUMP JUMPDEST PUSH1 0x0 DUP2 ISZERO ISZERO SWAP1 POP SWAP2 SWAP1 POP JUMP JUMPDEST PUSH2 0x227 DUP2 PUSH2 0x212 JUMP JUMPDEST DUP3 MSTORE POP POP JUMP JUMPDEST PUSH1 0x0 PUSH1 0x20 DUP3 ADD SWAP1 POP PUSH2 0x242 PUSH1 0x0 DUP4 ADD DUP5 PUSH2 0x21E JUMP JUMPDEST SWAP3 SWAP2 POP POP JUMP JUMPDEST PUSH2 0x251 DUP2 PUSH2 0x176 JUMP JUMPDEST DUP3 MSTORE POP POP JUMP JUMPDEST PUSH1 0x0 PUSH1 0x20 DUP3 ADD SWAP1 POP PUSH2 0x26C PUSH1 0x0 DUP4 ADD DUP5 PUSH2 0x248 JUMP JUMPDEST SWAP3 SWAP2 POP POP JUMP INVALID LOG2 PUSH5 0x6970667358 0x22 SLT KECCAK256 PUSH23 0x7C60F314EC40B04B447112838D793EAB566A62D0F267E 0xE9 RETURNDATASIZE 0x23 EXP CALLCODE ORIGIN PUSH23 0x4964736F6C634300081400330000000000000000000000 "},"methodIdentifiers":{"expectedGroupId()":"f827ceeb","validMessage()":"5c2dbf38","verifyProof(uint256,(uint256,uint256,uint256,uint256,uint256,uint256[8]))":"456f4188"}}}}}