{
  "_format": "hh-sol-artifact-1",
  "contractName": "FundingPoolHome",
  "sourceName": "contracts/FundingPoolHome.sol",
  "abi": [
    {
      "inputs": [
        {
          "internalType": "address",
          "name": "_endpoint",
          "type": "address"
        }
      ],
      "stateMutability": "nonpayable",
      "type": "constructor"
    },
    {
      "inputs": [],
      "name": "AlreadyFinalized",
      "type": "error"
    },
    {
      "inputs": [],
      "name": "AlreadyWithdrawn",
      "type": "error"
    },
    {
      "inputs": [],
      "name": "CampaignEnded",
      "type": "error"
    },
    {
      "inputs": [],
      "name": "CampaignNotFound",
      "type": "error"
    },
    {
      "inputs": [],
      "name": "DeadlineNotReached",
      "type": "error"
    },
    {
      "inputs": [],
      "name": "DuplicateDeposit",
      "type": "error"
    },
    {
      "inputs": [],
      "name": "GoalNotReached",
      "type": "error"
    },
    {
      "inputs": [],
      "name": "GoalReached",
      "type": "error"
    },
    {
      "inputs": [],
      "name": "InvalidDeadline",
      "type": "error"
    },
    {
      "inputs": [],
      "name": "InvalidGoal",
      "type": "error"
    },
    {
      "inputs": [],
      "name": "InvalidStreamDuration",
      "type": "error"
    },
    {
      "inputs": [],
      "name": "NoContribution",
      "type": "error"
    },
    {
      "inputs": [],
      "name": "NoStreamFunds",
      "type": "error"
    },
    {
      "inputs": [],
      "name": "NotCreator",
      "type": "error"
    },
    {
      "inputs": [],
      "name": "RefundNotEnabled",
      "type": "error"
    },
    {
      "inputs": [],
      "name": "StreamAlreadyEnded",
      "type": "error"
    },
    {
      "inputs": [],
      "name": "StreamNotActive",
      "type": "error"
    },
    {
      "inputs": [],
      "name": "TransferFailed",
      "type": "error"
    },
    {
      "anonymous": false,
      "inputs": [
        {
          "indexed": true,
          "internalType": "uint256",
          "name": "campaignId",
          "type": "uint256"
        },
        {
          "indexed": true,
          "internalType": "address",
          "name": "creator",
          "type": "address"
        },
        {
          "indexed": false,
          "internalType": "uint256",
          "name": "goal",
          "type": "uint256"
        },
        {
          "indexed": false,
          "internalType": "uint256",
          "name": "deadline",
          "type": "uint256"
        }
      ],
      "name": "CampaignCreated",
      "type": "event"
    },
    {
      "anonymous": false,
      "inputs": [
        {
          "indexed": true,
          "internalType": "address",
          "name": "contributor",
          "type": "address"
        },
        {
          "indexed": false,
          "internalType": "uint256",
          "name": "amount",
          "type": "uint256"
        },
        {
          "indexed": true,
          "internalType": "uint256",
          "name": "campaignId",
          "type": "uint256"
        },
        {
          "indexed": false,
          "internalType": "uint256",
          "name": "originChainId",
          "type": "uint256"
        }
      ],
      "name": "ContributionReceived",
      "type": "event"
    },
    {
      "anonymous": false,
      "inputs": [
        {
          "indexed": true,
          "internalType": "address",
          "name": "creator",
          "type": "address"
        },
        {
          "indexed": true,
          "internalType": "uint256",
          "name": "campaignId",
          "type": "uint256"
        },
        {
          "indexed": false,
          "internalType": "uint256",
          "name": "amount",
          "type": "uint256"
        }
      ],
      "name": "FundsReleased",
      "type": "event"
    },
    {
      "anonymous": false,
      "inputs": [
        {
          "indexed": true,
          "internalType": "address",
          "name": "contributor",
          "type": "address"
        },
        {
          "indexed": false,
          "internalType": "uint256",
          "name": "amount",
          "type": "uint256"
        },
        {
          "indexed": true,
          "internalType": "uint256",
          "name": "campaignId",
          "type": "uint256"
        }
      ],
      "name": "RefundClaimed",
      "type": "event"
    },
    {
      "anonymous": false,
      "inputs": [
        {
          "indexed": true,
          "internalType": "address",
          "name": "creator",
          "type": "address"
        },
        {
          "indexed": true,
          "internalType": "uint256",
          "name": "campaignId",
          "type": "uint256"
        },
        {
          "indexed": false,
          "internalType": "uint256",
          "name": "totalAmount",
          "type": "uint256"
        },
        {
          "indexed": false,
          "internalType": "uint256",
          "name": "durationSeconds",
          "type": "uint256"
        },
        {
          "indexed": false,
          "internalType": "uint256",
          "name": "ratePerSecond",
          "type": "uint256"
        },
        {
          "indexed": false,
          "internalType": "uint256",
          "name": "startTime",
          "type": "uint256"
        },
        {
          "indexed": false,
          "internalType": "uint256",
          "name": "endTime",
          "type": "uint256"
        }
      ],
      "name": "StreamStarted",
      "type": "event"
    },
    {
      "anonymous": false,
      "inputs": [
        {
          "indexed": true,
          "internalType": "address",
          "name": "creator",
          "type": "address"
        },
        {
          "indexed": true,
          "internalType": "uint256",
          "name": "campaignId",
          "type": "uint256"
        },
        {
          "indexed": false,
          "internalType": "uint256",
          "name": "remainingAmount",
          "type": "uint256"
        },
        {
          "indexed": false,
          "internalType": "uint256",
          "name": "totalWithdrawn",
          "type": "uint256"
        }
      ],
      "name": "StreamStopped",
      "type": "event"
    },
    {
      "anonymous": false,
      "inputs": [
        {
          "indexed": true,
          "internalType": "address",
          "name": "creator",
          "type": "address"
        },
        {
          "indexed": true,
          "internalType": "uint256",
          "name": "campaignId",
          "type": "uint256"
        },
        {
          "indexed": false,
          "internalType": "uint256",
          "name": "amount",
          "type": "uint256"
        },
        {
          "indexed": false,
          "internalType": "uint256",
          "name": "totalWithdrawn",
          "type": "uint256"
        }
      ],
      "name": "StreamWithdrawn",
      "type": "event"
    },
    {
      "inputs": [],
      "name": "DEFAULT_STREAM_DURATION_SECONDS",
      "outputs": [
        {
          "internalType": "uint256",
          "name": "",
          "type": "uint256"
        }
      ],
      "stateMutability": "view",
      "type": "function"
    },
    {
      "inputs": [
        {
          "internalType": "uint256",
          "name": "",
          "type": "uint256"
        }
      ],
      "name": "campaigns",
      "outputs": [
        {
          "internalType": "address",
          "name": "creator",
          "type": "address"
        },
        {
          "internalType": "uint256",
          "name": "goal",
          "type": "uint256"
        },
        {
          "internalType": "uint256",
          "name": "deadline",
          "type": "uint256"
        },
        {
          "internalType": "uint256",
          "name": "totalContributed",
          "type": "uint256"
        },
        {
          "internalType": "uint256",
          "name": "totalRaised",
          "type": "uint256"
        },
        {
          "internalType": "bool",
          "name": "closed",
          "type": "bool"
        },
        {
          "internalType": "bool",
          "name": "fundsWithdrawn",
          "type": "bool"
        },
        {
          "internalType": "bool",
          "name": "fundsReleased",
          "type": "bool"
        },
        {
          "internalType": "bool",
          "name": "refundEnabled",
          "type": "bool"
        },
        {
          "internalType": "bool",
          "name": "finalized",
          "type": "bool"
        },
        {
          "internalType": "bool",
          "name": "exists",
          "type": "bool"
        }
      ],
      "stateMutability": "view",
      "type": "function"
    },
    {
      "inputs": [
        {
          "internalType": "uint256",
          "name": "campaignId",
          "type": "uint256"
        }
      ],
      "name": "claimRefund",
      "outputs": [],
      "stateMutability": "nonpayable",
      "type": "function"
    },
    {
      "inputs": [
        {
          "internalType": "uint256",
          "name": "campaignId",
          "type": "uint256"
        }
      ],
      "name": "contribute",
      "outputs": [],
      "stateMutability": "payable",
      "type": "function"
    },
    {
      "inputs": [
        {
          "internalType": "uint256",
          "name": "",
          "type": "uint256"
        },
        {
          "internalType": "address",
          "name": "",
          "type": "address"
        }
      ],
      "name": "contributions",
      "outputs": [
        {
          "internalType": "uint256",
          "name": "",
          "type": "uint256"
        }
      ],
      "stateMutability": "view",
      "type": "function"
    },
    {
      "inputs": [
        {
          "internalType": "uint256",
          "name": "goalWei",
          "type": "uint256"
        },
        {
          "internalType": "uint256",
          "name": "deadline",
          "type": "uint256"
        }
      ],
      "name": "createCampaign",
      "outputs": [
        {
          "internalType": "uint256",
          "name": "campaignId",
          "type": "uint256"
        }
      ],
      "stateMutability": "nonpayable",
      "type": "function"
    },
    {
      "inputs": [
        {
          "internalType": "uint256",
          "name": "campaignId",
          "type": "uint256"
        },
        {
          "internalType": "uint256",
          "name": "durationSeconds",
          "type": "uint256"
        }
      ],
      "name": "daoStartStreaming",
      "outputs": [],
      "stateMutability": "nonpayable",
      "type": "function"
    },
    {
      "inputs": [],
      "name": "endpoint",
      "outputs": [
        {
          "internalType": "address",
          "name": "",
          "type": "address"
        }
      ],
      "stateMutability": "view",
      "type": "function"
    },
    {
      "inputs": [
        {
          "internalType": "uint256",
          "name": "",
          "type": "uint256"
        }
      ],
      "name": "escrowBalance",
      "outputs": [
        {
          "internalType": "uint256",
          "name": "",
          "type": "uint256"
        }
      ],
      "stateMutability": "view",
      "type": "function"
    },
    {
      "inputs": [
        {
          "internalType": "uint256",
          "name": "campaignId",
          "type": "uint256"
        }
      ],
      "name": "finalizeAfterDeadline",
      "outputs": [],
      "stateMutability": "nonpayable",
      "type": "function"
    },
    {
      "inputs": [
        {
          "internalType": "uint16",
          "name": "_srcChainId",
          "type": "uint16"
        },
        {
          "internalType": "bytes",
          "name": "_srcAddress",
          "type": "bytes"
        },
        {
          "internalType": "uint64",
          "name": "_nonce",
          "type": "uint64"
        },
        {
          "internalType": "bytes",
          "name": "_payload",
          "type": "bytes"
        }
      ],
      "name": "lzReceive",
      "outputs": [],
      "stateMutability": "payable",
      "type": "function"
    },
    {
      "inputs": [],
      "name": "nextCampaignId",
      "outputs": [
        {
          "internalType": "uint256",
          "name": "",
          "type": "uint256"
        }
      ],
      "stateMutability": "view",
      "type": "function"
    },
    {
      "inputs": [],
      "name": "owner",
      "outputs": [
        {
          "internalType": "address",
          "name": "",
          "type": "address"
        }
      ],
      "stateMutability": "view",
      "type": "function"
    },
    {
      "inputs": [
        {
          "internalType": "uint16",
          "name": "",
          "type": "uint16"
        },
        {
          "internalType": "bytes32",
          "name": "",
          "type": "bytes32"
        },
        {
          "internalType": "uint64",
          "name": "",
          "type": "uint64"
        }
      ],
      "name": "processedNonces",
      "outputs": [
        {
          "internalType": "bool",
          "name": "",
          "type": "bool"
        }
      ],
      "stateMutability": "view",
      "type": "function"
    },
    {
      "inputs": [
        {
          "internalType": "uint256",
          "name": "campaignId",
          "type": "uint256"
        }
      ],
      "name": "releaseFunds",
      "outputs": [],
      "stateMutability": "nonpayable",
      "type": "function"
    },
    {
      "inputs": [
        {
          "internalType": "uint16",
          "name": "srcChainId",
          "type": "uint16"
        },
        {
          "internalType": "bytes",
          "name": "srcAddress",
          "type": "bytes"
        }
      ],
      "name": "setTrustedRemote",
      "outputs": [],
      "stateMutability": "nonpayable",
      "type": "function"
    },
    {
      "inputs": [
        {
          "internalType": "uint256",
          "name": "campaignId",
          "type": "uint256"
        },
        {
          "internalType": "uint256",
          "name": "durationSeconds",
          "type": "uint256"
        }
      ],
      "name": "startStreaming",
      "outputs": [],
      "stateMutability": "nonpayable",
      "type": "function"
    },
    {
      "inputs": [
        {
          "internalType": "uint256",
          "name": "campaignId",
          "type": "uint256"
        }
      ],
      "name": "stopStream",
      "outputs": [],
      "stateMutability": "nonpayable",
      "type": "function"
    },
    {
      "inputs": [
        {
          "internalType": "uint256",
          "name": "campaignId",
          "type": "uint256"
        }
      ],
      "name": "streamClaimable",
      "outputs": [
        {
          "internalType": "uint256",
          "name": "",
          "type": "uint256"
        }
      ],
      "stateMutability": "view",
      "type": "function"
    },
    {
      "inputs": [
        {
          "internalType": "uint256",
          "name": "",
          "type": "uint256"
        }
      ],
      "name": "streamDurationSeconds",
      "outputs": [
        {
          "internalType": "uint256",
          "name": "",
          "type": "uint256"
        }
      ],
      "stateMutability": "view",
      "type": "function"
    },
    {
      "inputs": [
        {
          "internalType": "uint256",
          "name": "",
          "type": "uint256"
        }
      ],
      "name": "streamEndTime",
      "outputs": [
        {
          "internalType": "uint256",
          "name": "",
          "type": "uint256"
        }
      ],
      "stateMutability": "view",
      "type": "function"
    },
    {
      "inputs": [
        {
          "internalType": "uint256",
          "name": "campaignId",
          "type": "uint256"
        }
      ],
      "name": "streamRatePerSecond",
      "outputs": [
        {
          "internalType": "uint256",
          "name": "",
          "type": "uint256"
        }
      ],
      "stateMutability": "view",
      "type": "function"
    },
    {
      "inputs": [
        {
          "internalType": "uint256",
          "name": "",
          "type": "uint256"
        }
      ],
      "name": "streamStartTime",
      "outputs": [
        {
          "internalType": "uint256",
          "name": "",
          "type": "uint256"
        }
      ],
      "stateMutability": "view",
      "type": "function"
    },
    {
      "inputs": [
        {
          "internalType": "uint256",
          "name": "",
          "type": "uint256"
        }
      ],
      "name": "streamTotalAmount",
      "outputs": [
        {
          "internalType": "uint256",
          "name": "",
          "type": "uint256"
        }
      ],
      "stateMutability": "view",
      "type": "function"
    },
    {
      "inputs": [
        {
          "internalType": "uint256",
          "name": "",
          "type": "uint256"
        }
      ],
      "name": "streamWithdrawnAmount",
      "outputs": [
        {
          "internalType": "uint256",
          "name": "",
          "type": "uint256"
        }
      ],
      "stateMutability": "view",
      "type": "function"
    },
    {
      "inputs": [
        {
          "internalType": "address",
          "name": "newOwner",
          "type": "address"
        }
      ],
      "name": "transferOwnership",
      "outputs": [],
      "stateMutability": "nonpayable",
      "type": "function"
    },
    {
      "inputs": [
        {
          "internalType": "uint16",
          "name": "",
          "type": "uint16"
        }
      ],
      "name": "trustedRemoteLookup",
      "outputs": [
        {
          "internalType": "bytes",
          "name": "",
          "type": "bytes"
        }
      ],
      "stateMutability": "view",
      "type": "function"
    },
    {
      "inputs": [
        {
          "internalType": "uint256",
          "name": "campaignId",
          "type": "uint256"
        }
      ],
      "name": "withdrawFromStream",
      "outputs": [],
      "stateMutability": "nonpayable",
      "type": "function"
    }
  ],
  "bytecode": "0x60a060405260016004553480156200001657600080fd5b5060405162003d5238038062003d5283398181016040528101906200003c91906200012a565b60016000819055508073ffffffffffffffffffffffffffffffffffffffff1660808173ffffffffffffffffffffffffffffffffffffffff168152505033600160006101000a81548173ffffffffffffffffffffffffffffffffffffffff021916908373ffffffffffffffffffffffffffffffffffffffff160217905550506200015c565b600080fd5b600073ffffffffffffffffffffffffffffffffffffffff82169050919050565b6000620000f282620000c5565b9050919050565b6200010481620000e5565b81146200011057600080fd5b50565b6000815190506200012481620000f9565b92915050565b600060208284031215620001435762000142620000c0565b5b6000620001538482850162000113565b91505092915050565b608051613bd36200017f6000396000818161073d01526117c70152613bd36000f3fe6080604052600436106101b65760003560e01c80637ac89794116100ec578063d5c5b54f1161008a578063dc35dd9311610064578063dc35dd931461067b578063eb8d72b7146106a4578063f2fde38b146106cd578063f3100296146106f6576101b6565b8063d5c5b54f146105ea578063d64eb2b814610615578063d9badb5d14610652576101b6565b80639a6ffeea116100c65780639a6ffeea14610517578063bb099ee314610554578063c1cbbca714610591578063d014cbfe146105ad576101b6565b80637ac897941461048657806385d5089e146104c35780638da5cb5b146104ec576101b6565b80635606036e116101595780635e280f11116101335780635e280f11146103b6578063644bca16146103e15780637533d7881461041e5780637903a7561461045b576101b6565b80635606036e1461031357806356dec590146103505780635b7baf641461038d576101b6565b80633a597f48116101955780633a597f481461025b5780633d891f59146102845780634911318f146102c15780634d68282f146102ea576101b6565b80621d3567146101bb578063141961bc146101d7578063225022681461021e575b600080fd5b6101d560048036038101906101d09190612d3b565b610733565b005b3480156101e357600080fd5b506101fe60048036038101906101f99190612e18565b610a7c565b6040516102159b9a99989796959493929190612eb0565b60405180910390f35b34801561022a57600080fd5b5061024560048036038101906102409190612f5b565b610b44565b6040516102529190612f9b565b60405180910390f35b34801561026757600080fd5b50610282600480360381019061027d9190612e18565b610de6565b005b34801561029057600080fd5b506102ab60048036038101906102a69190612fe2565b61134f565b6040516102b89190612f9b565b60405180910390f35b3480156102cd57600080fd5b506102e860048036038101906102e39190612f5b565b611374565b005b3480156102f657600080fd5b50610311600480360381019061030c9190612e18565b611382565b005b34801561031f57600080fd5b5061033a60048036038101906103359190613058565b61148b565b60405161034791906130ab565b60405180910390f35b34801561035c57600080fd5b5061037760048036038101906103729190612e18565b6114c7565b6040516103849190612f9b565b60405180910390f35b34801561039957600080fd5b506103b460048036038101906103af9190612e18565b6114df565b005b3480156103c257600080fd5b506103cb6117c5565b6040516103d891906130c6565b60405180910390f35b3480156103ed57600080fd5b5061040860048036038101906104039190612e18565b6117e9565b6040516104159190612f9b565b60405180910390f35b34801561042a57600080fd5b50610445600480360381019061044091906130e1565b611801565b604051610452919061319e565b60405180910390f35b34801561046757600080fd5b506104706118a1565b60405161047d9190612f9b565b60405180910390f35b34801561049257600080fd5b506104ad60048036038101906104a89190612e18565b6118a7565b6040516104ba9190612f9b565b60405180910390f35b3480156104cf57600080fd5b506104ea60048036038101906104e59190612e18565b6118bf565b005b3480156104f857600080fd5b50610501611e30565b60405161050e91906130c6565b60405180910390f35b34801561052357600080fd5b5061053e60048036038101906105399190612e18565b611e56565b60405161054b9190612f9b565b60405180910390f35b34801561056057600080fd5b5061057b60048036038101906105769190612e18565b611f79565b6040516105889190612f9b565b60405180910390f35b6105ab60048036038101906105a69190612e18565b611f91565b005b3480156105b957600080fd5b506105d460048036038101906105cf9190612e18565b6121fb565b6040516105e19190612f9b565b60405180910390f35b3480156105f657600080fd5b506105ff612213565b60405161060c9190612f9b565b60405180910390f35b34801561062157600080fd5b5061063c60048036038101906106379190612e18565b61221a565b6040516106499190612f9b565b60405180910390f35b34801561065e57600080fd5b5061067960048036038101906106749190612e18565b612232565b005b34801561068757600080fd5b506106a2600480360381019061069d9190612f5b565b612367565b005b3480156106b057600080fd5b506106cb60048036038101906106c691906131c0565b61273f565b005b3480156106d957600080fd5b506106f460048036038101906106ef9190613220565b6127ff565b005b34801561070257600080fd5b5061071d60048036038101906107189190612e18565b612942565b60405161072a9190612f9b565b60405180910390f35b61073b61299c565b7f000000000000000000000000000000000000000000000000000000000000000073ffffffffffffffffffffffffffffffffffffffff163373ffffffffffffffffffffffffffffffffffffffff16146107c9576040517f08c379a00000000000000000000000000000000000000000000000000000000081526004016107c0906132aa565b60405180910390fd5b6000600260008861ffff1661ffff16815260200190815260200160002080546107f1906132f9565b80601f016020809104026020016040519081016040528092919081815260200182805461081d906132f9565b801561086a5780601f1061083f5761010080835404028352916020019161086a565b820191906000526020600020905b81548152906001019060200180831161084d57829003601f168201915b5050505050905060008151141580156108a05750858560405161088e929190613369565b60405180910390208180519060200120145b6108df576040517f08c379a00000000000000000000000000000000000000000000000000000000081526004016108d6906133ce565b60405180910390fd5b60008060008086868101906108f4919061342c565b935093509350935081341461093e576040517f08c379a0000000000000000000000000000000000000000000000000000000008152600401610935906134df565b60405180910390fd5b60008a8a604051610950929190613369565b60405180910390209050600360008d61ffff1661ffff168152602001908152602001600020600082815260200190815260200160002060008a67ffffffffffffffff1667ffffffffffffffff16815260200190815260200160002060009054906101000a900460ff16156109f0576040517f8ee5d87800000000000000000000000000000000000000000000000000000000815260040160405180910390fd5b6001600360008e61ffff1661ffff168152602001908152602001600020600083815260200190815260200160002060008b67ffffffffffffffff1667ffffffffffffffff16815260200190815260200160002060006101000a81548160ff021916908315150217905550610a66858585856129eb565b505050505050610a74612c48565b505050505050565b60056020528060005260406000206000915090508060000160009054906101000a900473ffffffffffffffffffffffffffffffffffffffff16908060010154908060020154908060030154908060040154908060050160009054906101000a900460ff16908060050160019054906101000a900460ff16908060050160029054906101000a900460ff16908060050160039054906101000a900460ff16908060050160049054906101000a900460ff16908060050160059054906101000a900460ff1690508b565b6000808303610b7f576040517f9b60eb4d00000000000000000000000000000000000000000000000000000000815260040160405180910390fd5b428211610bb8576040517f769d11e400000000000000000000000000000000000000000000000000000000815260040160405180910390fd5b60046000815480929190610bcb9061352e565b9190505590506040518061016001604052803373ffffffffffffffffffffffffffffffffffffffff1681526020018481526020018381526020016000815260200160008152602001600015158152602001600015158152602001600015158152602001600015158152602001600015158152602001600115158152506005600083815260200190815260200160002060008201518160000160006101000a81548173ffffffffffffffffffffffffffffffffffffffff021916908373ffffffffffffffffffffffffffffffffffffffff1602179055506020820151816001015560408201518160020155606082015181600301556080820151816004015560a08201518160050160006101000a81548160ff02191690831515021790555060c08201518160050160016101000a81548160ff02191690831515021790555060e08201518160050160026101000a81548160ff0219169083151502179055506101008201518160050160036101000a81548160ff0219169083151502179055506101208201518160050160046101000a81548160ff0219169083151502179055506101408201518160050160056101000a81548160ff0219169083151502179055509050503373ffffffffffffffffffffffffffffffffffffffff16817f91b289a829e71d811b8c69e4a24ba2d40d115d8a236e9a724cb3bb2d43cf72238585604051610dd8929190613576565b60405180910390a392915050565b610dee61299c565b60006005600083815260200190815260200160002090508060050160059054906101000a900460ff16610e4d576040517f6ff36e1600000000000000000000000000000000000000000000000000000000815260040160405180910390fd5b8060000160009054906101000a900473ffffffffffffffffffffffffffffffffffffffff1673ffffffffffffffffffffffffffffffffffffffff163373ffffffffffffffffffffffffffffffffffffffff1614610ed6576040517f93687c0b00000000000000000000000000000000000000000000000000000000815260040160405180910390fd5b8060050160019054906101000a900460ff161580610f0257508060050160029054906101000a900460ff165b15610f39576040517f93813ce100000000000000000000000000000000000000000000000000000000815260040160405180910390fd5b6000600860008481526020019081526020016000205490506000600a60008581526020019081526020016000205490506000821480610f785750600081145b15610faf576040517f93813ce100000000000000000000000000000000000000000000000000000000815260040160405180910390fd5b600060096000868152602001908152602001600020544210610fe4576009600086815260200190815260200160002054610fe6565b425b9050828111611021576040517f014cfdec00000000000000000000000000000000000000000000000000000000815260040160405180910390fd5b6000838261102f919061359f565b905060008382600b60008a81526020019081526020016000205461105391906135d3565b61105d9190613644565b90506000600c60008981526020019081526020016000205490508082116110b0576040517f014cfdec00000000000000000000000000000000000000000000000000000000815260040160405180910390fd5b600081836110be919061359f565b905082600c60008b81526020019081526020016000208190555080600760008b815260200190815260200160002060008282546110fb919061359f565b9250508190555060008860000160009054906101000a900473ffffffffffffffffffffffffffffffffffffffff1673ffffffffffffffffffffffffffffffffffffffff168260405161114c9061369b565b60006040518083038185875af1925050503d8060008114611189576040519150601f19603f3d011682016040523d82523d6000602084013e61118e565b606091505b50509050806111c9576040517f90b8ec1800000000000000000000000000000000000000000000000000000000815260040160405180910390fd5b898960000160009054906101000a900473ffffffffffffffffffffffffffffffffffffffff1673ffffffffffffffffffffffffffffffffffffffff167f72c724f795acaff21269db17a551f228d01f5e541ce5dfc1d43e85f123517fdb84600c60008f815260200190815260200160002054604051611249929190613576565b60405180910390a3600b60008b815260200190815260200160002054600c60008c8152602001908152602001600020541061133b5760018960050160026101000a81548160ff0219169083151502179055506000600760008c815260200190815260200160002081905550898960000160009054906101000a900473ffffffffffffffffffffffffffffffffffffffff1673ffffffffffffffffffffffffffffffffffffffff167fc90c76155d237557f9162f07cd0da2ff40418cd82028c0e89535270fb9de5104600b60008e8152602001908152602001600020546040516113329190612f9b565b60405180910390a35b50505050505050505061134c612c48565b50565b6006602052816000526040600020602052806000526040600020600091509150505481565b61137e8282612367565b5050565b61138a61299c565b60006005600083815260200190815260200160002090508060050160059054906101000a900460ff166113e9576040517f6ff36e1600000000000000000000000000000000000000000000000000000000815260040160405180910390fd5b8060000160009054906101000a900473ffffffffffffffffffffffffffffffffffffffff1673ffffffffffffffffffffffffffffffffffffffff163373ffffffffffffffffffffffffffffffffffffffff1614611472576040517f93687c0b00000000000000000000000000000000000000000000000000000000815260040160405180910390fd5b61147f8262278d00612367565b50611488612c48565b50565b6003602052826000526040600020602052816000526040600020602052806000526040600020600092509250509054906101000a900460ff1681565b60086020528060005260406000206000915090505481565b6114e761299c565b60006005600083815260200190815260200160002090508060050160059054906101000a900460ff16611546576040517f6ff36e1600000000000000000000000000000000000000000000000000000000815260040160405180910390fd5b8060050160039054906101000a900460ff1661158e576040517f44dddc9700000000000000000000000000000000000000000000000000000000815260040160405180910390fd5b60006006600084815260200190815260200160002060003373ffffffffffffffffffffffffffffffffffffffff1673ffffffffffffffffffffffffffffffffffffffff1681526020019081526020016000205490506000810361161d576040517f65c7efcc00000000000000000000000000000000000000000000000000000000815260040160405180910390fd5b60006006600085815260200190815260200160002060003373ffffffffffffffffffffffffffffffffffffffff1673ffffffffffffffffffffffffffffffffffffffff1681526020019081526020016000208190555080826003016000828254611687919061359f565b9250508190555081600301548260040181905550806007600085815260200190815260200160002060008282546116be919061359f565b9250508190555060003373ffffffffffffffffffffffffffffffffffffffff16826040516116eb9061369b565b60006040518083038185875af1925050503d8060008114611728576040519150601f19603f3d011682016040523d82523d6000602084013e61172d565b606091505b5050905080611768576040517f90b8ec1800000000000000000000000000000000000000000000000000000000815260040160405180910390fd5b833373ffffffffffffffffffffffffffffffffffffffff167f17c1d890f3ffba4991a771a0b55802a1eff3159d0cce950fb68d1360530393d9846040516117af9190612f9b565b60405180910390a35050506117c2612c48565b50565b7f000000000000000000000000000000000000000000000000000000000000000081565b600c6020528060005260406000206000915090505481565b60026020528060005260406000206000915090508054611820906132f9565b80601f016020809104026020016040519081016040528092919081815260200182805461184c906132f9565b80156118995780601f1061186e57610100808354040283529160200191611899565b820191906000526020600020905b81548152906001019060200180831161187c57829003601f168201915b505050505081565b60045481565b60096020528060005260406000206000915090505481565b6118c761299c565b60006005600083815260200190815260200160002090508060050160059054906101000a900460ff16611926576040517f6ff36e1600000000000000000000000000000000000000000000000000000000815260040160405180910390fd5b8060000160009054906101000a900473ffffffffffffffffffffffffffffffffffffffff1673ffffffffffffffffffffffffffffffffffffffff163373ffffffffffffffffffffffffffffffffffffffff16146119af576040517f93687c0b00000000000000000000000000000000000000000000000000000000815260040160405180910390fd5b8060050160019054906101000a900460ff1615806119db57508060050160029054906101000a900460ff165b15611a12576040517f93813ce100000000000000000000000000000000000000000000000000000000815260040160405180910390fd5b6000600860008481526020019081526020016000205490506000600960008581526020019081526020016000205490506000600a60008681526020019081526020016000205490506000831480611a695750600081145b15611aa0576040517f93813ce100000000000000000000000000000000000000000000000000000000815260040160405180910390fd5b814210611ad9576040517f8bc214c000000000000000000000000000000000000000000000000000000000815260040160405180910390fd5b6000600c600087815260200190815260200160002054600b600088815260200190815260200160002054611b0d919061359f565b905060008103611b49576040517f014cfdec00000000000000000000000000000000000000000000000000000000815260040160405180910390fd5b600b600087815260200190815260200160002054600c6000888152602001908152602001600020819055506000600760008881526020019081526020016000208190555060008560000160009054906101000a900473ffffffffffffffffffffffffffffffffffffffff1673ffffffffffffffffffffffffffffffffffffffff1682604051611bd79061369b565b60006040518083038185875af1925050503d8060008114611c14576040519150601f19603f3d011682016040523d82523d6000602084013e611c19565b606091505b5050905080611c54576040517f90b8ec1800000000000000000000000000000000000000000000000000000000815260040160405180910390fd5b868660000160009054906101000a900473ffffffffffffffffffffffffffffffffffffffff1673ffffffffffffffffffffffffffffffffffffffff167f72c724f795acaff21269db17a551f228d01f5e541ce5dfc1d43e85f123517fdb84600c60008c815260200190815260200160002054604051611cd4929190613576565b60405180910390a3868660000160009054906101000a900473ffffffffffffffffffffffffffffffffffffffff1673ffffffffffffffffffffffffffffffffffffffff167f22e9c11a0811d38cd611624aa9cbac574723d3dfbb04099bfb77089a9bfb13be84600c60008c815260200190815260200160002054604051611d5c929190613576565b60405180910390a360018660050160026101000a81548160ff021916908315150217905550426009600089815260200190815260200160002081905550868660000160009054906101000a900473ffffffffffffffffffffffffffffffffffffffff1673ffffffffffffffffffffffffffffffffffffffff167fc90c76155d237557f9162f07cd0da2ff40418cd82028c0e89535270fb9de5104600b60008b815260200190815260200160002054604051611e179190612f9b565b60405180910390a3505050505050611e2d612c48565b50565b600160009054906101000a900473ffffffffffffffffffffffffffffffffffffffff1681565b600080600860008481526020019081526020016000205490506000600960008581526020019081526020016000205490506000600a60008681526020019081526020016000205490506000600b60008781526020019081526020016000205490506000600c60008881526020019081526020016000205490506000851480611ede5750600083145b15611ef157600095505050505050611f74565b6000844210611f005784611f02565b425b9050858111611f1a5760009650505050505050611f74565b60008682611f28919061359f565b90506000858286611f3991906135d3565b611f439190613644565b9050838111611f5d57600098505050505050505050611f74565b8381611f69919061359f565b985050505050505050505b919050565b60076020528060005260406000206000915090505481565b611f9961299c565b60006005600083815260200190815260200160002090508060050160059054906101000a900460ff16611ff8576040517f6ff36e1600000000000000000000000000000000000000000000000000000000815260040160405180910390fd5b60003403612032576040517f65c7efcc00000000000000000000000000000000000000000000000000000000815260040160405180910390fd5b8060020154421061206f576040517f553ae05400000000000000000000000000000000000000000000000000000000815260040160405180910390fd5b8060050160009054906101000a900460ff16156120b8576040517ff30bb8af00000000000000000000000000000000000000000000000000000000815260040160405180910390fd5b346006600084815260200190815260200160002060003373ffffffffffffffffffffffffffffffffffffffff1673ffffffffffffffffffffffffffffffffffffffff168152602001908152602001600020600082825461211891906136b0565b925050819055503481600301600082825461213391906136b0565b925050819055508060030154816004018190555080600101548160030154106121745760018160050160006101000a81548160ff0219169083151502179055505b3460076000848152602001908152602001600020600082825461219791906136b0565b92505081905550813373ffffffffffffffffffffffffffffffffffffffff167f13b6f2136ffc494c97353c1a45f1345b7cf9e18d3631acec99aeea45f338f4c434466040516121e7929190613576565b60405180910390a3506121f8612c48565b50565b600a6020528060005260406000206000915090505481565b62278d0081565b600b6020528060005260406000206000915090505481565b60006005600083815260200190815260200160002090508060050160059054906101000a900460ff16612291576040517f6ff36e1600000000000000000000000000000000000000000000000000000000815260040160405180910390fd5b8060050160049054906101000a900460ff16156122da576040517f475a253500000000000000000000000000000000000000000000000000000000815260040160405180910390fd5b8060020154421015612318576040517f66ec4ee600000000000000000000000000000000000000000000000000000000815260040160405180910390fd5b60018160050160046101000a81548160ff0219169083151502179055508060010154816004015410156123635760018160050160036101000a81548160ff0219169083151502179055505b5050565b61236f61299c565b60006005600084815260200190815260200160002090508060050160059054906101000a900460ff166123ce576040517f6ff36e1600000000000000000000000000000000000000000000000000000000815260040160405180910390fd5b8060000160009054906101000a900473ffffffffffffffffffffffffffffffffffffffff1673ffffffffffffffffffffffffffffffffffffffff163373ffffffffffffffffffffffffffffffffffffffff1614612457576040517f93687c0b00000000000000000000000000000000000000000000000000000000815260040160405180910390fd5b8060020154421015612495576040517f66ec4ee600000000000000000000000000000000000000000000000000000000815260040160405180910390fd5b8060050160009054906101000a900460ff166124dd576040517f78c754c900000000000000000000000000000000000000000000000000000000815260040160405180910390fd5b8060050160019054906101000a900460ff168061250857508060050160029054906101000a900460ff165b1561253f576040517f6507689f00000000000000000000000000000000000000000000000000000000815260040160405180910390fd5b60008203612579576040517f485e7f5800000000000000000000000000000000000000000000000000000000815260040160405180910390fd5b600060076000858152602001908152602001600020549050600081116125d4576040517f08c379a00000000000000000000000000000000000000000000000000000000081526004016125cb90613730565b60405180910390fd5b42600860008681526020019081526020016000208190555082600a600086815260200190815260200160002081905550824261261091906136b0565b600960008681526020019081526020016000208190555080600b6000868152602001908152602001600020819055506000600c60008681526020019081526020016000208190555060018260050160016101000a81548160ff02191690831515021790555060008260050160026101000a81548160ff021916908315150217905550600083826126a09190613644565b9050848360000160009054906101000a900473ffffffffffffffffffffffffffffffffffffffff1673ffffffffffffffffffffffffffffffffffffffff167f22e99d1a21b528c43be3aacfa016f18752c963e9a84db48dabdc77662de5708284878542600960008d815260200190815260200160002054604051612728959493929190613750565b60405180910390a350505061273b612c48565b5050565b600160009054906101000a900473ffffffffffffffffffffffffffffffffffffffff1673ffffffffffffffffffffffffffffffffffffffff163373ffffffffffffffffffffffffffffffffffffffff16146127cf576040517f08c379a00000000000000000000000000000000000000000000000000000000081526004016127c6906137ef565b60405180910390fd5b8181600260008661ffff1661ffff16815260200190815260200160002091826127f99291906139f5565b50505050565b600160009054906101000a900473ffffffffffffffffffffffffffffffffffffffff1673ffffffffffffffffffffffffffffffffffffffff163373ffffffffffffffffffffffffffffffffffffffff161461288f576040517f08c379a0000000000000000000000000000000000000000000000000000000008152600401612886906137ef565b60405180910390fd5b600073ffffffffffffffffffffffffffffffffffffffff168173ffffffffffffffffffffffffffffffffffffffff16036128fe576040517f08c379a00000000000000000000000000000000000000000000000000000000081526004016128f590613b11565b60405180910390fd5b80600160006101000a81548173ffffffffffffffffffffffffffffffffffffffff021916908373ffffffffffffffffffffffffffffffffffffffff16021790555050565b600080600b60008481526020019081526020016000205490506000600a60008581526020019081526020016000205490506000810361298657600092505050612997565b80826129929190613644565b925050505b919050565b6002600054036129e1576040517f08c379a00000000000000000000000000000000000000000000000000000000081526004016129d890613b7d565b60405180910390fd5b6002600081905550565b60006005600086815260200190815260200160002090508060050160059054906101000a900460ff16612a4a576040517f6ff36e1600000000000000000000000000000000000000000000000000000000815260040160405180910390fd5b60008303612a84576040517f65c7efcc00000000000000000000000000000000000000000000000000000000815260040160405180910390fd5b80600201544210612ac1576040517f553ae05400000000000000000000000000000000000000000000000000000000815260040160405180910390fd5b8060050160009054906101000a900460ff1615612b0a576040517ff30bb8af00000000000000000000000000000000000000000000000000000000815260040160405180910390fd5b826006600087815260200190815260200160002060008673ffffffffffffffffffffffffffffffffffffffff1673ffffffffffffffffffffffffffffffffffffffff1681526020019081526020016000206000828254612b6a91906136b0565b9250508190555082816003016000828254612b8591906136b0565b92505081905550806003015481600401819055508060010154816003015410612bc65760018160050160006101000a81548160ff0219169083151502179055505b82600760008781526020019081526020016000206000828254612be991906136b0565b92505081905550848473ffffffffffffffffffffffffffffffffffffffff167f13b6f2136ffc494c97353c1a45f1345b7cf9e18d3631acec99aeea45f338f4c48585604051612c39929190613576565b60405180910390a35050505050565b6001600081905550565b600080fd5b600080fd5b600061ffff82169050919050565b612c7381612c5c565b8114612c7e57600080fd5b50565b600081359050612c9081612c6a565b92915050565b600080fd5b600080fd5b600080fd5b60008083601f840112612cbb57612cba612c96565b5b8235905067ffffffffffffffff811115612cd857612cd7612c9b565b5b602083019150836001820283011115612cf457612cf3612ca0565b5b9250929050565b600067ffffffffffffffff82169050919050565b612d1881612cfb565b8114612d2357600080fd5b50565b600081359050612d3581612d0f565b92915050565b60008060008060008060808789031215612d5857612d57612c52565b5b6000612d6689828a01612c81565b965050602087013567ffffffffffffffff811115612d8757612d86612c57565b5b612d9389828a01612ca5565b95509550506040612da689828a01612d26565b935050606087013567ffffffffffffffff811115612dc757612dc6612c57565b5b612dd389828a01612ca5565b92509250509295509295509295565b6000819050919050565b612df581612de2565b8114612e0057600080fd5b50565b600081359050612e1281612dec565b92915050565b600060208284031215612e2e57612e2d612c52565b5b6000612e3c84828501612e03565b91505092915050565b600073ffffffffffffffffffffffffffffffffffffffff82169050919050565b6000612e7082612e45565b9050919050565b612e8081612e65565b82525050565b612e8f81612de2565b82525050565b60008115159050919050565b612eaa81612e95565b82525050565b600061016082019050612ec6600083018e612e77565b612ed3602083018d612e86565b612ee0604083018c612e86565b612eed606083018b612e86565b612efa608083018a612e86565b612f0760a0830189612ea1565b612f1460c0830188612ea1565b612f2160e0830187612ea1565b612f2f610100830186612ea1565b612f3d610120830185612ea1565b612f4b610140830184612ea1565b9c9b505050505050505050505050565b60008060408385031215612f7257612f71612c52565b5b6000612f8085828601612e03565b9250506020612f9185828601612e03565b9150509250929050565b6000602082019050612fb06000830184612e86565b92915050565b612fbf81612e65565b8114612fca57600080fd5b50565b600081359050612fdc81612fb6565b92915050565b60008060408385031215612ff957612ff8612c52565b5b600061300785828601612e03565b925050602061301885828601612fcd565b9150509250929050565b6000819050919050565b61303581613022565b811461304057600080fd5b50565b6000813590506130528161302c565b92915050565b60008060006060848603121561307157613070612c52565b5b600061307f86828701612c81565b935050602061309086828701613043565b92505060406130a186828701612d26565b9150509250925092565b60006020820190506130c06000830184612ea1565b92915050565b60006020820190506130db6000830184612e77565b92915050565b6000602082840312156130f7576130f6612c52565b5b600061310584828501612c81565b91505092915050565b600081519050919050565b600082825260208201905092915050565b60005b8381101561314857808201518184015260208101905061312d565b60008484015250505050565b6000601f19601f8301169050919050565b60006131708261310e565b61317a8185613119565b935061318a81856020860161312a565b61319381613154565b840191505092915050565b600060208201905081810360008301526131b88184613165565b905092915050565b6000806000604084860312156131d9576131d8612c52565b5b60006131e786828701612c81565b935050602084013567ffffffffffffffff81111561320857613207612c57565b5b61321486828701612ca5565b92509250509250925092565b60006020828403121561323657613235612c52565b5b600061324484828501612fcd565b91505092915050565b600082825260208201905092915050565b7f496e76616c696420656e64706f696e7400000000000000000000000000000000600082015250565b600061329460108361324d565b915061329f8261325e565b602082019050919050565b600060208201905081810360008301526132c381613287565b9050919050565b7f4e487b7100000000000000000000000000000000000000000000000000000000600052602260045260246000fd5b6000600282049050600182168061331157607f821691505b602082108103613324576133236132ca565b5b50919050565b600081905092915050565b82818337600083830152505050565b6000613350838561332a565b935061335d838584613335565b82840190509392505050565b6000613376828486613344565b91508190509392505050565b7f556e747275737465642072656d6f746500000000000000000000000000000000600082015250565b60006133b860108361324d565b91506133c382613382565b602082019050919050565b600060208201905081810360008301526133e7816133ab565b9050919050565b60006133f982612e45565b9050919050565b613409816133ee565b811461341457600080fd5b50565b60008135905061342681613400565b92915050565b6000806000806080858703121561344657613445612c52565b5b600061345487828801612e03565b945050602061346587828801613417565b935050604061347687828801612e03565b925050606061348787828801612e03565b91505092959194509250565b7f4d69736d61746368656420627269646765642076616c75650000000000000000600082015250565b60006134c960188361324d565b91506134d482613493565b602082019050919050565b600060208201905081810360008301526134f8816134bc565b9050919050565b7f4e487b7100000000000000000000000000000000000000000000000000000000600052601160045260246000fd5b600061353982612de2565b91507fffffffffffffffffffffffffffffffffffffffffffffffffffffffffffffffff820361356b5761356a6134ff565b5b600182019050919050565b600060408201905061358b6000830185612e86565b6135986020830184612e86565b9392505050565b60006135aa82612de2565b91506135b583612de2565b92508282039050818111156135cd576135cc6134ff565b5b92915050565b60006135de82612de2565b91506135e983612de2565b92508282026135f781612de2565b9150828204841483151761360e5761360d6134ff565b5b5092915050565b7f4e487b7100000000000000000000000000000000000000000000000000000000600052601260045260246000fd5b600061364f82612de2565b915061365a83612de2565b92508261366a57613669613615565b5b828204905092915050565b50565b600061368560008361332a565b915061369082613675565b600082019050919050565b60006136a682613678565b9150819050919050565b60006136bb82612de2565b91506136c683612de2565b92508282019050808211156136de576136dd6134ff565b5b92915050565b7f4e6f2066756e6473000000000000000000000000000000000000000000000000600082015250565b600061371a60088361324d565b9150613725826136e4565b602082019050919050565b600060208201905081810360008301526137498161370d565b9050919050565b600060a0820190506137656000830188612e86565b6137726020830187612e86565b61377f6040830186612e86565b61378c6060830185612e86565b6137996080830184612e86565b9695505050505050565b7f4e6f74206f776e65720000000000000000000000000000000000000000000000600082015250565b60006137d960098361324d565b91506137e4826137a3565b602082019050919050565b60006020820190508181036000830152613808816137cc565b9050919050565b600082905092915050565b7f4e487b7100000000000000000000000000000000000000000000000000000000600052604160045260246000fd5b60008190508160005260206000209050919050565b60006020601f8301049050919050565b600082821b905092915050565b6000600883026138ab7fffffffffffffffffffffffffffffffffffffffffffffffffffffffffffffffff8261386e565b6138b5868361386e565b95508019841693508086168417925050509392505050565b6000819050919050565b60006138f26138ed6138e884612de2565b6138cd565b612de2565b9050919050565b6000819050919050565b61390c836138d7565b613920613918826138f9565b84845461387b565b825550505050565b600090565b613935613928565b613940818484613903565b505050565b5b818110156139645761395960008261392d565b600181019050613946565b5050565b601f8211156139a95761397a81613849565b6139838461385e565b81016020851015613992578190505b6139a661399e8561385e565b830182613945565b50505b505050565b600082821c905092915050565b60006139cc600019846008026139ae565b1980831691505092915050565b60006139e583836139bb565b9150826002028217905092915050565b6139ff838361380f565b67ffffffffffffffff811115613a1857613a1761381a565b5b613a2282546132f9565b613a2d828285613968565b6000601f831160018114613a5c5760008415613a4a578287013590505b613a5485826139d9565b865550613abc565b601f198416613a6a86613849565b60005b82811015613a9257848901358255600182019150602085019450602081019050613a6d565b86831015613aaf5784890135613aab601f8916826139bb565b8355505b6001600288020188555050505b50505050505050565b7f5a65726f206f776e657200000000000000000000000000000000000000000000600082015250565b6000613afb600a8361324d565b9150613b0682613ac5565b602082019050919050565b60006020820190508181036000830152613b2a81613aee565b9050919050565b7f5265656e7472616e637947756172643a207265656e7472616e742063616c6c00600082015250565b6000613b67601f8361324d565b9150613b7282613b31565b602082019050919050565b60006020820190508181036000830152613b9681613b5a565b905091905056fea264697066735822122048d87f1caefda1c2d03ba440799e32cc2211b67a2905981a7489e0e91dff377c64736f6c63430008140033",
  "linkReferences": {},
  "deployedLinkReferences": {}
}