{
  "_format": "hh-sol-artifact-1",
  "contractName": "FundingPoolHome",
  "sourceName": "contracts/FundingPoolHome.sol",
  "abi": [
    {
      "inputs": [
        {
          "internalType": "address",
          "name": "_endpoint",
          "type": "address"
        }
      ],
      "stateMutability": "nonpayable",
      "type": "constructor"
    },
    {
      "inputs": [],
      "name": "AlreadyFinalized",
      "type": "error"
    },
    {
      "inputs": [],
      "name": "AlreadyWithdrawn",
      "type": "error"
    },
    {
      "inputs": [],
      "name": "CampaignEnded",
      "type": "error"
    },
    {
      "inputs": [],
      "name": "CampaignNotFound",
      "type": "error"
    },
    {
      "inputs": [],
      "name": "DeadlineNotReached",
      "type": "error"
    },
    {
      "inputs": [],
      "name": "GoalNotReached",
      "type": "error"
    },
    {
      "inputs": [],
      "name": "GoalReached",
      "type": "error"
    },
    {
      "inputs": [],
      "name": "InvalidDeadline",
      "type": "error"
    },
    {
      "inputs": [],
      "name": "InvalidGoal",
      "type": "error"
    },
    {
      "inputs": [],
      "name": "InvalidStreamDuration",
      "type": "error"
    },
    {
      "inputs": [],
      "name": "NoContribution",
      "type": "error"
    },
    {
      "inputs": [],
      "name": "NoStreamFunds",
      "type": "error"
    },
    {
      "inputs": [],
      "name": "NotCreator",
      "type": "error"
    },
    {
      "inputs": [],
      "name": "RefundNotEnabled",
      "type": "error"
    },
    {
      "inputs": [],
      "name": "StreamAlreadyEnded",
      "type": "error"
    },
    {
      "inputs": [],
      "name": "StreamNotActive",
      "type": "error"
    },
    {
      "inputs": [],
      "name": "TransferFailed",
      "type": "error"
    },
    {
      "anonymous": false,
      "inputs": [
        {
          "indexed": true,
          "internalType": "uint256",
          "name": "campaignId",
          "type": "uint256"
        },
        {
          "indexed": true,
          "internalType": "address",
          "name": "creator",
          "type": "address"
        },
        {
          "indexed": false,
          "internalType": "uint256",
          "name": "goal",
          "type": "uint256"
        },
        {
          "indexed": false,
          "internalType": "uint256",
          "name": "deadline",
          "type": "uint256"
        }
      ],
      "name": "CampaignCreated",
      "type": "event"
    },
    {
      "anonymous": false,
      "inputs": [
        {
          "indexed": true,
          "internalType": "address",
          "name": "contributor",
          "type": "address"
        },
        {
          "indexed": false,
          "internalType": "uint256",
          "name": "amount",
          "type": "uint256"
        },
        {
          "indexed": true,
          "internalType": "uint256",
          "name": "campaignId",
          "type": "uint256"
        },
        {
          "indexed": false,
          "internalType": "uint256",
          "name": "originChainId",
          "type": "uint256"
        }
      ],
      "name": "ContributionReceived",
      "type": "event"
    },
    {
      "anonymous": false,
      "inputs": [
        {
          "indexed": true,
          "internalType": "address",
          "name": "creator",
          "type": "address"
        },
        {
          "indexed": true,
          "internalType": "uint256",
          "name": "campaignId",
          "type": "uint256"
        },
        {
          "indexed": false,
          "internalType": "uint256",
          "name": "amount",
          "type": "uint256"
        }
      ],
      "name": "FundsReleased",
      "type": "event"
    },
    {
      "anonymous": false,
      "inputs": [
        {
          "indexed": true,
          "internalType": "address",
          "name": "contributor",
          "type": "address"
        },
        {
          "indexed": false,
          "internalType": "uint256",
          "name": "amount",
          "type": "uint256"
        },
        {
          "indexed": true,
          "internalType": "uint256",
          "name": "campaignId",
          "type": "uint256"
        }
      ],
      "name": "RefundClaimed",
      "type": "event"
    },
    {
      "anonymous": false,
      "inputs": [
        {
          "indexed": true,
          "internalType": "address",
          "name": "creator",
          "type": "address"
        },
        {
          "indexed": true,
          "internalType": "uint256",
          "name": "campaignId",
          "type": "uint256"
        },
        {
          "indexed": false,
          "internalType": "uint256",
          "name": "totalAmount",
          "type": "uint256"
        },
        {
          "indexed": false,
          "internalType": "uint256",
          "name": "durationSeconds",
          "type": "uint256"
        },
        {
          "indexed": false,
          "internalType": "uint256",
          "name": "ratePerSecond",
          "type": "uint256"
        },
        {
          "indexed": false,
          "internalType": "uint256",
          "name": "startTime",
          "type": "uint256"
        },
        {
          "indexed": false,
          "internalType": "uint256",
          "name": "endTime",
          "type": "uint256"
        }
      ],
      "name": "StreamStarted",
      "type": "event"
    },
    {
      "anonymous": false,
      "inputs": [
        {
          "indexed": true,
          "internalType": "address",
          "name": "creator",
          "type": "address"
        },
        {
          "indexed": true,
          "internalType": "uint256",
          "name": "campaignId",
          "type": "uint256"
        },
        {
          "indexed": false,
          "internalType": "uint256",
          "name": "remainingAmount",
          "type": "uint256"
        },
        {
          "indexed": false,
          "internalType": "uint256",
          "name": "totalWithdrawn",
          "type": "uint256"
        }
      ],
      "name": "StreamStopped",
      "type": "event"
    },
    {
      "anonymous": false,
      "inputs": [
        {
          "indexed": true,
          "internalType": "address",
          "name": "creator",
          "type": "address"
        },
        {
          "indexed": true,
          "internalType": "uint256",
          "name": "campaignId",
          "type": "uint256"
        },
        {
          "indexed": false,
          "internalType": "uint256",
          "name": "amount",
          "type": "uint256"
        },
        {
          "indexed": false,
          "internalType": "uint256",
          "name": "totalWithdrawn",
          "type": "uint256"
        }
      ],
      "name": "StreamWithdrawn",
      "type": "event"
    },
    {
      "inputs": [],
      "name": "DEFAULT_STREAM_DURATION_SECONDS",
      "outputs": [
        {
          "internalType": "uint256",
          "name": "",
          "type": "uint256"
        }
      ],
      "stateMutability": "view",
      "type": "function"
    },
    {
      "inputs": [
        {
          "internalType": "uint256",
          "name": "",
          "type": "uint256"
        }
      ],
      "name": "campaigns",
      "outputs": [
        {
          "internalType": "address",
          "name": "creator",
          "type": "address"
        },
        {
          "internalType": "uint256",
          "name": "goal",
          "type": "uint256"
        },
        {
          "internalType": "uint256",
          "name": "deadline",
          "type": "uint256"
        },
        {
          "internalType": "uint256",
          "name": "totalContributed",
          "type": "uint256"
        },
        {
          "internalType": "uint256",
          "name": "totalRaised",
          "type": "uint256"
        },
        {
          "internalType": "bool",
          "name": "closed",
          "type": "bool"
        },
        {
          "internalType": "bool",
          "name": "fundsWithdrawn",
          "type": "bool"
        },
        {
          "internalType": "bool",
          "name": "fundsReleased",
          "type": "bool"
        },
        {
          "internalType": "bool",
          "name": "refundEnabled",
          "type": "bool"
        },
        {
          "internalType": "bool",
          "name": "finalized",
          "type": "bool"
        },
        {
          "internalType": "bool",
          "name": "exists",
          "type": "bool"
        }
      ],
      "stateMutability": "view",
      "type": "function"
    },
    {
      "inputs": [
        {
          "internalType": "uint256",
          "name": "campaignId",
          "type": "uint256"
        }
      ],
      "name": "claimRefund",
      "outputs": [],
      "stateMutability": "nonpayable",
      "type": "function"
    },
    {
      "inputs": [
        {
          "internalType": "uint256",
          "name": "campaignId",
          "type": "uint256"
        }
      ],
      "name": "contribute",
      "outputs": [],
      "stateMutability": "payable",
      "type": "function"
    },
    {
      "inputs": [
        {
          "internalType": "uint256",
          "name": "",
          "type": "uint256"
        },
        {
          "internalType": "address",
          "name": "",
          "type": "address"
        }
      ],
      "name": "contributions",
      "outputs": [
        {
          "internalType": "uint256",
          "name": "",
          "type": "uint256"
        }
      ],
      "stateMutability": "view",
      "type": "function"
    },
    {
      "inputs": [
        {
          "internalType": "uint256",
          "name": "goalWei",
          "type": "uint256"
        },
        {
          "internalType": "uint256",
          "name": "deadline",
          "type": "uint256"
        }
      ],
      "name": "createCampaign",
      "outputs": [
        {
          "internalType": "uint256",
          "name": "campaignId",
          "type": "uint256"
        }
      ],
      "stateMutability": "nonpayable",
      "type": "function"
    },
    {
      "inputs": [
        {
          "internalType": "uint256",
          "name": "campaignId",
          "type": "uint256"
        },
        {
          "internalType": "uint256",
          "name": "durationSeconds",
          "type": "uint256"
        }
      ],
      "name": "daoStartStreaming",
      "outputs": [],
      "stateMutability": "nonpayable",
      "type": "function"
    },
    {
      "inputs": [],
      "name": "endpoint",
      "outputs": [
        {
          "internalType": "address",
          "name": "",
          "type": "address"
        }
      ],
      "stateMutability": "view",
      "type": "function"
    },
    {
      "inputs": [
        {
          "internalType": "uint256",
          "name": "",
          "type": "uint256"
        }
      ],
      "name": "escrowBalance",
      "outputs": [
        {
          "internalType": "uint256",
          "name": "",
          "type": "uint256"
        }
      ],
      "stateMutability": "view",
      "type": "function"
    },
    {
      "inputs": [
        {
          "internalType": "uint256",
          "name": "campaignId",
          "type": "uint256"
        }
      ],
      "name": "finalizeAfterDeadline",
      "outputs": [],
      "stateMutability": "nonpayable",
      "type": "function"
    },
    {
      "inputs": [
        {
          "internalType": "uint16",
          "name": "_srcChainId",
          "type": "uint16"
        },
        {
          "internalType": "bytes",
          "name": "_srcAddress",
          "type": "bytes"
        },
        {
          "internalType": "uint64",
          "name": "",
          "type": "uint64"
        },
        {
          "internalType": "bytes",
          "name": "_payload",
          "type": "bytes"
        }
      ],
      "name": "lzReceive",
      "outputs": [],
      "stateMutability": "payable",
      "type": "function"
    },
    {
      "inputs": [],
      "name": "nextCampaignId",
      "outputs": [
        {
          "internalType": "uint256",
          "name": "",
          "type": "uint256"
        }
      ],
      "stateMutability": "view",
      "type": "function"
    },
    {
      "inputs": [],
      "name": "owner",
      "outputs": [
        {
          "internalType": "address",
          "name": "",
          "type": "address"
        }
      ],
      "stateMutability": "view",
      "type": "function"
    },
    {
      "inputs": [
        {
          "internalType": "uint256",
          "name": "campaignId",
          "type": "uint256"
        }
      ],
      "name": "releaseFunds",
      "outputs": [],
      "stateMutability": "nonpayable",
      "type": "function"
    },
    {
      "inputs": [
        {
          "internalType": "uint16",
          "name": "srcChainId",
          "type": "uint16"
        },
        {
          "internalType": "bytes",
          "name": "srcAddress",
          "type": "bytes"
        }
      ],
      "name": "setTrustedRemote",
      "outputs": [],
      "stateMutability": "nonpayable",
      "type": "function"
    },
    {
      "inputs": [
        {
          "internalType": "uint256",
          "name": "campaignId",
          "type": "uint256"
        },
        {
          "internalType": "uint256",
          "name": "durationSeconds",
          "type": "uint256"
        }
      ],
      "name": "startStreaming",
      "outputs": [],
      "stateMutability": "nonpayable",
      "type": "function"
    },
    {
      "inputs": [
        {
          "internalType": "uint256",
          "name": "campaignId",
          "type": "uint256"
        }
      ],
      "name": "stopStream",
      "outputs": [],
      "stateMutability": "nonpayable",
      "type": "function"
    },
    {
      "inputs": [
        {
          "internalType": "uint256",
          "name": "campaignId",
          "type": "uint256"
        }
      ],
      "name": "streamClaimable",
      "outputs": [
        {
          "internalType": "uint256",
          "name": "",
          "type": "uint256"
        }
      ],
      "stateMutability": "view",
      "type": "function"
    },
    {
      "inputs": [
        {
          "internalType": "uint256",
          "name": "",
          "type": "uint256"
        }
      ],
      "name": "streamDurationSeconds",
      "outputs": [
        {
          "internalType": "uint256",
          "name": "",
          "type": "uint256"
        }
      ],
      "stateMutability": "view",
      "type": "function"
    },
    {
      "inputs": [
        {
          "internalType": "uint256",
          "name": "",
          "type": "uint256"
        }
      ],
      "name": "streamEndTime",
      "outputs": [
        {
          "internalType": "uint256",
          "name": "",
          "type": "uint256"
        }
      ],
      "stateMutability": "view",
      "type": "function"
    },
    {
      "inputs": [
        {
          "internalType": "uint256",
          "name": "campaignId",
          "type": "uint256"
        }
      ],
      "name": "streamRatePerSecond",
      "outputs": [
        {
          "internalType": "uint256",
          "name": "",
          "type": "uint256"
        }
      ],
      "stateMutability": "view",
      "type": "function"
    },
    {
      "inputs": [
        {
          "internalType": "uint256",
          "name": "",
          "type": "uint256"
        }
      ],
      "name": "streamStartTime",
      "outputs": [
        {
          "internalType": "uint256",
          "name": "",
          "type": "uint256"
        }
      ],
      "stateMutability": "view",
      "type": "function"
    },
    {
      "inputs": [
        {
          "internalType": "uint256",
          "name": "",
          "type": "uint256"
        }
      ],
      "name": "streamTotalAmount",
      "outputs": [
        {
          "internalType": "uint256",
          "name": "",
          "type": "uint256"
        }
      ],
      "stateMutability": "view",
      "type": "function"
    },
    {
      "inputs": [
        {
          "internalType": "uint256",
          "name": "",
          "type": "uint256"
        }
      ],
      "name": "streamWithdrawnAmount",
      "outputs": [
        {
          "internalType": "uint256",
          "name": "",
          "type": "uint256"
        }
      ],
      "stateMutability": "view",
      "type": "function"
    },
    {
      "inputs": [
        {
          "internalType": "address",
          "name": "newOwner",
          "type": "address"
        }
      ],
      "name": "transferOwnership",
      "outputs": [],
      "stateMutability": "nonpayable",
      "type": "function"
    },
    {
      "inputs": [
        {
          "internalType": "uint16",
          "name": "",
          "type": "uint16"
        }
      ],
      "name": "trustedRemoteLookup",
      "outputs": [
        {
          "internalType": "bytes",
          "name": "",
          "type": "bytes"
        }
      ],
      "stateMutability": "view",
      "type": "function"
    },
    {
      "inputs": [
        {
          "internalType": "uint256",
          "name": "campaignId",
          "type": "uint256"
        }
      ],
      "name": "withdrawFromStream",
      "outputs": [],
      "stateMutability": "nonpayable",
      "type": "function"
    }
  ],
  "bytecode": "0x60a060405260016003553480156200001657600080fd5b5060405162003afd38038062003afd83398181016040528101906200003c91906200012a565b60016000819055508073ffffffffffffffffffffffffffffffffffffffff1660808173ffffffffffffffffffffffffffffffffffffffff168152505033600160006101000a81548173ffffffffffffffffffffffffffffffffffffffff021916908373ffffffffffffffffffffffffffffffffffffffff160217905550506200015c565b600080fd5b600073ffffffffffffffffffffffffffffffffffffffff82169050919050565b6000620000f282620000c5565b9050919050565b6200010481620000e5565b81146200011057600080fd5b50565b6000815190506200012481620000f9565b92915050565b600060208284031215620001435762000142620000c0565b5b6000620001538482850162000113565b91505092915050565b60805161397e6200017f600039600081816106e50152611616015261397e6000f3fe60806040526004361061019b5760003560e01c80637ac89794116100ec578063d5c5b54f1161008a578063dc35dd9311610064578063dc35dd9314610623578063eb8d72b71461064c578063f2fde38b14610675578063f31002961461069e5761019b565b8063d5c5b54f14610592578063d64eb2b8146105bd578063d9badb5d146105fa5761019b565b80639a6ffeea116100c65780639a6ffeea146104bf578063bb099ee3146104fc578063c1cbbca714610539578063d014cbfe146105555761019b565b80637ac897941461042e57806385d5089e1461046b5780638da5cb5b146104945761019b565b80634d68282f116101595780635e280f11116101335780635e280f111461035e578063644bca16146103895780637533d788146103c65780637903a756146104035761019b565b80634d68282f146102cf57806356dec590146102f85780635b7baf64146103355761019b565b80621d3567146101a0578063141961bc146101bc57806322502268146102035780633a597f48146102405780633d891f59146102695780634911318f146102a6575b600080fd5b6101ba60048036038101906101b59190612b8a565b6106db565b005b3480156101c857600080fd5b506101e360048036038101906101de9190612c67565b610907565b6040516101fa9b9a99989796959493929190612cff565b60405180910390f35b34801561020f57600080fd5b5061022a60048036038101906102259190612daa565b6109cf565b6040516102379190612dea565b60405180910390f35b34801561024c57600080fd5b5061026760048036038101906102629190612c67565b610c71565b005b34801561027557600080fd5b50610290600480360381019061028b9190612e31565b6111da565b60405161029d9190612dea565b60405180910390f35b3480156102b257600080fd5b506102cd60048036038101906102c89190612daa565b6111ff565b005b3480156102db57600080fd5b506102f660048036038101906102f19190612c67565b61120d565b005b34801561030457600080fd5b5061031f600480360381019061031a9190612c67565b611316565b60405161032c9190612dea565b60405180910390f35b34801561034157600080fd5b5061035c60048036038101906103579190612c67565b61132e565b005b34801561036a57600080fd5b50610373611614565b6040516103809190612e71565b60405180910390f35b34801561039557600080fd5b506103b060048036038101906103ab9190612c67565b611638565b6040516103bd9190612dea565b60405180910390f35b3480156103d257600080fd5b506103ed60048036038101906103e89190612e8c565b611650565b6040516103fa9190612f49565b60405180910390f35b34801561040f57600080fd5b506104186116f0565b6040516104259190612dea565b60405180910390f35b34801561043a57600080fd5b5061045560048036038101906104509190612c67565b6116f6565b6040516104629190612dea565b60405180910390f35b34801561047757600080fd5b50610492600480360381019061048d9190612c67565b61170e565b005b3480156104a057600080fd5b506104a9611c7f565b6040516104b69190612e71565b60405180910390f35b3480156104cb57600080fd5b506104e660048036038101906104e19190612c67565b611ca5565b6040516104f39190612dea565b60405180910390f35b34801561050857600080fd5b50610523600480360381019061051e9190612c67565b611dc8565b6040516105309190612dea565b60405180910390f35b610553600480360381019061054e9190612c67565b611de0565b005b34801561056157600080fd5b5061057c60048036038101906105779190612c67565b61204a565b6040516105899190612dea565b60405180910390f35b34801561059e57600080fd5b506105a7612062565b6040516105b49190612dea565b60405180910390f35b3480156105c957600080fd5b506105e460048036038101906105df9190612c67565b612069565b6040516105f19190612dea565b60405180910390f35b34801561060657600080fd5b50610621600480360381019061061c9190612c67565b612081565b005b34801561062f57600080fd5b5061064a60048036038101906106459190612daa565b6121b6565b005b34801561065857600080fd5b50610673600480360381019061066e9190612f6b565b61258e565b005b34801561068157600080fd5b5061069c60048036038101906106979190612fcb565b61264e565b005b3480156106aa57600080fd5b506106c560048036038101906106c09190612c67565b612791565b6040516106d29190612dea565b60405180910390f35b6106e36127eb565b7f000000000000000000000000000000000000000000000000000000000000000073ffffffffffffffffffffffffffffffffffffffff163373ffffffffffffffffffffffffffffffffffffffff1614610771576040517f08c379a000000000000000000000000000000000000000000000000000000000815260040161076890613055565b60405180910390fd5b6000600260008861ffff1661ffff1681526020019081526020016000208054610799906130a4565b80601f01602080910402602001604051908101604052809291908181526020018280546107c5906130a4565b80156108125780601f106107e757610100808354040283529160200191610812565b820191906000526020600020905b8154815290600101906020018083116107f557829003601f168201915b50505050509050600081511415801561084857508585604051610836929190613114565b60405180910390208180519060200120145b610887576040517f08c379a000000000000000000000000000000000000000000000000000000000815260040161087e90613179565b60405180910390fd5b600080600080868681019061089c91906131d7565b93509350935093508134146108e6576040517f08c379a00000000000000000000000000000000000000000000000000000000081526004016108dd9061328a565b60405180910390fd5b6108f28484848461283a565b50505050506108ff612a97565b505050505050565b60046020528060005260406000206000915090508060000160009054906101000a900473ffffffffffffffffffffffffffffffffffffffff16908060010154908060020154908060030154908060040154908060050160009054906101000a900460ff16908060050160019054906101000a900460ff16908060050160029054906101000a900460ff16908060050160039054906101000a900460ff16908060050160049054906101000a900460ff16908060050160059054906101000a900460ff1690508b565b6000808303610a0a576040517f9b60eb4d00000000000000000000000000000000000000000000000000000000815260040160405180910390fd5b428211610a43576040517f769d11e400000000000000000000000000000000000000000000000000000000815260040160405180910390fd5b60036000815480929190610a56906132d9565b9190505590506040518061016001604052803373ffffffffffffffffffffffffffffffffffffffff1681526020018481526020018381526020016000815260200160008152602001600015158152602001600015158152602001600015158152602001600015158152602001600015158152602001600115158152506004600083815260200190815260200160002060008201518160000160006101000a81548173ffffffffffffffffffffffffffffffffffffffff021916908373ffffffffffffffffffffffffffffffffffffffff1602179055506020820151816001015560408201518160020155606082015181600301556080820151816004015560a08201518160050160006101000a81548160ff02191690831515021790555060c08201518160050160016101000a81548160ff02191690831515021790555060e08201518160050160026101000a81548160ff0219169083151502179055506101008201518160050160036101000a81548160ff0219169083151502179055506101208201518160050160046101000a81548160ff0219169083151502179055506101408201518160050160056101000a81548160ff0219169083151502179055509050503373ffffffffffffffffffffffffffffffffffffffff16817f91b289a829e71d811b8c69e4a24ba2d40d115d8a236e9a724cb3bb2d43cf72238585604051610c63929190613321565b60405180910390a392915050565b610c796127eb565b60006004600083815260200190815260200160002090508060050160059054906101000a900460ff16610cd8576040517f6ff36e1600000000000000000000000000000000000000000000000000000000815260040160405180910390fd5b8060000160009054906101000a900473ffffffffffffffffffffffffffffffffffffffff1673ffffffffffffffffffffffffffffffffffffffff163373ffffffffffffffffffffffffffffffffffffffff1614610d61576040517f93687c0b00000000000000000000000000000000000000000000000000000000815260040160405180910390fd5b8060050160019054906101000a900460ff161580610d8d57508060050160029054906101000a900460ff165b15610dc4576040517f93813ce100000000000000000000000000000000000000000000000000000000815260040160405180910390fd5b6000600760008481526020019081526020016000205490506000600960008581526020019081526020016000205490506000821480610e035750600081145b15610e3a576040517f93813ce100000000000000000000000000000000000000000000000000000000815260040160405180910390fd5b600060086000868152602001908152602001600020544210610e6f576008600086815260200190815260200160002054610e71565b425b9050828111610eac576040517f014cfdec00000000000000000000000000000000000000000000000000000000815260040160405180910390fd5b60008382610eba919061334a565b905060008382600a60008a815260200190815260200160002054610ede919061337e565b610ee891906133ef565b90506000600b6000898152602001908152602001600020549050808211610f3b576040517f014cfdec00000000000000000000000000000000000000000000000000000000815260040160405180910390fd5b60008183610f49919061334a565b905082600b60008b81526020019081526020016000208190555080600660008b81526020019081526020016000206000828254610f86919061334a565b9250508190555060008860000160009054906101000a900473ffffffffffffffffffffffffffffffffffffffff1673ffffffffffffffffffffffffffffffffffffffff1682604051610fd790613446565b60006040518083038185875af1925050503d8060008114611014576040519150601f19603f3d011682016040523d82523d6000602084013e611019565b606091505b5050905080611054576040517f90b8ec1800000000000000000000000000000000000000000000000000000000815260040160405180910390fd5b898960000160009054906101000a900473ffffffffffffffffffffffffffffffffffffffff1673ffffffffffffffffffffffffffffffffffffffff167f72c724f795acaff21269db17a551f228d01f5e541ce5dfc1d43e85f123517fdb84600b60008f8152602001908152602001600020546040516110d4929190613321565b60405180910390a3600a60008b815260200190815260200160002054600b60008c815260200190815260200160002054106111c65760018960050160026101000a81548160ff0219169083151502179055506000600660008c815260200190815260200160002081905550898960000160009054906101000a900473ffffffffffffffffffffffffffffffffffffffff1673ffffffffffffffffffffffffffffffffffffffff167fc90c76155d237557f9162f07cd0da2ff40418cd82028c0e89535270fb9de5104600a60008e8152602001908152602001600020546040516111bd9190612dea565b60405180910390a35b5050505050505050506111d7612a97565b50565b6005602052816000526040600020602052806000526040600020600091509150505481565b61120982826121b6565b5050565b6112156127eb565b60006004600083815260200190815260200160002090508060050160059054906101000a900460ff16611274576040517f6ff36e1600000000000000000000000000000000000000000000000000000000815260040160405180910390fd5b8060000160009054906101000a900473ffffffffffffffffffffffffffffffffffffffff1673ffffffffffffffffffffffffffffffffffffffff163373ffffffffffffffffffffffffffffffffffffffff16146112fd576040517f93687c0b00000000000000000000000000000000000000000000000000000000815260040160405180910390fd5b61130a8262278d006121b6565b50611313612a97565b50565b60076020528060005260406000206000915090505481565b6113366127eb565b60006004600083815260200190815260200160002090508060050160059054906101000a900460ff16611395576040517f6ff36e1600000000000000000000000000000000000000000000000000000000815260040160405180910390fd5b8060050160039054906101000a900460ff166113dd576040517f44dddc9700000000000000000000000000000000000000000000000000000000815260040160405180910390fd5b60006005600084815260200190815260200160002060003373ffffffffffffffffffffffffffffffffffffffff1673ffffffffffffffffffffffffffffffffffffffff1681526020019081526020016000205490506000810361146c576040517f65c7efcc00000000000000000000000000000000000000000000000000000000815260040160405180910390fd5b60006005600085815260200190815260200160002060003373ffffffffffffffffffffffffffffffffffffffff1673ffffffffffffffffffffffffffffffffffffffff16815260200190815260200160002081905550808260030160008282546114d6919061334a565b92505081905550816003015482600401819055508060066000858152602001908152602001600020600082825461150d919061334a565b9250508190555060003373ffffffffffffffffffffffffffffffffffffffff168260405161153a90613446565b60006040518083038185875af1925050503d8060008114611577576040519150601f19603f3d011682016040523d82523d6000602084013e61157c565b606091505b50509050806115b7576040517f90b8ec1800000000000000000000000000000000000000000000000000000000815260040160405180910390fd5b833373ffffffffffffffffffffffffffffffffffffffff167f17c1d890f3ffba4991a771a0b55802a1eff3159d0cce950fb68d1360530393d9846040516115fe9190612dea565b60405180910390a3505050611611612a97565b50565b7f000000000000000000000000000000000000000000000000000000000000000081565b600b6020528060005260406000206000915090505481565b6002602052806000526040600020600091509050805461166f906130a4565b80601f016020809104026020016040519081016040528092919081815260200182805461169b906130a4565b80156116e85780601f106116bd576101008083540402835291602001916116e8565b820191906000526020600020905b8154815290600101906020018083116116cb57829003601f168201915b505050505081565b60035481565b60086020528060005260406000206000915090505481565b6117166127eb565b60006004600083815260200190815260200160002090508060050160059054906101000a900460ff16611775576040517f6ff36e1600000000000000000000000000000000000000000000000000000000815260040160405180910390fd5b8060000160009054906101000a900473ffffffffffffffffffffffffffffffffffffffff1673ffffffffffffffffffffffffffffffffffffffff163373ffffffffffffffffffffffffffffffffffffffff16146117fe576040517f93687c0b00000000000000000000000000000000000000000000000000000000815260040160405180910390fd5b8060050160019054906101000a900460ff16158061182a57508060050160029054906101000a900460ff165b15611861576040517f93813ce100000000000000000000000000000000000000000000000000000000815260040160405180910390fd5b60006007600084815260200190815260200160002054905060006008600085815260200190815260200160002054905060006009600086815260200190815260200160002054905060008314806118b85750600081145b156118ef576040517f93813ce100000000000000000000000000000000000000000000000000000000815260040160405180910390fd5b814210611928576040517f8bc214c000000000000000000000000000000000000000000000000000000000815260040160405180910390fd5b6000600b600087815260200190815260200160002054600a60008881526020019081526020016000205461195c919061334a565b905060008103611998576040517f014cfdec00000000000000000000000000000000000000000000000000000000815260040160405180910390fd5b600a600087815260200190815260200160002054600b6000888152602001908152602001600020819055506000600660008881526020019081526020016000208190555060008560000160009054906101000a900473ffffffffffffffffffffffffffffffffffffffff1673ffffffffffffffffffffffffffffffffffffffff1682604051611a2690613446565b60006040518083038185875af1925050503d8060008114611a63576040519150601f19603f3d011682016040523d82523d6000602084013e611a68565b606091505b5050905080611aa3576040517f90b8ec1800000000000000000000000000000000000000000000000000000000815260040160405180910390fd5b868660000160009054906101000a900473ffffffffffffffffffffffffffffffffffffffff1673ffffffffffffffffffffffffffffffffffffffff167f72c724f795acaff21269db17a551f228d01f5e541ce5dfc1d43e85f123517fdb84600b60008c815260200190815260200160002054604051611b23929190613321565b60405180910390a3868660000160009054906101000a900473ffffffffffffffffffffffffffffffffffffffff1673ffffffffffffffffffffffffffffffffffffffff167f22e9c11a0811d38cd611624aa9cbac574723d3dfbb04099bfb77089a9bfb13be84600b60008c815260200190815260200160002054604051611bab929190613321565b60405180910390a360018660050160026101000a81548160ff021916908315150217905550426008600089815260200190815260200160002081905550868660000160009054906101000a900473ffffffffffffffffffffffffffffffffffffffff1673ffffffffffffffffffffffffffffffffffffffff167fc90c76155d237557f9162f07cd0da2ff40418cd82028c0e89535270fb9de5104600a60008b815260200190815260200160002054604051611c669190612dea565b60405180910390a3505050505050611c7c612a97565b50565b600160009054906101000a900473ffffffffffffffffffffffffffffffffffffffff1681565b600080600760008481526020019081526020016000205490506000600860008581526020019081526020016000205490506000600960008681526020019081526020016000205490506000600a60008781526020019081526020016000205490506000600b60008881526020019081526020016000205490506000851480611d2d5750600083145b15611d4057600095505050505050611dc3565b6000844210611d4f5784611d51565b425b9050858111611d695760009650505050505050611dc3565b60008682611d77919061334a565b90506000858286611d88919061337e565b611d9291906133ef565b9050838111611dac57600098505050505050505050611dc3565b8381611db8919061334a565b985050505050505050505b919050565b60066020528060005260406000206000915090505481565b611de86127eb565b60006004600083815260200190815260200160002090508060050160059054906101000a900460ff16611e47576040517f6ff36e1600000000000000000000000000000000000000000000000000000000815260040160405180910390fd5b60003403611e81576040517f65c7efcc00000000000000000000000000000000000000000000000000000000815260040160405180910390fd5b80600201544210611ebe576040517f553ae05400000000000000000000000000000000000000000000000000000000815260040160405180910390fd5b8060050160009054906101000a900460ff1615611f07576040517ff30bb8af00000000000000000000000000000000000000000000000000000000815260040160405180910390fd5b346005600084815260200190815260200160002060003373ffffffffffffffffffffffffffffffffffffffff1673ffffffffffffffffffffffffffffffffffffffff1681526020019081526020016000206000828254611f67919061345b565b9250508190555034816003016000828254611f82919061345b565b92505081905550806003015481600401819055508060010154816003015410611fc35760018160050160006101000a81548160ff0219169083151502179055505b34600660008481526020019081526020016000206000828254611fe6919061345b565b92505081905550813373ffffffffffffffffffffffffffffffffffffffff167f13b6f2136ffc494c97353c1a45f1345b7cf9e18d3631acec99aeea45f338f4c43446604051612036929190613321565b60405180910390a350612047612a97565b50565b60096020528060005260406000206000915090505481565b62278d0081565b600a6020528060005260406000206000915090505481565b60006004600083815260200190815260200160002090508060050160059054906101000a900460ff166120e0576040517f6ff36e1600000000000000000000000000000000000000000000000000000000815260040160405180910390fd5b8060050160049054906101000a900460ff1615612129576040517f475a253500000000000000000000000000000000000000000000000000000000815260040160405180910390fd5b8060020154421015612167576040517f66ec4ee600000000000000000000000000000000000000000000000000000000815260040160405180910390fd5b60018160050160046101000a81548160ff0219169083151502179055508060010154816004015410156121b25760018160050160036101000a81548160ff0219169083151502179055505b5050565b6121be6127eb565b60006004600084815260200190815260200160002090508060050160059054906101000a900460ff1661221d576040517f6ff36e1600000000000000000000000000000000000000000000000000000000815260040160405180910390fd5b8060000160009054906101000a900473ffffffffffffffffffffffffffffffffffffffff1673ffffffffffffffffffffffffffffffffffffffff163373ffffffffffffffffffffffffffffffffffffffff16146122a6576040517f93687c0b00000000000000000000000000000000000000000000000000000000815260040160405180910390fd5b80600201544210156122e4576040517f66ec4ee600000000000000000000000000000000000000000000000000000000815260040160405180910390fd5b8060050160009054906101000a900460ff1661232c576040517f78c754c900000000000000000000000000000000000000000000000000000000815260040160405180910390fd5b8060050160019054906101000a900460ff168061235757508060050160029054906101000a900460ff165b1561238e576040517f6507689f00000000000000000000000000000000000000000000000000000000815260040160405180910390fd5b600082036123c8576040517f485e7f5800000000000000000000000000000000000000000000000000000000815260040160405180910390fd5b60006006600085815260200190815260200160002054905060008111612423576040517f08c379a000000000000000000000000000000000000000000000000000000000815260040161241a906134db565b60405180910390fd5b426007600086815260200190815260200160002081905550826009600086815260200190815260200160002081905550824261245f919061345b565b600860008681526020019081526020016000208190555080600a6000868152602001908152602001600020819055506000600b60008681526020019081526020016000208190555060018260050160016101000a81548160ff02191690831515021790555060008260050160026101000a81548160ff021916908315150217905550600083826124ef91906133ef565b9050848360000160009054906101000a900473ffffffffffffffffffffffffffffffffffffffff1673ffffffffffffffffffffffffffffffffffffffff167f22e99d1a21b528c43be3aacfa016f18752c963e9a84db48dabdc77662de5708284878542600860008d8152602001908152602001600020546040516125779594939291906134fb565b60405180910390a350505061258a612a97565b5050565b600160009054906101000a900473ffffffffffffffffffffffffffffffffffffffff1673ffffffffffffffffffffffffffffffffffffffff163373ffffffffffffffffffffffffffffffffffffffff161461261e576040517f08c379a00000000000000000000000000000000000000000000000000000000081526004016126159061359a565b60405180910390fd5b8181600260008661ffff1661ffff16815260200190815260200160002091826126489291906137a0565b50505050565b600160009054906101000a900473ffffffffffffffffffffffffffffffffffffffff1673ffffffffffffffffffffffffffffffffffffffff163373ffffffffffffffffffffffffffffffffffffffff16146126de576040517f08c379a00000000000000000000000000000000000000000000000000000000081526004016126d59061359a565b60405180910390fd5b600073ffffffffffffffffffffffffffffffffffffffff168173ffffffffffffffffffffffffffffffffffffffff160361274d576040517f08c379a0000000000000000000000000000000000000000000000000000000008152600401612744906138bc565b60405180910390fd5b80600160006101000a81548173ffffffffffffffffffffffffffffffffffffffff021916908373ffffffffffffffffffffffffffffffffffffffff16021790555050565b600080600a6000848152602001908152602001600020549050600060096000858152602001908152602001600020549050600081036127d5576000925050506127e6565b80826127e191906133ef565b925050505b919050565b600260005403612830576040517f08c379a000000000000000000000000000000000000000000000000000000000815260040161282790613928565b60405180910390fd5b6002600081905550565b60006004600086815260200190815260200160002090508060050160059054906101000a900460ff16612899576040517f6ff36e1600000000000000000000000000000000000000000000000000000000815260040160405180910390fd5b600083036128d3576040517f65c7efcc00000000000000000000000000000000000000000000000000000000815260040160405180910390fd5b80600201544210612910576040517f553ae05400000000000000000000000000000000000000000000000000000000815260040160405180910390fd5b8060050160009054906101000a900460ff1615612959576040517ff30bb8af00000000000000000000000000000000000000000000000000000000815260040160405180910390fd5b826005600087815260200190815260200160002060008673ffffffffffffffffffffffffffffffffffffffff1673ffffffffffffffffffffffffffffffffffffffff16815260200190815260200160002060008282546129b9919061345b565b92505081905550828160030160008282546129d4919061345b565b92505081905550806003015481600401819055508060010154816003015410612a155760018160050160006101000a81548160ff0219169083151502179055505b82600660008781526020019081526020016000206000828254612a38919061345b565b92505081905550848473ffffffffffffffffffffffffffffffffffffffff167f13b6f2136ffc494c97353c1a45f1345b7cf9e18d3631acec99aeea45f338f4c48585604051612a88929190613321565b60405180910390a35050505050565b6001600081905550565b600080fd5b600080fd5b600061ffff82169050919050565b612ac281612aab565b8114612acd57600080fd5b50565b600081359050612adf81612ab9565b92915050565b600080fd5b600080fd5b600080fd5b60008083601f840112612b0a57612b09612ae5565b5b8235905067ffffffffffffffff811115612b2757612b26612aea565b5b602083019150836001820283011115612b4357612b42612aef565b5b9250929050565b600067ffffffffffffffff82169050919050565b612b6781612b4a565b8114612b7257600080fd5b50565b600081359050612b8481612b5e565b92915050565b60008060008060008060808789031215612ba757612ba6612aa1565b5b6000612bb589828a01612ad0565b965050602087013567ffffffffffffffff811115612bd657612bd5612aa6565b5b612be289828a01612af4565b95509550506040612bf589828a01612b75565b935050606087013567ffffffffffffffff811115612c1657612c15612aa6565b5b612c2289828a01612af4565b92509250509295509295509295565b6000819050919050565b612c4481612c31565b8114612c4f57600080fd5b50565b600081359050612c6181612c3b565b92915050565b600060208284031215612c7d57612c7c612aa1565b5b6000612c8b84828501612c52565b91505092915050565b600073ffffffffffffffffffffffffffffffffffffffff82169050919050565b6000612cbf82612c94565b9050919050565b612ccf81612cb4565b82525050565b612cde81612c31565b82525050565b60008115159050919050565b612cf981612ce4565b82525050565b600061016082019050612d15600083018e612cc6565b612d22602083018d612cd5565b612d2f604083018c612cd5565b612d3c606083018b612cd5565b612d49608083018a612cd5565b612d5660a0830189612cf0565b612d6360c0830188612cf0565b612d7060e0830187612cf0565b612d7e610100830186612cf0565b612d8c610120830185612cf0565b612d9a610140830184612cf0565b9c9b505050505050505050505050565b60008060408385031215612dc157612dc0612aa1565b5b6000612dcf85828601612c52565b9250506020612de085828601612c52565b9150509250929050565b6000602082019050612dff6000830184612cd5565b92915050565b612e0e81612cb4565b8114612e1957600080fd5b50565b600081359050612e2b81612e05565b92915050565b60008060408385031215612e4857612e47612aa1565b5b6000612e5685828601612c52565b9250506020612e6785828601612e1c565b9150509250929050565b6000602082019050612e866000830184612cc6565b92915050565b600060208284031215612ea257612ea1612aa1565b5b6000612eb084828501612ad0565b91505092915050565b600081519050919050565b600082825260208201905092915050565b60005b83811015612ef3578082015181840152602081019050612ed8565b60008484015250505050565b6000601f19601f8301169050919050565b6000612f1b82612eb9565b612f258185612ec4565b9350612f35818560208601612ed5565b612f3e81612eff565b840191505092915050565b60006020820190508181036000830152612f638184612f10565b905092915050565b600080600060408486031215612f8457612f83612aa1565b5b6000612f9286828701612ad0565b935050602084013567ffffffffffffffff811115612fb357612fb2612aa6565b5b612fbf86828701612af4565b92509250509250925092565b600060208284031215612fe157612fe0612aa1565b5b6000612fef84828501612e1c565b91505092915050565b600082825260208201905092915050565b7f496e76616c696420656e64706f696e7400000000000000000000000000000000600082015250565b600061303f601083612ff8565b915061304a82613009565b602082019050919050565b6000602082019050818103600083015261306e81613032565b9050919050565b7f4e487b7100000000000000000000000000000000000000000000000000000000600052602260045260246000fd5b600060028204905060018216806130bc57607f821691505b6020821081036130cf576130ce613075565b5b50919050565b600081905092915050565b82818337600083830152505050565b60006130fb83856130d5565b93506131088385846130e0565b82840190509392505050565b60006131218284866130ef565b91508190509392505050565b7f556e747275737465642072656d6f746500000000000000000000000000000000600082015250565b6000613163601083612ff8565b915061316e8261312d565b602082019050919050565b6000602082019050818103600083015261319281613156565b9050919050565b60006131a482612c94565b9050919050565b6131b481613199565b81146131bf57600080fd5b50565b6000813590506131d1816131ab565b92915050565b600080600080608085870312156131f1576131f0612aa1565b5b60006131ff87828801612c52565b9450506020613210878288016131c2565b935050604061322187828801612c52565b925050606061323287828801612c52565b91505092959194509250565b7f4d69736d61746368656420627269646765642076616c75650000000000000000600082015250565b6000613274601883612ff8565b915061327f8261323e565b602082019050919050565b600060208201905081810360008301526132a381613267565b9050919050565b7f4e487b7100000000000000000000000000000000000000000000000000000000600052601160045260246000fd5b60006132e482612c31565b91507fffffffffffffffffffffffffffffffffffffffffffffffffffffffffffffffff8203613316576133156132aa565b5b600182019050919050565b60006040820190506133366000830185612cd5565b6133436020830184612cd5565b9392505050565b600061335582612c31565b915061336083612c31565b9250828203905081811115613378576133776132aa565b5b92915050565b600061338982612c31565b915061339483612c31565b92508282026133a281612c31565b915082820484148315176133b9576133b86132aa565b5b5092915050565b7f4e487b7100000000000000000000000000000000000000000000000000000000600052601260045260246000fd5b60006133fa82612c31565b915061340583612c31565b925082613415576134146133c0565b5b828204905092915050565b50565b60006134306000836130d5565b915061343b82613420565b600082019050919050565b600061345182613423565b9150819050919050565b600061346682612c31565b915061347183612c31565b9250828201905080821115613489576134886132aa565b5b92915050565b7f4e6f2066756e6473000000000000000000000000000000000000000000000000600082015250565b60006134c5600883612ff8565b91506134d08261348f565b602082019050919050565b600060208201905081810360008301526134f4816134b8565b9050919050565b600060a0820190506135106000830188612cd5565b61351d6020830187612cd5565b61352a6040830186612cd5565b6135376060830185612cd5565b6135446080830184612cd5565b9695505050505050565b7f4e6f74206f776e65720000000000000000000000000000000000000000000000600082015250565b6000613584600983612ff8565b915061358f8261354e565b602082019050919050565b600060208201905081810360008301526135b381613577565b9050919050565b600082905092915050565b7f4e487b7100000000000000000000000000000000000000000000000000000000600052604160045260246000fd5b60008190508160005260206000209050919050565b60006020601f8301049050919050565b600082821b905092915050565b6000600883026136567fffffffffffffffffffffffffffffffffffffffffffffffffffffffffffffffff82613619565b6136608683613619565b95508019841693508086168417925050509392505050565b6000819050919050565b600061369d61369861369384612c31565b613678565b612c31565b9050919050565b6000819050919050565b6136b783613682565b6136cb6136c3826136a4565b848454613626565b825550505050565b600090565b6136e06136d3565b6136eb8184846136ae565b505050565b5b8181101561370f576137046000826136d8565b6001810190506136f1565b5050565b601f82111561375457613725816135f4565b61372e84613609565b8101602085101561373d578190505b61375161374985613609565b8301826136f0565b50505b505050565b600082821c905092915050565b600061377760001984600802613759565b1980831691505092915050565b60006137908383613766565b9150826002028217905092915050565b6137aa83836135ba565b67ffffffffffffffff8111156137c3576137c26135c5565b5b6137cd82546130a4565b6137d8828285613713565b6000601f83116001811461380757600084156137f5578287013590505b6137ff8582613784565b865550613867565b601f198416613815866135f4565b60005b8281101561383d57848901358255600182019150602085019450602081019050613818565b8683101561385a5784890135613856601f891682613766565b8355505b6001600288020188555050505b50505050505050565b7f5a65726f206f776e657200000000000000000000000000000000000000000000600082015250565b60006138a6600a83612ff8565b91506138b182613870565b602082019050919050565b600060208201905081810360008301526138d581613899565b9050919050565b7f5265656e7472616e637947756172643a207265656e7472616e742063616c6c00600082015250565b6000613912601f83612ff8565b915061391d826138dc565b602082019050919050565b6000602082019050818103600083015261394181613905565b905091905056fea2646970667358221220c3b221753b82f9dbb5c5903638aa2e95c939f7ad2b74f42145a52f244bf795b664736f6c63430008140033",
  "linkReferences": {},
  "deployedLinkReferences": {}
}