{
  "_format": "hh-sol-artifact-1",
  "contractName": "PlatformConfig",
  "sourceName": "contracts/PlatformConfig.sol",
  "abi": [
    {
      "inputs": [
        {
          "internalType": "address",
          "name": "initialOwner",
          "type": "address"
        }
      ],
      "stateMutability": "nonpayable",
      "type": "constructor"
    },
    {
      "anonymous": false,
      "inputs": [
        {
          "indexed": true,
          "internalType": "bytes32",
          "name": "key",
          "type": "bytes32"
        },
        {
          "indexed": false,
          "internalType": "address",
          "name": "value",
          "type": "address"
        }
      ],
      "name": "AddressParamSet",
      "type": "event"
    },
    {
      "anonymous": false,
      "inputs": [
        {
          "indexed": true,
          "internalType": "bytes32",
          "name": "key",
          "type": "bytes32"
        },
        {
          "indexed": false,
          "internalType": "bool",
          "name": "value",
          "type": "bool"
        }
      ],
      "name": "BoolParamSet",
      "type": "event"
    },
    {
      "anonymous": false,
      "inputs": [
        {
          "indexed": true,
          "internalType": "address",
          "name": "previousOwner",
          "type": "address"
        },
        {
          "indexed": true,
          "internalType": "address",
          "name": "newOwner",
          "type": "address"
        }
      ],
      "name": "OwnershipTransferred",
      "type": "event"
    },
    {
      "anonymous": false,
      "inputs": [
        {
          "indexed": true,
          "internalType": "bytes32",
          "name": "key",
          "type": "bytes32"
        },
        {
          "indexed": false,
          "internalType": "uint256",
          "name": "value",
          "type": "uint256"
        }
      ],
      "name": "UintParamSet",
      "type": "event"
    },
    {
      "inputs": [
        {
          "internalType": "bytes32",
          "name": "",
          "type": "bytes32"
        }
      ],
      "name": "addressParams",
      "outputs": [
        {
          "internalType": "address",
          "name": "",
          "type": "address"
        }
      ],
      "stateMutability": "view",
      "type": "function"
    },
    {
      "inputs": [
        {
          "internalType": "bytes32",
          "name": "",
          "type": "bytes32"
        }
      ],
      "name": "boolParams",
      "outputs": [
        {
          "internalType": "bool",
          "name": "",
          "type": "bool"
        }
      ],
      "stateMutability": "view",
      "type": "function"
    },
    {
      "inputs": [],
      "name": "owner",
      "outputs": [
        {
          "internalType": "address",
          "name": "",
          "type": "address"
        }
      ],
      "stateMutability": "view",
      "type": "function"
    },
    {
      "inputs": [],
      "name": "renounceOwnership",
      "outputs": [],
      "stateMutability": "nonpayable",
      "type": "function"
    },
    {
      "inputs": [
        {
          "internalType": "bytes32",
          "name": "key",
          "type": "bytes32"
        },
        {
          "internalType": "address",
          "name": "value",
          "type": "address"
        }
      ],
      "name": "setAddress",
      "outputs": [],
      "stateMutability": "nonpayable",
      "type": "function"
    },
    {
      "inputs": [
        {
          "internalType": "bytes32",
          "name": "key",
          "type": "bytes32"
        },
        {
          "internalType": "bool",
          "name": "value",
          "type": "bool"
        }
      ],
      "name": "setBool",
      "outputs": [],
      "stateMutability": "nonpayable",
      "type": "function"
    },
    {
      "inputs": [
        {
          "internalType": "bytes32",
          "name": "key",
          "type": "bytes32"
        },
        {
          "internalType": "uint256",
          "name": "value",
          "type": "uint256"
        }
      ],
      "name": "setUint",
      "outputs": [],
      "stateMutability": "nonpayable",
      "type": "function"
    },
    {
      "inputs": [
        {
          "internalType": "address",
          "name": "newOwner",
          "type": "address"
        }
      ],
      "name": "transferOwnership",
      "outputs": [],
      "stateMutability": "nonpayable",
      "type": "function"
    },
    {
      "inputs": [
        {
          "internalType": "bytes32",
          "name": "",
          "type": "bytes32"
        }
      ],
      "name": "uintParams",
      "outputs": [
        {
          "internalType": "uint256",
          "name": "",
          "type": "uint256"
        }
      ],
      "stateMutability": "view",
      "type": "function"
    }
  ],
  "bytecode": "0x60806040523480156200001157600080fd5b5060405162000e1038038062000e10833981810160405281019062000037919062000339565b620000576200004b620000b360201b60201c565b620000bb60201b60201c565b62000067620000b360201b60201c565b73ffffffffffffffffffffffffffffffffffffffff168173ffffffffffffffffffffffffffffffffffffffff1614620000ac57620000ab816200017f60201b60201c565b5b5062000486565b600033905090565b60008060009054906101000a900473ffffffffffffffffffffffffffffffffffffffff169050816000806101000a81548173ffffffffffffffffffffffffffffffffffffffff021916908373ffffffffffffffffffffffffffffffffffffffff1602179055508173ffffffffffffffffffffffffffffffffffffffff168173ffffffffffffffffffffffffffffffffffffffff167f8be0079c531659141344cd1fd0a4f28419497f9722a3daafe3b4186f6b6457e060405160405180910390a35050565b6200018f6200021560201b60201c565b600073ffffffffffffffffffffffffffffffffffffffff168173ffffffffffffffffffffffffffffffffffffffff160362000201576040517f08c379a0000000000000000000000000000000000000000000000000000000008152600401620001f890620003f2565b60405180910390fd5b6200021281620000bb60201b60201c565b50565b62000225620000b360201b60201c565b73ffffffffffffffffffffffffffffffffffffffff166200024b620002a660201b60201c565b73ffffffffffffffffffffffffffffffffffffffff1614620002a4576040517f08c379a00000000000000000000000000000000000000000000000000000000081526004016200029b9062000464565b60405180910390fd5b565b60008060009054906101000a900473ffffffffffffffffffffffffffffffffffffffff16905090565b600080fd5b600073ffffffffffffffffffffffffffffffffffffffff82169050919050565b60006200030182620002d4565b9050919050565b6200031381620002f4565b81146200031f57600080fd5b50565b600081519050620003338162000308565b92915050565b600060208284031215620003525762000351620002cf565b5b6000620003628482850162000322565b91505092915050565b600082825260208201905092915050565b7f4f776e61626c653a206e6577206f776e657220697320746865207a65726f206160008201527f6464726573730000000000000000000000000000000000000000000000000000602082015250565b6000620003da6026836200036b565b9150620003e7826200037c565b604082019050919050565b600060208201905081810360008301526200040d81620003cb565b9050919050565b7f4f776e61626c653a2063616c6c6572206973206e6f7420746865206f776e6572600082015250565b60006200044c6020836200036b565b9150620004598262000414565b602082019050919050565b600060208201905081810360008301526200047f816200043d565b9050919050565b61097a80620004966000396000f3fe608060405234801561001057600080fd5b50600436106100935760003560e01c8063abfdcced11610066578063abfdcced14610120578063ba9022b21461013c578063ca446dd91461016c578063e2a4853a14610188578063f2fde38b146101a457610093565b806323e2b10114610098578063715018a6146100c85780638da5cb5b146100d2578063a3af8c0e146100f0575b600080fd5b6100b260048036038101906100ad91906105d1565b6101c0565b6040516100bf919061063f565b60405180910390f35b6100d06101f3565b005b6100da610207565b6040516100e7919061063f565b60405180910390f35b61010a600480360381019061010591906105d1565b610230565b6040516101179190610675565b60405180910390f35b61013a600480360381019061013591906106bc565b610250565b005b610156600480360381019061015191906105d1565b6102bf565b6040516101639190610715565b60405180910390f35b6101866004803603810190610181919061075c565b6102d7565b005b6101a2600480360381019061019d91906107c8565b61036d565b005b6101be60048036038101906101b99190610808565b6103c9565b005b60026020528060005260406000206000915054906101000a900473ffffffffffffffffffffffffffffffffffffffff1681565b6101fb61044c565b61020560006104ca565b565b60008060009054906101000a900473ffffffffffffffffffffffffffffffffffffffff16905090565b60036020528060005260406000206000915054906101000a900460ff1681565b61025861044c565b806003600084815260200190815260200160002060006101000a81548160ff021916908315150217905550817f286759162494b252df56cff80505b51fa8db486c6350a93ad822daa464ec53e8826040516102b39190610675565b60405180910390a25050565b60016020528060005260406000206000915090505481565b6102df61044c565b806002600084815260200190815260200160002060006101000a81548173ffffffffffffffffffffffffffffffffffffffff021916908373ffffffffffffffffffffffffffffffffffffffff160217905550817fec93b89feef9a59a2c2fcad6f251a5b07702a038be9c2f7ee439b250332b951082604051610361919061063f565b60405180910390a25050565b61037561044c565b806001600084815260200190815260200160002081905550817fc36e934c33e10b43978c57418b13ebb85f1001d08b2cff197281e8719bbb57a3826040516103bd9190610715565b60405180910390a25050565b6103d161044c565b600073ffffffffffffffffffffffffffffffffffffffff168173ffffffffffffffffffffffffffffffffffffffff1603610440576040517f08c379a0000000000000000000000000000000000000000000000000000000008152600401610437906108b8565b60405180910390fd5b610449816104ca565b50565b61045461058e565b73ffffffffffffffffffffffffffffffffffffffff16610472610207565b73ffffffffffffffffffffffffffffffffffffffff16146104c8576040517f08c379a00000000000000000000000000000000000000000000000000000000081526004016104bf90610924565b60405180910390fd5b565b60008060009054906101000a900473ffffffffffffffffffffffffffffffffffffffff169050816000806101000a81548173ffffffffffffffffffffffffffffffffffffffff021916908373ffffffffffffffffffffffffffffffffffffffff1602179055508173ffffffffffffffffffffffffffffffffffffffff168173ffffffffffffffffffffffffffffffffffffffff167f8be0079c531659141344cd1fd0a4f28419497f9722a3daafe3b4186f6b6457e060405160405180910390a35050565b600033905090565b600080fd5b6000819050919050565b6105ae8161059b565b81146105b957600080fd5b50565b6000813590506105cb816105a5565b92915050565b6000602082840312156105e7576105e6610596565b5b60006105f5848285016105bc565b91505092915050565b600073ffffffffffffffffffffffffffffffffffffffff82169050919050565b6000610629826105fe565b9050919050565b6106398161061e565b82525050565b60006020820190506106546000830184610630565b92915050565b60008115159050919050565b61066f8161065a565b82525050565b600060208201905061068a6000830184610666565b92915050565b6106998161065a565b81146106a457600080fd5b50565b6000813590506106b681610690565b92915050565b600080604083850312156106d3576106d2610596565b5b60006106e1858286016105bc565b92505060206106f2858286016106a7565b9150509250929050565b6000819050919050565b61070f816106fc565b82525050565b600060208201905061072a6000830184610706565b92915050565b6107398161061e565b811461074457600080fd5b50565b60008135905061075681610730565b92915050565b6000806040838503121561077357610772610596565b5b6000610781858286016105bc565b925050602061079285828601610747565b9150509250929050565b6107a5816106fc565b81146107b057600080fd5b50565b6000813590506107c28161079c565b92915050565b600080604083850312156107df576107de610596565b5b60006107ed858286016105bc565b92505060206107fe858286016107b3565b9150509250929050565b60006020828403121561081e5761081d610596565b5b600061082c84828501610747565b91505092915050565b600082825260208201905092915050565b7f4f776e61626c653a206e6577206f776e657220697320746865207a65726f206160008201527f6464726573730000000000000000000000000000000000000000000000000000602082015250565b60006108a2602683610835565b91506108ad82610846565b604082019050919050565b600060208201905081810360008301526108d181610895565b9050919050565b7f4f776e61626c653a2063616c6c6572206973206e6f7420746865206f776e6572600082015250565b600061090e602083610835565b9150610919826108d8565b602082019050919050565b6000602082019050818103600083015261093d81610901565b905091905056fea2646970667358221220c0243e2a65209902def57de881e6ca5dbb26e45bce5115e82f2ef143f4a98d7d64736f6c63430008140033",
  "linkReferences": {},
  "deployedLinkReferences": {}
}