{
  "_format": "hh-sol-artifact-1",
  "contractName": "CampaignFactory",
  "sourceName": "contracts/CampaignFactory.sol",
  "abi": [
    {
      "inputs": [],
      "name": "InvalidDeadline",
      "type": "error"
    },
    {
      "inputs": [],
      "name": "InvalidGoal",
      "type": "error"
    },
    {
      "anonymous": false,
      "inputs": [
        {
          "indexed": true,
          "internalType": "address",
          "name": "campaign",
          "type": "address"
        },
        {
          "indexed": true,
          "internalType": "address",
          "name": "creator",
          "type": "address"
        },
        {
          "indexed": false,
          "internalType": "uint256",
          "name": "goal",
          "type": "uint256"
        },
        {
          "indexed": false,
          "internalType": "uint256",
          "name": "deadline",
          "type": "uint256"
        }
      ],
      "name": "CampaignCreated",
      "type": "event"
    },
    {
      "inputs": [
        {
          "internalType": "uint256",
          "name": "",
          "type": "uint256"
        }
      ],
      "name": "campaigns",
      "outputs": [
        {
          "internalType": "contract Campaign",
          "name": "",
          "type": "address"
        }
      ],
      "stateMutability": "view",
      "type": "function"
    },
    {
      "inputs": [
        {
          "internalType": "uint256",
          "name": "_goal",
          "type": "uint256"
        },
        {
          "internalType": "uint256",
          "name": "_deadline",
          "type": "uint256"
        }
      ],
      "name": "createCampaign",
      "outputs": [
        {
          "internalType": "address",
          "name": "",
          "type": "address"
        }
      ],
      "stateMutability": "nonpayable",
      "type": "function"
    },
    {
      "inputs": [],
      "name": "getCampaigns",
      "outputs": [
        {
          "internalType": "address[]",
          "name": "",
          "type": "address[]"
        }
      ],
      "stateMutability": "view",
      "type": "function"
    }
  ],
  "bytecode": "0x608060405234801561001057600080fd5b5061185e806100206000396000f3fe608060405234801561001057600080fd5b50600436106100415760003560e01c8063141961bc146100465780632250226814610076578063a6b03633146100a6575b600080fd5b610060600480360381019061005b91906103d9565b6100c4565b60405161006d9190610485565b60405180910390f35b610090600480360381019061008b91906104a0565b610103565b60405161009d9190610501565b60405180910390f35b6100ae610287565b6040516100bb91906105da565b60405180910390f35b600081815481106100d457600080fd5b906000526020600020016000915054906101000a900473ffffffffffffffffffffffffffffffffffffffff1681565b600080830361013e576040517f9b60eb4d00000000000000000000000000000000000000000000000000000000815260040160405180910390fd5b428211610177576040517f769d11e400000000000000000000000000000000000000000000000000000000815260040160405180910390fd5b600033848460405161018890610391565b6101949392919061060b565b604051809103906000f0801580156101b0573d6000803e3d6000fd5b5090506000819080600181540180825580915050600190039060005260206000200160009091909190916101000a81548173ffffffffffffffffffffffffffffffffffffffff021916908373ffffffffffffffffffffffffffffffffffffffff1602179055503373ffffffffffffffffffffffffffffffffffffffff168173ffffffffffffffffffffffffffffffffffffffff167ffe76983af97e70cb1d5a3f3b21250c6bd2b5b9216dd3829a1cdab060e17ab15b8686604051610275929190610642565b60405180910390a38091505092915050565b60606000808054905067ffffffffffffffff8111156102a9576102a861066b565b5b6040519080825280602002602001820160405280156102d75781602001602082028036833780820191505090505b50905060005b60008054905081101561038957600081815481106102fe576102fd61069a565b5b9060005260206000200160009054906101000a900473ffffffffffffffffffffffffffffffffffffffff1682828151811061033c5761033b61069a565b5b602002602001019073ffffffffffffffffffffffffffffffffffffffff16908173ffffffffffffffffffffffffffffffffffffffff16815250508080610381906106f8565b9150506102dd565b508091505090565b6110e88061074183390190565b600080fd5b6000819050919050565b6103b6816103a3565b81146103c157600080fd5b50565b6000813590506103d3816103ad565b92915050565b6000602082840312156103ef576103ee61039e565b5b60006103fd848285016103c4565b91505092915050565b600073ffffffffffffffffffffffffffffffffffffffff82169050919050565b6000819050919050565b600061044b61044661044184610406565b610426565b610406565b9050919050565b600061045d82610430565b9050919050565b600061046f82610452565b9050919050565b61047f81610464565b82525050565b600060208201905061049a6000830184610476565b92915050565b600080604083850312156104b7576104b661039e565b5b60006104c5858286016103c4565b92505060206104d6858286016103c4565b9150509250929050565b60006104eb82610406565b9050919050565b6104fb816104e0565b82525050565b600060208201905061051660008301846104f2565b92915050565b600081519050919050565b600082825260208201905092915050565b6000819050602082019050919050565b610551816104e0565b82525050565b60006105638383610548565b60208301905092915050565b6000602082019050919050565b60006105878261051c565b6105918185610527565b935061059c83610538565b8060005b838110156105cd5781516105b48882610557565b97506105bf8361056f565b9250506001810190506105a0565b5085935050505092915050565b600060208201905081810360008301526105f4818461057c565b905092915050565b610605816103a3565b82525050565b600060608201905061062060008301866104f2565b61062d60208301856105fc565b61063a60408301846105fc565b949350505050565b600060408201905061065760008301856105fc565b61066460208301846105fc565b9392505050565b7f4e487b7100000000000000000000000000000000000000000000000000000000600052604160045260246000fd5b7f4e487b7100000000000000000000000000000000000000000000000000000000600052603260045260246000fd5b7f4e487b7100000000000000000000000000000000000000000000000000000000600052601160045260246000fd5b6000610703826103a3565b91507fffffffffffffffffffffffffffffffffffffffffffffffffffffffffffffffff8203610735576107346106c9565b5b60018201905091905056fe60806040523480156200001157600080fd5b50604051620010e8380380620010e883398181016040528101906200003791906200013c565b600160008190555082600160006101000a81548173ffffffffffffffffffffffffffffffffffffffff021916908373ffffffffffffffffffffffffffffffffffffffff160217905550816002819055508060038190555050505062000198565b600080fd5b600073ffffffffffffffffffffffffffffffffffffffff82169050919050565b6000620000c9826200009c565b9050919050565b620000db81620000bc565b8114620000e757600080fd5b50565b600081519050620000fb81620000d0565b92915050565b6000819050919050565b620001168162000101565b81146200012257600080fd5b50565b60008151905062000136816200010b565b92915050565b60008060006060848603121562000158576200015762000097565b5b60006200016886828701620000ea565b93505060206200017b8682870162000125565b92505060406200018e8682870162000125565b9150509250925092565b610f4080620001a86000396000f3fe6080604052600436106100ab5760003560e01c806342e94c901161006457806342e94c90146101ed578063590e1ae31461022a578063597e1fb5146102415780637d3d65221461026c578063ac307fcf14610297578063d7bb99ba146102c25761010e565b8063023f41471461011357806302d05d3f1461013e57806324600fc31461016957806329dcb0cf146101805780633ccfd60b146101ab57806340193883146101c25761010e565b3661010e573073ffffffffffffffffffffffffffffffffffffffff1663d7bb99ba346040518263ffffffff1660e01b81526004016000604051808303818588803b1580156100f857600080fd5b505af115801561010c573d6000803e3d6000fd5b005b600080fd5b34801561011f57600080fd5b506101286102cc565b6040516101359190610d22565b60405180910390f35b34801561014a57600080fd5b506101536102d2565b6040516101609190610d7e565b60405180910390f35b34801561017557600080fd5b5061017e6102f8565b005b34801561018c57600080fd5b50610195610575565b6040516101a29190610d22565b60405180910390f35b3480156101b757600080fd5b506101c061057b565b005b3480156101ce57600080fd5b506101d76107f8565b6040516101e49190610d22565b60405180910390f35b3480156101f957600080fd5b50610214600480360381019061020f9190610dca565b6107fe565b6040516102219190610d22565b60405180910390f35b34801561023657600080fd5b5061023f610816565b005b34801561024d57600080fd5b50610256610a4c565b6040516102639190610e12565b60405180910390f35b34801561027857600080fd5b50610281610a5f565b60405161028e9190610e12565b60405180910390f35b3480156102a357600080fd5b506102ac610a6e565b6040516102b99190610e12565b60405180910390f35b6102ca610a81565b005b60045481565b600160009054906101000a900473ffffffffffffffffffffffffffffffffffffffff1681565b610300610cb9565b600160009054906101000a900473ffffffffffffffffffffffffffffffffffffffff1673ffffffffffffffffffffffffffffffffffffffff163373ffffffffffffffffffffffffffffffffffffffff1614610387576040517f93687c0b00000000000000000000000000000000000000000000000000000000815260040160405180910390fd5b600560009054906101000a900460ff166103cd576040517f78c754c900000000000000000000000000000000000000000000000000000000815260040160405180910390fd5b600560019054906101000a900460ff1615610414576040517f6507689f00000000000000000000000000000000000000000000000000000000815260040160405180910390fd5b60004790506001600560016101000a81548160ff0219169083151502179055506000600160009054906101000a900473ffffffffffffffffffffffffffffffffffffffff1673ffffffffffffffffffffffffffffffffffffffff168260405161047c90610e5e565b60006040518083038185875af1925050503d80600081146104b9576040519150601f19603f3d011682016040523d82523d6000602084013e6104be565b606091505b50509050806104f9576040517f90b8ec1800000000000000000000000000000000000000000000000000000000815260040160405180910390fd5b600160009054906101000a900473ffffffffffffffffffffffffffffffffffffffff1673ffffffffffffffffffffffffffffffffffffffff167f7fcf532c15f0a6db0bd6d0e038bea71d30d808c7d98cb3bf7268a95bf5081b65836040516105619190610d22565b60405180910390a25050610573610cff565b565b60035481565b610583610cb9565b600160009054906101000a900473ffffffffffffffffffffffffffffffffffffffff1673ffffffffffffffffffffffffffffffffffffffff163373ffffffffffffffffffffffffffffffffffffffff161461060a576040517f93687c0b00000000000000000000000000000000000000000000000000000000815260040160405180910390fd5b600560009054906101000a900460ff16610650576040517f78c754c900000000000000000000000000000000000000000000000000000000815260040160405180910390fd5b600560019054906101000a900460ff1615610697576040517f6507689f00000000000000000000000000000000000000000000000000000000815260040160405180910390fd5b60004790506001600560016101000a81548160ff0219169083151502179055506000600160009054906101000a900473ffffffffffffffffffffffffffffffffffffffff1673ffffffffffffffffffffffffffffffffffffffff16826040516106ff90610e5e565b60006040518083038185875af1925050503d806000811461073c576040519150601f19603f3d011682016040523d82523d6000602084013e610741565b606091505b505090508061077c576040517f90b8ec1800000000000000000000000000000000000000000000000000000000815260040160405180910390fd5b600160009054906101000a900473ffffffffffffffffffffffffffffffffffffffff1673ffffffffffffffffffffffffffffffffffffffff167f7fcf532c15f0a6db0bd6d0e038bea71d30d808c7d98cb3bf7268a95bf5081b65836040516107e49190610d22565b60405180910390a250506107f6610cff565b565b60025481565b60066020528060005260406000206000915090505481565b61081e610cb9565b6003544210801561083c5750600560009054906101000a900460ff16155b15610873576040517f78c754c900000000000000000000000000000000000000000000000000000000815260040160405180910390fd5b6000600660003373ffffffffffffffffffffffffffffffffffffffff1673ffffffffffffffffffffffffffffffffffffffff168152602001908152602001600020549050600081036108f1576040517f65c7efcc00000000000000000000000000000000000000000000000000000000815260040160405180910390fd5b6000600660003373ffffffffffffffffffffffffffffffffffffffff1673ffffffffffffffffffffffffffffffffffffffff1681526020019081526020016000208190555080600460008282546109489190610ea2565b9250508190555060003373ffffffffffffffffffffffffffffffffffffffff168260405161097590610e5e565b60006040518083038185875af1925050503d80600081146109b2576040519150601f19603f3d011682016040523d82523d6000602084013e6109b7565b606091505b50509050806109f2576040517f90b8ec1800000000000000000000000000000000000000000000000000000000815260040160405180910390fd5b3373ffffffffffffffffffffffffffffffffffffffff167fbb28353e4598c3b9199101a66e0989549b659a59a54d2c27fbb183f1932c8e6d83604051610a389190610d22565b60405180910390a25050610a4a610cff565b565b600560009054906101000a900460ff1681565b60006002546004541015905090565b600560019054906101000a900460ff1681565b610a89610cb9565b60003403610ac3576040517fab82a24800000000000000000000000000000000000000000000000000000000815260040160405180910390fd5b6003544210610afe576040517f553ae05400000000000000000000000000000000000000000000000000000000815260040160405180910390fd5b600560009054906101000a900460ff1615610b45576040517ff30bb8af00000000000000000000000000000000000000000000000000000000815260040160405180910390fd5b34600660003373ffffffffffffffffffffffffffffffffffffffff1673ffffffffffffffffffffffffffffffffffffffff1681526020019081526020016000206000828254610b949190610ed6565b925050819055503460046000828254610bad9190610ed6565b9250508190555060025460045410610c13576001600560006101000a81548160ff0219169083151502179055507f62bb2c2be703269b4efd105a54be058929a0a5b858f6776ad7b341a7bf3e88586001604051610c0a9190610e12565b60405180910390a15b3373ffffffffffffffffffffffffffffffffffffffff167f62722348256371b5147820d6cad90c40fd2da1ccee18c3ed52c0bca5a61dbbab34604051610c599190610d22565b60405180910390a23373ffffffffffffffffffffffffffffffffffffffff167f1bb460ccaaf70fbacfec17a376f8acbd278c1405590ffcc8ebe4b88daf4f64ad34604051610ca79190610d22565b60405180910390a2610cb7610cff565b565b600260005403610cf5576040517f3ee5aeb500000000000000000000000000000000000000000000000000000000815260040160405180910390fd5b6002600081905550565b6001600081905550565b6000819050919050565b610d1c81610d09565b82525050565b6000602082019050610d376000830184610d13565b92915050565b600073ffffffffffffffffffffffffffffffffffffffff82169050919050565b6000610d6882610d3d565b9050919050565b610d7881610d5d565b82525050565b6000602082019050610d936000830184610d6f565b92915050565b600080fd5b610da781610d5d565b8114610db257600080fd5b50565b600081359050610dc481610d9e565b92915050565b600060208284031215610de057610ddf610d99565b5b6000610dee84828501610db5565b91505092915050565b60008115159050919050565b610e0c81610df7565b82525050565b6000602082019050610e276000830184610e03565b92915050565b600081905092915050565b50565b6000610e48600083610e2d565b9150610e5382610e38565b600082019050919050565b6000610e6982610e3b565b9150819050919050565b7f4e487b7100000000000000000000000000000000000000000000000000000000600052601160045260246000fd5b6000610ead82610d09565b9150610eb883610d09565b9250828203905081811115610ed057610ecf610e73565b5b92915050565b6000610ee182610d09565b9150610eec83610d09565b9250828201905080821115610f0457610f03610e73565b5b9291505056fea264697066735822122014673cc3a0522a771f597e82fea062d78cc2a67d525022d9f0d8cd287a67a48464736f6c63430008140033a264697066735822122045ef4110e482ecd87a14f75043e7ff37ebe259145a3035a599f9b46fa4811da764736f6c63430008140033",
  "linkReferences": {},
  "deployedLinkReferences": {}
}